{
  "_format": "hh-sol-artifact-1",
  "contractName": "StakingFactoryV2Special",
  "sourceName": "contracts/hook/staking/StakingFactoryv2Special.sol",
  "abi": [
    {
      "inputs": [
        {
          "internalType": "address",
          "name": "_stakedTokenImplementation",
          "type": "address"
        }
      ],
      "stateMutability": "nonpayable",
      "type": "constructor"
    },
    {
      "inputs": [],
      "name": "AccessControlBadConfirmation",
      "type": "error"
    },
    {
      "inputs": [
        {
          "internalType": "address",
          "name": "account",
          "type": "address"
        },
        {
          "internalType": "bytes32",
          "name": "neededRole",
          "type": "bytes32"
        }
      ],
      "name": "AccessControlUnauthorizedAccount",
      "type": "error"
    },
    {
      "inputs": [],
      "name": "FailedDeployment",
      "type": "error"
    },
    {
      "inputs": [
        {
          "internalType": "uint256",
          "name": "balance",
          "type": "uint256"
        },
        {
          "internalType": "uint256",
          "name": "needed",
          "type": "uint256"
        }
      ],
      "name": "InsufficientBalance",
      "type": "error"
    },
    {
      "anonymous": false,
      "inputs": [
        {
          "indexed": true,
          "internalType": "bytes32",
          "name": "role",
          "type": "bytes32"
        },
        {
          "indexed": true,
          "internalType": "bytes32",
          "name": "previousAdminRole",
          "type": "bytes32"
        },
        {
          "indexed": true,
          "internalType": "bytes32",
          "name": "newAdminRole",
          "type": "bytes32"
        }
      ],
      "name": "RoleAdminChanged",
      "type": "event"
    },
    {
      "anonymous": false,
      "inputs": [
        {
          "indexed": true,
          "internalType": "bytes32",
          "name": "role",
          "type": "bytes32"
        },
        {
          "indexed": true,
          "internalType": "address",
          "name": "account",
          "type": "address"
        },
        {
          "indexed": true,
          "internalType": "address",
          "name": "sender",
          "type": "address"
        }
      ],
      "name": "RoleGranted",
      "type": "event"
    },
    {
      "anonymous": false,
      "inputs": [
        {
          "indexed": true,
          "internalType": "bytes32",
          "name": "role",
          "type": "bytes32"
        },
        {
          "indexed": true,
          "internalType": "address",
          "name": "account",
          "type": "address"
        },
        {
          "indexed": true,
          "internalType": "address",
          "name": "sender",
          "type": "address"
        }
      ],
      "name": "RoleRevoked",
      "type": "event"
    },
    {
      "anonymous": false,
      "inputs": [
        {
          "indexed": false,
          "internalType": "address",
          "name": "stakeToken",
          "type": "address"
        },
        {
          "indexed": true,
          "internalType": "address",
          "name": "depositToken",
          "type": "address"
        },
        {
          "indexed": false,
          "internalType": "uint256",
          "name": "supply",
          "type": "uint256"
        }
      ],
      "name": "StakedTokenCreated",
      "type": "event"
    },
    {
      "inputs": [],
      "name": "DEFAULT_ADMIN_ROLE",
      "outputs": [
        {
          "internalType": "bytes32",
          "name": "",
          "type": "bytes32"
        }
      ],
      "stateMutability": "view",
      "type": "function"
    },
    {
      "inputs": [],
      "name": "DEPLOYER_ROLE",
      "outputs": [
        {
          "internalType": "bytes32",
          "name": "",
          "type": "bytes32"
        }
      ],
      "stateMutability": "view",
      "type": "function"
    },
    {
      "inputs": [],
      "name": "MANAGER_ROLE",
      "outputs": [
        {
          "internalType": "bytes32",
          "name": "",
          "type": "bytes32"
        }
      ],
      "stateMutability": "view",
      "type": "function"
    },
    {
      "inputs": [
        {
          "internalType": "address",
          "name": "stakeableToken",
          "type": "address"
        },
        {
          "internalType": "address",
          "name": "orginalStakedToken",
          "type": "address"
        },
        {
          "internalType": "uint256",
          "name": "supply",
          "type": "uint256"
        }
      ],
      "name": "createStakedToken",
      "outputs": [
        {
          "internalType": "address",
          "name": "stakedToken",
          "type": "address"
        }
      ],
      "stateMutability": "nonpayable",
      "type": "function"
    },
    {
      "inputs": [
        {
          "internalType": "bytes32",
          "name": "role",
          "type": "bytes32"
        }
      ],
      "name": "getRoleAdmin",
      "outputs": [
        {
          "internalType": "bytes32",
          "name": "",
          "type": "bytes32"
        }
      ],
      "stateMutability": "view",
      "type": "function"
    },
    {
      "inputs": [
        {
          "internalType": "bytes32",
          "name": "role",
          "type": "bytes32"
        },
        {
          "internalType": "address",
          "name": "account",
          "type": "address"
        }
      ],
      "name": "grantRole",
      "outputs": [],
      "stateMutability": "nonpayable",
      "type": "function"
    },
    {
      "inputs": [
        {
          "internalType": "bytes32",
          "name": "role",
          "type": "bytes32"
        },
        {
          "internalType": "address",
          "name": "account",
          "type": "address"
        }
      ],
      "name": "hasRole",
      "outputs": [
        {
          "internalType": "bool",
          "name": "",
          "type": "bool"
        }
      ],
      "stateMutability": "view",
      "type": "function"
    },
    {
      "inputs": [
        {
          "internalType": "address",
          "name": "stakeableToken",
          "type": "address"
        }
      ],
      "name": "predictStakedTokenAddress",
      "outputs": [
        {
          "internalType": "address",
          "name": "",
          "type": "address"
        }
      ],
      "stateMutability": "view",
      "type": "function"
    },
    {
      "inputs": [
        {
          "internalType": "bytes32",
          "name": "role",
          "type": "bytes32"
        },
        {
          "internalType": "address",
          "name": "callerConfirmation",
          "type": "address"
        }
      ],
      "name": "renounceRole",
      "outputs": [],
      "stateMutability": "nonpayable",
      "type": "function"
    },
    {
      "inputs": [
        {
          "internalType": "bytes32",
          "name": "role",
          "type": "bytes32"
        },
        {
          "internalType": "address",
          "name": "account",
          "type": "address"
        }
      ],
      "name": "revokeRole",
      "outputs": [],
      "stateMutability": "nonpayable",
      "type": "function"
    },
    {
      "inputs": [
        {
          "internalType": "address",
          "name": "_stakedTokenImplementation",
          "type": "address"
        }
      ],
      "name": "setStakedTokenImplementation",
      "outputs": [],
      "stateMutability": "nonpayable",
      "type": "function"
    },
    {
      "inputs": [],
      "name": "stakedTokenImplementation",
      "outputs": [
        {
          "internalType": "address",
          "name": "",
          "type": "address"
        }
      ],
      "stateMutability": "view",
      "type": "function"
    },
    {
      "inputs": [
        {
          "internalType": "bytes4",
          "name": "interfaceId",
          "type": "bytes4"
        }
      ],
      "name": "supportsInterface",
      "outputs": [
        {
          "internalType": "bool",
          "name": "",
          "type": "bool"
        }
      ],
      "stateMutability": "view",
      "type": "function"
    },
    {
      "inputs": [],
      "name": "teamRecipient",
      "outputs": [
        {
          "internalType": "address",
          "name": "",
          "type": "address"
        }
      ],
      "stateMutability": "view",
      "type": "function"
    },
    {
      "inputs": [
        {
          "internalType": "address",
          "name": "stakedToken",
          "type": "address"
        },
        {
          "internalType": "address",
          "name": "memberAddr",
          "type": "address"
        },
        {
          "internalType": "uint128",
          "name": "newUnits",
          "type": "uint128"
        }
      ],
      "name": "updateMemberUnits",
      "outputs": [],
      "stateMutability": "nonpayable",
      "type": "function"
    }
  ],
  "bytecode": "0x60803461008857601f610f6a38819003918201601f19168301916001600160401b0383118484101761008d5780849260209460405283398101031261008857516001600160a01b038116908190036100885761005a336100a3565b506100643361011f565b50600180546001600160a01b031916919091179055604051610d5290816101b88239f35b600080fd5b634e487b7160e01b600052604160045260246000fd5b6001600160a01b0381166000908152600080516020610f4a833981519152602052604090205460ff16610119576001600160a01b03166000818152600080516020610f4a83398151915260205260408120805460ff19166001179055339190600080516020610f0a8339815191528180a4600190565b50600090565b6001600160a01b0381166000908152600080516020610f2a833981519152602052604090205460ff16610119576001600160a01b03166000818152600080516020610f2a83398151915260205260408120805460ff191660011790553391907f241ecf16d79d0f8dbfb92cbc07fe17840425976cf0667f022fe9877caa831b0890600080516020610f0a8339815191529080a460019056fe608080604052600436101561001357600080fd5b600090813560e01c90816301ffc9a714610927575080630881dd4414610849578063248a9ca3146108135780632f2ff15d146107d257806336568abe1461077457806337259b7d1461074d57806337ad4d8b1461072657806391d14854146106df578063963a22ab14610688578063a217fddf1461066c578063d547741f14610622578063e9f126b91461020d578063ec87621c146101d2578063ecd00261146101975763ed1d1d2d146100c657600080fd5b3461018457606060031936011261018457806100e06109cb565b6100e86109e6565b604435916fffffffffffffffffffffffffffffffff8316809303610192576001600160a01b0390610117610a4e565b1690813b156101925760446001600160a01b039185809460405196879586947f1b16777700000000000000000000000000000000000000000000000000000000865216600485015260248401525af18015610187576101735750f35b8161017d916109fc565b6101845780f35b80fd5b6040513d84823e3d90fd5b505050fd5b503461018457806003193601126101845760206040517ffc425f2263d0df187444b70e47283d622c70181c5baebb1306a01edba1ce184c8152f35b503461018457806003193601126101845760206040517f241ecf16d79d0f8dbfb92cbc07fe17840425976cf0667f022fe9877caa831b088152f35b5034610184576060600319360112610184576102276109cb565b61022f6109e6565b6044356001600160a01b03604051602081019061029f8161029188856001600160a01b0360809216815260406020820152600760408201527f7370656369616c0000000000000000000000000000000000000000000000000060608201520190565b03601f1981018352826109fc565b5190206e5af43d82803e903d91602b57fd5bf37fffffffffffffffffffffffffffffffffff000000000000000000000000000000600154763d602d80600a3d3981f3363d3d373d3d3d363d7300000062ffffff8260881c1617895260781b16176020526037600987f5169283156105fa576001600160a01b0316916040517f23b872dd00000000000000000000000000000000000000000000000000000000815233600482015284602482015282604482015260208160648189885af180156105ef576105b7575b5084604051917f06fdde030000000000000000000000000000000000000000000000000000000083528183600481885afa92831561018757829361059b575b506103fb602b60405180957f4e6577205374616b65642000000000000000000000000000000000000000000060208301526103ea8151809260208686019101610c62565b81010301601f1981018552846109fc565b604051927f95d89b410000000000000000000000000000000000000000000000000000000084528284600481895afa93841561059057839461056c575b5061048d602560405180967f6e65777374000000000000000000000000000000000000000000000000000000602083015261047c8151809260208686019101610c62565b81010301601f1981018652856109fc565b863b15610568576104df916001600160a01b036104f160405196879586957f8f15b414000000000000000000000000000000000000000000000000000000008752608060048801526084870190610cf7565b90600319868303016024870152610cf7565b91886044850152166064830152038183885af1801561055d57916020956040927fe489f968758c307e573d2263f8e4cb50d4bc0fdfd04be105158a801573af90049461054d575b505081519085825286820152a2604051908152f35b81610557916109fc565b38610538565b6040513d87823e3d90fd5b8280fd5b6105899194503d8085833e61058181836109fc565b810190610c85565b9238610438565b6040513d85823e3d90fd5b6105b09193503d8084833e61058181836109fc565b91386103a6565b6020813d6020116105e7575b816105d0602093836109fc565b810103126105e357518015158114610367575b8580fd5b3d91506105c3565b6040513d88823e3d90fd5b6004857fb06ebf3d000000000000000000000000000000000000000000000000000000008152fd5b5034610184576040600319360112610184576106686004356106426109e6565b9061066361065e82600052600060205260016040600020015490565b610ad9565b610bd3565b5080f35b5034610184578060031936011261018457602090604051908152f35b5034610184576020600319360112610184576001600160a01b036106aa6109cb565b6106b2610a4e565b167fffffffffffffffffffffffff0000000000000000000000000000000000000000600154161760015580f35b50346101845760406003193601126101845760ff60406020926107006109e6565b60043582528185526001600160a01b038383209116825284522054166040519015158152f35b503461018457806003193601126101845760206001600160a01b0360025416604051908152f35b503461018457806003193601126101845760206001600160a01b0360015416604051908152f35b50346101845760406003193601126101845761078e6109e6565b336001600160a01b038216036107aa5761066890600435610bd3565b6004827f6697b232000000000000000000000000000000000000000000000000000000008152fd5b5034610184576040600319360112610184576106686004356107f26109e6565b9061080e61065e82600052600060205260016040600020015490565b610b39565b5034610184576020600319360112610184576020610841600435600052600060205260016040600020015490565b604051908152f35b50346101845760206003193601126101845760206001600160a01b03605560436108716109cb565b6040516108c68161029188820194856001600160a01b0360809216815260406020820152600760408201527f7370656369616c0000000000000000000000000000000000000000000000000060608201520190565b519020836001541690604051913060388401526f5af43d82803e903d91602b57fd5bf3ff60248401526014830152733d602d80600a3d3981f3363d3d373d3d3d363d73825260588201526037600c8201206078820152012016604051908152f35b9050346109c75760206003193601126109c7576004357fffffffff00000000000000000000000000000000000000000000000000000000811680910361056857602092507f7965db0b00000000000000000000000000000000000000000000000000000000811490811561099d575b5015158152f35b7f01ffc9a70000000000000000000000000000000000000000000000000000000091501438610996565b5080fd5b600435906001600160a01b03821682036109e157565b600080fd5b602435906001600160a01b03821682036109e157565b90601f601f19910116810190811067ffffffffffffffff821117610a1f57604052565b7f4e487b7100000000000000000000000000000000000000000000000000000000600052604160045260246000fd5b3360009081527fe84508f2c7fa9c351146748b3025cb78b45df37d868e48c6a75102fecdeee645602052604090205460ff1615610a8757565b7fe2517d3f00000000000000000000000000000000000000000000000000000000600052336004527f241ecf16d79d0f8dbfb92cbc07fe17840425976cf0667f022fe9877caa831b0860245260446000fd5b80600052600060205260406000206001600160a01b03331660005260205260ff6040600020541615610b085750565b7fe2517d3f000000000000000000000000000000000000000000000000000000006000523360045260245260446000fd5b80600052600060205260406000206001600160a01b03831660005260205260ff6040600020541615600014610bcc5780600052600060205260406000206001600160a01b0383166000526020526040600020600160ff198254161790556001600160a01b03339216907f2f8788117e7eff1d82e926ec794901d17c78024a50270940304540a733656f0d600080a4600190565b5050600090565b80600052600060205260406000206001600160a01b03831660005260205260ff60406000205416600014610bcc5780600052600060205260406000206001600160a01b038316600052602052604060002060ff1981541690556001600160a01b03339216907ff6391f5c32d9c69d2a47ea670b442974b53935d1edc7fd64eb21e047a839171b600080a4600190565b60005b838110610c755750506000910152565b8181015183820152602001610c65565b6020818303126109e15780519067ffffffffffffffff82116109e1570181601f820112156109e157805167ffffffffffffffff8111610a1f5760405192610cd66020601f19601f85011601856109fc565b818452602082840101116109e157610cf49160208085019101610c62565b90565b90601f19601f602093610d1581518092818752878088019101610c62565b011601019056fea26469706673582212201ba0b6eeee728e9e8e5708055e4bb230ddc2df2ece1ccd340856f92ec1e1ebba64736f6c634300081a00332f8788117e7eff1d82e926ec794901d17c78024a50270940304540a733656f0de84508f2c7fa9c351146748b3025cb78b45df37d868e48c6a75102fecdeee645ad3228b676f7d3cd4284a5443f17f1962b36e491b30a40b2405849e597ba5fb5",
  "linkReferences": {},
  "deployedLinkReferences": {}
}