{
  "_format": "hh-sol-artifact-1",
  "contractName": "StremeZapDual",
  "sourceName": "contracts/StremeZapDual.sol",
  "abi": [
    {
      "inputs": [
        {
          "internalType": "contract ISwapRouter",
          "name": "_swapRouter",
          "type": "address"
        },
        {
          "internalType": "address",
          "name": "_weth",
          "type": "address"
        },
        {
          "internalType": "address",
          "name": "_ethx",
          "type": "address"
        },
        {
          "internalType": "contract ILPFactoryAero",
          "name": "_lpFactoryAero",
          "type": "address"
        }
      ],
      "stateMutability": "nonpayable",
      "type": "constructor"
    },
    {
      "inputs": [],
      "name": "aeroTickSpacing",
      "outputs": [
        {
          "internalType": "int24",
          "name": "",
          "type": "int24"
        }
      ],
      "stateMutability": "view",
      "type": "function"
    },
    {
      "inputs": [],
      "name": "ethx",
      "outputs": [
        {
          "internalType": "address",
          "name": "",
          "type": "address"
        }
      ],
      "stateMutability": "view",
      "type": "function"
    },
    {
      "inputs": [],
      "name": "lpFactoryAero",
      "outputs": [
        {
          "internalType": "contract ILPFactoryAero",
          "name": "",
          "type": "address"
        }
      ],
      "stateMutability": "view",
      "type": "function"
    },
    {
      "inputs": [],
      "name": "uniPoolFee",
      "outputs": [
        {
          "internalType": "uint24",
          "name": "",
          "type": "uint24"
        }
      ],
      "stateMutability": "view",
      "type": "function"
    },
    {
      "inputs": [],
      "name": "uniSwapRouter",
      "outputs": [
        {
          "internalType": "contract ISwapRouter",
          "name": "",
          "type": "address"
        }
      ],
      "stateMutability": "view",
      "type": "function"
    },
    {
      "inputs": [
        {
          "internalType": "int256",
          "name": "amount0Delta",
          "type": "int256"
        },
        {
          "internalType": "int256",
          "name": "amount1Delta",
          "type": "int256"
        },
        {
          "internalType": "bytes",
          "name": "_data",
          "type": "bytes"
        }
      ],
      "name": "uniswapV3SwapCallback",
      "outputs": [],
      "stateMutability": "nonpayable",
      "type": "function"
    },
    {
      "inputs": [],
      "name": "weth",
      "outputs": [
        {
          "internalType": "address",
          "name": "",
          "type": "address"
        }
      ],
      "stateMutability": "view",
      "type": "function"
    },
    {
      "inputs": [
        {
          "internalType": "address",
          "name": "stremeCoin",
          "type": "address"
        },
        {
          "internalType": "uint256",
          "name": "amountIn",
          "type": "uint256"
        },
        {
          "internalType": "uint256",
          "name": "amountOutMin",
          "type": "uint256"
        },
        {
          "internalType": "address",
          "name": "stakingContract",
          "type": "address"
        }
      ],
      "name": "zap",
      "outputs": [
        {
          "internalType": "uint256",
          "name": "amountOut",
          "type": "uint256"
        }
      ],
      "stateMutability": "payable",
      "type": "function"
    },
    {
      "inputs": [
        {
          "internalType": "address",
          "name": "stremeCoin",
          "type": "address"
        },
        {
          "internalType": "uint256",
          "name": "amountIn",
          "type": "uint256"
        },
        {
          "internalType": "uint256",
          "name": "amountOutMin",
          "type": "uint256"
        },
        {
          "internalType": "address",
          "name": "stakingContract",
          "type": "address"
        }
      ],
      "name": "zapETHx",
      "outputs": [
        {
          "internalType": "uint256",
          "name": "amountOut",
          "type": "uint256"
        }
      ],
      "stateMutability": "payable",
      "type": "function"
    }
  ],
  "bytecode": "0x60a080604052346101325760808161119c803803809161001f828561014b565b8339810103126101325780516001600160a01b0381168082036101325761004860208401610184565b91606061005760408601610184565b9401516001600160a01b038116929083900361013257608091909152600080546001600160a01b03199081166001600160a01b03958616178255600180548216959096169485179095556002805490951690921790935560405163095ea7b360e01b81526004810193909352600019602484015260209183916044918391905af1801561013f57610102575b604051611003908161019982396080518181816104260152610b070152f35b6020813d602011610137575b8161011b6020938361014b565b8101031261013257518015150361013257386100e3565b600080fd5b3d915061010e565b6040513d6000823e3d90fd5b601f909101601f19168101906001600160401b0382119082101761016e57604052565b634e487b7160e01b600052604160045260246000fd5b51906001600160a01b03821682036101325756fe6080604052600436101561001257600080fd5b60003560e01c806306ab1cf2146100a757806335d88456146100a25780633fc8cef31461009d57806355c0dd39146100985780635d01ff3d14610093578063b60347a31461008e578063df9467c314610089578063e7e1305a146100845763fa461e331461007f57600080fd5b61057d565b610556565b61052f565b61044a565b610406565b6103e9565b6103c2565b610122565b346100c45760006003193601126100c4576101f460805260206080f35b600080fd5b60009103126100c457565b6001600160a01b038116036100c457565b35906100f0826100d4565b565b60031960809101126100c45760043561010a816100d4565b90602435906044359060643561011f816100d4565b90565b61012b366100f2565b9192909161013a3485146105e1565b61015e6101526101526001546001600160a01b031690565b6001600160a01b031690565b803b156100c4576000600491604051928380927fcf81464b00000000000000000000000000000000000000000000000000000000825234905af1801561031f576103ad575b506001600160a01b038116938415801594906103a757305b6101d06101526002546001600160a01b031690565b6040516302aca45560e31b81526001600160a01b03871660048201529290602090849060249082905afa92831561031f57600093610376575b506001600160a01b038316156103515761023593866102306001546001600160a01b031690565b610cca565b925b61024b575b604051838152602090f35b0390f35b6040517f095ea7b30000000000000000000000000000000000000000000000000000000081526001600160a01b039182166004820152602481018490529160209183916044918391600091165af1801561031f57610324575b50813b156100c4576040517fadc9772e00000000000000000000000000000000000000000000000000000000815233600482015260248101829052916000908390604490829084905af191821561031f5761024792610304575b8061023c565b806103136000610319936106a2565b806100c9565b386102fe565b6106c5565b6103459060203d60201161034a575b61033d81836106a2565b8101906106e6565b6102a4565b503d610333565b909150610370928561036b6001546001600160a01b031690565b610a0f565b92610237565b61039991935060203d6020116103a0575b61039181836106a2565b8101906106d1565b9138610209565b503d610387565b336101bb565b8061031360006103bc936106a2565b386101a3565b346100c45760006003193601126100c45760206001600160a01b0360005416604051908152f35b346100c45760006003193601126100c45760206040516127108152f35b346100c45760006003193601126100c45760206040516001600160a01b037f0000000000000000000000000000000000000000000000000000000000000000168152f35b610453366100f2565b919290916104623485146105e1565b6001600160a01b0381169384158015949061052957305b61048e6101526002546001600160a01b031690565b6040516302aca45560e31b81526001600160a01b03871660048201529290602090849060249082905afa92831561031f57600093610508575b506001600160a01b038316156104ee5761023593866102306000546001600160a01b031690565b909150610370928561036b6000546001600160a01b031690565b61052291935060203d6020116103a05761039181836106a2565b91386104c7565b33610479565b346100c45760006003193601126100c45760206001600160a01b0360015416604051908152f35b346100c45760006003193601126100c45760206001600160a01b0360025416604051908152f35b346100c45760606003193601126100c45760443560243560043567ffffffffffffffff83116100c457366023840112156100c45782600401359167ffffffffffffffff83116100c45736602484860101116100c45760246105df94019161081f565b005b156105e857565b608460405162461bcd60e51b815260206004820152602360248201527f6d73672e76616c7565206d75737420626520657175616c20746f20616d6f756e60448201527f74496e00000000000000000000000000000000000000000000000000000000006064820152fd5b7f4e487b7100000000000000000000000000000000000000000000000000000000600052604160045260246000fd5b6040810190811067ffffffffffffffff82111761069d57604052565b610652565b90601f601f19910116810190811067ffffffffffffffff82111761069d57604052565b6040513d6000823e3d90fd5b908160209103126100c4575161011f816100d4565b908160209103126100c4575180151581036100c45790565b156100c457565b604051906100f060e0836106a2565b604051906100f06040836106a2565b6020818303126100c45780359067ffffffffffffffff82116100c45701906040828203126100c4576040519161075883610681565b803567ffffffffffffffff81116100c45781019082601f830112156100c45781359267ffffffffffffffff841161069d57604051906107a16020601f19601f88011601836106a2565b848252602085850101116100c45760006020856107cc968280970183860137830101528452016100e5565b602082015290565b156107db57565b606460405162461bcd60e51b815260206004820152601760248201527f43616c6c6261636b206f6e6c792066726f6d20706f6f6c0000000000000000006044820152fd5b6108496108929360209395600061084f941380156109f6575b610841906106fe565b810190610723565b51610e35565b5090506108676101526002546001600160a01b031690565b60405180809581946302aca45560e31b8352600483019190916001600160a01b036020820193169052565b03915afa90811561031f576108bb916001600160a01b03916000916109d7575b501633146107d4565b80471015610953575b60206109276000926108e361015261015286546001600160a01b031690565b6040517fa9059cbb00000000000000000000000000000000000000000000000000000000815233600482015260248101929092529093849283919082906044820190565b03925af1801561031f576109385750565b6109509060203d60201161034a5761033d81836106a2565b50565b61096b6101526101526000546001600160a01b031690565b803b156100c457600082916004604051809481937fd0e30db00000000000000000000000000000000000000000000000000000000083525af1801561031f57600092602092610927926109c3575b50925050506108c4565b80610313866109d1936106a2565b386109b9565b6109f0915060203d6020116103a05761039181836106a2565b386108b2565b5060008713610838565b908160209103126100c4575190565b91610a5f610afa95610a4760209694610a38610a29610705565b6001600160a01b039098168852565b6001600160a01b031686880152565b61271060408601526001600160a01b03166060850152565b608083015260a0820152600060c0820152604051809381927f04e45aaf0000000000000000000000000000000000000000000000000000000083526004830191909160c06001600160a01b038160e084019582815116855282602082015116602086015262ffffff60408201511660408601528260608201511660608601526080810151608086015260a081015160a0860152015116910152565b0381346001600160a01b037f0000000000000000000000000000000000000000000000000000000000000000165af190811561031f57600091610b3b575090565b61011f915060203d602011610b5d575b610b5581836106a2565b810190610a00565b503d610b4b565b7f4e487b7100000000000000000000000000000000000000000000000000000000600052601160045260246000fd5b919082519283825260005b848110610bbf575050601f19601f8460006020809697860101520116010190565b80602080928401015182828601015201610b9e565b6020815260406001600160a01b036020610bf8855184838701526060860190610b93565b9401511691015290565b91908260409103126100c4576020825192015190565b9061011f949360a0936001600160a01b0380931684526000602085015260408401521660608201528160808201520190610b93565b7f80000000000000000000000000000000000000000000000000000000000000008114610c7a5760000390565b610b64565b15610c8657565b606460405162461bcd60e51b815260206004820152601360248201527f546f6f206c6974746c65207265636569766564000000000000000000000000006044820152fd5b9160006001600160a01b03610d9496610d5c6040979a999596610d4e89519889926020840190602b927fffffffffffffffffffffffffffffffffffffffff000000000000000000000000809260601b1683527e01f40000000000000000000000000000000000000000000000000000000000601484015260601b1660178201520190565b03601f1981018852876106a2565b610d64610714565b958652336020870152610da273fffd8963efd1fc6a506488495d951d5263988d25968851998a9160208301610bd4565b03601f1981018a52896106a2565b610dda8751988997889687947f128acb0800000000000000000000000000000000000000000000000000000000865260048601610c18565b0393165af190811561031f576100f091610dfc91600091610e05575b50610c4d565b92831015610c7f565b610e27915060403d604011610e2e575b610e1f81836106a2565b810190610c02565b5038610df6565b503d610e15565b90610e4860146000845190501015610ec7565b602082015160601c916017815110610e8357610e80601762ffffff8184015116610e77627fffff821115610f82565b60020b92610f12565b91565b606460405162461bcd60e51b815260206004820152600360248201527f554f4200000000000000000000000000000000000000000000000000000000006044820152fd5b15610ece57565b606460405162461bcd60e51b815260206004820152600360248201527f414f4200000000000000000000000000000000000000000000000000000000006044820152fd5b906014810191828211610c7a57818310610f3e57610f3560209382511015610ec7565b01015160601c90565b606460405162461bcd60e51b815260206004820152600260248201527f414f0000000000000000000000000000000000000000000000000000000000006044820152fd5b15610f8957565b606460405162461bcd60e51b815260206004820152600260248201527f494f0000000000000000000000000000000000000000000000000000000000006044820152fdfea2646970667358221220422507679b78ca473946decf4816ce4c06b6ca8e29a123b345b5ff65765b0c7764736f6c634300081a0033",
  "linkReferences": {},
  "deployedLinkReferences": {}
}