{
  "_format": "hh-sol-artifact-1",
  "contractName": "StakedTokenV2Special",
  "sourceName": "contracts/hook/staking/StakedTokenv2Special.sol",
  "abi": [
    {
      "inputs": [],
      "stateMutability": "nonpayable",
      "type": "constructor"
    },
    {
      "inputs": [],
      "name": "AccessControlBadConfirmation",
      "type": "error"
    },
    {
      "inputs": [
        {
          "internalType": "address",
          "name": "account",
          "type": "address"
        },
        {
          "internalType": "bytes32",
          "name": "neededRole",
          "type": "bytes32"
        }
      ],
      "name": "AccessControlUnauthorizedAccount",
      "type": "error"
    },
    {
      "inputs": [
        {
          "internalType": "address",
          "name": "spender",
          "type": "address"
        },
        {
          "internalType": "uint256",
          "name": "allowance",
          "type": "uint256"
        },
        {
          "internalType": "uint256",
          "name": "needed",
          "type": "uint256"
        }
      ],
      "name": "ERC20InsufficientAllowance",
      "type": "error"
    },
    {
      "inputs": [
        {
          "internalType": "address",
          "name": "sender",
          "type": "address"
        },
        {
          "internalType": "uint256",
          "name": "balance",
          "type": "uint256"
        },
        {
          "internalType": "uint256",
          "name": "needed",
          "type": "uint256"
        }
      ],
      "name": "ERC20InsufficientBalance",
      "type": "error"
    },
    {
      "inputs": [
        {
          "internalType": "address",
          "name": "approver",
          "type": "address"
        }
      ],
      "name": "ERC20InvalidApprover",
      "type": "error"
    },
    {
      "inputs": [
        {
          "internalType": "address",
          "name": "receiver",
          "type": "address"
        }
      ],
      "name": "ERC20InvalidReceiver",
      "type": "error"
    },
    {
      "inputs": [
        {
          "internalType": "address",
          "name": "sender",
          "type": "address"
        }
      ],
      "name": "ERC20InvalidSender",
      "type": "error"
    },
    {
      "inputs": [
        {
          "internalType": "address",
          "name": "spender",
          "type": "address"
        }
      ],
      "name": "ERC20InvalidSpender",
      "type": "error"
    },
    {
      "inputs": [],
      "name": "InvalidInitialization",
      "type": "error"
    },
    {
      "inputs": [],
      "name": "NotInitializing",
      "type": "error"
    },
    {
      "inputs": [],
      "name": "ReentrancyGuardReentrantCall",
      "type": "error"
    },
    {
      "anonymous": false,
      "inputs": [
        {
          "indexed": true,
          "internalType": "address",
          "name": "owner",
          "type": "address"
        },
        {
          "indexed": true,
          "internalType": "address",
          "name": "spender",
          "type": "address"
        },
        {
          "indexed": false,
          "internalType": "uint256",
          "name": "value",
          "type": "uint256"
        }
      ],
      "name": "Approval",
      "type": "event"
    },
    {
      "anonymous": false,
      "inputs": [
        {
          "indexed": true,
          "internalType": "address",
          "name": "delegator",
          "type": "address"
        },
        {
          "indexed": true,
          "internalType": "address",
          "name": "delegatee",
          "type": "address"
        }
      ],
      "name": "Delegated",
      "type": "event"
    },
    {
      "anonymous": false,
      "inputs": [
        {
          "indexed": true,
          "internalType": "address",
          "name": "account",
          "type": "address"
        },
        {
          "indexed": false,
          "internalType": "uint256",
          "name": "depositTimestamp",
          "type": "uint256"
        },
        {
          "indexed": false,
          "internalType": "uint256",
          "name": "amount",
          "type": "uint256"
        }
      ],
      "name": "Deposit",
      "type": "event"
    },
    {
      "anonymous": false,
      "inputs": [
        {
          "indexed": false,
          "internalType": "uint64",
          "name": "version",
          "type": "uint64"
        }
      ],
      "name": "Initialized",
      "type": "event"
    },
    {
      "anonymous": false,
      "inputs": [
        {
          "indexed": false,
          "internalType": "uint256",
          "name": "duration",
          "type": "uint256"
        }
      ],
      "name": "LockDurationUpdated",
      "type": "event"
    },
    {
      "anonymous": false,
      "inputs": [
        {
          "indexed": true,
          "internalType": "bytes32",
          "name": "role",
          "type": "bytes32"
        },
        {
          "indexed": true,
          "internalType": "bytes32",
          "name": "previousAdminRole",
          "type": "bytes32"
        },
        {
          "indexed": true,
          "internalType": "bytes32",
          "name": "newAdminRole",
          "type": "bytes32"
        }
      ],
      "name": "RoleAdminChanged",
      "type": "event"
    },
    {
      "anonymous": false,
      "inputs": [
        {
          "indexed": true,
          "internalType": "bytes32",
          "name": "role",
          "type": "bytes32"
        },
        {
          "indexed": true,
          "internalType": "address",
          "name": "account",
          "type": "address"
        },
        {
          "indexed": true,
          "internalType": "address",
          "name": "sender",
          "type": "address"
        }
      ],
      "name": "RoleGranted",
      "type": "event"
    },
    {
      "anonymous": false,
      "inputs": [
        {
          "indexed": true,
          "internalType": "bytes32",
          "name": "role",
          "type": "bytes32"
        },
        {
          "indexed": true,
          "internalType": "address",
          "name": "account",
          "type": "address"
        },
        {
          "indexed": true,
          "internalType": "address",
          "name": "sender",
          "type": "address"
        }
      ],
      "name": "RoleRevoked",
      "type": "event"
    },
    {
      "anonymous": false,
      "inputs": [
        {
          "indexed": true,
          "internalType": "address",
          "name": "from",
          "type": "address"
        },
        {
          "indexed": true,
          "internalType": "address",
          "name": "to",
          "type": "address"
        },
        {
          "indexed": false,
          "internalType": "uint256",
          "name": "value",
          "type": "uint256"
        }
      ],
      "name": "Transfer",
      "type": "event"
    },
    {
      "anonymous": false,
      "inputs": [
        {
          "indexed": true,
          "internalType": "address",
          "name": "account",
          "type": "address"
        },
        {
          "indexed": false,
          "internalType": "uint256",
          "name": "depositTimestamp",
          "type": "uint256"
        },
        {
          "indexed": false,
          "internalType": "uint256",
          "name": "amount",
          "type": "uint256"
        }
      ],
      "name": "Withdraw",
      "type": "event"
    },
    {
      "inputs": [],
      "name": "DEFAULT_ADMIN_ROLE",
      "outputs": [
        {
          "internalType": "bytes32",
          "name": "",
          "type": "bytes32"
        }
      ],
      "stateMutability": "view",
      "type": "function"
    },
    {
      "inputs": [],
      "name": "MANAGER_ROLE",
      "outputs": [
        {
          "internalType": "bytes32",
          "name": "",
          "type": "bytes32"
        }
      ],
      "stateMutability": "view",
      "type": "function"
    },
    {
      "inputs": [
        {
          "internalType": "address",
          "name": "owner",
          "type": "address"
        },
        {
          "internalType": "address",
          "name": "spender",
          "type": "address"
        }
      ],
      "name": "allowance",
      "outputs": [
        {
          "internalType": "uint256",
          "name": "",
          "type": "uint256"
        }
      ],
      "stateMutability": "view",
      "type": "function"
    },
    {
      "inputs": [
        {
          "internalType": "address",
          "name": "spender",
          "type": "address"
        },
        {
          "internalType": "uint256",
          "name": "value",
          "type": "uint256"
        }
      ],
      "name": "approve",
      "outputs": [
        {
          "internalType": "bool",
          "name": "",
          "type": "bool"
        }
      ],
      "stateMutability": "nonpayable",
      "type": "function"
    },
    {
      "inputs": [
        {
          "internalType": "address",
          "name": "account",
          "type": "address"
        }
      ],
      "name": "balanceOf",
      "outputs": [
        {
          "internalType": "uint256",
          "name": "",
          "type": "uint256"
        }
      ],
      "stateMutability": "view",
      "type": "function"
    },
    {
      "inputs": [
        {
          "internalType": "uint256",
          "name": "value",
          "type": "uint256"
        }
      ],
      "name": "burn",
      "outputs": [],
      "stateMutability": "nonpayable",
      "type": "function"
    },
    {
      "inputs": [
        {
          "internalType": "address",
          "name": "account",
          "type": "address"
        },
        {
          "internalType": "uint256",
          "name": "value",
          "type": "uint256"
        }
      ],
      "name": "burnFrom",
      "outputs": [],
      "stateMutability": "nonpayable",
      "type": "function"
    },
    {
      "inputs": [],
      "name": "decimals",
      "outputs": [
        {
          "internalType": "uint8",
          "name": "",
          "type": "uint8"
        }
      ],
      "stateMutability": "view",
      "type": "function"
    },
    {
      "inputs": [
        {
          "internalType": "address",
          "name": "to",
          "type": "address"
        }
      ],
      "name": "delegate",
      "outputs": [],
      "stateMutability": "nonpayable",
      "type": "function"
    },
    {
      "inputs": [
        {
          "internalType": "address",
          "name": "",
          "type": "address"
        }
      ],
      "name": "delegates",
      "outputs": [
        {
          "internalType": "address",
          "name": "",
          "type": "address"
        }
      ],
      "stateMutability": "view",
      "type": "function"
    },
    {
      "inputs": [
        {
          "internalType": "address",
          "name": "account",
          "type": "address"
        }
      ],
      "name": "depositTimestamps",
      "outputs": [
        {
          "internalType": "uint256",
          "name": "",
          "type": "uint256"
        }
      ],
      "stateMutability": "view",
      "type": "function"
    },
    {
      "inputs": [
        {
          "internalType": "bytes32",
          "name": "role",
          "type": "bytes32"
        }
      ],
      "name": "getRoleAdmin",
      "outputs": [
        {
          "internalType": "bytes32",
          "name": "",
          "type": "bytes32"
        }
      ],
      "stateMutability": "view",
      "type": "function"
    },
    {
      "inputs": [
        {
          "internalType": "bytes32",
          "name": "role",
          "type": "bytes32"
        },
        {
          "internalType": "address",
          "name": "account",
          "type": "address"
        }
      ],
      "name": "grantRole",
      "outputs": [],
      "stateMutability": "nonpayable",
      "type": "function"
    },
    {
      "inputs": [
        {
          "internalType": "bytes32",
          "name": "role",
          "type": "bytes32"
        },
        {
          "internalType": "address",
          "name": "account",
          "type": "address"
        }
      ],
      "name": "hasRole",
      "outputs": [
        {
          "internalType": "bool",
          "name": "",
          "type": "bool"
        }
      ],
      "stateMutability": "view",
      "type": "function"
    },
    {
      "inputs": [
        {
          "internalType": "string",
          "name": "_name",
          "type": "string"
        },
        {
          "internalType": "string",
          "name": "_symbol",
          "type": "string"
        },
        {
          "internalType": "address",
          "name": "_stakeableToken",
          "type": "address"
        },
        {
          "internalType": "address",
          "name": "_originalStakedTokenAddress",
          "type": "address"
        }
      ],
      "name": "initialize",
      "outputs": [],
      "stateMutability": "nonpayable",
      "type": "function"
    },
    {
      "inputs": [],
      "name": "lockDuration",
      "outputs": [
        {
          "internalType": "uint256",
          "name": "",
          "type": "uint256"
        }
      ],
      "stateMutability": "view",
      "type": "function"
    },
    {
      "inputs": [
        {
          "internalType": "address",
          "name": "to",
          "type": "address"
        }
      ],
      "name": "migrate",
      "outputs": [],
      "stateMutability": "nonpayable",
      "type": "function"
    },
    {
      "inputs": [
        {
          "internalType": "address",
          "name": "to",
          "type": "address"
        },
        {
          "internalType": "uint256",
          "name": "timestamp",
          "type": "uint256"
        }
      ],
      "name": "migrateWithTimestamp",
      "outputs": [],
      "stateMutability": "nonpayable",
      "type": "function"
    },
    {
      "inputs": [
        {
          "internalType": "address",
          "name": "",
          "type": "address"
        }
      ],
      "name": "migrated",
      "outputs": [
        {
          "internalType": "bool",
          "name": "",
          "type": "bool"
        }
      ],
      "stateMutability": "view",
      "type": "function"
    },
    {
      "inputs": [],
      "name": "name",
      "outputs": [
        {
          "internalType": "string",
          "name": "",
          "type": "string"
        }
      ],
      "stateMutability": "view",
      "type": "function"
    },
    {
      "inputs": [],
      "name": "originalStakedToken",
      "outputs": [
        {
          "internalType": "contract IStakedTokenv2",
          "name": "",
          "type": "address"
        }
      ],
      "stateMutability": "view",
      "type": "function"
    },
    {
      "inputs": [],
      "name": "pool",
      "outputs": [
        {
          "internalType": "contract IDistributionPool",
          "name": "",
          "type": "address"
        }
      ],
      "stateMutability": "view",
      "type": "function"
    },
    {
      "inputs": [
        {
          "internalType": "uint256",
          "name": "newDuration",
          "type": "uint256"
        }
      ],
      "name": "reduceLockDuration",
      "outputs": [],
      "stateMutability": "nonpayable",
      "type": "function"
    },
    {
      "inputs": [
        {
          "internalType": "bytes32",
          "name": "role",
          "type": "bytes32"
        },
        {
          "internalType": "address",
          "name": "callerConfirmation",
          "type": "address"
        }
      ],
      "name": "renounceRole",
      "outputs": [],
      "stateMutability": "nonpayable",
      "type": "function"
    },
    {
      "inputs": [
        {
          "internalType": "bytes32",
          "name": "role",
          "type": "bytes32"
        },
        {
          "internalType": "address",
          "name": "account",
          "type": "address"
        }
      ],
      "name": "revokeRole",
      "outputs": [],
      "stateMutability": "nonpayable",
      "type": "function"
    },
    {
      "inputs": [
        {
          "internalType": "contract IDistributionPool",
          "name": "_pool",
          "type": "address"
        }
      ],
      "name": "setPool",
      "outputs": [],
      "stateMutability": "nonpayable",
      "type": "function"
    },
    {
      "inputs": [
        {
          "internalType": "uint256",
          "name": "_unitDecimals",
          "type": "uint256"
        }
      ],
      "name": "setUnitDecimals",
      "outputs": [],
      "stateMutability": "nonpayable",
      "type": "function"
    },
    {
      "inputs": [
        {
          "internalType": "address",
          "name": "to",
          "type": "address"
        },
        {
          "internalType": "uint256",
          "name": "amount",
          "type": "uint256"
        }
      ],
      "name": "stake",
      "outputs": [],
      "stateMutability": "nonpayable",
      "type": "function"
    },
    {
      "inputs": [
        {
          "internalType": "address",
          "name": "delegateTo",
          "type": "address"
        },
        {
          "internalType": "uint256",
          "name": "amount",
          "type": "uint256"
        }
      ],
      "name": "stakeAndDelegate",
      "outputs": [],
      "stateMutability": "nonpayable",
      "type": "function"
    },
    {
      "inputs": [],
      "name": "stakeableToken",
      "outputs": [
        {
          "internalType": "contract IERC20",
          "name": "",
          "type": "address"
        }
      ],
      "stateMutability": "view",
      "type": "function"
    },
    {
      "inputs": [],
      "name": "stakingFactory",
      "outputs": [
        {
          "internalType": "address",
          "name": "",
          "type": "address"
        }
      ],
      "stateMutability": "view",
      "type": "function"
    },
    {
      "inputs": [
        {
          "internalType": "bytes4",
          "name": "interfaceId",
          "type": "bytes4"
        }
      ],
      "name": "supportsInterface",
      "outputs": [
        {
          "internalType": "bool",
          "name": "",
          "type": "bool"
        }
      ],
      "stateMutability": "view",
      "type": "function"
    },
    {
      "inputs": [],
      "name": "symbol",
      "outputs": [
        {
          "internalType": "string",
          "name": "",
          "type": "string"
        }
      ],
      "stateMutability": "view",
      "type": "function"
    },
    {
      "inputs": [
        {
          "internalType": "uint256",
          "name": "amount",
          "type": "uint256"
        }
      ],
      "name": "tokensToUnits",
      "outputs": [
        {
          "internalType": "uint128",
          "name": "",
          "type": "uint128"
        }
      ],
      "stateMutability": "view",
      "type": "function"
    },
    {
      "inputs": [],
      "name": "totalSupply",
      "outputs": [
        {
          "internalType": "uint256",
          "name": "",
          "type": "uint256"
        }
      ],
      "stateMutability": "view",
      "type": "function"
    },
    {
      "inputs": [
        {
          "internalType": "address",
          "name": "to",
          "type": "address"
        },
        {
          "internalType": "uint256",
          "name": "value",
          "type": "uint256"
        }
      ],
      "name": "transfer",
      "outputs": [
        {
          "internalType": "bool",
          "name": "",
          "type": "bool"
        }
      ],
      "stateMutability": "nonpayable",
      "type": "function"
    },
    {
      "inputs": [
        {
          "internalType": "address",
          "name": "from",
          "type": "address"
        },
        {
          "internalType": "address",
          "name": "to",
          "type": "address"
        },
        {
          "internalType": "uint256",
          "name": "value",
          "type": "uint256"
        }
      ],
      "name": "transferFrom",
      "outputs": [
        {
          "internalType": "bool",
          "name": "",
          "type": "bool"
        }
      ],
      "stateMutability": "nonpayable",
      "type": "function"
    },
    {
      "inputs": [
        {
          "internalType": "address",
          "name": "account",
          "type": "address"
        }
      ],
      "name": "trueBalanceOf",
      "outputs": [
        {
          "internalType": "uint256",
          "name": "",
          "type": "uint256"
        }
      ],
      "stateMutability": "view",
      "type": "function"
    },
    {
      "inputs": [],
      "name": "unitDecimals",
      "outputs": [
        {
          "internalType": "uint256",
          "name": "",
          "type": "uint256"
        }
      ],
      "stateMutability": "view",
      "type": "function"
    },
    {
      "inputs": [
        {
          "internalType": "address",
          "name": "account",
          "type": "address"
        }
      ],
      "name": "unlockDate",
      "outputs": [
        {
          "internalType": "uint256",
          "name": "",
          "type": "uint256"
        }
      ],
      "stateMutability": "view",
      "type": "function"
    },
    {
      "inputs": [
        {
          "internalType": "address",
          "name": "to",
          "type": "address"
        },
        {
          "internalType": "uint256",
          "name": "amount",
          "type": "uint256"
        }
      ],
      "name": "unstake",
      "outputs": [],
      "stateMutability": "nonpayable",
      "type": "function"
    },
    {
      "inputs": [
        {
          "internalType": "address",
          "name": "memberAddr",
          "type": "address"
        },
        {
          "internalType": "uint128",
          "name": "newUnits",
          "type": "uint128"
        }
      ],
      "name": "updateMemberUnits",
      "outputs": [],
      "stateMutability": "nonpayable",
      "type": "function"
    }
  ],
  "bytecode": "0x6080806040523460d2577ff0c57e16840df040f15088dc2f81fe391c3923bec73e23a9662efc9c229c6a005460ff8160401c1660c1576002600160401b03196001600160401b03821601605c575b604051613ac890816100d88239f35b6001600160401b0319166001600160401b039081177ff0c57e16840df040f15088dc2f81fe391c3923bec73e23a9662efc9c229c6a005581527fc7f505b2f371ae2175ee4913f4499e1f2633a7b5936321eed1cdaeb6115181d290602090a13880604d565b63f92ee8a960e01b60005260046000fd5b600080fdfe608080604052600436101561001357600080fd5b600090813560e01c90816301ffc9a714611b1c575080630455444314611afe57806305271a2a14611ae057806306fdde03146119fb578063095ea7b3146118f05780630f0d7ff21461189057806316f0115b1461186957806318160ddd1461182c5780631b1677771461177f57806323b872dd14611746578063240be9441461170e578063248a9ca3146116c1578063291347681461169a5780632f2ff15d1461163a578063313ce5671461161e57806336568abe146115c057806342966c68146115a25780634437152a1461155357806349ccd69e1461152f5780634ba0a5ee146114f2578063587cde1e146114b85780635bbbbc171461147d5780635c19a95c1461145b57806370a082311461142f57806379cc6790146113fe57806388f6a494146113bb5780638f15b41414610ac957806391d1485414610a5d57806395d89b4114610938578063a217fddf1461091c578063a9059cbb146108ea578063adc9772e1461074f578063bdfc371e1461072c578063c242652c14610611578063c2a672e0146104f7578063ce5494bb146103ca578063ce6a380514610360578063d547741f146102f7578063dd62ed3e14610279578063ec87621c1461023e578063ee5361b3146102185763f9bcbf0a146101ef57600080fd5b3461021557806003193601126102155760206001600160a01b0360065416604051908152f35b80fd5b50346102155780600319360112610215576001600160a01b036020915416604051908152f35b503461021557806003193601126102155760206040517f241ecf16d79d0f8dbfb92cbc07fe17840425976cf0667f022fe9877caa831b088152f35b503461021557604060031936011261021557610293611c08565b6001600160a01b036102df6102a6611c1e565b926001600160a01b03166000527f52c63247e1f47db19d5ce0460030c497f067ca4cebf71ba98eeadabe20bace01602052604060002090565b91166000526020526020604060002054604051908152f35b50346102155760406003193601126102155761035c600435610317611c1e565b90610357610352826000527f02dd7bc7dec4dceedda775e58dd541e08a116c6c53815c0bd028192f7b62680060205260016040600020015490565b6120b9565b612585565b5080f35b5034610215576040600319360112610215576103c761037d611c08565b610385612047565b6001600160a01b03811680845260076020526103a860ff60408620541615611ffc565b8352600760205260408320600160ff1982541617905560243590612e15565b80f35b5034610215576020600319360112610215576103e4611c08565b6103ec612d3b565b6001600160a01b038116808352600760205261040f60ff60408520541615611ffc565b808352600760205260408320600160ff1982541617905560206001600160a01b0360065416916024604051809481937f240be94400000000000000000000000000000000000000000000000000000000835260048301525afa9081156104ec5783916104b5575b50806104a5575b8260017f9b779b17422d0df92223018b32b4d1fa46e071723d6817e2486d003becc55f005580f35b6104ae91612e15565b388061047d565b90506020813d6020116104e4575b816104d060209383611c34565b810103126104df575138610476565b600080fd5b3d91506104c3565b6040513d85823e3d90fd5b503461021557604060031936011261021557610511611c08565b6024359061051d612d3b565b6105278233612652565b60206001600160a01b03604481865416938660405195869485937fa9059cbb0000000000000000000000000000000000000000000000000000000085521660048401528760248401525af180156104ec576105e4575b50338252600160205260408220549060405191825260208201527ff279e6a1f5e320cca91135676d9cb6e44ca8a08c0b88342bcdb1144f6511b56860403392a260017f9b779b17422d0df92223018b32b4d1fa46e071723d6817e2486d003becc55f005580f35b6106059060203d60201161060a575b6105fd8183611c34565b810190611fe4565b61057d565b503d6105f3565b5034610215576020600319360112610215576004358180527f02dd7bc7dec4dceedda775e58dd541e08a116c6c53815c0bd028192f7b626800602052604082206001600160a01b03331660005260205260ff6040600020541615610715576008548110156106ab576020817f3e062f634a950eae456fa5f8fb53a4f59f55039983bd73df7a34a313b75443d492600855604051908152a180f35b608460405162461bcd60e51b815260206004820152604060248201527f5374616b6564546f6b656e3a206e6577206475726174696f6e206d757374206260448201527f65206c657373207468616e207468652063757272656e74206475726174696f6e6064820152fd5b60448263e2517d3f60e01b81523360045280602452fd5b503461021557602060031936011261021557610746612047565b60043560035580f35b5034610215576040600319360112610215576108c361076c611c08565b60243590610778612d3b565b6000806108566108a960405161078f606082611c34565b602b81527f5374616b6564546f6b656e56325370656369616c3a207374616b652063616c6c60208201527f6564207769746820746f3a000000000000000000000000000000000000000000604082015261089560408051906107f18183611c34565b600882527f20616d6f756e743a0000000000000000000000000000000000000000000000006020830152519485937f91d1112e0000000000000000000000000000000000000000000000000000000060208601526080602486015260a4850190611bc7565b906001600160a01b03891660448501527fffffffffffffffffffffffffffffffffffffffffffffffffffffffffffffffdc848303016064850152611bc7565b87608483015203601f198101835282611c34565b6020815191016a636f6e736f6c652e6c6f675afa50612ba8565b60017f9b779b17422d0df92223018b32b4d1fa46e071723d6817e2486d003becc55f005580f35b503461021557604060031936011261021557610911610907611c08565b60243590336122a4565b602060405160018152f35b5034610215578060031936011261021557602090604051908152f35b503461021557806003193601126102155760405190807f52c63247e1f47db19d5ce0460030c497f067ca4cebf71ba98eeadabe20bace04549061097a82611cc4565b8085529160018116908115610a3657506001146109ba575b6109b6846109a281860382611c34565b604051918291602083526020830190611bc7565b0390f35b7f52c63247e1f47db19d5ce0460030c497f067ca4cebf71ba98eeadabe20bace0481527f46a2803e59a4de4e7a4c574b1243f25977ac4c77d5a1a4a609b5394cebb4a2aa939250905b808210610a1c575090915081016020016109a282610992565b919260018160209254838588010152019101909291610a03565b60ff191660208087019190915292151560051b850190920192506109a29150839050610992565b5034610215576040600319360112610215576001600160a01b036040610a81611c1e565b9260043581527f02dd7bc7dec4dceedda775e58dd541e08a116c6c53815c0bd028192f7b626800602052209116600052602052602060ff604060002054166040519015158152f35b50346102155760806003193601126102155760043567ffffffffffffffff81116113b757610afb903690600401611c6d565b60243567ffffffffffffffff81116113b357610b1b903690600401611c6d565b6044356001600160a01b0381168091036113af57606435916001600160a01b0383168093036113ab577ff0c57e16840df040f15088dc2f81fe391c3923bec73e23a9662efc9c229c6a00549360ff8560401c16159467ffffffffffffffff8116801590816113a3575b6001149081611399575b159081611390575b50611368578560017fffffffffffffffffffffffffffffffffffffffffffffffff00000000000000008316177ff0c57e16840df040f15088dc2f81fe391c3923bec73e23a9662efc9c229c6a0055611313575b50610bf26134a1565b610bfa6134a1565b80519067ffffffffffffffff82116112ff578190610c387f52c63247e1f47db19d5ce0460030c497f067ca4cebf71ba98eeadabe20bace0354611cc4565b601f8111611272575b50602090601f83116001146111d15788926111c6575b50506000198260011b9260031b1c1916177f52c63247e1f47db19d5ce0460030c497f067ca4cebf71ba98eeadabe20bace03555b80519067ffffffffffffffff82116111b2578190610cc97f52c63247e1f47db19d5ce0460030c497f067ca4cebf71ba98eeadabe20bace0454611cc4565b601f8111611125575b50602090601f8311600114611084578792611079575b50506000198260011b9260031b1c1916177f52c63247e1f47db19d5ce0460030c497f067ca4cebf71ba98eeadabe20bace04555b610d246134a1565b610d2c6134a1565b610d346134a1565b60017f9b779b17422d0df92223018b32b4d1fa46e071723d6817e2486d003becc55f0055610d606134a1565b610d693361232d565b508173ffffffffffffffffffffffffffffffffffffffff19600654161760065573ffffffffffffffffffffffffffffffffffffffff19845416178355604051907f16f0115b000000000000000000000000000000000000000000000000000000008252602082600481845afa90811561106e576001600160a01b036020926004948791611051575b501673ffffffffffffffffffffffffffffffffffffffff196002541617600255604051928380927f045544430000000000000000000000000000000000000000000000000000000082525afa9081156104ec57839161101f575b50600855601260035573c749105bc4b4ea6285dbbe2e8221c922bea07a9d73ffffffffffffffffffffffffffffffffffffffff1960055416176005556040517f37ad4d8b00000000000000000000000000000000000000000000000000000000815260208160048173c749105bc4b4ea6285dbbe2e8221c922bea07a9d5afa80156104ec57610ee1918491611000575b50612401565b50600460206001600160a01b0360055416604051928380927f37ad4d8b0000000000000000000000000000000000000000000000000000000082525afa80156104ec57610f35918491610fd1575b5061232d565b50610f3d5780f35b7fffffffffffffffffffffffffffffffffffffffffffffff00ffffffffffffffff7ff0c57e16840df040f15088dc2f81fe391c3923bec73e23a9662efc9c229c6a0054167ff0c57e16840df040f15088dc2f81fe391c3923bec73e23a9662efc9c229c6a00557fc7f505b2f371ae2175ee4913f4499e1f2633a7b5936321eed1cdaeb6115181d2602060405160018152a180f35b610ff3915060203d602011610ff9575b610feb8183611c34565b810190611fc5565b38610f2f565b503d610fe1565b611019915060203d602011610ff957610feb8183611c34565b38610edb565b90506020813d602011611049575b8161103a60209383611c34565b810103126104df575138610e4b565b3d915061102d565b6110689150843d8611610ff957610feb8183611c34565b38610df1565b6040513d86823e3d90fd5b015190503880610ce8565b7f52c63247e1f47db19d5ce0460030c497f067ca4cebf71ba98eeadabe20bace04885281882092601f1916885b81811061110d57509084600195949392106110f4575b505050811b017f52c63247e1f47db19d5ce0460030c497f067ca4cebf71ba98eeadabe20bace0455610d1c565b015160001960f88460031b161c191690553880806110c7565b929360206001819287860151815501950193016110b1565b7f52c63247e1f47db19d5ce0460030c497f067ca4cebf71ba98eeadabe20bace0488529091507f46a2803e59a4de4e7a4c574b1243f25977ac4c77d5a1a4a609b5394cebb4a2aa601f840160051c810191602085106111a8575b90601f859493920160051c01905b81811061119a5750610cd2565b88815584935060010161118d565b909150819061117f565b602486634e487b7160e01b81526041600452fd5b015190503880610c57565b7f52c63247e1f47db19d5ce0460030c497f067ca4cebf71ba98eeadabe20bace03895281892092601f1916895b81811061125a5750908460019594939210611241575b505050811b017f52c63247e1f47db19d5ce0460030c497f067ca4cebf71ba98eeadabe20bace0355610c8b565b015160001960f88460031b161c19169055388080611214565b929360206001819287860151815501950193016111fe565b7f52c63247e1f47db19d5ce0460030c497f067ca4cebf71ba98eeadabe20bace0389529091507f2ae08a8e29253f69ac5d979a101956ab8f8d9d7ded63fa7a83b16fc47648eab0601f840160051c810191602085106112f5575b90601f859493920160051c01905b8181106112e75750610c41565b8981558493506001016112da565b90915081906112cc565b602487634e487b7160e01b81526041600452fd5b7fffffffffffffffffffffffffffffffffffffffffffffff0000000000000000001668010000000000000001177ff0c57e16840df040f15088dc2f81fe391c3923bec73e23a9662efc9c229c6a005538610be9565b6004877ff92ee8a9000000000000000000000000000000000000000000000000000000008152fd5b90501538610b96565b303b159150610b8e565b879150610b84565b8480fd5b8380fd5b8280fd5b5080fd5b5034610215576040600319360112610215576113d5611c08565b6113e160243533612ba8565b336001600160a01b038216036113f5575080f35b6103c7906126db565b5034610215576040600319360112610215576103c761141b611c08565b6024359061142a82338361211f565b612652565b503461021557602060031936011261021557602061145361144e611c08565b611eb5565b604051908152f35b5034610215576020600319360112610215576103c7611478611c08565b6126db565b50346102155760206003193601126102155760206001600160801b036114af6114a760035461266d565b60043561267b565b16604051908152f35b5034610215576020600319360112610215576001600160a01b036040602092826114e0611c08565b16815260048452205416604051908152f35b50346102155760206003193601126102155760ff60406020926001600160a01b0361151b611c08565b168152600784522054166040519015158152f35b503461021557602060031936011261021557602061145361154e611c08565b611d5b565b5034610215576020600319360112610215576004356001600160a01b0381168091036113b757611581612047565b73ffffffffffffffffffffffffffffffffffffffff19600254161760025580f35b5034610215576020600319360112610215576103c760043533612652565b5034610215576040600319360112610215576115da611c1e565b336001600160a01b038216036115f65761035c90600435612585565b6004827f6697b232000000000000000000000000000000000000000000000000000000008152fd5b5034610215578060031936011261021557602060405160128152f35b50346102155760406003193601126102155761035c60043561165a611c1e565b90611695610352826000527f02dd7bc7dec4dceedda775e58dd541e08a116c6c53815c0bd028192f7b62680060205260016040600020015490565b6124ad565b503461021557806003193601126102155760206001600160a01b0360055416604051908152f35b50346102155760206003193601126102155760206114536004356000527f02dd7bc7dec4dceedda775e58dd541e08a116c6c53815c0bd028192f7b62680060205260016040600020015490565b50346102155760206003193601126102155760406020916001600160a01b03611735611c08565b168152600183522054604051908152f35b503461021557606060031936011261021557610911611763611c08565b61176b611c1e565b6044359161177a83338361211f565b6122a4565b503461021557604060031936011261021557611799611c08565b81602435916001600160801b03831683036113b7576117b6612047565b6001600160a01b036006541692833b156113b357604051631b16777760e01b81526001600160a01b039290921660048301526001600160801b031660248201529181908390604490829084905af1801561181f576118115780f35b61181a91611c34565b388180f35b50604051903d90823e3d90fd5b503461021557806003193601126102155760207f52c63247e1f47db19d5ce0460030c497f067ca4cebf71ba98eeadabe20bace0254604051908152f35b503461021557806003193601126102155760206001600160a01b0360025416604051908152f35b50346102155760206003193601126102155760206118e76118af611c08565b6001600160a01b03166000527f52c63247e1f47db19d5ce0460030c497f067ca4cebf71ba98eeadabe20bace00602052604060002090565b54604051908152f35b50346102155760406003193601126102155761190a611c08565b6024359033156119cf576001600160a01b03169182156119a35760408291611964336001600160a01b03166000527f52c63247e1f47db19d5ce0460030c497f067ca4cebf71ba98eeadabe20bace01602052604060002090565b85825260205220556040519081527f8c5be1e5ebec7d5bd14f71427d1e84f3dd0314c0f7b2291e5b200ac8c7c3b92560203392a3602060405160018152f35b807f94280d62000000000000000000000000000000000000000000000000000000006024925280600452fd5b6024837fe602df0500000000000000000000000000000000000000000000000000000000815280600452fd5b503461021557806003193601126102155760405190807f52c63247e1f47db19d5ce0460030c497f067ca4cebf71ba98eeadabe20bace035490611a3d82611cc4565b8085529160018116908115610a365750600114611a64576109b6846109a281860382611c34565b7f52c63247e1f47db19d5ce0460030c497f067ca4cebf71ba98eeadabe20bace0381527f2ae08a8e29253f69ac5d979a101956ab8f8d9d7ded63fa7a83b16fc47648eab0939250905b808210611ac6575090915081016020016109a282610992565b919260018160209254838588010152019101909291611aad565b50346102155780600319360112610215576020600354604051908152f35b50346102155780600319360112610215576020600854604051908152f35b9050346113b75760206003193601126113b7576004357fffffffff0000000000000000000000000000000000000000000000000000000081168091036113b357602092507f7965db0b000000000000000000000000000000000000000000000000000000008114908115611b92575b5015158152f35b7f01ffc9a70000000000000000000000000000000000000000000000000000000091501438611b8b565b60009103126104df57565b919082519283825260005b848110611bf3575050601f19601f8460006020809697860101520116010190565b80602080928401015182828601015201611bd2565b600435906001600160a01b03821682036104df57565b602435906001600160a01b03821682036104df57565b90601f601f19910116810190811067ffffffffffffffff821117611c5757604052565b634e487b7160e01b600052604160045260246000fd5b81601f820112156104df5780359067ffffffffffffffff8211611c575760405192611ca2601f8401601f191660200185611c34565b828452602083830101116104df57816000926020809301838601378301015290565b90600182811c92168015611cf4575b6020831014611cde57565b634e487b7160e01b600052602260045260246000fd5b91607f1691611cd3565b6040513d6000823e3d90fd5b908160209103126104df57516001600160801b03811681036104df5790565b908160209103126104df575190565b91908201809211611d4557565b634e487b7160e01b600052601160045260246000fd5b6001600160a01b031680600052600760205260ff60406000205416600014611db75780600052600160205260406000205415600014611d9a5750600090565b6000526001602052611db460406000205460085490611d38565b90565b602460206001600160a01b036002541660405192838092630fefbc0960e01b82528660048301525afa8015611cfe576001600160801b0391600091611e86575b5016611e035750600090565b60206001600160a01b0360065416916024604051809481937f49ccd69e00000000000000000000000000000000000000000000000000000000835260048301525afa908115611cfe57600091611e57575090565b90506020813d602011611e7e575b81611e7260209383611c34565b810103126104df575190565b3d9150611e65565b611ea8915060203d602011611eae575b611ea08183611c34565b810190611d0a565b38611df7565b503d611e96565b6001600160a01b0381169081600052600760205260ff604060002054168015611f80575b15611f1f57611f1b91506001600160a01b03166000527f52c63247e1f47db19d5ce0460030c497f067ca4cebf71ba98eeadabe20bace00602052604060002090565b5490565b5060206001600160a01b036002541691602460405180948193630fefbc0960e01b835260048301525afa8015611cfe57611db491600091611f61575b50612b80565b611f7a915060203d602011611eae57611ea08183611c34565b38611f5b565b50611fbd816001600160a01b03166000527f52c63247e1f47db19d5ce0460030c497f067ca4cebf71ba98eeadabe20bace00602052604060002090565b541515611ed9565b908160209103126104df57516001600160a01b03811681036104df5790565b908160209103126104df575180151581036104df5790565b1561200357565b606460405162461bcd60e51b815260206004820152601360248201527f63616e206f6e6c7920636c61696d206f6e6365000000000000000000000000006044820152fd5b3360009081527f06484cc59dc38e4f67c31122333a17ca81b3ca18cdf02bfc298072fa52b0316a602052604090205460ff161561208057565b63e2517d3f60e01b600052336004527f241ecf16d79d0f8dbfb92cbc07fe17840425976cf0667f022fe9877caa831b0860245260446000fd5b806000527f02dd7bc7dec4dceedda775e58dd541e08a116c6c53815c0bd028192f7b62680060205260406000206001600160a01b03331660005260205260ff60406000205416156121075750565b63e2517d3f60e01b6000523360045260245260446000fd5b919061215d836001600160a01b03166000527f52c63247e1f47db19d5ce0460030c497f067ca4cebf71ba98eeadabe20bace01602052604060002090565b6001600160a01b038216600052602052604060002054926000198410612184575b50505050565b828410612265576001600160a01b03811615612236576001600160a01b03821615612207576121ed6001600160a01b03916001600160a01b03166000527f52c63247e1f47db19d5ce0460030c497f067ca4cebf71ba98eeadabe20bace01602052604060002090565b91166000526020526040600020910390553880808061217e565b7f94280d6200000000000000000000000000000000000000000000000000000000600052600060045260246000fd5b7fe602df0500000000000000000000000000000000000000000000000000000000600052600060045260246000fd5b506001600160a01b0383917ffb8f41b2000000000000000000000000000000000000000000000000000000006000521660045260245260445260646000fd5b91906001600160a01b038316156122fe576001600160a01b038116156122cf576122cd926130cb565b565b7fec442f0500000000000000000000000000000000000000000000000000000000600052600060045260246000fd5b7f96c6fd1e00000000000000000000000000000000000000000000000000000000600052600060045260246000fd5b6001600160a01b03811660009081527f06484cc59dc38e4f67c31122333a17ca81b3ca18cdf02bfc298072fa52b0316a602052604090205460ff166123fb576001600160a01b031660008181527f06484cc59dc38e4f67c31122333a17ca81b3ca18cdf02bfc298072fa52b0316a60205260408120805460ff191660011790553391907f241ecf16d79d0f8dbfb92cbc07fe17840425976cf0667f022fe9877caa831b08907f2f8788117e7eff1d82e926ec794901d17c78024a50270940304540a733656f0d9080a4600190565b50600090565b6001600160a01b03811660009081527fb7db2dd08fcb62d0c9e08c51941cae53c267786a0b75803fb7960902fc8ef97d602052604090205460ff166123fb576001600160a01b031660008181527fb7db2dd08fcb62d0c9e08c51941cae53c267786a0b75803fb7960902fc8ef97d60205260408120805460ff191660011790553391907f2f8788117e7eff1d82e926ec794901d17c78024a50270940304540a733656f0d8180a4600190565b806000527f02dd7bc7dec4dceedda775e58dd541e08a116c6c53815c0bd028192f7b62680060205260406000206001600160a01b03831660005260205260ff604060002054161560001461257e57806000527f02dd7bc7dec4dceedda775e58dd541e08a116c6c53815c0bd028192f7b62680060205260406000206001600160a01b0383166000526020526040600020600160ff198254161790556001600160a01b03339216907f2f8788117e7eff1d82e926ec794901d17c78024a50270940304540a733656f0d600080a4600190565b5050600090565b806000527f02dd7bc7dec4dceedda775e58dd541e08a116c6c53815c0bd028192f7b62680060205260406000206001600160a01b03831660005260205260ff6040600020541660001461257e57806000527f02dd7bc7dec4dceedda775e58dd541e08a116c6c53815c0bd028192f7b62680060205260406000206001600160a01b038316600052602052604060002060ff1981541690556001600160a01b03339216907ff6391f5c32d9c69d2a47ea670b442974b53935d1edc7fd64eb21e047a839171b600080a4600190565b906001600160a01b038216156122fe5760006122cd926130cb565b604d8111611d4557600a0a90565b8115612685570490565b634e487b7160e01b600052601260045260246000fd5b906001600160801b03809116911603906001600160801b038211611d4557565b906001600160801b03809116911601906001600160801b038211611d4557565b60006001600160a01b038216918215612b16576001600160801b0361271361270233611eb5565b61270d60035461266d565b9061267b565b338452600460205260408420549116906001600160a01b031615612994576001600160a01b0360025416338452600460205260206001600160a01b03604086205416602460405180948193630fefbc0960e01b835260048301525afa90811561106e578491612975575b506001600160801b0381166128d8575b506001600160a01b036006541690602460206001600160a01b036002541660405192838092630fefbc0960e01b82528a60048301525afa9081156128cd57906127de929186916128ae575b506126bb565b813b156113af57604051631b16777760e01b81526001600160a01b03841660048201526001600160801b039190911660248201529083908290604490829084905af180156104ec57908391612899575b50505b3383036128945750805b33825260046020526001600160a01b0360408320911673ffffffffffffffffffffffffffffffffffffffff198254161790557f4bc154dd35d6a5cb9206482ecb473cdbf2473006d6bce728b9cc0741bcc59ea2339180a3565b61283b565b816128a391611c34565b6113b757813861282e565b6128c7915060203d602011611eae57611ea08183611c34565b386127d8565b6040513d87823e3d90fd5b6001600160a01b03600654163385526004602052612904836001600160a01b036040882054169361269b565b91813b1561297157604051631b16777760e01b81526001600160a01b0390911660048201526001600160801b039092166024830152849082908183816044810103925af1801561106e5790849161295c575b5061278d565b8161296691611c34565b6113b3578238612956565b8580fd5b61298e915060203d602011611eae57611ea08183611c34565b3861277d565b6001600160a01b0360065416602460206001600160a01b036002541660405192838092630fefbc0960e01b82523360048301525afa9081156128cd576129e39184918791612af7575b5061269b565b813b156113ab57604051631b16777760e01b81523360048201526001600160801b039190911660248201529084908290604490829084905af1801561106e57612ae3575b506001600160a01b036006541690602460206001600160a01b036002541660405192838092630fefbc0960e01b82528a60048301525afa9081156128cd5790612a77929186916128ae57506126bb565b813b156113af57604051631b16777760e01b81526001600160a01b03841660048201526001600160801b039190911660248201529083908290604490829084905af180156104ec57908391612ace575b5050612831565b81612ad891611c34565b6113b7578138612ac7565b83612af091949294611c34565b9138612a27565b612b10915060203d602011611eae57611ea08183611c34565b386129dd565b608460405162461bcd60e51b815260206004820152602960248201527f5374616b6564546f6b656e3a2064656c656761746520746f20746865207a657260448201527f6f206164647265737300000000000000000000000000000000000000000000006064820152fd5b6001600160801b0316612b9460035461266d565b90818102918183041490151715611d455790565b600060206001600160a01b038254166064604051809481937f23b872dd0000000000000000000000000000000000000000000000000000000083523360048401523060248401528860448401525af18015611cfe577f90890809c654f11d6e72a28fa60149770a0d11ec6c92319d6ceb2bb0a4ea1a15926040926001600160a01b0392612d1e575b50600080612cd2612ce08651612c47606082611c34565b603381527f5374616b6564546f6b656e56325370656369616c3a207472616e73666572726560208201527f64207374616b6561626c6520746f6b656e7320000000000000000000000000008882015287519283917f41304fac000000000000000000000000000000000000000000000000000000006020840152602060248401526044830190611bc7565b03601f198101835282611c34565b6020815191016a636f6e736f6c652e6c6f675afa50612cff8582613486565b16928360005260016020524282600020558151904282526020820152a2565b612d369060203d60201161060a576105fd8183611c34565b612c30565b60027f9b779b17422d0df92223018b32b4d1fa46e071723d6817e2486d003becc55f005414612d8a5760027f9b779b17422d0df92223018b32b4d1fa46e071723d6817e2486d003becc55f0055565b7f3ee5aeb50000000000000000000000000000000000000000000000000000000060005260046000fd5b60405190612dc3606083611c34565b602282527f653a0000000000000000000000000000000000000000000000000000000000006040837f5f7374616b6546726f6d556e6974733a20756e69747320746f206d696772617460208201520152565b612e36612e2a6002546001600160a01b031690565b6001600160a01b031690565b604051630fefbc0960e01b81526001600160a01b038316600482015290602090829060249082905afa908115612f3357600091612f14575b50612e77612db4565b612e8b6001600160801b03831680926134fa565b612e9457505050565b612e9d90612b80565b612ea78183613486565b81612f0f6001600160a01b039285612ef37f90890809c654f11d6e72a28fa60149770a0d11ec6c92319d6ceb2bb0a4ea1a15966001600160a01b03166000526001602052604060002090565b5560405193849316958360209093929193604081019481520152565b0390a2565b612f2d915060203d602011611eae57611ea08183611c34565b38612e6e565b611cfe565b60405190612f47606083611c34565b602a82527f6c6c65642066726f6d3a000000000000000000000000000000000000000000006040837f5374616b6564546f6b656e56325370656369616c3a205f75706461746520636160208201520152565b60405190612fa8606083611c34565b602882527f6c6c656420746f3a0000000000000000000000000000000000000000000000006040837f5374616b6564546f6b656e56325370656369616c3a205f75706461746520636160208201520152565b60405190613009606083611c34565b602c82527f6c6c656420616d6f756e743a00000000000000000000000000000000000000006040837f5374616b6564546f6b656e56325370656369616c3a205f75706461746520636160208201520152565b1561306257565b608460405162461bcd60e51b8152602060048201526024808201527f5374616b6564546f6b656e3a20746f6b656e7320617265207374696c6c206c6f60448201527f636b6564000000000000000000000000000000000000000000000000000000006064820152fd5b916130dd836130d8612f38565b61356e565b6130e9826130d8612f99565b6130fa816130f5612ffa565b6134fa565b6001600160a01b03831615801561347057613114836136ab565b61314491613138915b613128828688613850565b156134375761270d60035461266d565b6001600160801b031690565b91613175612e2a613168836001600160a01b03166000526004602052604060002090565b546001600160a01b031690565b156134315761316861319a916001600160a01b03166000526004602052604060002090565b905b6131bf612e2a613168836001600160a01b03166000526004602052604060002090565b1561342b576131686131e4916001600160a01b03166000526004602052604060002090565b905b6001600160a01b038116613300575b506001600160a01b038116613208575050565b61321d612e2a6002546001600160a01b031690565b604051630fefbc0960e01b81526001600160a01b03831660048201529290602090849060249082905afa928315612f33576000936132db575b5061327690613270612e2a6006546001600160a01b031690565b936126bb565b823b156104df57604051631b16777760e01b81526001600160a01b039290921660048301526001600160801b03166024820152906000908290604490829084905af18015612f33576132c6575b50565b806132d560006122cd93611c34565b80611bbc565b6132769193506132f99060203d602011611eae57611ea08183611c34565b9290613256565b613315612e2a6002546001600160a01b031690565b604051630fefbc0960e01b81526001600160a01b038316600482015290602090829060249082905afa908115612f335760009161340c575b50836001600160801b03821680613367575b5050506131f5565b6001600160801b0382161015613402576133809161269b565b905b613397612e2a6006546001600160a01b031690565b91823b156104df57604051631b16777760e01b81526001600160a01b039290921660048301526001600160801b03166024820152906000908290604490829084905af18015612f33576133ed575b80838161335f565b806132d560006133fc93611c34565b386133e5565b5050600090613382565b613425915060203d602011611eae57611ea08183611c34565b3861334d565b906131e6565b9061319c565b61346b61346461345a876001600160a01b03166000526001602052604060002090565b5460085490611d38565b421161305b565b612702565b613479846136ab565b613144916131389161311d565b906001600160a01b038216156122cf576122cd9160006130cb565b60ff7ff0c57e16840df040f15088dc2f81fe391c3923bec73e23a9662efc9c229c6a005460401c16156134d057565b7fd7e6bcf80000000000000000000000000000000000000000000000000000000060005260046000fd5b6135436135576000939284936040519384927fb60e72cc000000000000000000000000000000000000000000000000000000006020850152604060248501526064840190611bc7565b90604483015203601f198101835282611c34565b6020815191016a636f6e736f6c652e6c6f675afa50565b6135bf6135576000939284936001600160a01b036040519485937f319af333000000000000000000000000000000000000000000000000000000006020860152604060248601526064850190611bc7565b9116604483015203601f198101835282611c34565b604051906135e3604083611c34565b601282527f6d696772617465645b6163636f756e745d3a00000000000000000000000000006020830152565b6040519061361e604083611c34565b600882527f6163636f756e743a0000000000000000000000000000000000000000000000006020830152565b60405190613659606083611c34565b602582527f74616d703a0000000000000000000000000000000000000000000000000000006040837f5f6d6967726174653a206f726967696e616c206465706f7369742074696d657360208201520152565b6136e26136d56136ce836001600160a01b03166000526007602052604060002090565b5460ff1690565b6136dd6135d4565b613a33565b6136ee816130d861360f565b61370e6136ce826001600160a01b03166000526007602052604060002090565b801561383f575b6132c357613746613739826001600160a01b03166000526007602052604060002090565b600160ff19825416179055565b613782816001600160a01b03166000527f52c63247e1f47db19d5ce0460030c497f067ca4cebf71ba98eeadabe20bace00602052604060002090565b541561378b5750565b6137a0612e2a6006546001600160a01b031690565b6040517f240be9440000000000000000000000000000000000000000000000000000000081526001600160a01b038316600482015290602090829060249082905afa908115612f3357600091613810575b506137fe816130f561364a565b80613807575050565b6122cd91612e15565b613832915060203d602011613838575b61382a8183611c34565b810190611d29565b386137f1565b503d613820565b506001600160a01b03811615613715565b6001600160a01b031690816139675760206001600160a01b037fddf252ad1be2c89b69c2b068fc378daa952ba7f163c4a11628f55a4df523b3ef926138b6867f52c63247e1f47db19d5ce0460030c497f067ca4cebf71ba98eeadabe20bace0254611d38565b7f52c63247e1f47db19d5ce0460030c497f067ca4cebf71ba98eeadabe20bace02555b16938461393057807f52c63247e1f47db19d5ce0460030c497f067ca4cebf71ba98eeadabe20bace0254037f52c63247e1f47db19d5ce0460030c497f067ca4cebf71ba98eeadabe20bace02555b604051908152a3565b846000527f52c63247e1f47db19d5ce0460030c497f067ca4cebf71ba98eeadabe20bace0082526040600020818154019055613927565b816000527f52c63247e1f47db19d5ce0460030c497f067ca4cebf71ba98eeadabe20bace006020526040600020548381106139fd576001600160a01b037fddf252ad1be2c89b69c2b068fc378daa952ba7f163c4a11628f55a4df523b3ef9285602093866000527f52c63247e1f47db19d5ce0460030c497f067ca4cebf71ba98eeadabe20bace008552036040600020556138d9565b9190507fe450d38c0000000000000000000000000000000000000000000000000000000060005260045260245260445260646000fd5b613a7c6135576000939284936040519384927fc3b55635000000000000000000000000000000000000000000000000000000006020850152604060248501526064840190611bc7565b901515604483015203601f198101835282611c3456fea2646970667358221220e376db535e33ea2296d22e1666cff58135167c02a071a3a3364a99f7add008be64736f6c634300081a0033",
  "linkReferences": {},
  "deployedLinkReferences": {}
}