{
  "_format": "hh-sol-artifact-1",
  "contractName": "StakedTokenV2Special",
  "sourceName": "contracts/hook/staking/StakedTokenv2Special.sol",
  "abi": [
    {
      "inputs": [],
      "stateMutability": "nonpayable",
      "type": "constructor"
    },
    {
      "inputs": [],
      "name": "AccessControlBadConfirmation",
      "type": "error"
    },
    {
      "inputs": [
        {
          "internalType": "address",
          "name": "account",
          "type": "address"
        },
        {
          "internalType": "bytes32",
          "name": "neededRole",
          "type": "bytes32"
        }
      ],
      "name": "AccessControlUnauthorizedAccount",
      "type": "error"
    },
    {
      "inputs": [
        {
          "internalType": "address",
          "name": "spender",
          "type": "address"
        },
        {
          "internalType": "uint256",
          "name": "allowance",
          "type": "uint256"
        },
        {
          "internalType": "uint256",
          "name": "needed",
          "type": "uint256"
        }
      ],
      "name": "ERC20InsufficientAllowance",
      "type": "error"
    },
    {
      "inputs": [
        {
          "internalType": "address",
          "name": "sender",
          "type": "address"
        },
        {
          "internalType": "uint256",
          "name": "balance",
          "type": "uint256"
        },
        {
          "internalType": "uint256",
          "name": "needed",
          "type": "uint256"
        }
      ],
      "name": "ERC20InsufficientBalance",
      "type": "error"
    },
    {
      "inputs": [
        {
          "internalType": "address",
          "name": "approver",
          "type": "address"
        }
      ],
      "name": "ERC20InvalidApprover",
      "type": "error"
    },
    {
      "inputs": [
        {
          "internalType": "address",
          "name": "receiver",
          "type": "address"
        }
      ],
      "name": "ERC20InvalidReceiver",
      "type": "error"
    },
    {
      "inputs": [
        {
          "internalType": "address",
          "name": "sender",
          "type": "address"
        }
      ],
      "name": "ERC20InvalidSender",
      "type": "error"
    },
    {
      "inputs": [
        {
          "internalType": "address",
          "name": "spender",
          "type": "address"
        }
      ],
      "name": "ERC20InvalidSpender",
      "type": "error"
    },
    {
      "inputs": [],
      "name": "InvalidInitialization",
      "type": "error"
    },
    {
      "inputs": [],
      "name": "NotInitializing",
      "type": "error"
    },
    {
      "inputs": [],
      "name": "ReentrancyGuardReentrantCall",
      "type": "error"
    },
    {
      "anonymous": false,
      "inputs": [
        {
          "indexed": true,
          "internalType": "address",
          "name": "owner",
          "type": "address"
        },
        {
          "indexed": true,
          "internalType": "address",
          "name": "spender",
          "type": "address"
        },
        {
          "indexed": false,
          "internalType": "uint256",
          "name": "value",
          "type": "uint256"
        }
      ],
      "name": "Approval",
      "type": "event"
    },
    {
      "anonymous": false,
      "inputs": [
        {
          "indexed": true,
          "internalType": "address",
          "name": "delegator",
          "type": "address"
        },
        {
          "indexed": true,
          "internalType": "address",
          "name": "delegatee",
          "type": "address"
        }
      ],
      "name": "Delegated",
      "type": "event"
    },
    {
      "anonymous": false,
      "inputs": [
        {
          "indexed": true,
          "internalType": "address",
          "name": "account",
          "type": "address"
        },
        {
          "indexed": false,
          "internalType": "uint256",
          "name": "depositTimestamp",
          "type": "uint256"
        },
        {
          "indexed": false,
          "internalType": "uint256",
          "name": "amount",
          "type": "uint256"
        }
      ],
      "name": "Deposit",
      "type": "event"
    },
    {
      "anonymous": false,
      "inputs": [
        {
          "indexed": false,
          "internalType": "uint64",
          "name": "version",
          "type": "uint64"
        }
      ],
      "name": "Initialized",
      "type": "event"
    },
    {
      "anonymous": false,
      "inputs": [
        {
          "indexed": false,
          "internalType": "uint256",
          "name": "duration",
          "type": "uint256"
        }
      ],
      "name": "LockDurationUpdated",
      "type": "event"
    },
    {
      "anonymous": false,
      "inputs": [
        {
          "indexed": true,
          "internalType": "bytes32",
          "name": "role",
          "type": "bytes32"
        },
        {
          "indexed": true,
          "internalType": "bytes32",
          "name": "previousAdminRole",
          "type": "bytes32"
        },
        {
          "indexed": true,
          "internalType": "bytes32",
          "name": "newAdminRole",
          "type": "bytes32"
        }
      ],
      "name": "RoleAdminChanged",
      "type": "event"
    },
    {
      "anonymous": false,
      "inputs": [
        {
          "indexed": true,
          "internalType": "bytes32",
          "name": "role",
          "type": "bytes32"
        },
        {
          "indexed": true,
          "internalType": "address",
          "name": "account",
          "type": "address"
        },
        {
          "indexed": true,
          "internalType": "address",
          "name": "sender",
          "type": "address"
        }
      ],
      "name": "RoleGranted",
      "type": "event"
    },
    {
      "anonymous": false,
      "inputs": [
        {
          "indexed": true,
          "internalType": "bytes32",
          "name": "role",
          "type": "bytes32"
        },
        {
          "indexed": true,
          "internalType": "address",
          "name": "account",
          "type": "address"
        },
        {
          "indexed": true,
          "internalType": "address",
          "name": "sender",
          "type": "address"
        }
      ],
      "name": "RoleRevoked",
      "type": "event"
    },
    {
      "anonymous": false,
      "inputs": [
        {
          "indexed": true,
          "internalType": "address",
          "name": "from",
          "type": "address"
        },
        {
          "indexed": true,
          "internalType": "address",
          "name": "to",
          "type": "address"
        },
        {
          "indexed": false,
          "internalType": "uint256",
          "name": "value",
          "type": "uint256"
        }
      ],
      "name": "Transfer",
      "type": "event"
    },
    {
      "anonymous": false,
      "inputs": [
        {
          "indexed": true,
          "internalType": "address",
          "name": "account",
          "type": "address"
        },
        {
          "indexed": false,
          "internalType": "uint256",
          "name": "depositTimestamp",
          "type": "uint256"
        },
        {
          "indexed": false,
          "internalType": "uint256",
          "name": "amount",
          "type": "uint256"
        }
      ],
      "name": "Withdraw",
      "type": "event"
    },
    {
      "inputs": [],
      "name": "DEFAULT_ADMIN_ROLE",
      "outputs": [
        {
          "internalType": "bytes32",
          "name": "",
          "type": "bytes32"
        }
      ],
      "stateMutability": "view",
      "type": "function"
    },
    {
      "inputs": [],
      "name": "MANAGER_ROLE",
      "outputs": [
        {
          "internalType": "bytes32",
          "name": "",
          "type": "bytes32"
        }
      ],
      "stateMutability": "view",
      "type": "function"
    },
    {
      "inputs": [
        {
          "internalType": "address",
          "name": "owner",
          "type": "address"
        },
        {
          "internalType": "address",
          "name": "spender",
          "type": "address"
        }
      ],
      "name": "allowance",
      "outputs": [
        {
          "internalType": "uint256",
          "name": "",
          "type": "uint256"
        }
      ],
      "stateMutability": "view",
      "type": "function"
    },
    {
      "inputs": [
        {
          "internalType": "address",
          "name": "spender",
          "type": "address"
        },
        {
          "internalType": "uint256",
          "name": "value",
          "type": "uint256"
        }
      ],
      "name": "approve",
      "outputs": [
        {
          "internalType": "bool",
          "name": "",
          "type": "bool"
        }
      ],
      "stateMutability": "nonpayable",
      "type": "function"
    },
    {
      "inputs": [
        {
          "internalType": "address",
          "name": "account",
          "type": "address"
        }
      ],
      "name": "balanceOf",
      "outputs": [
        {
          "internalType": "uint256",
          "name": "",
          "type": "uint256"
        }
      ],
      "stateMutability": "view",
      "type": "function"
    },
    {
      "inputs": [
        {
          "internalType": "uint256",
          "name": "value",
          "type": "uint256"
        }
      ],
      "name": "burn",
      "outputs": [],
      "stateMutability": "nonpayable",
      "type": "function"
    },
    {
      "inputs": [
        {
          "internalType": "address",
          "name": "account",
          "type": "address"
        },
        {
          "internalType": "uint256",
          "name": "value",
          "type": "uint256"
        }
      ],
      "name": "burnFrom",
      "outputs": [],
      "stateMutability": "nonpayable",
      "type": "function"
    },
    {
      "inputs": [],
      "name": "decimals",
      "outputs": [
        {
          "internalType": "uint8",
          "name": "",
          "type": "uint8"
        }
      ],
      "stateMutability": "view",
      "type": "function"
    },
    {
      "inputs": [
        {
          "internalType": "address",
          "name": "to",
          "type": "address"
        }
      ],
      "name": "delegate",
      "outputs": [],
      "stateMutability": "nonpayable",
      "type": "function"
    },
    {
      "inputs": [
        {
          "internalType": "address",
          "name": "",
          "type": "address"
        }
      ],
      "name": "delegates",
      "outputs": [
        {
          "internalType": "address",
          "name": "",
          "type": "address"
        }
      ],
      "stateMutability": "view",
      "type": "function"
    },
    {
      "inputs": [
        {
          "internalType": "address",
          "name": "account",
          "type": "address"
        }
      ],
      "name": "depositTimestamps",
      "outputs": [
        {
          "internalType": "uint256",
          "name": "",
          "type": "uint256"
        }
      ],
      "stateMutability": "view",
      "type": "function"
    },
    {
      "inputs": [
        {
          "internalType": "bytes32",
          "name": "role",
          "type": "bytes32"
        }
      ],
      "name": "getRoleAdmin",
      "outputs": [
        {
          "internalType": "bytes32",
          "name": "",
          "type": "bytes32"
        }
      ],
      "stateMutability": "view",
      "type": "function"
    },
    {
      "inputs": [
        {
          "internalType": "bytes32",
          "name": "role",
          "type": "bytes32"
        },
        {
          "internalType": "address",
          "name": "account",
          "type": "address"
        }
      ],
      "name": "grantRole",
      "outputs": [],
      "stateMutability": "nonpayable",
      "type": "function"
    },
    {
      "inputs": [
        {
          "internalType": "bytes32",
          "name": "role",
          "type": "bytes32"
        },
        {
          "internalType": "address",
          "name": "account",
          "type": "address"
        }
      ],
      "name": "hasRole",
      "outputs": [
        {
          "internalType": "bool",
          "name": "",
          "type": "bool"
        }
      ],
      "stateMutability": "view",
      "type": "function"
    },
    {
      "inputs": [
        {
          "internalType": "string",
          "name": "_name",
          "type": "string"
        },
        {
          "internalType": "string",
          "name": "_symbol",
          "type": "string"
        },
        {
          "internalType": "address",
          "name": "_stakeableToken",
          "type": "address"
        },
        {
          "internalType": "address",
          "name": "_originalStakedTokenAddress",
          "type": "address"
        }
      ],
      "name": "initialize",
      "outputs": [],
      "stateMutability": "nonpayable",
      "type": "function"
    },
    {
      "inputs": [],
      "name": "lockDuration",
      "outputs": [
        {
          "internalType": "uint256",
          "name": "",
          "type": "uint256"
        }
      ],
      "stateMutability": "view",
      "type": "function"
    },
    {
      "inputs": [
        {
          "internalType": "address",
          "name": "to",
          "type": "address"
        }
      ],
      "name": "migrate",
      "outputs": [],
      "stateMutability": "nonpayable",
      "type": "function"
    },
    {
      "inputs": [
        {
          "internalType": "address",
          "name": "to",
          "type": "address"
        },
        {
          "internalType": "uint256",
          "name": "timestamp",
          "type": "uint256"
        }
      ],
      "name": "migrateWithTimestamp",
      "outputs": [],
      "stateMutability": "nonpayable",
      "type": "function"
    },
    {
      "inputs": [
        {
          "internalType": "address",
          "name": "",
          "type": "address"
        }
      ],
      "name": "migrated",
      "outputs": [
        {
          "internalType": "bool",
          "name": "",
          "type": "bool"
        }
      ],
      "stateMutability": "view",
      "type": "function"
    },
    {
      "inputs": [],
      "name": "name",
      "outputs": [
        {
          "internalType": "string",
          "name": "",
          "type": "string"
        }
      ],
      "stateMutability": "view",
      "type": "function"
    },
    {
      "inputs": [],
      "name": "originalStakedToken",
      "outputs": [
        {
          "internalType": "contract IStakedTokenv2",
          "name": "",
          "type": "address"
        }
      ],
      "stateMutability": "view",
      "type": "function"
    },
    {
      "inputs": [],
      "name": "pool",
      "outputs": [
        {
          "internalType": "contract IDistributionPool",
          "name": "",
          "type": "address"
        }
      ],
      "stateMutability": "view",
      "type": "function"
    },
    {
      "inputs": [
        {
          "internalType": "uint256",
          "name": "newDuration",
          "type": "uint256"
        }
      ],
      "name": "reduceLockDuration",
      "outputs": [],
      "stateMutability": "nonpayable",
      "type": "function"
    },
    {
      "inputs": [
        {
          "internalType": "bytes32",
          "name": "role",
          "type": "bytes32"
        },
        {
          "internalType": "address",
          "name": "callerConfirmation",
          "type": "address"
        }
      ],
      "name": "renounceRole",
      "outputs": [],
      "stateMutability": "nonpayable",
      "type": "function"
    },
    {
      "inputs": [
        {
          "internalType": "bytes32",
          "name": "role",
          "type": "bytes32"
        },
        {
          "internalType": "address",
          "name": "account",
          "type": "address"
        }
      ],
      "name": "revokeRole",
      "outputs": [],
      "stateMutability": "nonpayable",
      "type": "function"
    },
    {
      "inputs": [
        {
          "internalType": "contract IDistributionPool",
          "name": "_pool",
          "type": "address"
        }
      ],
      "name": "setPool",
      "outputs": [],
      "stateMutability": "nonpayable",
      "type": "function"
    },
    {
      "inputs": [
        {
          "internalType": "uint256",
          "name": "_unitDecimals",
          "type": "uint256"
        }
      ],
      "name": "setUnitDecimals",
      "outputs": [],
      "stateMutability": "nonpayable",
      "type": "function"
    },
    {
      "inputs": [
        {
          "internalType": "address",
          "name": "to",
          "type": "address"
        },
        {
          "internalType": "uint256",
          "name": "amount",
          "type": "uint256"
        }
      ],
      "name": "stake",
      "outputs": [],
      "stateMutability": "nonpayable",
      "type": "function"
    },
    {
      "inputs": [
        {
          "internalType": "address",
          "name": "delegateTo",
          "type": "address"
        },
        {
          "internalType": "uint256",
          "name": "amount",
          "type": "uint256"
        }
      ],
      "name": "stakeAndDelegate",
      "outputs": [],
      "stateMutability": "nonpayable",
      "type": "function"
    },
    {
      "inputs": [],
      "name": "stakeableToken",
      "outputs": [
        {
          "internalType": "contract IERC20",
          "name": "",
          "type": "address"
        }
      ],
      "stateMutability": "view",
      "type": "function"
    },
    {
      "inputs": [],
      "name": "stakingFactory",
      "outputs": [
        {
          "internalType": "address",
          "name": "",
          "type": "address"
        }
      ],
      "stateMutability": "view",
      "type": "function"
    },
    {
      "inputs": [
        {
          "internalType": "bytes4",
          "name": "interfaceId",
          "type": "bytes4"
        }
      ],
      "name": "supportsInterface",
      "outputs": [
        {
          "internalType": "bool",
          "name": "",
          "type": "bool"
        }
      ],
      "stateMutability": "view",
      "type": "function"
    },
    {
      "inputs": [],
      "name": "symbol",
      "outputs": [
        {
          "internalType": "string",
          "name": "",
          "type": "string"
        }
      ],
      "stateMutability": "view",
      "type": "function"
    },
    {
      "inputs": [
        {
          "internalType": "uint256",
          "name": "amount",
          "type": "uint256"
        }
      ],
      "name": "tokensToUnits",
      "outputs": [
        {
          "internalType": "uint128",
          "name": "",
          "type": "uint128"
        }
      ],
      "stateMutability": "view",
      "type": "function"
    },
    {
      "inputs": [],
      "name": "totalSupply",
      "outputs": [
        {
          "internalType": "uint256",
          "name": "",
          "type": "uint256"
        }
      ],
      "stateMutability": "view",
      "type": "function"
    },
    {
      "inputs": [
        {
          "internalType": "address",
          "name": "to",
          "type": "address"
        },
        {
          "internalType": "uint256",
          "name": "value",
          "type": "uint256"
        }
      ],
      "name": "transfer",
      "outputs": [
        {
          "internalType": "bool",
          "name": "",
          "type": "bool"
        }
      ],
      "stateMutability": "nonpayable",
      "type": "function"
    },
    {
      "inputs": [
        {
          "internalType": "address",
          "name": "from",
          "type": "address"
        },
        {
          "internalType": "address",
          "name": "to",
          "type": "address"
        },
        {
          "internalType": "uint256",
          "name": "value",
          "type": "uint256"
        }
      ],
      "name": "transferFrom",
      "outputs": [
        {
          "internalType": "bool",
          "name": "",
          "type": "bool"
        }
      ],
      "stateMutability": "nonpayable",
      "type": "function"
    },
    {
      "inputs": [
        {
          "internalType": "address",
          "name": "account",
          "type": "address"
        }
      ],
      "name": "trueBalanceOf",
      "outputs": [
        {
          "internalType": "uint256",
          "name": "",
          "type": "uint256"
        }
      ],
      "stateMutability": "view",
      "type": "function"
    },
    {
      "inputs": [],
      "name": "unitDecimals",
      "outputs": [
        {
          "internalType": "uint256",
          "name": "",
          "type": "uint256"
        }
      ],
      "stateMutability": "view",
      "type": "function"
    },
    {
      "inputs": [
        {
          "internalType": "address",
          "name": "account",
          "type": "address"
        }
      ],
      "name": "unlockDate",
      "outputs": [
        {
          "internalType": "uint256",
          "name": "",
          "type": "uint256"
        }
      ],
      "stateMutability": "view",
      "type": "function"
    },
    {
      "inputs": [
        {
          "internalType": "address",
          "name": "to",
          "type": "address"
        },
        {
          "internalType": "uint256",
          "name": "amount",
          "type": "uint256"
        }
      ],
      "name": "unstake",
      "outputs": [],
      "stateMutability": "nonpayable",
      "type": "function"
    },
    {
      "inputs": [
        {
          "internalType": "address",
          "name": "memberAddr",
          "type": "address"
        },
        {
          "internalType": "uint128",
          "name": "newUnits",
          "type": "uint128"
        }
      ],
      "name": "updateMemberUnits",
      "outputs": [],
      "stateMutability": "nonpayable",
      "type": "function"
    }
  ],
  "bytecode": "0x6080806040523460d2577ff0c57e16840df040f15088dc2f81fe391c3923bec73e23a9662efc9c229c6a005460ff8160401c1660c1576002600160401b03196001600160401b03821601605c575b6040516134a390816100d88239f35b6001600160401b0319166001600160401b039081177ff0c57e16840df040f15088dc2f81fe391c3923bec73e23a9662efc9c229c6a005581527fc7f505b2f371ae2175ee4913f4499e1f2633a7b5936321eed1cdaeb6115181d290602090a13880604d565b63f92ee8a960e01b60005260046000fd5b600080fdfe608080604052600436101561001357600080fd5b600090813560e01c90816301ffc9a7146119ce5750806304554443146119b057806305271a2a1461199257806306fdde03146118ad578063095ea7b3146117a25780630f0d7ff21461174257806316f0115b1461171b57806318160ddd146116de5780631b1677771461163157806323b872dd146115f8578063240be944146115c0578063248a9ca314611573578063291347681461154c5780632f2ff15d146114ec578063313ce567146114d057806336568abe1461147257806342966c68146114545780634437152a1461140557806349ccd69e146113e15780634ba0a5ee146113a4578063587cde1e1461136a5780635bbbbc171461132f5780635c19a95c1461130d57806370a08231146112e157806379cc6790146112b057806388f6a4941461126d5780638f15b4141461097b57806391d148541461090f57806395d89b41146107f2578063a217fddf146107d6578063a9059cbb146107a4578063adc9772e1461074f578063bdfc371e1461072c578063c242652c14610611578063c2a672e0146104f7578063ce5494bb146103ca578063ce6a380514610360578063d547741f146102f7578063dd62ed3e14610279578063ec87621c1461023e578063ee5361b3146102185763f9bcbf0a146101ef57600080fd5b3461021557806003193601126102155760206001600160a01b0360065416604051908152f35b80fd5b50346102155780600319360112610215576001600160a01b036020915416604051908152f35b503461021557806003193601126102155760206040517f241ecf16d79d0f8dbfb92cbc07fe17840425976cf0667f022fe9877caa831b088152f35b503461021557604060031936011261021557610293611ac3565b6001600160a01b036102df6102a6611ad9565b926001600160a01b03166000527f52c63247e1f47db19d5ce0460030c497f067ca4cebf71ba98eeadabe20bace01602052604060002090565b91166000526020526020604060002054604051908152f35b50346102155760406003193601126102155761035c600435610317611ad9565b90610357610352826000527f02dd7bc7dec4dceedda775e58dd541e08a116c6c53815c0bd028192f7b62680060205260016040600020015490565b611f74565b612440565b5080f35b5034610215576040600319360112610215576103c761037d611ac3565b610385611f02565b6001600160a01b03811680845260076020526103a860ff60408620541615611eb7565b8352600760205260408320600160ff1982541617905560243590612bab565b80f35b5034610215576020600319360112610215576103e4611ac3565b6103ec612b32565b6001600160a01b038116808352600760205261040f60ff60408520541615611eb7565b808352600760205260408320600160ff1982541617905560206001600160a01b0360065416916024604051809481937f240be94400000000000000000000000000000000000000000000000000000000835260048301525afa9081156104ec5783916104b5575b50806104a5575b8260017f9b779b17422d0df92223018b32b4d1fa46e071723d6817e2486d003becc55f005580f35b6104ae91612bab565b388061047d565b90506020813d6020116104e4575b816104d060209383611aef565b810103126104df575138610476565b600080fd5b3d91506104c3565b6040513d85823e3d90fd5b503461021557604060031936011261021557610511611ac3565b6024359061051d612b32565b610527823361250d565b60206001600160a01b03604481865416938660405195869485937fa9059cbb0000000000000000000000000000000000000000000000000000000085521660048401528760248401525af180156104ec576105e4575b50338252600160205260408220549060405191825260208201527ff279e6a1f5e320cca91135676d9cb6e44ca8a08c0b88342bcdb1144f6511b56860403392a260017f9b779b17422d0df92223018b32b4d1fa46e071723d6817e2486d003becc55f005580f35b6106059060203d60201161060a575b6105fd8183611aef565b810190611e9f565b61057d565b503d6105f3565b5034610215576020600319360112610215576004358180527f02dd7bc7dec4dceedda775e58dd541e08a116c6c53815c0bd028192f7b626800602052604082206001600160a01b03331660005260205260ff6040600020541615610715576008548110156106ab576020817f3e062f634a950eae456fa5f8fb53a4f59f55039983bd73df7a34a313b75443d492600855604051908152a180f35b608460405162461bcd60e51b815260206004820152604060248201527f5374616b6564546f6b656e3a206e6577206475726174696f6e206d757374206260448201527f65206c657373207468616e207468652063757272656e74206475726174696f6e6064820152fd5b60448263e2517d3f60e01b81523360045280602452fd5b503461021557602060031936011261021557610746611f02565b60043560035580f35b50346102155760406003193601126102155761077d61076c611ac3565b610774612b32565b60243590612a63565b60017f9b779b17422d0df92223018b32b4d1fa46e071723d6817e2486d003becc55f005580f35b5034610215576040600319360112610215576107cb6107c1611ac3565b602435903361215f565b602060405160018152f35b5034610215578060031936011261021557602090604051908152f35b503461021557806003193601126102155760405190807f52c63247e1f47db19d5ce0460030c497f067ca4cebf71ba98eeadabe20bace04549061083482611b7f565b80855291600181169081156108e8575060011461086c575b6108688461085c81860382611aef565b60405191829182611a79565b0390f35b7f52c63247e1f47db19d5ce0460030c497f067ca4cebf71ba98eeadabe20bace0481527f46a2803e59a4de4e7a4c574b1243f25977ac4c77d5a1a4a609b5394cebb4a2aa939250905b8082106108ce5750909150810160200161085c8261084c565b9192600181602092548385880101520191019092916108b5565b60ff191660208087019190915292151560051b8501909201925061085c915083905061084c565b5034610215576040600319360112610215576001600160a01b036040610933611ad9565b9260043581527f02dd7bc7dec4dceedda775e58dd541e08a116c6c53815c0bd028192f7b626800602052209116600052602052602060ff604060002054166040519015158152f35b50346102155760806003193601126102155760043567ffffffffffffffff8111611269576109ad903690600401611b28565b60243567ffffffffffffffff8111611265576109cd903690600401611b28565b6044356001600160a01b03811680910361126157606435916001600160a01b03831680930361125d577ff0c57e16840df040f15088dc2f81fe391c3923bec73e23a9662efc9c229c6a00549360ff8560401c16159467ffffffffffffffff811680159081611255575b600114908161124b575b159081611242575b5061121a578560017fffffffffffffffffffffffffffffffffffffffffffffffff00000000000000008316177ff0c57e16840df040f15088dc2f81fe391c3923bec73e23a9662efc9c229c6a00556111c5575b50610aa46130d4565b610aac6130d4565b80519067ffffffffffffffff82116111b1578190610aea7f52c63247e1f47db19d5ce0460030c497f067ca4cebf71ba98eeadabe20bace0354611b7f565b601f8111611124575b50602090601f8311600114611083578892611078575b50506000198260011b9260031b1c1916177f52c63247e1f47db19d5ce0460030c497f067ca4cebf71ba98eeadabe20bace03555b80519067ffffffffffffffff8211611064578190610b7b7f52c63247e1f47db19d5ce0460030c497f067ca4cebf71ba98eeadabe20bace0454611b7f565b601f8111610fd7575b50602090601f8311600114610f36578792610f2b575b50506000198260011b9260031b1c1916177f52c63247e1f47db19d5ce0460030c497f067ca4cebf71ba98eeadabe20bace04555b610bd66130d4565b610bde6130d4565b610be66130d4565b60017f9b779b17422d0df92223018b32b4d1fa46e071723d6817e2486d003becc55f0055610c126130d4565b610c1b336121e8565b508173ffffffffffffffffffffffffffffffffffffffff19600654161760065573ffffffffffffffffffffffffffffffffffffffff19845416178355604051907f16f0115b000000000000000000000000000000000000000000000000000000008252602082600481845afa908115610f20576001600160a01b036020926004948791610f03575b501673ffffffffffffffffffffffffffffffffffffffff196002541617600255604051928380927f045544430000000000000000000000000000000000000000000000000000000082525afa9081156104ec578391610ed1575b50600855601260035573c749105bc4b4ea6285dbbe2e8221c922bea07a9d73ffffffffffffffffffffffffffffffffffffffff1960055416176005556040517f37ad4d8b00000000000000000000000000000000000000000000000000000000815260208160048173c749105bc4b4ea6285dbbe2e8221c922bea07a9d5afa80156104ec57610d93918491610eb2575b506122bc565b50600460206001600160a01b0360055416604051928380927f37ad4d8b0000000000000000000000000000000000000000000000000000000082525afa80156104ec57610de7918491610e83575b506121e8565b50610def5780f35b7fffffffffffffffffffffffffffffffffffffffffffffff00ffffffffffffffff7ff0c57e16840df040f15088dc2f81fe391c3923bec73e23a9662efc9c229c6a0054167ff0c57e16840df040f15088dc2f81fe391c3923bec73e23a9662efc9c229c6a00557fc7f505b2f371ae2175ee4913f4499e1f2633a7b5936321eed1cdaeb6115181d2602060405160018152a180f35b610ea5915060203d602011610eab575b610e9d8183611aef565b810190611e80565b38610de1565b503d610e93565b610ecb915060203d602011610eab57610e9d8183611aef565b38610d8d565b90506020813d602011610efb575b81610eec60209383611aef565b810103126104df575138610cfd565b3d9150610edf565b610f1a9150843d8611610eab57610e9d8183611aef565b38610ca3565b6040513d86823e3d90fd5b015190503880610b9a565b7f52c63247e1f47db19d5ce0460030c497f067ca4cebf71ba98eeadabe20bace04885281882092601f1916885b818110610fbf5750908460019594939210610fa6575b505050811b017f52c63247e1f47db19d5ce0460030c497f067ca4cebf71ba98eeadabe20bace0455610bce565b015160001960f88460031b161c19169055388080610f79565b92936020600181928786015181550195019301610f63565b7f52c63247e1f47db19d5ce0460030c497f067ca4cebf71ba98eeadabe20bace0488529091507f46a2803e59a4de4e7a4c574b1243f25977ac4c77d5a1a4a609b5394cebb4a2aa601f840160051c8101916020851061105a575b90601f859493920160051c01905b81811061104c5750610b84565b88815584935060010161103f565b9091508190611031565b602486634e487b7160e01b81526041600452fd5b015190503880610b09565b7f52c63247e1f47db19d5ce0460030c497f067ca4cebf71ba98eeadabe20bace03895281892092601f1916895b81811061110c57509084600195949392106110f3575b505050811b017f52c63247e1f47db19d5ce0460030c497f067ca4cebf71ba98eeadabe20bace0355610b3d565b015160001960f88460031b161c191690553880806110c6565b929360206001819287860151815501950193016110b0565b7f52c63247e1f47db19d5ce0460030c497f067ca4cebf71ba98eeadabe20bace0389529091507f2ae08a8e29253f69ac5d979a101956ab8f8d9d7ded63fa7a83b16fc47648eab0601f840160051c810191602085106111a7575b90601f859493920160051c01905b8181106111995750610af3565b89815584935060010161118c565b909150819061117e565b602487634e487b7160e01b81526041600452fd5b7fffffffffffffffffffffffffffffffffffffffffffffff0000000000000000001668010000000000000001177ff0c57e16840df040f15088dc2f81fe391c3923bec73e23a9662efc9c229c6a005538610a9b565b6004877ff92ee8a9000000000000000000000000000000000000000000000000000000008152fd5b90501538610a48565b303b159150610a40565b879150610a36565b8480fd5b8380fd5b8280fd5b5080fd5b503461021557604060031936011261021557611287611ac3565b61129360243533612a63565b336001600160a01b038216036112a7575080f35b6103c790612596565b5034610215576040600319360112610215576103c76112cd611ac3565b602435906112dc823383611fda565b61250d565b5034610215576020600319360112610215576020611305611300611ac3565b611d70565b604051908152f35b5034610215576020600319360112610215576103c761132a611ac3565b612596565b50346102155760206003193601126102155760206001600160801b03611361611359600354612528565b600435612536565b16604051908152f35b5034610215576020600319360112610215576001600160a01b03604060209282611392611ac3565b16815260048452205416604051908152f35b50346102155760206003193601126102155760ff60406020926001600160a01b036113cd611ac3565b168152600784522054166040519015158152f35b5034610215576020600319360112610215576020611305611400611ac3565b611c16565b5034610215576020600319360112610215576004356001600160a01b03811680910361126957611433611f02565b73ffffffffffffffffffffffffffffffffffffffff19600254161760025580f35b5034610215576020600319360112610215576103c76004353361250d565b50346102155760406003193601126102155761148c611ad9565b336001600160a01b038216036114a85761035c90600435612440565b6004827f6697b232000000000000000000000000000000000000000000000000000000008152fd5b5034610215578060031936011261021557602060405160128152f35b50346102155760406003193601126102155761035c60043561150c611ad9565b90611547610352826000527f02dd7bc7dec4dceedda775e58dd541e08a116c6c53815c0bd028192f7b62680060205260016040600020015490565b612368565b503461021557806003193601126102155760206001600160a01b0360055416604051908152f35b50346102155760206003193601126102155760206113056004356000527f02dd7bc7dec4dceedda775e58dd541e08a116c6c53815c0bd028192f7b62680060205260016040600020015490565b50346102155760206003193601126102155760406020916001600160a01b036115e7611ac3565b168152600183522054604051908152f35b5034610215576060600319360112610215576107cb611615611ac3565b61161d611ad9565b6044359161162c833383611fda565b61215f565b50346102155760406003193601126102155761164b611ac3565b81602435916001600160801b038316830361126957611668611f02565b6001600160a01b036006541692833b1561126557604051631b16777760e01b81526001600160a01b039290921660048301526001600160801b031660248201529181908390604490829084905af180156116d1576116c35780f35b6116cc91611aef565b388180f35b50604051903d90823e3d90fd5b503461021557806003193601126102155760207f52c63247e1f47db19d5ce0460030c497f067ca4cebf71ba98eeadabe20bace0254604051908152f35b503461021557806003193601126102155760206001600160a01b0360025416604051908152f35b5034610215576020600319360112610215576020611799611761611ac3565b6001600160a01b03166000527f52c63247e1f47db19d5ce0460030c497f067ca4cebf71ba98eeadabe20bace00602052604060002090565b54604051908152f35b5034610215576040600319360112610215576117bc611ac3565b602435903315611881576001600160a01b03169182156118555760408291611816336001600160a01b03166000527f52c63247e1f47db19d5ce0460030c497f067ca4cebf71ba98eeadabe20bace01602052604060002090565b85825260205220556040519081527f8c5be1e5ebec7d5bd14f71427d1e84f3dd0314c0f7b2291e5b200ac8c7c3b92560203392a3602060405160018152f35b807f94280d62000000000000000000000000000000000000000000000000000000006024925280600452fd5b6024837fe602df0500000000000000000000000000000000000000000000000000000000815280600452fd5b503461021557806003193601126102155760405190807f52c63247e1f47db19d5ce0460030c497f067ca4cebf71ba98eeadabe20bace0354906118ef82611b7f565b80855291600181169081156108e85750600114611916576108688461085c81860382611aef565b7f52c63247e1f47db19d5ce0460030c497f067ca4cebf71ba98eeadabe20bace0381527f2ae08a8e29253f69ac5d979a101956ab8f8d9d7ded63fa7a83b16fc47648eab0939250905b8082106119785750909150810160200161085c8261084c565b91926001816020925483858801015201910190929161195f565b50346102155780600319360112610215576020600354604051908152f35b50346102155780600319360112610215576020600854604051908152f35b905034611269576020600319360112611269576004357fffffffff00000000000000000000000000000000000000000000000000000000811680910361126557602092507f7965db0b000000000000000000000000000000000000000000000000000000008114908115611a44575b5015158152f35b7f01ffc9a70000000000000000000000000000000000000000000000000000000091501438611a3d565b60009103126104df57565b9190916020815282519283602083015260005b848110611aad575050601f19601f8460006040809697860101520116010190565b8060208092840101516040828601015201611a8c565b600435906001600160a01b03821682036104df57565b602435906001600160a01b03821682036104df57565b90601f601f19910116810190811067ffffffffffffffff821117611b1257604052565b634e487b7160e01b600052604160045260246000fd5b81601f820112156104df5780359067ffffffffffffffff8211611b125760405192611b5d6020601f19601f8601160185611aef565b828452602083830101116104df57816000926020809301838601378301015290565b90600182811c92168015611baf575b6020831014611b9957565b634e487b7160e01b600052602260045260246000fd5b91607f1691611b8e565b6040513d6000823e3d90fd5b908160209103126104df57516001600160801b03811681036104df5790565b908160209103126104df575190565b91908201809211611c0057565b634e487b7160e01b600052601160045260246000fd5b6001600160a01b031680600052600760205260ff60406000205416600014611c725780600052600160205260406000205415600014611c555750600090565b6000526001602052611c6f60406000205460085490611bf3565b90565b602460206001600160a01b036002541660405192838092630fefbc0960e01b82528660048301525afa8015611bb9576001600160801b0391600091611d41575b5016611cbe5750600090565b60206001600160a01b0360065416916024604051809481937f49ccd69e00000000000000000000000000000000000000000000000000000000835260048301525afa908115611bb957600091611d12575090565b90506020813d602011611d39575b81611d2d60209383611aef565b810103126104df575190565b3d9150611d20565b611d63915060203d602011611d69575b611d5b8183611aef565b810190611bc5565b38611cb2565b503d611d51565b6001600160a01b0381169081600052600760205260ff604060002054168015611e3b575b15611dda57611dd691506001600160a01b03166000527f52c63247e1f47db19d5ce0460030c497f067ca4cebf71ba98eeadabe20bace00602052604060002090565b5490565b5060206001600160a01b036002541691602460405180948193630fefbc0960e01b835260048301525afa8015611bb957611c6f91600091611e1c575b50612a3b565b611e35915060203d602011611d6957611d5b8183611aef565b38611e16565b50611e78816001600160a01b03166000527f52c63247e1f47db19d5ce0460030c497f067ca4cebf71ba98eeadabe20bace00602052604060002090565b541515611d94565b908160209103126104df57516001600160a01b03811681036104df5790565b908160209103126104df575180151581036104df5790565b15611ebe57565b606460405162461bcd60e51b815260206004820152601360248201527f63616e206f6e6c7920636c61696d206f6e6365000000000000000000000000006044820152fd5b3360009081527f06484cc59dc38e4f67c31122333a17ca81b3ca18cdf02bfc298072fa52b0316a602052604090205460ff1615611f3b57565b63e2517d3f60e01b600052336004527f241ecf16d79d0f8dbfb92cbc07fe17840425976cf0667f022fe9877caa831b0860245260446000fd5b806000527f02dd7bc7dec4dceedda775e58dd541e08a116c6c53815c0bd028192f7b62680060205260406000206001600160a01b03331660005260205260ff6040600020541615611fc25750565b63e2517d3f60e01b6000523360045260245260446000fd5b9190612018836001600160a01b03166000527f52c63247e1f47db19d5ce0460030c497f067ca4cebf71ba98eeadabe20bace01602052604060002090565b6001600160a01b03821660005260205260406000205492600019841061203f575b50505050565b828410612120576001600160a01b038116156120f1576001600160a01b038216156120c2576120a86001600160a01b03916001600160a01b03166000527f52c63247e1f47db19d5ce0460030c497f067ca4cebf71ba98eeadabe20bace01602052604060002090565b911660005260205260406000209103905538808080612039565b7f94280d6200000000000000000000000000000000000000000000000000000000600052600060045260246000fd5b7fe602df0500000000000000000000000000000000000000000000000000000000600052600060045260246000fd5b506001600160a01b0383917ffb8f41b2000000000000000000000000000000000000000000000000000000006000521660045260245260445260646000fd5b91906001600160a01b038316156121b9576001600160a01b0381161561218a5761218892612d2c565b565b7fec442f0500000000000000000000000000000000000000000000000000000000600052600060045260246000fd5b7f96c6fd1e00000000000000000000000000000000000000000000000000000000600052600060045260246000fd5b6001600160a01b03811660009081527f06484cc59dc38e4f67c31122333a17ca81b3ca18cdf02bfc298072fa52b0316a602052604090205460ff166122b6576001600160a01b031660008181527f06484cc59dc38e4f67c31122333a17ca81b3ca18cdf02bfc298072fa52b0316a60205260408120805460ff191660011790553391907f241ecf16d79d0f8dbfb92cbc07fe17840425976cf0667f022fe9877caa831b08907f2f8788117e7eff1d82e926ec794901d17c78024a50270940304540a733656f0d9080a4600190565b50600090565b6001600160a01b03811660009081527fb7db2dd08fcb62d0c9e08c51941cae53c267786a0b75803fb7960902fc8ef97d602052604090205460ff166122b6576001600160a01b031660008181527fb7db2dd08fcb62d0c9e08c51941cae53c267786a0b75803fb7960902fc8ef97d60205260408120805460ff191660011790553391907f2f8788117e7eff1d82e926ec794901d17c78024a50270940304540a733656f0d8180a4600190565b806000527f02dd7bc7dec4dceedda775e58dd541e08a116c6c53815c0bd028192f7b62680060205260406000206001600160a01b03831660005260205260ff604060002054161560001461243957806000527f02dd7bc7dec4dceedda775e58dd541e08a116c6c53815c0bd028192f7b62680060205260406000206001600160a01b0383166000526020526040600020600160ff198254161790556001600160a01b03339216907f2f8788117e7eff1d82e926ec794901d17c78024a50270940304540a733656f0d600080a4600190565b5050600090565b806000527f02dd7bc7dec4dceedda775e58dd541e08a116c6c53815c0bd028192f7b62680060205260406000206001600160a01b03831660005260205260ff6040600020541660001461243957806000527f02dd7bc7dec4dceedda775e58dd541e08a116c6c53815c0bd028192f7b62680060205260406000206001600160a01b038316600052602052604060002060ff1981541690556001600160a01b03339216907ff6391f5c32d9c69d2a47ea670b442974b53935d1edc7fd64eb21e047a839171b600080a4600190565b906001600160a01b038216156121b957600061218892612d2c565b604d8111611c0057600a0a90565b8115612540570490565b634e487b7160e01b600052601260045260246000fd5b906001600160801b03809116911603906001600160801b038211611c0057565b906001600160801b03809116911601906001600160801b038211611c0057565b60006001600160a01b0382169182156129d1576001600160801b036125ce6125bd33611d70565b6125c8600354612528565b90612536565b338452600460205260408420549116906001600160a01b03161561284f576001600160a01b0360025416338452600460205260206001600160a01b03604086205416602460405180948193630fefbc0960e01b835260048301525afa908115610f20578491612830575b506001600160801b038116612793575b506001600160a01b036006541690602460206001600160a01b036002541660405192838092630fefbc0960e01b82528a60048301525afa908115612788579061269992918691612769575b50612576565b813b1561126157604051631b16777760e01b81526001600160a01b03841660048201526001600160801b039190911660248201529083908290604490829084905af180156104ec57908391612754575b50505b33830361274f5750805b33825260046020526001600160a01b0360408320911673ffffffffffffffffffffffffffffffffffffffff198254161790557f4bc154dd35d6a5cb9206482ecb473cdbf2473006d6bce728b9cc0741bcc59ea2339180a3565b6126f6565b8161275e91611aef565b6112695781386126e9565b612782915060203d602011611d6957611d5b8183611aef565b38612693565b6040513d87823e3d90fd5b6001600160a01b036006541633855260046020526127bf836001600160a01b0360408820541693612556565b91813b1561282c57604051631b16777760e01b81526001600160a01b0390911660048201526001600160801b039092166024830152849082908183816044810103925af18015610f2057908491612817575b50612648565b8161282191611aef565b611265578238612811565b8580fd5b612849915060203d602011611d6957611d5b8183611aef565b38612638565b6001600160a01b0360065416602460206001600160a01b036002541660405192838092630fefbc0960e01b82523360048301525afa9081156127885761289e91849187916129b2575b50612556565b813b1561125d57604051631b16777760e01b81523360048201526001600160801b039190911660248201529084908290604490829084905af18015610f205761299e575b506001600160a01b036006541690602460206001600160a01b036002541660405192838092630fefbc0960e01b82528a60048301525afa9081156127885790612932929186916127695750612576565b813b1561126157604051631b16777760e01b81526001600160a01b03841660048201526001600160801b039190911660248201529083908290604490829084905af180156104ec57908391612989575b50506126ec565b8161299391611aef565b611269578138612982565b836129ab91949294611aef565b91386128e2565b6129cb915060203d602011611d6957611d5b8183611aef565b38612898565b608460405162461bcd60e51b815260206004820152602960248201527f5374616b6564546f6b656e3a2064656c656761746520746f20746865207a657260448201527f6f206164647265737300000000000000000000000000000000000000000000006064820152fd5b6001600160801b0316612a4f600354612528565b90818102918183041490151715611c005790565b600060206001600160a01b038254166064604051809481937f23b872dd0000000000000000000000000000000000000000000000000000000083523360048401523060248401528860448401525af18015611bb9577f90890809c654f11d6e72a28fa60149770a0d11ec6c92319d6ceb2bb0a4ea1a15926040926001600160a01b0392612b15575b50612af685826130b9565b16928360005260016020524282600020558151904282526020820152a2565b612b2d9060203d60201161060a576105fd8183611aef565b612aeb565b60027f9b779b17422d0df92223018b32b4d1fa46e071723d6817e2486d003becc55f005414612b815760027f9b779b17422d0df92223018b32b4d1fa46e071723d6817e2486d003becc55f0055565b7f3ee5aeb50000000000000000000000000000000000000000000000000000000060005260046000fd5b612bcc612bc06002546001600160a01b031690565b6001600160a01b031690565b604051630fefbc0960e01b81526001600160a01b038316600482015290602090829060249082905afa908115612cb757600091612c98575b506001600160801b038116612c1857505050565b612c2190612a3b565b612c2b81836130b9565b81612c936001600160a01b039285612c777f90890809c654f11d6e72a28fa60149770a0d11ec6c92319d6ceb2bb0a4ea1a15966001600160a01b03166000526001602052604060002090565b5560405193849316958360209093929193604081019481520152565b0390a2565b612cb1915060203d602011611d6957611d5b8183611aef565b38612c04565b611bb9565b15612cc357565b608460405162461bcd60e51b8152602060048201526024808201527f5374616b6564546f6b656e3a20746f6b656e7320617265207374696c6c206c6f60448201527f636b6564000000000000000000000000000000000000000000000000000000006064820152fd5b916001600160a01b0383161580156130a357612d478361312d565b612d7791612d6b915b612d5b82868861328a565b1561306a576125c8600354612528565b6001600160801b031690565b91612da8612bc0612d9b836001600160a01b03166000526004602052604060002090565b546001600160a01b031690565b1561306457612d9b612dcd916001600160a01b03166000526004602052604060002090565b905b612df2612bc0612d9b836001600160a01b03166000526004602052604060002090565b1561305e57612d9b612e17916001600160a01b03166000526004602052604060002090565b905b6001600160a01b038116612f33575b506001600160a01b038116612e3b575050565b612e50612bc06002546001600160a01b031690565b604051630fefbc0960e01b81526001600160a01b03831660048201529290602090849060249082905afa928315612cb757600093612f0e575b50612ea990612ea3612bc06006546001600160a01b031690565b93612576565b823b156104df57604051631b16777760e01b81526001600160a01b039290921660048301526001600160801b03166024820152906000908290604490829084905af18015612cb757612ef9575b50565b80612f08600061218893611aef565b80611a6e565b612ea9919350612f2c9060203d602011611d6957611d5b8183611aef565b9290612e89565b612f48612bc06002546001600160a01b031690565b604051630fefbc0960e01b81526001600160a01b038316600482015290602090829060249082905afa908115612cb75760009161303f575b50836001600160801b03821680612f9a575b505050612e28565b6001600160801b038216101561303557612fb391612556565b905b612fca612bc06006546001600160a01b031690565b91823b156104df57604051631b16777760e01b81526001600160a01b039290921660048301526001600160801b03166024820152906000908290604490829084905af18015612cb757613020575b808381612f92565b80612f08600061302f93611aef565b38613018565b5050600090612fb5565b613058915060203d602011611d6957611d5b8183611aef565b38612f80565b90612e19565b90612dcf565b61309e61309761308d876001600160a01b03166000526001602052604060002090565b5460085490611bf3565b4211612cbc565b6125bd565b6130ac8461312d565b612d7791612d6b91612d50565b906001600160a01b0382161561218a57612188916000612d2c565b60ff7ff0c57e16840df040f15088dc2f81fe391c3923bec73e23a9662efc9c229c6a005460401c161561310357565b7fd7e6bcf80000000000000000000000000000000000000000000000000000000060005260046000fd5b61315461314d826001600160a01b03166000526007602052604060002090565b5460ff1690565b8015613279575b612ef65761318c61317f826001600160a01b03166000526007602052604060002090565b600160ff19825416179055565b6131c8816001600160a01b03166000527f52c63247e1f47db19d5ce0460030c497f067ca4cebf71ba98eeadabe20bace00602052604060002090565b54156131d15750565b6131e6612bc06006546001600160a01b031690565b6040517f240be9440000000000000000000000000000000000000000000000000000000081526001600160a01b038316600482015290602090829060249082905afa908115612cb75760009161324a575b5080613241575050565b61218891612bab565b61326c915060203d602011613272575b6132648183611aef565b810190611be4565b38613237565b503d61325a565b506001600160a01b0381161561315b565b6001600160a01b031690816133a15760206001600160a01b037fddf252ad1be2c89b69c2b068fc378daa952ba7f163c4a11628f55a4df523b3ef926132f0867f52c63247e1f47db19d5ce0460030c497f067ca4cebf71ba98eeadabe20bace0254611bf3565b7f52c63247e1f47db19d5ce0460030c497f067ca4cebf71ba98eeadabe20bace02555b16938461336a57807f52c63247e1f47db19d5ce0460030c497f067ca4cebf71ba98eeadabe20bace0254037f52c63247e1f47db19d5ce0460030c497f067ca4cebf71ba98eeadabe20bace02555b604051908152a3565b846000527f52c63247e1f47db19d5ce0460030c497f067ca4cebf71ba98eeadabe20bace0082526040600020818154019055613361565b816000527f52c63247e1f47db19d5ce0460030c497f067ca4cebf71ba98eeadabe20bace00602052604060002054838110613437576001600160a01b037fddf252ad1be2c89b69c2b068fc378daa952ba7f163c4a11628f55a4df523b3ef9285602093866000527f52c63247e1f47db19d5ce0460030c497f067ca4cebf71ba98eeadabe20bace00855203604060002055613313565b9190507fe450d38c0000000000000000000000000000000000000000000000000000000060005260045260245260445260646000fdfea2646970667358221220f882e53fd39266cc9119ac618df7bedcdb79fa6d9b2bc7a708049a4c1b1c268164736f6c634300081a0033",
  "linkReferences": {},
  "deployedLinkReferences": {}
}