{
  "_format": "hh-sol-artifact-1",
  "contractName": "StremeZap",
  "sourceName": "contracts/StremeZap.sol",
  "abi": [
    {
      "inputs": [
        {
          "internalType": "contract ISwapRouter",
          "name": "_swapRouter",
          "type": "address"
        },
        {
          "internalType": "address",
          "name": "_weth",
          "type": "address"
        }
      ],
      "stateMutability": "nonpayable",
      "type": "constructor"
    },
    {
      "inputs": [],
      "name": "poolFee",
      "outputs": [
        {
          "internalType": "uint24",
          "name": "",
          "type": "uint24"
        }
      ],
      "stateMutability": "view",
      "type": "function"
    },
    {
      "inputs": [],
      "name": "swapRouter",
      "outputs": [
        {
          "internalType": "contract ISwapRouter",
          "name": "",
          "type": "address"
        }
      ],
      "stateMutability": "view",
      "type": "function"
    },
    {
      "inputs": [],
      "name": "weth",
      "outputs": [
        {
          "internalType": "address",
          "name": "",
          "type": "address"
        }
      ],
      "stateMutability": "view",
      "type": "function"
    },
    {
      "inputs": [
        {
          "internalType": "address",
          "name": "stremeCoin",
          "type": "address"
        },
        {
          "internalType": "uint256",
          "name": "amountIn",
          "type": "uint256"
        },
        {
          "internalType": "uint256",
          "name": "amountOutMin",
          "type": "uint256"
        },
        {
          "internalType": "address",
          "name": "stakingContract",
          "type": "address"
        }
      ],
      "name": "zap",
      "outputs": [
        {
          "internalType": "uint256",
          "name": "amountOut",
          "type": "uint256"
        }
      ],
      "stateMutability": "payable",
      "type": "function"
    }
  ],
  "bytecode": "0x60a034609757601f6105c838819003918201601f19168301916001600160401b03831184841017609c5780849260409485528339810103126097578051906001600160a01b0382168203609757602001516001600160a01b0381169190829003609757608052600080546001600160a01b03191691909117905560405161051590816100b38239608051818181606c01526101c70152f35b600080fd5b634e487b7160e01b600052604160045260246000fdfe608080604052600436101561001357600080fd5b600090813560e01c908163089fe6aa14610453575080633fc8cef31461042d578063b60347a3146100935763c31c9c071461004d57600080fd5b3461009057806003193601126100905760206040516001600160a01b037f0000000000000000000000000000000000000000000000000000000000000000168152f35b80fd5b50608060031936011261009057600435906001600160a01b0382168092036100905760243590606435926001600160a01b03841693848103610429578334036103a557841580159061039e5730945b6001600160a01b03855416956040519660e0880188811067ffffffffffffffff82111761037157604052875260208701918583526040880191612710835260608901906001600160a01b031681526080890191825260a0890192604435845260c08a01948986526040519a7f04e45aaf000000000000000000000000000000000000000000000000000000008c52516001600160a01b031660048c0152516001600160a01b031660248b01525162ffffff1660448a0152516001600160a01b031660648901525160848801525160a4870152516001600160a01b031660c486015234857f00000000000000000000000000000000000000000000000000000000000000006001600160a01b0316815a9360e492602095f194851561036657849561032e575b50610218575b602084604051908152f35b6040517f095ea7b30000000000000000000000000000000000000000000000000000000081526001600160a01b0391909116600482015260248101849052906020908290604490829086905af18015610323576102eb575b50823b15610090576040517fadc9772e000000000000000000000000000000000000000000000000000000008152336004820152602481018390529281908490604490829084905af19283156102de576020936102ce575b8061020d565b816102d89161046f565b386102c8565b50604051903d90823e3d90fd5b6020813d60201161031b575b816103046020938361046f565b8101031261031757518015158114610270575b5080fd5b3d91506102f7565b6040513d84823e3d90fd5b9094506020813d60201161035e575b8161034a6020938361046f565b8101031261035a57519338610207565b8380fd5b3d915061033d565b6040513d86823e3d90fd5b6024887f4e487b710000000000000000000000000000000000000000000000000000000081526041600452fd5b33946100e2565b60846040517f08c379a000000000000000000000000000000000000000000000000000000000815260206004820152602360248201527f6d73672e76616c7565206d75737420626520657175616c20746f20616d6f756e60448201527f74496e00000000000000000000000000000000000000000000000000000000006064820152fd5b8280fd5b50346100905780600319360112610090576001600160a01b036020915416604051908152f35b9050346103175781600319360112610317578061271060209252f35b90601f7fffffffffffffffffffffffffffffffffffffffffffffffffffffffffffffffe0910116810190811067ffffffffffffffff8211176104b057604052565b7f4e487b7100000000000000000000000000000000000000000000000000000000600052604160045260246000fdfea264697066735822122026a5ef0c314b7c7cb607503b725f80cf7f0a0012d23f2fe5c149aaa171dd25d664736f6c634300081a0033",
  "linkReferences": {},
  "deployedLinkReferences": {}
}