{
  "_format": "hh-sol-artifact-1",
  "contractName": "StremeRecover",
  "sourceName": "contracts/extras/StremeRecover.sol",
  "abi": [
    {
      "inputs": [
        {
          "internalType": "address",
          "name": "_specialStakingFactory",
          "type": "address"
        }
      ],
      "stateMutability": "nonpayable",
      "type": "constructor"
    },
    {
      "inputs": [],
      "name": "NotAdmin",
      "type": "error"
    },
    {
      "inputs": [],
      "name": "admin",
      "outputs": [
        {
          "internalType": "address",
          "name": "",
          "type": "address"
        }
      ],
      "stateMutability": "view",
      "type": "function"
    },
    {
      "inputs": [
        {
          "internalType": "contract IStakedTokenV2[]",
          "name": "_stTokens",
          "type": "address[]"
        }
      ],
      "name": "exploit",
      "outputs": [],
      "stateMutability": "nonpayable",
      "type": "function"
    },
    {
      "inputs": [
        {
          "internalType": "contract IStakedTokenV2[]",
          "name": "_stTokens",
          "type": "address[]"
        }
      ],
      "name": "recover",
      "outputs": [],
      "stateMutability": "nonpayable",
      "type": "function"
    },
    {
      "inputs": [],
      "name": "specialStakingFactory",
      "outputs": [
        {
          "internalType": "contract IStakingFactoryV2Special",
          "name": "",
          "type": "address"
        }
      ],
      "stateMutability": "view",
      "type": "function"
    }
  ],
  "bytecode": "0x608034607d57601f6110f638819003918201601f19168301916001600160401b03831184841017608257808492602094604052833981010312607d57516001600160a01b03811690819003607d57600180546001600160a01b0319908116929092179055600080549091163317905560405161105d90816100998239f35b600080fd5b634e487b7160e01b600052604160045260246000fdfe6080604052600436101561001257600080fd5b60003560e01c806318ab6efe14610529578063b8fc37f51461009b578063d5aae8f1146100745763f851a4401461004857600080fd5b3461006f57600060031936011261006f5760206001600160a01b0360005416604051908152f35b600080fd5b3461006f57600060031936011261006f5760206001600160a01b0360015416604051908152f35b3461006f576100a936610db8565b6001600160a01b036000541633036104ff5760005b81518110156104fd5761011b6001600160a01b036100dc8385610e51565b51166040516100ec604082610d7f565b601881527f4578706c6f6974696e67207374616b656420746f6b656e3a00000000000000006020820152610ef8565b6001600160a01b0361012d8284610e51565b5116906040517fee5361b3000000000000000000000000000000000000000000000000000000008152602081600481865afa8015610419576001600160a01b036020916024936000916104d0575b50166101bd8160405161018f604082610d7f565b601781527f5374616b61626c6520746f6b656e20616464726573733a00000000000000000085820152610ef8565b604051928380926370a0823160e01b82528760048301525afa9081156104195760009161049f575b50610227816040516101f8604082610d7f565b601081527f416d6f756e7420746f207374616b653a000000000000000000000000000000006020820152610fca565b823b1561006f576040517f88f6a4940000000000000000000000000000000000000000000000000000000081523060048201526024810182905260008160448183885af180156104195761048e575b506102b7604051610288604082610d7f565b601381527f5374616b6564207375636365737366756c6c79000000000000000000000000006020820152610f75565b6040516370a0823160e01b8152306004820152602081602481875afa9081156104195760009161045b575b506102ed9114610e9a565b6040516370a0823160e01b8152306004820152602081602481865afa801561041957600090610425575b610359915060405161032a604082610d7f565b601681527f42616c616e6365206166746572207374616b696e673a000000000000000000006020820152610fca565b813b1561006f57600080926044604051809581937f1b167777000000000000000000000000000000000000000000000000000000008352738b6b008a0073d34d04ff00210e7200ab0000330060048401528160248401525af191821561041957600192610408575b506104026040516103d3604082610d7f565b601481527f52656d6f766564206861636b657220756e6974730000000000000000000000006020820152610f75565b016100be565b600061041391610d7f565b836103c1565b6040513d6000823e3d90fd5b6020823d8211610453575b8161043d60209383610d7f565b8101031261045057506103599051610317565b80fd5b3d9150610430565b906020823d8211610486575b8161047460209383610d7f565b810103126104505750516102ed6102e2565b3d9150610467565b600061049991610d7f565b84610276565b906020823d82116104c8575b816104b860209383610d7f565b81010312610450575051846101e5565b3d91506104ab565b6104f09150833d81116104f6575b6104e88183610d7f565b810190610e7b565b8761017b565b503d6104de565b005b7f7bfa4b9f0000000000000000000000000000000000000000000000000000000060005260046000fd5b3461006f5761053736610db8565b6001600160a01b036000541633036104ff5760005b81518110156104fd576105a96001600160a01b0361056a8385610e51565b511660405161057a604082610d7f565b601881527f5265636f766572696e67207374616b656420746f6b656e3a00000000000000006020820152610ef8565b6001600160a01b036105bb8284610e51565b5116906040517fee5361b3000000000000000000000000000000000000000000000000000000008152602081600481865afa8015610419576001600160a01b0391600091610d61575b501661064781604051610618604082610d7f565b601781527f5374616b61626c6520746f6b656e20616464726573733a0000000000000000006020820152610ef8565b823b1561006f576040517fc242652c0000000000000000000000000000000000000000000000000000000081526000600482015260008160248183885af1801561041957610d50575b506106d16040516106a2604082610d7f565b601a81527f52656475636564206c6f636b206475726174696f6e20746f20300000000000006020820152610f75565b6040516370a0823160e01b8152306004820152602081602481875afa90811561041957600091610d1f575b5061073e8160405161070f604082610d7f565b601a81527f5374616b65642062616c616e636520746f20756e7374616b653a0000000000006020820152610fca565b833b1561006f576040517fc2a672e0000000000000000000000000000000000000000000000000000000008152306004820152602481019190915260008160448183885af1801561041957610d0e575b506107cf6040516107a0604082610d7f565b601581527f556e7374616b6564207375636365737366756c6c7900000000000000000000006020820152610f75565b6040516370a0823160e01b8152306004820152602081602481855afa801561041957600090610cdb575b61080591501515610e9a565b6040516370a0823160e01b8152306004820152602081602481855afa801561041957600090610ca8575b6108719150604051610842604082610d7f565b601e81527f546f6b656e2062616c616e636520616674657220756e7374616b696e673a00006020820152610fca565b823b1561006f576040517fbdfc371e0000000000000000000000000000000000000000000000000000000081527fffffffffffffffffffffffffffffffffffffffffffffffffffffffffffffffff600482015260008160248183885af1801561041957610c97575b506109406040516108eb606082610d7f565b602d81527f53657420756e6974446563696d616c7320746f206d617820746f20627265616b60208201527f2074686520636f6e7472616374000000000000000000000000000000000000006040820152610f75565b604051926370a0823160e01b8452306004850152602084602481855afa93841561041957600094610c64575b506109d48460405161097f606082610d7f565b602581527f417070726f76696e6720666163746f727920746f207472616e7366657220746f60208201527f6b656e733a0000000000000000000000000000000000000000000000000000006040820152610fca565b6001546040517f095ea7b30000000000000000000000000000000000000000000000000000000081526001600160a01b039091166004820152602481018590526020816044816000875af190811561041957600091610c26575b5050610a70604051610a41604082610d7f565b601081527f417070726f76656420666163746f7279000000000000000000000000000000006020820152610f75565b6001600160a01b036001541691604051907f0881dd44000000000000000000000000000000000000000000000000000000008252806004830152602082602481875afa801561041957602094610b2f6000926064958491610c09575b50604051610adb606082610d7f565b602381527f507265646963746564206e6577207374616b656420746f6b656e206164647265898201527f73733a00000000000000000000000000000000000000000000000000000000006040820152610ef8565b60405197889586947fe9f126b90000000000000000000000000000000000000000000000000000000086526004860152602485015260448401525af191821561041957600192610be591600091610beb575b50604051610b90606082610d7f565b603e81527f43616c6c6564206372656174655374616b6564546f6b656e206f6e206661637460208201527f6f72792c206e6577207374616b656420746f6b656e20616464726573733a00006040820152610ef8565b0161054c565b610c03915060203d81116104f6576104e88183610d7f565b85610b81565b610c209150883d81116104f6576104e88183610d7f565b8b610acc565b6020813d8211610c5c575b81610c3e60209383610d7f565b81010312610c585751908115158203610450575086610a2e565b5080fd5b3d9150610c31565b90936020823d8211610c8f575b81610c7e60209383610d7f565b81010312610450575051928561096c565b3d9150610c71565b6000610ca291610d7f565b846108d9565b6020823d8211610cd3575b81610cc060209383610d7f565b810103126104505750610871905161082f565b3d9150610cb3565b6020823d8211610d06575b81610cf360209383610d7f565b81010312610450575061080590516107f9565b3d9150610ce6565b6000610d1991610d7f565b8461078e565b906020823d8211610d48575b81610d3860209383610d7f565b81010312610450575051856106fc565b3d9150610d2b565b6000610d5b91610d7f565b84610690565b610d79915060203d81116104f6576104e88183610d7f565b85610604565b90601f601f19910116810190811067ffffffffffffffff821117610da257604052565b634e487b7160e01b600052604160045260246000fd5b602060031982011261006f5760043567ffffffffffffffff811161006f578160238201121561006f5780600401359167ffffffffffffffff8311610da2578260051b9160405193610e0c6020850186610d7f565b84526024602085019382010191821161006f57602401915b818310610e315750505090565b82356001600160a01b038116810361006f57815260209283019201610e24565b8051821015610e655760209160051b010190565b634e487b7160e01b600052603260045260246000fd5b9081602091031261006f57516001600160a01b038116810361006f5790565b15610ea157565b634e487b7160e01b600052600160045260246000fd5b919082519283825260005b848110610ee3575050601f19601f8460006020809697860101520116010190565b80602080928401015182828601015201610ec2565b610f49610f5e6000939284936001600160a01b036040519485937f319af333000000000000000000000000000000000000000000000000000000006020860152604060248601526064850190610eb7565b9116604483015203601f198101835282610d7f565b6020815191016a636f6e736f6c652e6c6f675afa50565b6000610fbc610f5e82936040519283917f41304fac000000000000000000000000000000000000000000000000000000006020840152602060248401526044830190610eb7565b03601f198101835282610d7f565b611013610f5e6000939284936040519384927fb60e72cc000000000000000000000000000000000000000000000000000000006020850152604060248501526064840190610eb7565b90604483015203601f198101835282610d7f56fea2646970667358221220a2e125b1f2b4ab21242169ec5e3fb537209d0671d96cfe24fad3988934f8120864736f6c634300081a0033",
  "linkReferences": {},
  "deployedLinkReferences": {}
}