{
  "_format": "hh-sol-artifact-1",
  "contractName": "StremeRecover",
  "sourceName": "contracts/extras/StremeRecover.sol",
  "abi": [
    {
      "inputs": [
        {
          "internalType": "address",
          "name": "_specialStakingFactory",
          "type": "address"
        }
      ],
      "stateMutability": "nonpayable",
      "type": "constructor"
    },
    {
      "inputs": [],
      "name": "NotAdmin",
      "type": "error"
    },
    {
      "anonymous": false,
      "inputs": [
        {
          "indexed": false,
          "internalType": "address",
          "name": "oldStakedToken",
          "type": "address"
        },
        {
          "indexed": false,
          "internalType": "address",
          "name": "newStakedToken",
          "type": "address"
        },
        {
          "indexed": false,
          "internalType": "uint256",
          "name": "amount",
          "type": "uint256"
        }
      ],
      "name": "Recovered",
      "type": "event"
    },
    {
      "inputs": [],
      "name": "admin",
      "outputs": [
        {
          "internalType": "address",
          "name": "",
          "type": "address"
        }
      ],
      "stateMutability": "view",
      "type": "function"
    },
    {
      "inputs": [
        {
          "internalType": "contract IStakedTokenV2[]",
          "name": "_stTokens",
          "type": "address[]"
        }
      ],
      "name": "exploit",
      "outputs": [],
      "stateMutability": "nonpayable",
      "type": "function"
    },
    {
      "inputs": [
        {
          "internalType": "contract IStakedTokenV2[]",
          "name": "_stTokens",
          "type": "address[]"
        }
      ],
      "name": "recover",
      "outputs": [],
      "stateMutability": "nonpayable",
      "type": "function"
    },
    {
      "inputs": [],
      "name": "specialStakingFactory",
      "outputs": [
        {
          "internalType": "contract IStakingFactoryV2Special",
          "name": "",
          "type": "address"
        }
      ],
      "stateMutability": "view",
      "type": "function"
    }
  ],
  "bytecode": "0x608034607d57601f6109f738819003918201601f19168301916001600160401b03831184841017608257808492602094604052833981010312607d57516001600160a01b03811690819003607d57600180546001600160a01b0319908116929092179055600080549091163317905560405161095e90816100998239f35b600080fd5b634e487b7160e01b600052604160045260246000fdfe6080604052600436101561001257600080fd5b60003560e01c806318ab6efe14610336578063b8fc37f51461009b578063d5aae8f1146100745763f851a4401461004857600080fd5b3461006f57600060031936011261006f5760206001600160a01b0360005416604051908152f35b600080fd5b3461006f57600060031936011261006f5760206001600160a01b0360015416604051908152f35b3461006f576100a936610829565b6001600160a01b0360005416330361030c5760005b815181101561030a576001600160a01b036100d982846108c2565b5116906040517fee5361b3000000000000000000000000000000000000000000000000000000008152602081600481865afa908115610259576001600160a01b03916020916000916102dd575b506024604051809481936370a0823160e01b8352886004840152165afa908115610259576000916102ac575b50823b1561006f576040517f88f6a4940000000000000000000000000000000000000000000000000000000081523060048201526024810182905260008160448183885af180156102595761029b575b506040516370a0823160e01b8152306004820152602081602481875afa90811561025957600091610265575b506101d9911461090b565b813b1561006f57600080926044604051809581937f1b167777000000000000000000000000000000000000000000000000000000008352738b6b008a0073d34d04ff00210e7200ab0000330060048401528160248401525af191821561025957600192610248575b50016100be565b6000610253916107d2565b83610241565b6040513d6000823e3d90fd5b906020823d8211610293575b8161027e602093836107d2565b810103126102905750516101d96101ce565b80fd5b3d9150610271565b60006102a6916107d2565b846101a2565b906020823d82116102d5575b816102c5602093836107d2565b8101031261029057505184610152565b3d91506102b8565b6102fd9150823d8111610303575b6102f581836107d2565b8101906108ec565b86610126565b503d6102eb565b005b7f7bfa4b9f0000000000000000000000000000000000000000000000000000000060005260046000fd5b3461006f5761034436610829565b6001600160a01b0360005416330361030c5760005b815181101561030a576001600160a01b0361037482846108c2565b5116906040517fee5361b3000000000000000000000000000000000000000000000000000000008152602081600481865afa8015610259576001600160a01b03916000916107b4575b501691803b1561006f576040517fc242652c0000000000000000000000000000000000000000000000000000000081526000600482015260008160248183865af18015610259576107a3575b506040516370a0823160e01b8152306004820152602081602481855afa90811561025957600091610772575b50813b1561006f576040517fc2a672e0000000000000000000000000000000000000000000000000000000008152306004820152602481019190915260008160448183865af1801561025957610761575b506040516370a0823160e01b8152306004820152602081602481875afa80156102595760009061072e575b6104bd9150151561090b565b803b1561006f576040517fbdfc371e0000000000000000000000000000000000000000000000000000000081527fffffffffffffffffffffffffffffffffffffffffffffffffffffffffffffffff600482015260008160248183865af180156102595761071d575b50604051926370a0823160e01b8452306004850152602084602481845afa938415610259576000946106e8575b506001546040517f095ea7b30000000000000000000000000000000000000000000000000000000081526001600160a01b039091166004820152602481018590529060208280604481015b03816000855af180156102595785926000916106a0575b50506001546040517fe9f126b90000000000000000000000000000000000000000000000000000000081526001600160a01b0392831660048201528483166024820152604481019390935291929160209184916064918391600091165af1908115610259576001947ffff3b3844276f57024e0b42afec1a37f75db36511e43819a4f2a63ab7862b6489360009361067c575b5061067390604051938493846001600160a01b036040929594938160608401971683521660208201520152565b0390a101610359565b6106739193506106999060203d8111610303576102f581836107d2565b9290610646565b909192506020813d82116106e0575b816106bc602093836107d2565b810103126106dc57519081151582036102905750849190508160206105b4565b5080fd5b3d91506106af565b90936020823d8211610715575b81610702602093836107d2565b810103126102905750519261059d610552565b3d91506106f5565b6000610728916107d2565b84610525565b6020823d8211610759575b81610746602093836107d2565b8101031261029057506104bd90516104b1565b3d9150610739565b600061076c916107d2565b84610486565b906020823d821161079b575b8161078b602093836107d2565b8101031261029057505185610435565b3d915061077e565b60006107ae916107d2565b84610409565b6107cc915060203d8111610303576102f581836107d2565b856103bd565b90601f7fffffffffffffffffffffffffffffffffffffffffffffffffffffffffffffffe0910116810190811067ffffffffffffffff82111761081357604052565b634e487b7160e01b600052604160045260246000fd5b602060031982011261006f5760043567ffffffffffffffff811161006f578160238201121561006f5780600401359167ffffffffffffffff8311610813578260051b916040519361087d60208501866107d2565b84526024602085019382010191821161006f57602401915b8183106108a25750505090565b82356001600160a01b038116810361006f57815260209283019201610895565b80518210156108d65760209160051b010190565b634e487b7160e01b600052603260045260246000fd5b9081602091031261006f57516001600160a01b038116810361006f5790565b1561091257565b634e487b7160e01b600052600160045260246000fdfea2646970667358221220210793216a05cb9da7e7b41927316d09faaca0f2f936628092837c69eeb1524064736f6c634300081a0033",
  "linkReferences": {},
  "deployedLinkReferences": {}
}