{
  "_format": "hh-sol-artifact-1",
  "contractName": "UUPSProxy",
  "sourceName": "contracts/token/superfluid/interfaces/UUPSProxy.sol",
  "abi": [
    {
      "stateMutability": "payable",
      "type": "fallback"
    },
    {
      "inputs": [
        {
          "internalType": "address",
          "name": "initialAddress",
          "type": "address"
        }
      ],
      "name": "initializeProxy",
      "outputs": [],
      "stateMutability": "nonpayable",
      "type": "function"
    }
  ],
  "bytecode": "0x608080604052346015576101fe908161001b8239f35b600080fdfe6080604052600436106101865760003560e01c634a0687ef0361018657346101815760207ffffffffffffffffffffffffffffffffffffffffffffffffffffffffffffffffc3601126101815760043573ffffffffffffffffffffffffffffffffffffffff811680820361018157156101295773ffffffffffffffffffffffffffffffffffffffff7f360894a13ba1a3210667c828492db98dca3e2076cc3735a920a3ca505d382bbc54166100d1577f360894a13ba1a3210667c828492db98dca3e2076cc3735a920a3ca505d382bbc55005b7f08c379a0000000000000000000000000000000000000000000000000000000006080526020608452601e60a4527f5555505350726f78793a20616c726561647920696e697469616c697a6564000060c45260646080fd5b7f08c379a0000000000000000000000000000000000000000000000000000000006080526020608452601760a4527f5555505350726f78793a207a65726f206164647265737300000000000000000060c45260646080fd5b600080fd5b6000807f360894a13ba1a3210667c828492db98dca3e2076cc3735a920a3ca505d382bbc54368280378136915af43d6000803e156101c3573d6000f35b3d6000fdfea2646970667358221220579ca28ac3e70c5b18c41b89e4a598ff9b0c0023bb05d1f96770249040d4f56564736f6c634300081a0033",
  "linkReferences": {},
  "deployedLinkReferences": {}
}