{
  "_format": "hh-sol-artifact-1",
  "contractName": "StakedToken",
  "sourceName": "contracts/hook/staking/StakedToken.sol",
  "abi": [
    {
      "inputs": [],
      "stateMutability": "nonpayable",
      "type": "constructor"
    },
    {
      "inputs": [],
      "name": "AccessControlBadConfirmation",
      "type": "error"
    },
    {
      "inputs": [
        {
          "internalType": "address",
          "name": "account",
          "type": "address"
        },
        {
          "internalType": "bytes32",
          "name": "neededRole",
          "type": "bytes32"
        }
      ],
      "name": "AccessControlUnauthorizedAccount",
      "type": "error"
    },
    {
      "inputs": [
        {
          "internalType": "address",
          "name": "spender",
          "type": "address"
        },
        {
          "internalType": "uint256",
          "name": "allowance",
          "type": "uint256"
        },
        {
          "internalType": "uint256",
          "name": "needed",
          "type": "uint256"
        }
      ],
      "name": "ERC20InsufficientAllowance",
      "type": "error"
    },
    {
      "inputs": [
        {
          "internalType": "address",
          "name": "sender",
          "type": "address"
        },
        {
          "internalType": "uint256",
          "name": "balance",
          "type": "uint256"
        },
        {
          "internalType": "uint256",
          "name": "needed",
          "type": "uint256"
        }
      ],
      "name": "ERC20InsufficientBalance",
      "type": "error"
    },
    {
      "inputs": [
        {
          "internalType": "address",
          "name": "approver",
          "type": "address"
        }
      ],
      "name": "ERC20InvalidApprover",
      "type": "error"
    },
    {
      "inputs": [
        {
          "internalType": "address",
          "name": "receiver",
          "type": "address"
        }
      ],
      "name": "ERC20InvalidReceiver",
      "type": "error"
    },
    {
      "inputs": [
        {
          "internalType": "address",
          "name": "sender",
          "type": "address"
        }
      ],
      "name": "ERC20InvalidSender",
      "type": "error"
    },
    {
      "inputs": [
        {
          "internalType": "address",
          "name": "spender",
          "type": "address"
        }
      ],
      "name": "ERC20InvalidSpender",
      "type": "error"
    },
    {
      "inputs": [],
      "name": "InvalidInitialization",
      "type": "error"
    },
    {
      "inputs": [],
      "name": "NotInitializing",
      "type": "error"
    },
    {
      "inputs": [],
      "name": "ReentrancyGuardReentrantCall",
      "type": "error"
    },
    {
      "anonymous": false,
      "inputs": [
        {
          "indexed": true,
          "internalType": "address",
          "name": "owner",
          "type": "address"
        },
        {
          "indexed": true,
          "internalType": "address",
          "name": "spender",
          "type": "address"
        },
        {
          "indexed": false,
          "internalType": "uint256",
          "name": "value",
          "type": "uint256"
        }
      ],
      "name": "Approval",
      "type": "event"
    },
    {
      "anonymous": false,
      "inputs": [
        {
          "indexed": true,
          "internalType": "address",
          "name": "account",
          "type": "address"
        },
        {
          "indexed": false,
          "internalType": "uint256",
          "name": "depositTimestamp",
          "type": "uint256"
        },
        {
          "indexed": false,
          "internalType": "uint256",
          "name": "amount",
          "type": "uint256"
        }
      ],
      "name": "Deposit",
      "type": "event"
    },
    {
      "anonymous": false,
      "inputs": [
        {
          "indexed": false,
          "internalType": "uint64",
          "name": "version",
          "type": "uint64"
        }
      ],
      "name": "Initialized",
      "type": "event"
    },
    {
      "anonymous": false,
      "inputs": [
        {
          "indexed": false,
          "internalType": "uint256",
          "name": "duration",
          "type": "uint256"
        }
      ],
      "name": "LockDurationUpdated",
      "type": "event"
    },
    {
      "anonymous": false,
      "inputs": [
        {
          "indexed": true,
          "internalType": "bytes32",
          "name": "role",
          "type": "bytes32"
        },
        {
          "indexed": true,
          "internalType": "bytes32",
          "name": "previousAdminRole",
          "type": "bytes32"
        },
        {
          "indexed": true,
          "internalType": "bytes32",
          "name": "newAdminRole",
          "type": "bytes32"
        }
      ],
      "name": "RoleAdminChanged",
      "type": "event"
    },
    {
      "anonymous": false,
      "inputs": [
        {
          "indexed": true,
          "internalType": "bytes32",
          "name": "role",
          "type": "bytes32"
        },
        {
          "indexed": true,
          "internalType": "address",
          "name": "account",
          "type": "address"
        },
        {
          "indexed": true,
          "internalType": "address",
          "name": "sender",
          "type": "address"
        }
      ],
      "name": "RoleGranted",
      "type": "event"
    },
    {
      "anonymous": false,
      "inputs": [
        {
          "indexed": true,
          "internalType": "bytes32",
          "name": "role",
          "type": "bytes32"
        },
        {
          "indexed": true,
          "internalType": "address",
          "name": "account",
          "type": "address"
        },
        {
          "indexed": true,
          "internalType": "address",
          "name": "sender",
          "type": "address"
        }
      ],
      "name": "RoleRevoked",
      "type": "event"
    },
    {
      "anonymous": false,
      "inputs": [
        {
          "indexed": true,
          "internalType": "address",
          "name": "from",
          "type": "address"
        },
        {
          "indexed": true,
          "internalType": "address",
          "name": "to",
          "type": "address"
        },
        {
          "indexed": false,
          "internalType": "uint256",
          "name": "value",
          "type": "uint256"
        }
      ],
      "name": "Transfer",
      "type": "event"
    },
    {
      "anonymous": false,
      "inputs": [
        {
          "indexed": true,
          "internalType": "address",
          "name": "account",
          "type": "address"
        },
        {
          "indexed": false,
          "internalType": "uint256",
          "name": "depositTimestamp",
          "type": "uint256"
        },
        {
          "indexed": false,
          "internalType": "uint256",
          "name": "amount",
          "type": "uint256"
        }
      ],
      "name": "Withdraw",
      "type": "event"
    },
    {
      "inputs": [],
      "name": "DEFAULT_ADMIN_ROLE",
      "outputs": [
        {
          "internalType": "bytes32",
          "name": "",
          "type": "bytes32"
        }
      ],
      "stateMutability": "view",
      "type": "function"
    },
    {
      "inputs": [],
      "name": "MANAGER_ROLE",
      "outputs": [
        {
          "internalType": "bytes32",
          "name": "",
          "type": "bytes32"
        }
      ],
      "stateMutability": "view",
      "type": "function"
    },
    {
      "inputs": [
        {
          "internalType": "address",
          "name": "owner",
          "type": "address"
        },
        {
          "internalType": "address",
          "name": "spender",
          "type": "address"
        }
      ],
      "name": "allowance",
      "outputs": [
        {
          "internalType": "uint256",
          "name": "",
          "type": "uint256"
        }
      ],
      "stateMutability": "view",
      "type": "function"
    },
    {
      "inputs": [
        {
          "internalType": "address",
          "name": "spender",
          "type": "address"
        },
        {
          "internalType": "uint256",
          "name": "value",
          "type": "uint256"
        }
      ],
      "name": "approve",
      "outputs": [
        {
          "internalType": "bool",
          "name": "",
          "type": "bool"
        }
      ],
      "stateMutability": "nonpayable",
      "type": "function"
    },
    {
      "inputs": [
        {
          "internalType": "address",
          "name": "account",
          "type": "address"
        }
      ],
      "name": "balanceOf",
      "outputs": [
        {
          "internalType": "uint256",
          "name": "",
          "type": "uint256"
        }
      ],
      "stateMutability": "view",
      "type": "function"
    },
    {
      "inputs": [
        {
          "internalType": "uint256",
          "name": "value",
          "type": "uint256"
        }
      ],
      "name": "burn",
      "outputs": [],
      "stateMutability": "nonpayable",
      "type": "function"
    },
    {
      "inputs": [
        {
          "internalType": "address",
          "name": "account",
          "type": "address"
        },
        {
          "internalType": "uint256",
          "name": "value",
          "type": "uint256"
        }
      ],
      "name": "burnFrom",
      "outputs": [],
      "stateMutability": "nonpayable",
      "type": "function"
    },
    {
      "inputs": [],
      "name": "decimals",
      "outputs": [
        {
          "internalType": "uint8",
          "name": "",
          "type": "uint8"
        }
      ],
      "stateMutability": "view",
      "type": "function"
    },
    {
      "inputs": [
        {
          "internalType": "address",
          "name": "account",
          "type": "address"
        }
      ],
      "name": "depositTimestamps",
      "outputs": [
        {
          "internalType": "uint256",
          "name": "",
          "type": "uint256"
        }
      ],
      "stateMutability": "view",
      "type": "function"
    },
    {
      "inputs": [
        {
          "internalType": "bytes32",
          "name": "role",
          "type": "bytes32"
        }
      ],
      "name": "getRoleAdmin",
      "outputs": [
        {
          "internalType": "bytes32",
          "name": "",
          "type": "bytes32"
        }
      ],
      "stateMutability": "view",
      "type": "function"
    },
    {
      "inputs": [
        {
          "internalType": "bytes32",
          "name": "role",
          "type": "bytes32"
        },
        {
          "internalType": "address",
          "name": "account",
          "type": "address"
        }
      ],
      "name": "grantRole",
      "outputs": [],
      "stateMutability": "nonpayable",
      "type": "function"
    },
    {
      "inputs": [
        {
          "internalType": "bytes32",
          "name": "role",
          "type": "bytes32"
        },
        {
          "internalType": "address",
          "name": "account",
          "type": "address"
        }
      ],
      "name": "hasRole",
      "outputs": [
        {
          "internalType": "bool",
          "name": "",
          "type": "bool"
        }
      ],
      "stateMutability": "view",
      "type": "function"
    },
    {
      "inputs": [
        {
          "internalType": "address",
          "name": "_defaultAdmin",
          "type": "address"
        },
        {
          "internalType": "string",
          "name": "_name",
          "type": "string"
        },
        {
          "internalType": "string",
          "name": "_symbol",
          "type": "string"
        },
        {
          "internalType": "address",
          "name": "_stakeableToken",
          "type": "address"
        },
        {
          "internalType": "address",
          "name": "_pool",
          "type": "address"
        },
        {
          "internalType": "uint256",
          "name": "_lockDuration",
          "type": "uint256"
        },
        {
          "internalType": "address",
          "name": "_teamRecipient",
          "type": "address"
        }
      ],
      "name": "initialize",
      "outputs": [],
      "stateMutability": "nonpayable",
      "type": "function"
    },
    {
      "inputs": [],
      "name": "lockDuration",
      "outputs": [
        {
          "internalType": "uint256",
          "name": "",
          "type": "uint256"
        }
      ],
      "stateMutability": "view",
      "type": "function"
    },
    {
      "inputs": [],
      "name": "name",
      "outputs": [
        {
          "internalType": "string",
          "name": "",
          "type": "string"
        }
      ],
      "stateMutability": "view",
      "type": "function"
    },
    {
      "inputs": [],
      "name": "pool",
      "outputs": [
        {
          "internalType": "contract IDistributionPool",
          "name": "",
          "type": "address"
        }
      ],
      "stateMutability": "view",
      "type": "function"
    },
    {
      "inputs": [
        {
          "internalType": "uint256",
          "name": "newDuration",
          "type": "uint256"
        }
      ],
      "name": "reduceLockDuration",
      "outputs": [],
      "stateMutability": "nonpayable",
      "type": "function"
    },
    {
      "inputs": [
        {
          "internalType": "bytes32",
          "name": "role",
          "type": "bytes32"
        },
        {
          "internalType": "address",
          "name": "callerConfirmation",
          "type": "address"
        }
      ],
      "name": "renounceRole",
      "outputs": [],
      "stateMutability": "nonpayable",
      "type": "function"
    },
    {
      "inputs": [
        {
          "internalType": "bytes32",
          "name": "role",
          "type": "bytes32"
        },
        {
          "internalType": "address",
          "name": "account",
          "type": "address"
        }
      ],
      "name": "revokeRole",
      "outputs": [],
      "stateMutability": "nonpayable",
      "type": "function"
    },
    {
      "inputs": [
        {
          "internalType": "contract IDistributionPool",
          "name": "_pool",
          "type": "address"
        }
      ],
      "name": "setPool",
      "outputs": [],
      "stateMutability": "nonpayable",
      "type": "function"
    },
    {
      "inputs": [
        {
          "internalType": "uint256",
          "name": "_unitDecimals",
          "type": "uint256"
        }
      ],
      "name": "setUnitDecimals",
      "outputs": [],
      "stateMutability": "nonpayable",
      "type": "function"
    },
    {
      "inputs": [
        {
          "internalType": "address",
          "name": "to",
          "type": "address"
        },
        {
          "internalType": "uint256",
          "name": "amount",
          "type": "uint256"
        }
      ],
      "name": "stake",
      "outputs": [],
      "stateMutability": "nonpayable",
      "type": "function"
    },
    {
      "inputs": [],
      "name": "stakeableToken",
      "outputs": [
        {
          "internalType": "contract IERC20",
          "name": "",
          "type": "address"
        }
      ],
      "stateMutability": "view",
      "type": "function"
    },
    {
      "inputs": [
        {
          "internalType": "bytes4",
          "name": "interfaceId",
          "type": "bytes4"
        }
      ],
      "name": "supportsInterface",
      "outputs": [
        {
          "internalType": "bool",
          "name": "",
          "type": "bool"
        }
      ],
      "stateMutability": "view",
      "type": "function"
    },
    {
      "inputs": [],
      "name": "symbol",
      "outputs": [
        {
          "internalType": "string",
          "name": "",
          "type": "string"
        }
      ],
      "stateMutability": "view",
      "type": "function"
    },
    {
      "inputs": [],
      "name": "totalSupply",
      "outputs": [
        {
          "internalType": "uint256",
          "name": "",
          "type": "uint256"
        }
      ],
      "stateMutability": "view",
      "type": "function"
    },
    {
      "inputs": [
        {
          "internalType": "address",
          "name": "to",
          "type": "address"
        },
        {
          "internalType": "uint256",
          "name": "value",
          "type": "uint256"
        }
      ],
      "name": "transfer",
      "outputs": [
        {
          "internalType": "bool",
          "name": "",
          "type": "bool"
        }
      ],
      "stateMutability": "nonpayable",
      "type": "function"
    },
    {
      "inputs": [
        {
          "internalType": "address",
          "name": "from",
          "type": "address"
        },
        {
          "internalType": "address",
          "name": "to",
          "type": "address"
        },
        {
          "internalType": "uint256",
          "name": "value",
          "type": "uint256"
        }
      ],
      "name": "transferFrom",
      "outputs": [
        {
          "internalType": "bool",
          "name": "",
          "type": "bool"
        }
      ],
      "stateMutability": "nonpayable",
      "type": "function"
    },
    {
      "inputs": [],
      "name": "unitDecimals",
      "outputs": [
        {
          "internalType": "uint256",
          "name": "",
          "type": "uint256"
        }
      ],
      "stateMutability": "view",
      "type": "function"
    },
    {
      "inputs": [
        {
          "internalType": "address",
          "name": "account",
          "type": "address"
        }
      ],
      "name": "unlockDate",
      "outputs": [
        {
          "internalType": "uint256",
          "name": "",
          "type": "uint256"
        }
      ],
      "stateMutability": "view",
      "type": "function"
    },
    {
      "inputs": [
        {
          "internalType": "address",
          "name": "to",
          "type": "address"
        },
        {
          "internalType": "uint256",
          "name": "amount",
          "type": "uint256"
        }
      ],
      "name": "unstake",
      "outputs": [],
      "stateMutability": "nonpayable",
      "type": "function"
    },
    {
      "inputs": [
        {
          "internalType": "address",
          "name": "memberAddr",
          "type": "address"
        },
        {
          "internalType": "uint128",
          "name": "newUnits",
          "type": "uint128"
        }
      ],
      "name": "updateMemberUnits",
      "outputs": [],
      "stateMutability": "nonpayable",
      "type": "function"
    }
  ],
  "bytecode": "0x6080806040523460d2577ff0c57e16840df040f15088dc2f81fe391c3923bec73e23a9662efc9c229c6a005460ff8160401c1660c1576002600160401b03196001600160401b03821601605c575b60405161262290816100d88239f35b6001600160401b0319166001600160401b039081177ff0c57e16840df040f15088dc2f81fe391c3923bec73e23a9662efc9c229c6a005581527fc7f505b2f371ae2175ee4913f4499e1f2633a7b5936321eed1cdaeb6115181d290602090a13880604d565b63f92ee8a960e01b60005260046000fd5b600080fdfe608080604052600436101561001357600080fd5b60003560e01c90816301ffc9a71461179257508063045544431461177457806305271a2a1461175657806306fdde0314611670578063095ea7b31461156c57806316f0115b1461154557806318160ddd146115085780631b1677771461145a57806323b872dd14611422578063240be944146113e8578063248a9ca31461139c5780632f2ff15d1461133d578063313ce5671461132157806336568abe146112c257806342966c68146112a55780634437152a1461125557806349ccd69e146111ed57806370a082311461119457806379cc67901461116457806391d14854146110f757806395d89b4114610fdc578063987b4c39146108ab578063a217fddf1461088f578063a9059cbb1461085e578063adc9772e14610537578063bdfc371e14610516578063c242652c146103f1578063c2a672e0146102c9578063d547741f14610263578063dd62ed3e146101e6578063ec87621c146101ab5763ee5361b31461017f57600080fd5b346101a65760006003193601126101a65760206001600160a01b0360005416604051908152f35b600080fd5b346101a65760006003193601126101a65760206040517f241ecf16d79d0f8dbfb92cbc07fe17840425976cf0667f022fe9877caa831b088152f35b346101a65760406003193601126101a6576101ff61187a565b6001600160a01b0361024b610212611890565b926001600160a01b03166000527f52c63247e1f47db19d5ce0460030c497f067ca4cebf71ba98eeadabe20bace01602052604060002090565b91166000526020526020604060002054604051908152f35b346101a65760406003193601126101a6576102c7600435610282611890565b906102c26102bd826000527f02dd7bc7dec4dceedda775e58dd541e08a116c6c53815c0bd028192f7b62680060205260016040600020015490565b6119f1565b6121cb565b005b346101a65760406003193601126101a6576102e261187a565b602435906102ee6124fb565b6102f88233612298565b60206001600160a01b036044816000541693600060405195869485937fa9059cbb0000000000000000000000000000000000000000000000000000000085521660048401528760248401525af180156103e5576103b8575b503360005260016020526040600020549060405191825260208201527ff279e6a1f5e320cca91135676d9cb6e44ca8a08c0b88342bcdb1144f6511b56860403392a260017f9b779b17422d0df92223018b32b4d1fa46e071723d6817e2486d003becc55f0055005b6103d99060203d6020116103de575b6103d181836118a6565b81019061195a565b610350565b503d6103c7565b6040513d6000823e3d90fd5b346101a65760206003193601126101a6573360009081527fb7db2dd08fcb62d0c9e08c51941cae53c267786a0b75803fb7960902fc8ef97d60205260409020546004359060ff16156104fc57600454811015610478576020817f3e062f634a950eae456fa5f8fb53a4f59f55039983bd73df7a34a313b75443d492600455604051908152a1005b60846040517f08c379a000000000000000000000000000000000000000000000000000000000815260206004820152604060248201527f5374616b6564546f6b656e3a206e6577206475726174696f6e206d757374206260448201527f65206c657373207468616e207468652063757272656e74206475726174696f6e6064820152fd5b63e2517d3f60e01b60005233600452600060245260446000fd5b346101a65760206003193601126101a65761052f61197f565b600435600355005b346101a65760406003193601126101a65761055061187a565b6024359061055c6124fb565b600060206001600160a01b038254166064604051809481937f23b872dd0000000000000000000000000000000000000000000000000000000083523360048401523060248401528860448401525af180156103e557610841575b506001600160a01b03811690811561081257600354604d81116107aa57600a0a9081156107fc576001600160a01b03600254169160405190630fefbc0960e01b8252846004830152602082602481875afa9182156103e5576000926107c0575b506001600160801b0380918704169116016001600160801b0381116107aa57604051631b16777760e01b81526001600160a01b039290921660048301526001600160801b0316602482015290602090829060449082906000905af180156103e55761078b575b506106a8827f52c63247e1f47db19d5ce0460030c497f067ca4cebf71ba98eeadabe20bace0254611972565b7f52c63247e1f47db19d5ce0460030c497f067ca4cebf71ba98eeadabe20bace02557f90890809c654f11d6e72a28fa60149770a0d11ec6c92319d6ceb2bb0a4ea1a1560406000938385527f52c63247e1f47db19d5ce0460030c497f067ca4cebf71ba98eeadabe20bace0060205281852081815401905583857fddf252ad1be2c89b69c2b068fc378daa952ba7f163c4a11628f55a4df523b3ef60208551858152a3838552600160205242828620558151904282526020820152a260017f9b779b17422d0df92223018b32b4d1fa46e071723d6817e2486d003becc55f005580f35b6107a39060203d6020116103de576103d181836118a6565b508261067c565b634e487b7160e01b600052601160045260246000fd5b6001600160801b039192506107ed829160203d6020116107f5575b6107e581836118a6565b810190612574565b929150610616565b503d6107db565b634e487b7160e01b600052601260045260246000fd5b7fec442f0500000000000000000000000000000000000000000000000000000000600052600060045260246000fd5b6108599060203d6020116103de576103d181836118a6565b6105b6565b346101a65760406003193601126101a65761088461087a61187a565b6024359033611b7e565b602060405160018152f35b346101a65760006003193601126101a657602060405160008152f35b346101a65760e06003193601126101a6576108c461187a565b60243567ffffffffffffffff81116101a6576108e49036906004016118c9565b9060443567ffffffffffffffff81116101a6576109059036906004016118c9565b6064356001600160a01b0381168091036101a657608435926001600160a01b0384168094036101a65760c435926001600160a01b0384168094036101a6577ff0c57e16840df040f15088dc2f81fe391c3923bec73e23a9662efc9c229c6a00549560ff8760401c16159667ffffffffffffffff811680159081610fd4575b6001149081610fca575b159081610fc1575b50610f97578760017fffffffffffffffffffffffffffffffffffffffffffffffff00000000000000008316177ff0c57e16840df040f15088dc2f81fe391c3923bec73e23a9662efc9c229c6a0055610f42575b506109f1612593565b6109f9612593565b80519067ffffffffffffffff8211610dec578190610a377f52c63247e1f47db19d5ce0460030c497f067ca4cebf71ba98eeadabe20bace0354611920565b601f8111610eb3575b50602090601f8311600114610e0d57600092610e02575b50506000198260011b9260031b1c1916177f52c63247e1f47db19d5ce0460030c497f067ca4cebf71ba98eeadabe20bace03555b80519067ffffffffffffffff8211610dec57610ac77f52c63247e1f47db19d5ce0460030c497f067ca4cebf71ba98eeadabe20bace0454611920565b601f8111610d68575b50602090601f8311600114610cb45760449383602097946000999794610b7e948b92610ca9575b50506000198260011b9260031b1c1916177f52c63247e1f47db19d5ce0460030c497f067ca4cebf71ba98eeadabe20bace04555b610b33612593565b610b3b612593565b610b43612593565b60017f9b779b17422d0df92223018b32b4d1fa46e071723d6817e2486d003becc55f0055610b6f612593565b610b7881611f73565b50612025565b5073ffffffffffffffffffffffffffffffffffffffff198654161785558273ffffffffffffffffffffffffffffffffffffffff19600254161760025560a43560045560126003556040519485938492631b16777760e01b84526004840152600160248401525af180156103e557610c8a575b50610bf757005b7fffffffffffffffffffffffffffffffffffffffffffffff00ffffffffffffffff7ff0c57e16840df040f15088dc2f81fe391c3923bec73e23a9662efc9c229c6a0054167ff0c57e16840df040f15088dc2f81fe391c3923bec73e23a9662efc9c229c6a00557fc7f505b2f371ae2175ee4913f4499e1f2633a7b5936321eed1cdaeb6115181d2602060405160018152a1005b610ca29060203d6020116103de576103d181836118a6565b5081610bf0565b015190508b80610af7565b90601f198316917f52c63247e1f47db19d5ce0460030c497f067ca4cebf71ba98eeadabe20bace04600052816000209260005b818110610d505750846000999794610b7e946044989460209b9860019510610d37575b505050811b017f52c63247e1f47db19d5ce0460030c497f067ca4cebf71ba98eeadabe20bace0455610b2b565b015160001960f88460031b161c191690558b8080610d0a565b92936020600181928786015181550195019301610ce7565b7f52c63247e1f47db19d5ce0460030c497f067ca4cebf71ba98eeadabe20bace046000527f46a2803e59a4de4e7a4c574b1243f25977ac4c77d5a1a4a609b5394cebb4a2aa601f840160051c81019160208510610de2575b601f0160051c01905b818110610dd65750610ad0565b60008155600101610dc9565b9091508190610dc0565b634e487b7160e01b600052604160045260246000fd5b015190508880610a57565b91601f1916917f52c63247e1f47db19d5ce0460030c497f067ca4cebf71ba98eeadabe20bace03600052816000209260005b818110610e9b5750908460019594939210610e82575b505050811b017f52c63247e1f47db19d5ce0460030c497f067ca4cebf71ba98eeadabe20bace0355610a8b565b015160001960f88460031b161c19169055888080610e55565b92936020600181928786015181550195019301610e3f565b7f52c63247e1f47db19d5ce0460030c497f067ca4cebf71ba98eeadabe20bace036000529091507f2ae08a8e29253f69ac5d979a101956ab8f8d9d7ded63fa7a83b16fc47648eab0601f840160051c81019160208510610f38575b90601f859493920160051c01905b818110610f295750610a40565b60008155849350600101610f1c565b9091508190610f0e565b7fffffffffffffffffffffffffffffffffffffffffffffff0000000000000000001668010000000000000001177ff0c57e16840df040f15088dc2f81fe391c3923bec73e23a9662efc9c229c6a0055876109e8565b7ff92ee8a90000000000000000000000000000000000000000000000000000000060005260046000fd5b90501589610995565b303b15915061098d565b899150610983565b346101a65760006003193601126101a65760405160007f52c63247e1f47db19d5ce0460030c497f067ca4cebf71ba98eeadabe20bace045461101d81611920565b80845290600181169081156110d35750600114611055575b61105183611045818503826118a6565b60405191829182611830565b0390f35b7f52c63247e1f47db19d5ce0460030c497f067ca4cebf71ba98eeadabe20bace0460009081527f46a2803e59a4de4e7a4c574b1243f25977ac4c77d5a1a4a609b5394cebb4a2aa939250905b8082106110b957509091508101602001611045611035565b9192600181602092548385880101520191019092916110a1565b60ff191660208086019190915291151560051b840190910191506110459050611035565b346101a65760406003193601126101a657611110611890565b6004356000527f02dd7bc7dec4dceedda775e58dd541e08a116c6c53815c0bd028192f7b6268006020526001600160a01b0360406000209116600052602052602060ff604060002054166040519015158152f35b346101a65760406003193601126101a6576102c761118061187a565b6024359061118f823383611a57565b612298565b346101a65760206003193601126101a6576001600160a01b036111b561187a565b166000527f52c63247e1f47db19d5ce0460030c497f067ca4cebf71ba98eeadabe20bace006020526020604060002054604051908152f35b346101a65760206003193601126101a6576001600160a01b0361120e61187a565b16806000526001602052604060002054156000146112345750602060005b604051908152f35b6000526001602052602061125060406000205460045490611972565b61122c565b346101a65760206003193601126101a6576004356001600160a01b0381168091036101a65761128261197f565b73ffffffffffffffffffffffffffffffffffffffff196002541617600255600080f35b346101a65760206003193601126101a6576102c760043533612298565b346101a65760406003193601126101a6576112db611890565b336001600160a01b038216036112f7576102c7906004356121cb565b7f6697b2320000000000000000000000000000000000000000000000000000000060005260046000fd5b346101a65760006003193601126101a657602060405160128152f35b346101a65760406003193601126101a6576102c760043561135c611890565b906113976102bd826000527f02dd7bc7dec4dceedda775e58dd541e08a116c6c53815c0bd028192f7b62680060205260016040600020015490565b6120f3565b346101a65760206003193601126101a657602061122c6004356000527f02dd7bc7dec4dceedda775e58dd541e08a116c6c53815c0bd028192f7b62680060205260016040600020015490565b346101a65760206003193601126101a6576001600160a01b0361140961187a565b1660005260016020526020604060002054604051908152f35b346101a65760606003193601126101a65761088461143e61187a565b611446611890565b60443591611455833383611a57565b611b7e565b346101a65760406003193601126101a65761147361187a565b602435906001600160801b03821682036101a6576114e09160209161149661197f565b6001600160a01b0360025416906000604051809681958294631b16777760e01b8452600484019092916001600160801b036020916001600160a01b03604085019616845216910152565b03925af180156103e5576114f057005b6102c79060203d6020116103de576103d181836118a6565b346101a65760006003193601126101a65760207f52c63247e1f47db19d5ce0460030c497f067ca4cebf71ba98eeadabe20bace0254604051908152f35b346101a65760006003193601126101a65760206001600160a01b0360025416604051908152f35b346101a65760406003193601126101a65761158561187a565b602435903315611641576001600160a01b0316908115611612573360009081527f52c63247e1f47db19d5ce0460030c497f067ca4cebf71ba98eeadabe20bace016020526040902082600052602052806040600020556040519081527f8c5be1e5ebec7d5bd14f71427d1e84f3dd0314c0f7b2291e5b200ac8c7c3b92560203392a3602060405160018152f35b7f94280d6200000000000000000000000000000000000000000000000000000000600052600060045260246000fd5b7fe602df0500000000000000000000000000000000000000000000000000000000600052600060045260246000fd5b346101a65760006003193601126101a65760405160007f52c63247e1f47db19d5ce0460030c497f067ca4cebf71ba98eeadabe20bace03546116b181611920565b80845290600181169081156110d357506001146116d85761105183611045818503826118a6565b7f52c63247e1f47db19d5ce0460030c497f067ca4cebf71ba98eeadabe20bace0360009081527f2ae08a8e29253f69ac5d979a101956ab8f8d9d7ded63fa7a83b16fc47648eab0939250905b80821061173c57509091508101602001611045611035565b919260018160209254838588010152019101909291611724565b346101a65760006003193601126101a6576020600354604051908152f35b346101a65760006003193601126101a6576020600454604051908152f35b346101a65760206003193601126101a657600435907fffffffff0000000000000000000000000000000000000000000000000000000082168092036101a657817f7965db0b0000000000000000000000000000000000000000000000000000000060209314908115611806575b5015158152f35b7f01ffc9a700000000000000000000000000000000000000000000000000000000915014836117ff565b9190916020815282519283602083015260005b848110611864575050601f19601f8460006040809697860101520116010190565b8060208092840101516040828601015201611843565b600435906001600160a01b03821682036101a657565b602435906001600160a01b03821682036101a657565b90601f601f19910116810190811067ffffffffffffffff821117610dec57604052565b81601f820112156101a65780359067ffffffffffffffff8211610dec57604051926118fe6020601f19601f86011601856118a6565b828452602083830101116101a657816000926020809301838601378301015290565b90600182811c92168015611950575b602083101461193a57565b634e487b7160e01b600052602260045260246000fd5b91607f169161192f565b908160209103126101a6575180151581036101a65790565b919082018092116107aa57565b3360009081527f06484cc59dc38e4f67c31122333a17ca81b3ca18cdf02bfc298072fa52b0316a602052604090205460ff16156119b857565b63e2517d3f60e01b600052336004527f241ecf16d79d0f8dbfb92cbc07fe17840425976cf0667f022fe9877caa831b0860245260446000fd5b806000527f02dd7bc7dec4dceedda775e58dd541e08a116c6c53815c0bd028192f7b62680060205260406000206001600160a01b03331660005260205260ff6040600020541615611a3f5750565b63e2517d3f60e01b6000523360045260245260446000fd5b9190611a95836001600160a01b03166000527f52c63247e1f47db19d5ce0460030c497f067ca4cebf71ba98eeadabe20bace01602052604060002090565b6001600160a01b038216600052602052604060002054926000198410611abc575b50505050565b828410611b3f576001600160a01b03811615611641576001600160a01b0382161561161257611b256001600160a01b03916001600160a01b03166000527f52c63247e1f47db19d5ce0460030c497f067ca4cebf71ba98eeadabe20bace01602052604060002090565b911660005260205260406000209103905538808080611ab6565b506001600160a01b0383917ffb8f41b2000000000000000000000000000000000000000000000000000000006000521660045260245260445260646000fd5b90916001600160a01b038216918215611f44576001600160a01b03841693841561081257836000526001602052611bbd60406000205460045490611972565b421115611ec157600354604d81116107aa57600a0a80156107fc576001600160801b0390840416916001600160a01b036002541690604051630fefbc0960e01b8152866004820152602081602481865afa9081156103e55785916001600160801b0391600091611ea2575b501680611dfd575b505050506001600160a01b036002541691604051630fefbc0960e01b8152866004820152602081602481875afa80156103e5576001600160801b0391600091611dde575b5016016001600160801b0381116107aa57604051631b16777760e01b81526001600160a01b039290921660048301526001600160801b0316602482015290602090829060449082906000905af180156103e557611dbf575b5060008281527f52c63247e1f47db19d5ce0460030c497f067ca4cebf71ba98eeadabe20bace006020526040812054828110611d8c5791604082827fddf252ad1be2c89b69c2b068fc378daa952ba7f163c4a11628f55a4df523b3ef9587602096527f52c63247e1f47db19d5ce0460030c497f067ca4cebf71ba98eeadabe20bace00865203828220558681527f52c63247e1f47db19d5ce0460030c497f067ca4cebf71ba98eeadabe20bace00845220818154019055604051908152a3565b6064937fe450d38c0000000000000000000000000000000000000000000000000000000083949352600452602452604452fd5b611dd79060203d6020116103de576103d181836118a6565b5038611ccc565b611df7915060203d6020116107f5576107e581836118a6565b38611c74565b81811115611e915703906001600160801b0382116107aa57611e5b92602092915b6000604051809681958294631b16777760e01b8452600484019092916001600160801b036020916001600160a01b03604085019616845216910152565b03925af180156103e557611e72575b808381611c30565b611e8a9060203d6020116103de576103d181836118a6565b5038611e6a565b5050602090611e5b92600091611e1e565b611ebb915060203d6020116107f5576107e581836118a6565b38611c28565b60846040517f08c379a0000000000000000000000000000000000000000000000000000000008152602060048201526024808201527f5374616b6564546f6b656e3a20746f6b656e7320617265207374696c6c206c6f60448201527f636b6564000000000000000000000000000000000000000000000000000000006064820152fd5b7f96c6fd1e00000000000000000000000000000000000000000000000000000000600052600060045260246000fd5b6001600160a01b03811660009081527fb7db2dd08fcb62d0c9e08c51941cae53c267786a0b75803fb7960902fc8ef97d602052604090205460ff1661201f576001600160a01b031660008181527fb7db2dd08fcb62d0c9e08c51941cae53c267786a0b75803fb7960902fc8ef97d60205260408120805460ff191660011790553391907f2f8788117e7eff1d82e926ec794901d17c78024a50270940304540a733656f0d8180a4600190565b50600090565b6001600160a01b03811660009081527f06484cc59dc38e4f67c31122333a17ca81b3ca18cdf02bfc298072fa52b0316a602052604090205460ff1661201f576001600160a01b031660008181527f06484cc59dc38e4f67c31122333a17ca81b3ca18cdf02bfc298072fa52b0316a60205260408120805460ff191660011790553391907f241ecf16d79d0f8dbfb92cbc07fe17840425976cf0667f022fe9877caa831b08907f2f8788117e7eff1d82e926ec794901d17c78024a50270940304540a733656f0d9080a4600190565b806000527f02dd7bc7dec4dceedda775e58dd541e08a116c6c53815c0bd028192f7b62680060205260406000206001600160a01b03831660005260205260ff60406000205416156000146121c457806000527f02dd7bc7dec4dceedda775e58dd541e08a116c6c53815c0bd028192f7b62680060205260406000206001600160a01b0383166000526020526040600020600160ff198254161790556001600160a01b03339216907f2f8788117e7eff1d82e926ec794901d17c78024a50270940304540a733656f0d600080a4600190565b5050600090565b806000527f02dd7bc7dec4dceedda775e58dd541e08a116c6c53815c0bd028192f7b62680060205260406000206001600160a01b03831660005260205260ff604060002054166000146121c457806000527f02dd7bc7dec4dceedda775e58dd541e08a116c6c53815c0bd028192f7b62680060205260406000206001600160a01b038316600052602052604060002060ff1981541690556001600160a01b03339216907ff6391f5c32d9c69d2a47ea670b442974b53935d1edc7fd64eb21e047a839171b600080a4600190565b6001600160a01b038116908115611f44578160005260016020526122c460406000205460045490611972565b421115611ec157600354604d81116107aa57600a0a80156107fc576001600160801b0390840416906001600160a01b036002541691604051630fefbc0960e01b8152846004820152602081602481875afa80156103e5576001600160801b03916000916124dc575b501680612441575b505050506000918183527f52c63247e1f47db19d5ce0460030c497f067ca4cebf71ba98eeadabe20bace00602052604083205481811061240f57817fddf252ad1be2c89b69c2b068fc378daa952ba7f163c4a11628f55a4df523b3ef926020928587527f52c63247e1f47db19d5ce0460030c497f067ca4cebf71ba98eeadabe20bace008452036040862055807f52c63247e1f47db19d5ce0460030c497f067ca4cebf71ba98eeadabe20bace0254037f52c63247e1f47db19d5ce0460030c497f067ca4cebf71ba98eeadabe20bace0255604051908152a3565b83927fe450d38c0000000000000000000000000000000000000000000000000000000060649552600452602452604452fd5b818111156124cb5703906001600160801b0382116107aa57604051631b16777760e01b81526001600160a01b0390911660048201526001600160801b03909116602482015290602090829081600081604481015b03925af180156103e5576124ac575b808080612334565b6124c49060203d6020116103de576103d181836118a6565b50386124a4565b505060209061249592600091611e1e565b6124f5915060203d6020116107f5576107e581836118a6565b3861232c565b60027f9b779b17422d0df92223018b32b4d1fa46e071723d6817e2486d003becc55f00541461254a5760027f9b779b17422d0df92223018b32b4d1fa46e071723d6817e2486d003becc55f0055565b7f3ee5aeb50000000000000000000000000000000000000000000000000000000060005260046000fd5b908160209103126101a657516001600160801b03811681036101a65790565b60ff7ff0c57e16840df040f15088dc2f81fe391c3923bec73e23a9662efc9c229c6a005460401c16156125c257565b7fd7e6bcf80000000000000000000000000000000000000000000000000000000060005260046000fdfea26469706673582212208deffce2b680d8b95f58846f4bbc46f6e398fbc94a910029fa2207808101706964736f6c634300081a0033",
  "linkReferences": {},
  "deployedLinkReferences": {}
}