{
  "_format": "hh-sol-artifact-1",
  "contractName": "StremeVaultAdminFactory",
  "sourceName": "contracts/extras/StremeVaultAdminFactory.sol",
  "abi": [
    {
      "inputs": [],
      "name": "AccessControlBadConfirmation",
      "type": "error"
    },
    {
      "inputs": [
        {
          "internalType": "address",
          "name": "account",
          "type": "address"
        },
        {
          "internalType": "bytes32",
          "name": "neededRole",
          "type": "bytes32"
        }
      ],
      "name": "AccessControlUnauthorizedAccount",
      "type": "error"
    },
    {
      "anonymous": false,
      "inputs": [
        {
          "indexed": true,
          "internalType": "bytes32",
          "name": "role",
          "type": "bytes32"
        },
        {
          "indexed": true,
          "internalType": "bytes32",
          "name": "previousAdminRole",
          "type": "bytes32"
        },
        {
          "indexed": true,
          "internalType": "bytes32",
          "name": "newAdminRole",
          "type": "bytes32"
        }
      ],
      "name": "RoleAdminChanged",
      "type": "event"
    },
    {
      "anonymous": false,
      "inputs": [
        {
          "indexed": true,
          "internalType": "bytes32",
          "name": "role",
          "type": "bytes32"
        },
        {
          "indexed": true,
          "internalType": "address",
          "name": "account",
          "type": "address"
        },
        {
          "indexed": true,
          "internalType": "address",
          "name": "sender",
          "type": "address"
        }
      ],
      "name": "RoleGranted",
      "type": "event"
    },
    {
      "anonymous": false,
      "inputs": [
        {
          "indexed": true,
          "internalType": "bytes32",
          "name": "role",
          "type": "bytes32"
        },
        {
          "indexed": true,
          "internalType": "address",
          "name": "account",
          "type": "address"
        },
        {
          "indexed": true,
          "internalType": "address",
          "name": "sender",
          "type": "address"
        }
      ],
      "name": "RoleRevoked",
      "type": "event"
    },
    {
      "anonymous": false,
      "inputs": [
        {
          "indexed": false,
          "internalType": "address",
          "name": "vaultAdmin",
          "type": "address"
        },
        {
          "indexed": false,
          "internalType": "address",
          "name": "admin",
          "type": "address"
        }
      ],
      "name": "VaultAdminDeployed",
      "type": "event"
    },
    {
      "inputs": [],
      "name": "DEFAULT_ADMIN_ROLE",
      "outputs": [
        {
          "internalType": "bytes32",
          "name": "",
          "type": "bytes32"
        }
      ],
      "stateMutability": "view",
      "type": "function"
    },
    {
      "inputs": [
        {
          "internalType": "contract IStremeVault",
          "name": "vault",
          "type": "address"
        },
        {
          "internalType": "address",
          "name": "admin",
          "type": "address"
        }
      ],
      "name": "deployVaultAdmin",
      "outputs": [
        {
          "internalType": "address",
          "name": "",
          "type": "address"
        }
      ],
      "stateMutability": "nonpayable",
      "type": "function"
    },
    {
      "inputs": [
        {
          "internalType": "contract IStremeVault",
          "name": "vault",
          "type": "address"
        },
        {
          "internalType": "address",
          "name": "admin",
          "type": "address"
        },
        {
          "internalType": "uint256",
          "name": "count",
          "type": "uint256"
        }
      ],
      "name": "deployVaultAdmins",
      "outputs": [
        {
          "internalType": "address[]",
          "name": "",
          "type": "address[]"
        }
      ],
      "stateMutability": "nonpayable",
      "type": "function"
    },
    {
      "inputs": [
        {
          "internalType": "bytes32",
          "name": "role",
          "type": "bytes32"
        }
      ],
      "name": "getRoleAdmin",
      "outputs": [
        {
          "internalType": "bytes32",
          "name": "",
          "type": "bytes32"
        }
      ],
      "stateMutability": "view",
      "type": "function"
    },
    {
      "inputs": [
        {
          "internalType": "bytes32",
          "name": "role",
          "type": "bytes32"
        },
        {
          "internalType": "address",
          "name": "account",
          "type": "address"
        }
      ],
      "name": "grantRole",
      "outputs": [],
      "stateMutability": "nonpayable",
      "type": "function"
    },
    {
      "inputs": [
        {
          "internalType": "bytes32",
          "name": "role",
          "type": "bytes32"
        },
        {
          "internalType": "address",
          "name": "account",
          "type": "address"
        }
      ],
      "name": "hasRole",
      "outputs": [
        {
          "internalType": "bool",
          "name": "",
          "type": "bool"
        }
      ],
      "stateMutability": "view",
      "type": "function"
    },
    {
      "inputs": [
        {
          "internalType": "address",
          "name": "",
          "type": "address"
        }
      ],
      "name": "nonces",
      "outputs": [
        {
          "internalType": "uint8",
          "name": "nonce",
          "type": "uint8"
        }
      ],
      "stateMutability": "view",
      "type": "function"
    },
    {
      "inputs": [
        {
          "internalType": "address",
          "name": "admin",
          "type": "address"
        }
      ],
      "name": "predictVaultAdminAddress",
      "outputs": [
        {
          "internalType": "address",
          "name": "",
          "type": "address"
        }
      ],
      "stateMutability": "view",
      "type": "function"
    },
    {
      "inputs": [
        {
          "internalType": "bytes32",
          "name": "role",
          "type": "bytes32"
        },
        {
          "internalType": "address",
          "name": "callerConfirmation",
          "type": "address"
        }
      ],
      "name": "renounceRole",
      "outputs": [],
      "stateMutability": "nonpayable",
      "type": "function"
    },
    {
      "inputs": [
        {
          "internalType": "bytes32",
          "name": "role",
          "type": "bytes32"
        },
        {
          "internalType": "address",
          "name": "account",
          "type": "address"
        }
      ],
      "name": "revokeRole",
      "outputs": [],
      "stateMutability": "nonpayable",
      "type": "function"
    },
    {
      "inputs": [
        {
          "internalType": "bytes4",
          "name": "interfaceId",
          "type": "bytes4"
        }
      ],
      "name": "supportsInterface",
      "outputs": [
        {
          "internalType": "bool",
          "name": "",
          "type": "bool"
        }
      ],
      "stateMutability": "view",
      "type": "function"
    }
  ],
  "bytecode": "0x608080604052346015576116a1908161001b8239f35b600080fdfe608080604052600436101561001357600080fd5b60003560e01c90816301ffc9a7146104a85750806303b0ff6c146103b5578063248a9ca3146103805780632f2ff15d1461034057806336568abe146102e1578063501476bf146102a457806374dbaa3e1461018b5780637ecebe001461014e57806391d1485414610100578063a217fddf146100e45763d547741f1461009857600080fd5b346100df5760406003193601126100df576100dd6004356100b761055c565b906100d86100d382600052600060205260016040600020015490565b610781565b61087b565b005b600080fd5b346100df5760006003193601126100df57602060405160008152f35b346100df5760406003193601126100df5761011961055c565b60043560005260006020526001600160a01b0360406000209116600052602052602060ff604060002054166040519015158152f35b346100df5760206003193601126100df576001600160a01b0361016f610546565b166000526001602052602060ff60406000205416604051908152f35b346100df5760206003193601126100df5760206001600160a01b036101ae610546565b8181166000526001835261021961022760ff604060002054166040519283918783019586906015926bffffffffffffffffffffffff197fff000000000000000000000000000000000000000000000000000000000000009260601b16835260f81b1660148201520190565b03601f198101835282610572565b519020610d6160405161023c85830182610572565b8181528481019161090b833951902060405190848201927fff0000000000000000000000000000000000000000000000000000000000000084523060601b60218401526035830152605582015260558152610298607582610572565b51902016604051908152f35b346100df5760406003193601126100df5760206102d06102c2610546565b6102ca61055c565b906105c3565b6001600160a01b0360405191168152f35b346100df5760406003193601126100df576102fa61055c565b336001600160a01b03821603610316576100dd9060043561087b565b7f6697b2320000000000000000000000000000000000000000000000000000000060005260046000fd5b346100df5760406003193601126100df576100dd60043561035f61055c565b9061037b6100d382600052600060205260016040600020015490565b6107e1565b346100df5760206003193601126100df5760206103ad600435600052600060205260016040600020015490565b604051908152f35b346100df5760606003193601126100df576103ce610546565b6103d661055c565b906044356103e3816105ab565b926103f16040519485610572565b8184526103fd826105ab565b92601f1960208601940136853760005b8381106104625784866040519182916020830190602084525180915260408301919060005b818110610440575050500390f35b82516001600160a01b0316845285945060209384019390920191600101610432565b61046c83836105c3565b908651811015610492576001600160a01b036001921660208260051b890101520161040d565b634e487b7160e01b600052603260045260246000fd5b346100df5760206003193601126100df57600435907fffffffff0000000000000000000000000000000000000000000000000000000082168092036100df57817f7965db0b000000000000000000000000000000000000000000000000000000006020931490811561051c575b5015158152f35b7f01ffc9a70000000000000000000000000000000000000000000000000000000091501483610515565b600435906001600160a01b03821682036100df57565b602435906001600160a01b03821682036100df57565b90601f601f19910116810190811067ffffffffffffffff82111761059557604052565b634e487b7160e01b600052604160045260246000fd5b67ffffffffffffffff81116105955760051b60200190565b9060006001600160a01b03821691828252600160205261021961063a60ff604085205416604051928391602083019586906015926bffffffffffffffffffffffff197fff000000000000000000000000000000000000000000000000000000000000009260601b16835260f81b1660148201520190565b519020828252600160205260408220805460ff811660ff811461076d5760ff600160ff199201169116179055604051610d618082019082821067ffffffffffffffff8311176107595790829161090b8339039083f5801561074c576001600160a01b031692833b15610748576001600160a01b03604051917f485cc955000000000000000000000000000000000000000000000000000000008352166004820152826024820152818160448183885af1801561073d57917f303dac61ec5485445c61d81c44962c20ddf403c88cd2c8be7a903ce491c58bb0939160409361072d575b50508151908482526020820152a190565b8161073791610572565b3861071c565b6040513d84823e3d90fd5b5080fd5b50604051903d90823e3d90fd5b602485634e487b7160e01b81526041600452fd5b602485634e487b7160e01b81526011600452fd5b80600052600060205260406000206001600160a01b03331660005260205260ff60406000205416156107b05750565b7fe2517d3f000000000000000000000000000000000000000000000000000000006000523360045260245260446000fd5b80600052600060205260406000206001600160a01b03831660005260205260ff60406000205416156000146108745780600052600060205260406000206001600160a01b0383166000526020526040600020600160ff198254161790556001600160a01b03339216907f2f8788117e7eff1d82e926ec794901d17c78024a50270940304540a733656f0d600080a4600190565b5050600090565b80600052600060205260406000206001600160a01b03831660005260205260ff604060002054166000146108745780600052600060205260406000206001600160a01b038316600052602052604060002060ff1981541690556001600160a01b03339216907ff6391f5c32d9c69d2a47ea670b442974b53935d1edc7fd64eb21e047a839171b600080a460019056fe60808060405234601557610d46908161001b8239f35b600080fdfe608080604052600436101561001357600080fd5b600090813560e01c90816301ffc9a71461081657508063248a9ca3146107e05780632f2ff15d1461079f57806336568abe1461074157806344004cc114610652578063485cc955146105e357806375b238fc146105a857806391d1485414610561578063a217fddf14610545578063b0e3fe7414610346578063b1cc494414610236578063d547741f146101ec578063ea122721146100e45763fbfa77cf146100bb57600080fd5b346100e157806003193601126100e15760206001600160a01b0360015416604051908152f35b80fd5b50346100e15760606003193601126100e157806100ff6108d5565b6101076108ba565b906101106108eb565b7fa49807205ce4d355092ef5a8a18f56e8913cf4a201fbe287825b095693c21775845283602052604084206001600160a01b03331660005260205261015c60ff60406000205416610932565b6001600160a01b0360015416803b156101e8578492836064926001600160a01b03809581604051998a9889977fea1227210000000000000000000000000000000000000000000000000000000089521660048801521660248601521660448401525af180156101dd576101cc5750f35b816101d691610997565b6100e15780f35b6040513d84823e3d90fd5b8480fd5b50346100e15760406003193601126100e15761023260043561020c6108ba565b9061022d61022882600052600060205260016040600020015490565b610a07565b610c81565b5080f35b50346100e15760806003193601126100e157806102516108d5565b6102596108ba565b906102626108eb565b906064356fffffffffffffffffffffffffffffffff81168091036101e8577fa49807205ce4d355092ef5a8a18f56e8913cf4a201fbe287825b095693c21775855284602052604085206001600160a01b0333166000526020526102cc60ff60406000205416610932565b6001600160a01b036001541691823b1561034257856001600160a01b0393608493858397816040519a8b998a987fb1cc4944000000000000000000000000000000000000000000000000000000008a5216600489015216602487015216604485015260648401525af180156101dd576101cc5750f35b8580fd5b50346100e15760806003193601126100e1576103606108d5565b6103686108ba565b9060443567ffffffffffffffff811161054157610389903690600401610901565b9060643567ffffffffffffffff8111610342576103aa903690600401610901565b9190927fa49807205ce4d355092ef5a8a18f56e8913cf4a201fbe287825b095693c21775875286602052604087206001600160a01b03331688526020526103f760ff604089205416610932565b6001600160a01b036001541694853b156105015791816001600160a01b03979492899694604051998a977fb0e3fe740000000000000000000000000000000000000000000000000000000089528160848a01931660048a0152166024880152608060448801525260a48501919086905b80821061050557505050838103600319016064850152818152602001919084905b8082106104c45750505092818381819603925af180156104b7576104a95780f35b6104b291610997565b388180f35b50604051903d90823e3d90fd5b929194909350508335906fffffffffffffffffffffffffffffffff8216809203610501576020816001938293520194019201918592879492610488565b8780fd5b9291949690939550508335906001600160a01b03821680920361053d5760208160019382935201940192019187949289969492610467565b8980fd5b8380fd5b50346100e157806003193601126100e157602090604051908152f35b50346100e15760406003193601126100e15760ff60406020926105826108ba565b60043582528185526001600160a01b038383209116825284522054166040519015158152f35b50346100e157806003193601126100e15760206040517fa49807205ce4d355092ef5a8a18f56e8913cf4a201fbe287825b095693c217758152f35b50346100e15760406003193601126100e1576004356001600160a01b03811680910361064e57610232906106156108ba565b907fffffffffffffffffffffffff0000000000000000000000000000000000000000600154161760015561064881610a67565b50610b19565b5080fd5b50346100e15760606003193601126100e15761066c6108d5565b60206001600160a01b0360446106806108ba565b7fa49807205ce4d355092ef5a8a18f56e8913cf4a201fbe287825b095693c21775865285845260408620833316875284526106c160ff604088205416610932565b858360405196879586947fa9059cbb00000000000000000000000000000000000000000000000000000000865216600485015284356024850152165af180156101dd5761070c575080f35b6020813d602011610739575b8161072560209383610997565b8101031261064e5751801515036100e15780f35b3d9150610718565b50346100e15760406003193601126100e15761075b6108ba565b336001600160a01b038216036107775761023290600435610c81565b6004827f6697b232000000000000000000000000000000000000000000000000000000008152fd5b50346100e15760406003193601126100e1576102326004356107bf6108ba565b906107db61022882600052600060205260016040600020015490565b610be7565b50346100e15760206003193601126100e157602061080e600435600052600060205260016040600020015490565b604051908152f35b90503461064e57602060031936011261064e576004357fffffffff0000000000000000000000000000000000000000000000000000000081168091036108b657602092507f7965db0b00000000000000000000000000000000000000000000000000000000811490811561088c575b5015158152f35b7f01ffc9a70000000000000000000000000000000000000000000000000000000091501438610885565b8280fd5b602435906001600160a01b03821682036108d057565b600080fd5b600435906001600160a01b03821682036108d057565b604435906001600160a01b03821682036108d057565b9181601f840112156108d05782359167ffffffffffffffff83116108d0576020808501948460051b0101116108d057565b1561093957565b60646040517f08c379a000000000000000000000000000000000000000000000000000000000815260206004820152601660248201527f43616c6c6572206973206e6f7420616e2061646d696e000000000000000000006044820152fd5b90601f7fffffffffffffffffffffffffffffffffffffffffffffffffffffffffffffffe0910116810190811067ffffffffffffffff8211176109d857604052565b7f4e487b7100000000000000000000000000000000000000000000000000000000600052604160045260246000fd5b80600052600060205260406000206001600160a01b03331660005260205260ff6040600020541615610a365750565b7fe2517d3f000000000000000000000000000000000000000000000000000000006000523360045260245260446000fd5b6001600160a01b03811660009081527fad3228b676f7d3cd4284a5443f17f1962b36e491b30a40b2405849e597ba5fb5602052604090205460ff16610b13576001600160a01b031660008181527fad3228b676f7d3cd4284a5443f17f1962b36e491b30a40b2405849e597ba5fb560205260408120805460ff191660011790553391907f2f8788117e7eff1d82e926ec794901d17c78024a50270940304540a733656f0d8180a4600190565b50600090565b6001600160a01b03811660009081527f7d7ffb7a348e1c6a02869081a26547b49160dd3df72d1d75a570eb9b698292ec602052604090205460ff16610b13576001600160a01b031660008181527f7d7ffb7a348e1c6a02869081a26547b49160dd3df72d1d75a570eb9b698292ec60205260408120805460ff191660011790553391907fa49807205ce4d355092ef5a8a18f56e8913cf4a201fbe287825b095693c21775907f2f8788117e7eff1d82e926ec794901d17c78024a50270940304540a733656f0d9080a4600190565b80600052600060205260406000206001600160a01b03831660005260205260ff6040600020541615600014610c7a5780600052600060205260406000206001600160a01b0383166000526020526040600020600160ff198254161790556001600160a01b03339216907f2f8788117e7eff1d82e926ec794901d17c78024a50270940304540a733656f0d600080a4600190565b5050600090565b80600052600060205260406000206001600160a01b03831660005260205260ff60406000205416600014610c7a5780600052600060205260406000206001600160a01b038316600052602052604060002060ff1981541690556001600160a01b03339216907ff6391f5c32d9c69d2a47ea670b442974b53935d1edc7fd64eb21e047a839171b600080a460019056fea2646970667358221220a7f1b5aa97f6595078dc4e8008954a8883fe4b7835d1ea2b586a7771453706ea64736f6c634300081a0033a26469706673582212200a52833726db7dce1714b00eafde93503417e2856b704af7f41767d5cd79c61664736f6c634300081a0033",
  "linkReferences": {},
  "deployedLinkReferences": {}
}