{
  "_format": "hh-sol-artifact-1",
  "contractName": "StremeVaultAdmin",
  "sourceName": "contracts/extras/StremeVaultAdminFactory.sol",
  "abi": [
    {
      "inputs": [],
      "name": "AccessControlBadConfirmation",
      "type": "error"
    },
    {
      "inputs": [
        {
          "internalType": "address",
          "name": "account",
          "type": "address"
        },
        {
          "internalType": "bytes32",
          "name": "neededRole",
          "type": "bytes32"
        }
      ],
      "name": "AccessControlUnauthorizedAccount",
      "type": "error"
    },
    {
      "anonymous": false,
      "inputs": [
        {
          "indexed": true,
          "internalType": "bytes32",
          "name": "role",
          "type": "bytes32"
        },
        {
          "indexed": true,
          "internalType": "bytes32",
          "name": "previousAdminRole",
          "type": "bytes32"
        },
        {
          "indexed": true,
          "internalType": "bytes32",
          "name": "newAdminRole",
          "type": "bytes32"
        }
      ],
      "name": "RoleAdminChanged",
      "type": "event"
    },
    {
      "anonymous": false,
      "inputs": [
        {
          "indexed": true,
          "internalType": "bytes32",
          "name": "role",
          "type": "bytes32"
        },
        {
          "indexed": true,
          "internalType": "address",
          "name": "account",
          "type": "address"
        },
        {
          "indexed": true,
          "internalType": "address",
          "name": "sender",
          "type": "address"
        }
      ],
      "name": "RoleGranted",
      "type": "event"
    },
    {
      "anonymous": false,
      "inputs": [
        {
          "indexed": true,
          "internalType": "bytes32",
          "name": "role",
          "type": "bytes32"
        },
        {
          "indexed": true,
          "internalType": "address",
          "name": "account",
          "type": "address"
        },
        {
          "indexed": true,
          "internalType": "address",
          "name": "sender",
          "type": "address"
        }
      ],
      "name": "RoleRevoked",
      "type": "event"
    },
    {
      "inputs": [],
      "name": "ADMIN_ROLE",
      "outputs": [
        {
          "internalType": "bytes32",
          "name": "",
          "type": "bytes32"
        }
      ],
      "stateMutability": "view",
      "type": "function"
    },
    {
      "inputs": [],
      "name": "DEFAULT_ADMIN_ROLE",
      "outputs": [
        {
          "internalType": "bytes32",
          "name": "",
          "type": "bytes32"
        }
      ],
      "stateMutability": "view",
      "type": "function"
    },
    {
      "inputs": [
        {
          "internalType": "address",
          "name": "token",
          "type": "address"
        },
        {
          "internalType": "address",
          "name": "oldAdmin",
          "type": "address"
        },
        {
          "internalType": "address",
          "name": "newAdmin",
          "type": "address"
        }
      ],
      "name": "editAllocationAdmin",
      "outputs": [],
      "stateMutability": "nonpayable",
      "type": "function"
    },
    {
      "inputs": [
        {
          "internalType": "bytes32",
          "name": "role",
          "type": "bytes32"
        }
      ],
      "name": "getRoleAdmin",
      "outputs": [
        {
          "internalType": "bytes32",
          "name": "",
          "type": "bytes32"
        }
      ],
      "stateMutability": "view",
      "type": "function"
    },
    {
      "inputs": [
        {
          "internalType": "bytes32",
          "name": "role",
          "type": "bytes32"
        },
        {
          "internalType": "address",
          "name": "account",
          "type": "address"
        }
      ],
      "name": "grantRole",
      "outputs": [],
      "stateMutability": "nonpayable",
      "type": "function"
    },
    {
      "inputs": [
        {
          "internalType": "bytes32",
          "name": "role",
          "type": "bytes32"
        },
        {
          "internalType": "address",
          "name": "account",
          "type": "address"
        }
      ],
      "name": "hasRole",
      "outputs": [
        {
          "internalType": "bool",
          "name": "",
          "type": "bool"
        }
      ],
      "stateMutability": "view",
      "type": "function"
    },
    {
      "inputs": [
        {
          "internalType": "contract IStremeVault",
          "name": "_vault",
          "type": "address"
        },
        {
          "internalType": "address",
          "name": "admin",
          "type": "address"
        }
      ],
      "name": "initialize",
      "outputs": [],
      "stateMutability": "nonpayable",
      "type": "function"
    },
    {
      "inputs": [
        {
          "internalType": "bytes32",
          "name": "role",
          "type": "bytes32"
        },
        {
          "internalType": "address",
          "name": "callerConfirmation",
          "type": "address"
        }
      ],
      "name": "renounceRole",
      "outputs": [],
      "stateMutability": "nonpayable",
      "type": "function"
    },
    {
      "inputs": [
        {
          "internalType": "bytes32",
          "name": "role",
          "type": "bytes32"
        },
        {
          "internalType": "address",
          "name": "account",
          "type": "address"
        }
      ],
      "name": "revokeRole",
      "outputs": [],
      "stateMutability": "nonpayable",
      "type": "function"
    },
    {
      "inputs": [
        {
          "internalType": "bytes4",
          "name": "interfaceId",
          "type": "bytes4"
        }
      ],
      "name": "supportsInterface",
      "outputs": [
        {
          "internalType": "bool",
          "name": "",
          "type": "bool"
        }
      ],
      "stateMutability": "view",
      "type": "function"
    },
    {
      "inputs": [
        {
          "internalType": "address",
          "name": "token",
          "type": "address"
        },
        {
          "internalType": "address",
          "name": "admin",
          "type": "address"
        },
        {
          "internalType": "address",
          "name": "member",
          "type": "address"
        },
        {
          "internalType": "uint128",
          "name": "newUnits",
          "type": "uint128"
        }
      ],
      "name": "updateMemberUnits",
      "outputs": [],
      "stateMutability": "nonpayable",
      "type": "function"
    },
    {
      "inputs": [
        {
          "internalType": "address",
          "name": "token",
          "type": "address"
        },
        {
          "internalType": "address",
          "name": "admin",
          "type": "address"
        },
        {
          "internalType": "address[]",
          "name": "members",
          "type": "address[]"
        },
        {
          "internalType": "uint128[]",
          "name": "newUnits",
          "type": "uint128[]"
        }
      ],
      "name": "updateMemberUnitsBatch",
      "outputs": [],
      "stateMutability": "nonpayable",
      "type": "function"
    },
    {
      "inputs": [],
      "name": "vault",
      "outputs": [
        {
          "internalType": "contract IStremeVault",
          "name": "",
          "type": "address"
        }
      ],
      "stateMutability": "view",
      "type": "function"
    },
    {
      "inputs": [
        {
          "internalType": "address",
          "name": "token",
          "type": "address"
        },
        {
          "internalType": "address",
          "name": "to",
          "type": "address"
        },
        {
          "internalType": "uint256",
          "name": "amount",
          "type": "uint256"
        }
      ],
      "name": "withdrawERC20",
      "outputs": [],
      "stateMutability": "nonpayable",
      "type": "function"
    }
  ],
  "bytecode": "0x60808060405234601557610d46908161001b8239f35b600080fdfe608080604052600436101561001357600080fd5b600090813560e01c90816301ffc9a71461081657508063248a9ca3146107e05780632f2ff15d1461079f57806336568abe1461074157806344004cc114610652578063485cc955146105e357806375b238fc146105a857806391d1485414610561578063a217fddf14610545578063b0e3fe7414610346578063b1cc494414610236578063d547741f146101ec578063ea122721146100e45763fbfa77cf146100bb57600080fd5b346100e157806003193601126100e15760206001600160a01b0360015416604051908152f35b80fd5b50346100e15760606003193601126100e157806100ff6108d5565b6101076108ba565b906101106108eb565b7fa49807205ce4d355092ef5a8a18f56e8913cf4a201fbe287825b095693c21775845283602052604084206001600160a01b03331660005260205261015c60ff60406000205416610932565b6001600160a01b0360015416803b156101e8578492836064926001600160a01b03809581604051998a9889977fea1227210000000000000000000000000000000000000000000000000000000089521660048801521660248601521660448401525af180156101dd576101cc5750f35b816101d691610997565b6100e15780f35b6040513d84823e3d90fd5b8480fd5b50346100e15760406003193601126100e15761023260043561020c6108ba565b9061022d61022882600052600060205260016040600020015490565b610a07565b610c81565b5080f35b50346100e15760806003193601126100e157806102516108d5565b6102596108ba565b906102626108eb565b906064356fffffffffffffffffffffffffffffffff81168091036101e8577fa49807205ce4d355092ef5a8a18f56e8913cf4a201fbe287825b095693c21775855284602052604085206001600160a01b0333166000526020526102cc60ff60406000205416610932565b6001600160a01b036001541691823b1561034257856001600160a01b0393608493858397816040519a8b998a987fb1cc4944000000000000000000000000000000000000000000000000000000008a5216600489015216602487015216604485015260648401525af180156101dd576101cc5750f35b8580fd5b50346100e15760806003193601126100e1576103606108d5565b6103686108ba565b9060443567ffffffffffffffff811161054157610389903690600401610901565b9060643567ffffffffffffffff8111610342576103aa903690600401610901565b9190927fa49807205ce4d355092ef5a8a18f56e8913cf4a201fbe287825b095693c21775875286602052604087206001600160a01b03331688526020526103f760ff604089205416610932565b6001600160a01b036001541694853b156105015791816001600160a01b03979492899694604051998a977fb0e3fe740000000000000000000000000000000000000000000000000000000089528160848a01931660048a0152166024880152608060448801525260a48501919086905b80821061050557505050838103600319016064850152818152602001919084905b8082106104c45750505092818381819603925af180156104b7576104a95780f35b6104b291610997565b388180f35b50604051903d90823e3d90fd5b929194909350508335906fffffffffffffffffffffffffffffffff8216809203610501576020816001938293520194019201918592879492610488565b8780fd5b9291949690939550508335906001600160a01b03821680920361053d5760208160019382935201940192019187949289969492610467565b8980fd5b8380fd5b50346100e157806003193601126100e157602090604051908152f35b50346100e15760406003193601126100e15760ff60406020926105826108ba565b60043582528185526001600160a01b038383209116825284522054166040519015158152f35b50346100e157806003193601126100e15760206040517fa49807205ce4d355092ef5a8a18f56e8913cf4a201fbe287825b095693c217758152f35b50346100e15760406003193601126100e1576004356001600160a01b03811680910361064e57610232906106156108ba565b907fffffffffffffffffffffffff0000000000000000000000000000000000000000600154161760015561064881610a67565b50610b19565b5080fd5b50346100e15760606003193601126100e15761066c6108d5565b60206001600160a01b0360446106806108ba565b7fa49807205ce4d355092ef5a8a18f56e8913cf4a201fbe287825b095693c21775865285845260408620833316875284526106c160ff604088205416610932565b858360405196879586947fa9059cbb00000000000000000000000000000000000000000000000000000000865216600485015284356024850152165af180156101dd5761070c575080f35b6020813d602011610739575b8161072560209383610997565b8101031261064e5751801515036100e15780f35b3d9150610718565b50346100e15760406003193601126100e15761075b6108ba565b336001600160a01b038216036107775761023290600435610c81565b6004827f6697b232000000000000000000000000000000000000000000000000000000008152fd5b50346100e15760406003193601126100e1576102326004356107bf6108ba565b906107db61022882600052600060205260016040600020015490565b610be7565b50346100e15760206003193601126100e157602061080e600435600052600060205260016040600020015490565b604051908152f35b90503461064e57602060031936011261064e576004357fffffffff0000000000000000000000000000000000000000000000000000000081168091036108b657602092507f7965db0b00000000000000000000000000000000000000000000000000000000811490811561088c575b5015158152f35b7f01ffc9a70000000000000000000000000000000000000000000000000000000091501438610885565b8280fd5b602435906001600160a01b03821682036108d057565b600080fd5b600435906001600160a01b03821682036108d057565b604435906001600160a01b03821682036108d057565b9181601f840112156108d05782359167ffffffffffffffff83116108d0576020808501948460051b0101116108d057565b1561093957565b60646040517f08c379a000000000000000000000000000000000000000000000000000000000815260206004820152601660248201527f43616c6c6572206973206e6f7420616e2061646d696e000000000000000000006044820152fd5b90601f7fffffffffffffffffffffffffffffffffffffffffffffffffffffffffffffffe0910116810190811067ffffffffffffffff8211176109d857604052565b7f4e487b7100000000000000000000000000000000000000000000000000000000600052604160045260246000fd5b80600052600060205260406000206001600160a01b03331660005260205260ff6040600020541615610a365750565b7fe2517d3f000000000000000000000000000000000000000000000000000000006000523360045260245260446000fd5b6001600160a01b03811660009081527fad3228b676f7d3cd4284a5443f17f1962b36e491b30a40b2405849e597ba5fb5602052604090205460ff16610b13576001600160a01b031660008181527fad3228b676f7d3cd4284a5443f17f1962b36e491b30a40b2405849e597ba5fb560205260408120805460ff191660011790553391907f2f8788117e7eff1d82e926ec794901d17c78024a50270940304540a733656f0d8180a4600190565b50600090565b6001600160a01b03811660009081527f7d7ffb7a348e1c6a02869081a26547b49160dd3df72d1d75a570eb9b698292ec602052604090205460ff16610b13576001600160a01b031660008181527f7d7ffb7a348e1c6a02869081a26547b49160dd3df72d1d75a570eb9b698292ec60205260408120805460ff191660011790553391907fa49807205ce4d355092ef5a8a18f56e8913cf4a201fbe287825b095693c21775907f2f8788117e7eff1d82e926ec794901d17c78024a50270940304540a733656f0d9080a4600190565b80600052600060205260406000206001600160a01b03831660005260205260ff6040600020541615600014610c7a5780600052600060205260406000206001600160a01b0383166000526020526040600020600160ff198254161790556001600160a01b03339216907f2f8788117e7eff1d82e926ec794901d17c78024a50270940304540a733656f0d600080a4600190565b5050600090565b80600052600060205260406000206001600160a01b03831660005260205260ff60406000205416600014610c7a5780600052600060205260406000206001600160a01b038316600052602052604060002060ff1981541690556001600160a01b03339216907ff6391f5c32d9c69d2a47ea670b442974b53935d1edc7fd64eb21e047a839171b600080a460019056fea2646970667358221220a7f1b5aa97f6595078dc4e8008954a8883fe4b7835d1ea2b586a7771453706ea64736f6c634300081a0033",
  "linkReferences": {},
  "deployedLinkReferences": {}
}