{
  "_format": "hh-sol-artifact-1",
  "contractName": "StremeVaultAdmin",
  "sourceName": "contracts/extras/StremeVaultAdminFactory.sol",
  "abi": [
    {
      "inputs": [],
      "name": "AccessControlBadConfirmation",
      "type": "error"
    },
    {
      "inputs": [
        {
          "internalType": "address",
          "name": "account",
          "type": "address"
        },
        {
          "internalType": "bytes32",
          "name": "neededRole",
          "type": "bytes32"
        }
      ],
      "name": "AccessControlUnauthorizedAccount",
      "type": "error"
    },
    {
      "anonymous": false,
      "inputs": [
        {
          "indexed": true,
          "internalType": "bytes32",
          "name": "role",
          "type": "bytes32"
        },
        {
          "indexed": true,
          "internalType": "bytes32",
          "name": "previousAdminRole",
          "type": "bytes32"
        },
        {
          "indexed": true,
          "internalType": "bytes32",
          "name": "newAdminRole",
          "type": "bytes32"
        }
      ],
      "name": "RoleAdminChanged",
      "type": "event"
    },
    {
      "anonymous": false,
      "inputs": [
        {
          "indexed": true,
          "internalType": "bytes32",
          "name": "role",
          "type": "bytes32"
        },
        {
          "indexed": true,
          "internalType": "address",
          "name": "account",
          "type": "address"
        },
        {
          "indexed": true,
          "internalType": "address",
          "name": "sender",
          "type": "address"
        }
      ],
      "name": "RoleGranted",
      "type": "event"
    },
    {
      "anonymous": false,
      "inputs": [
        {
          "indexed": true,
          "internalType": "bytes32",
          "name": "role",
          "type": "bytes32"
        },
        {
          "indexed": true,
          "internalType": "address",
          "name": "account",
          "type": "address"
        },
        {
          "indexed": true,
          "internalType": "address",
          "name": "sender",
          "type": "address"
        }
      ],
      "name": "RoleRevoked",
      "type": "event"
    },
    {
      "inputs": [],
      "name": "ADMIN_ROLE",
      "outputs": [
        {
          "internalType": "bytes32",
          "name": "",
          "type": "bytes32"
        }
      ],
      "stateMutability": "view",
      "type": "function"
    },
    {
      "inputs": [],
      "name": "DEFAULT_ADMIN_ROLE",
      "outputs": [
        {
          "internalType": "bytes32",
          "name": "",
          "type": "bytes32"
        }
      ],
      "stateMutability": "view",
      "type": "function"
    },
    {
      "inputs": [
        {
          "internalType": "address",
          "name": "token",
          "type": "address"
        },
        {
          "internalType": "address",
          "name": "member",
          "type": "address"
        },
        {
          "internalType": "uint128",
          "name": "unitsToAdd",
          "type": "uint128"
        }
      ],
      "name": "addMemberUnits",
      "outputs": [],
      "stateMutability": "nonpayable",
      "type": "function"
    },
    {
      "inputs": [
        {
          "internalType": "address",
          "name": "token",
          "type": "address"
        },
        {
          "internalType": "address[]",
          "name": "members",
          "type": "address[]"
        },
        {
          "internalType": "uint128[]",
          "name": "unitsToAdd",
          "type": "uint128[]"
        }
      ],
      "name": "addMemberUnitsBatch",
      "outputs": [],
      "stateMutability": "nonpayable",
      "type": "function"
    },
    {
      "inputs": [
        {
          "internalType": "address",
          "name": "token",
          "type": "address"
        },
        {
          "internalType": "address",
          "name": "newAdmin",
          "type": "address"
        }
      ],
      "name": "editAllocationAdmin",
      "outputs": [],
      "stateMutability": "nonpayable",
      "type": "function"
    },
    {
      "inputs": [
        {
          "internalType": "bytes32",
          "name": "role",
          "type": "bytes32"
        }
      ],
      "name": "getRoleAdmin",
      "outputs": [
        {
          "internalType": "bytes32",
          "name": "",
          "type": "bytes32"
        }
      ],
      "stateMutability": "view",
      "type": "function"
    },
    {
      "inputs": [
        {
          "internalType": "address",
          "name": "token",
          "type": "address"
        },
        {
          "internalType": "address",
          "name": "member",
          "type": "address"
        }
      ],
      "name": "getUnits",
      "outputs": [
        {
          "internalType": "uint128",
          "name": "",
          "type": "uint128"
        }
      ],
      "stateMutability": "view",
      "type": "function"
    },
    {
      "inputs": [
        {
          "internalType": "bytes32",
          "name": "role",
          "type": "bytes32"
        },
        {
          "internalType": "address",
          "name": "account",
          "type": "address"
        }
      ],
      "name": "grantRole",
      "outputs": [],
      "stateMutability": "nonpayable",
      "type": "function"
    },
    {
      "inputs": [
        {
          "internalType": "bytes32",
          "name": "role",
          "type": "bytes32"
        },
        {
          "internalType": "address",
          "name": "account",
          "type": "address"
        }
      ],
      "name": "hasRole",
      "outputs": [
        {
          "internalType": "bool",
          "name": "",
          "type": "bool"
        }
      ],
      "stateMutability": "view",
      "type": "function"
    },
    {
      "inputs": [
        {
          "internalType": "contract IStremeVault",
          "name": "_vault",
          "type": "address"
        },
        {
          "internalType": "address",
          "name": "admin",
          "type": "address"
        }
      ],
      "name": "initialize",
      "outputs": [],
      "stateMutability": "nonpayable",
      "type": "function"
    },
    {
      "inputs": [
        {
          "internalType": "bytes32",
          "name": "role",
          "type": "bytes32"
        },
        {
          "internalType": "address",
          "name": "callerConfirmation",
          "type": "address"
        }
      ],
      "name": "renounceRole",
      "outputs": [],
      "stateMutability": "nonpayable",
      "type": "function"
    },
    {
      "inputs": [
        {
          "internalType": "bytes32",
          "name": "role",
          "type": "bytes32"
        },
        {
          "internalType": "address",
          "name": "account",
          "type": "address"
        }
      ],
      "name": "revokeRole",
      "outputs": [],
      "stateMutability": "nonpayable",
      "type": "function"
    },
    {
      "inputs": [
        {
          "internalType": "bytes4",
          "name": "interfaceId",
          "type": "bytes4"
        }
      ],
      "name": "supportsInterface",
      "outputs": [
        {
          "internalType": "bool",
          "name": "",
          "type": "bool"
        }
      ],
      "stateMutability": "view",
      "type": "function"
    },
    {
      "inputs": [
        {
          "internalType": "address",
          "name": "token",
          "type": "address"
        },
        {
          "internalType": "address",
          "name": "member",
          "type": "address"
        },
        {
          "internalType": "uint128",
          "name": "newUnits",
          "type": "uint128"
        }
      ],
      "name": "updateMemberUnits",
      "outputs": [],
      "stateMutability": "nonpayable",
      "type": "function"
    },
    {
      "inputs": [
        {
          "internalType": "address",
          "name": "token",
          "type": "address"
        },
        {
          "internalType": "address[]",
          "name": "members",
          "type": "address[]"
        },
        {
          "internalType": "uint128[]",
          "name": "newUnits",
          "type": "uint128[]"
        }
      ],
      "name": "updateMemberUnitsBatch",
      "outputs": [],
      "stateMutability": "nonpayable",
      "type": "function"
    },
    {
      "inputs": [],
      "name": "vault",
      "outputs": [
        {
          "internalType": "contract IStremeVault",
          "name": "",
          "type": "address"
        }
      ],
      "stateMutability": "view",
      "type": "function"
    },
    {
      "inputs": [
        {
          "internalType": "address",
          "name": "token",
          "type": "address"
        },
        {
          "internalType": "address",
          "name": "to",
          "type": "address"
        },
        {
          "internalType": "uint256",
          "name": "amount",
          "type": "uint256"
        }
      ],
      "name": "withdrawERC20",
      "outputs": [],
      "stateMutability": "nonpayable",
      "type": "function"
    }
  ],
  "bytecode": "0x6080806040523460155761127a908161001b8239f35b600080fdfe608080604052600436101561001357600080fd5b600090813560e01c90816301ffc9a714610c15575080631142f2e31461098d578063248a9ca3146109575780632f2ff15d1461091657806336568abe146108b857806344004cc1146107c757806346c96633146106ea578063485cc9551461067b5780636473b746146105c757806375b238fc1461058c57806391d1485414610540578063a217fddf14610524578063c751ae7f146103ac578063d547741f14610362578063e43d61fe14610229578063ed1d1d2d146101055763fbfa77cf146100dc57600080fd5b3461010257806003193601126101025760206001600160a01b0360015416604051908152f35b80fd5b50346101025760606003193601126101025780610120610cd4565b610128610cb9565b90610131610d82565b7fa49807205ce4d355092ef5a8a18f56e8913cf4a201fbe287825b095693c21775845283602052604084206001600160a01b03331660005260205261017d60ff60406000205416610da1565b6001600160a01b0360015416803b15610225576040517fb1cc49440000000000000000000000000000000000000000000000000000000081526001600160a01b0393841660048201523060248201529390921660448401526fffffffffffffffffffffffffffffffff16606483015282908290818381608481015b03925af1801561021a576102095750f35b8161021391610e06565b6101025780f35b6040513d84823e3d90fd5b8480fd5b50346101025761023836610d1b565b90919493927fa49807205ce4d355092ef5a8a18f56e8913cf4a201fbe287825b095693c21775855284602052604085206001600160a01b03331660005260205261028960ff60406000205416610da1565b6001600160a01b036001541695863b1561035e576020916102f0916001600160a01b03604051977fb0e3fe74000000000000000000000000000000000000000000000000000000008952166004880152306024880152608060448801526084870191610eed565b60031985820301606486015282815201919084905b80821061032857505050818394818581819503925af1801561021a576102095750f35b90919283356fffffffffffffffffffffffffffffffff811680910361035a578152602090810193019160010190610305565b8680fd5b8580fd5b5034610102576040600319360112610102576103a8600435610382610cb9565b906103a361039e82600052600060205260016040600020015490565b610f3b565b6111b5565b5080f35b503461010257606060031936011261010257806103c7610cd4565b6103cf610cb9565b906103d8610d82565b7fa49807205ce4d355092ef5a8a18f56e8913cf4a201fbe287825b095693c21775845283602052604084206001600160a01b03331660005260205261042460ff60406000205416610da1565b60015460405163b360cea160e01b81526001600160a01b038481166004830152306024830152858116604483015290911691602082606481865afa8015610519576104769287916104ea575b50610ea5565b90803b15610225576040517fb1cc49440000000000000000000000000000000000000000000000000000000081526001600160a01b0393841660048201523060248201529390921660448401526fffffffffffffffffffffffffffffffff16606483015282908290818381608481016101f8565b61050c915060203d602011610512575b6105048183610e06565b810190610e7d565b38610470565b503d6104fa565b6040513d88823e3d90fd5b5034610102578060031936011261010257602090604051908152f35b5034610102576040600319360112610102576001600160a01b036040610564610cb9565b92600435815280602052209116600052602052602060ff604060002054166040519015158152f35b503461010257806003193601126101025760206040517fa49807205ce4d355092ef5a8a18f56e8913cf4a201fbe287825b095693c217758152f35b50346101025760406003193601126101025761062f60206105e6610cd4565b6105ee610cb9565b60015460405163b360cea160e01b81526001600160a01b03938416600482015230602482015291831660448301529093849290911690829081906064820190565b03915afa90811561021a576020929161065e575b506fffffffffffffffffffffffffffffffff60405191168152f35b6106759150823d8411610512576105048183610e06565b38610643565b5034610102576040600319360112610102576004356001600160a01b0381168091036106e6576103a8906106ad610cb9565b907fffffffffffffffffffffffff000000000000000000000000000000000000000060015416176001556106e081610f9b565b5061104d565b5080fd5b50346101025760406003193601126101025780610705610cd4565b61070d610cb9565b907fa49807205ce4d355092ef5a8a18f56e8913cf4a201fbe287825b095693c21775835282602052604083206001600160a01b03331660005260205261075a60ff60406000205416610da1565b6001600160a01b036001541691823b156107c2576040517fea1227210000000000000000000000000000000000000000000000000000000081526001600160a01b039283166004820152306024820152911660448201529082908290818381606481016101f8565b505050fd5b5034610102576060600319360112610102576107e1610cd4565b60206001600160a01b0360446107f5610cb9565b7fa49807205ce4d355092ef5a8a18f56e8913cf4a201fbe287825b095693c21775865285845260408620833316600052845261083860ff60406000205416610da1565b858360405196879586947fa9059cbb00000000000000000000000000000000000000000000000000000000865216600485015284356024850152165af1801561021a57610883575080f35b6020813d6020116108b0575b8161089c60209383610e06565b810103126106e65751801515036101025780f35b3d915061088f565b5034610102576040600319360112610102576108d2610cb9565b336001600160a01b038216036108ee576103a8906004356111b5565b6004827f6697b232000000000000000000000000000000000000000000000000000000008152fd5b5034610102576040600319360112610102576103a8600435610936610cb9565b9061095261039e82600052600060205260016040600020015490565b61111b565b5034610102576020600319360112610102576020610985600435600052600060205260016040600020015490565b604051908152f35b50346101025761099c36610d1b565b9190927fa49807205ce4d355092ef5a8a18f56e8913cf4a201fbe287825b095693c21775865285602052604086206001600160a01b03331687526020526109e960ff604088205416610da1565b6109f282610e3f565b91610a006040519384610e06565b808352610a0c81610e3f565b93601f196020850195013686376001546001600160a01b031695885b838110610b1457505050843b1561035a57926020610a936001600160a01b03979496938996604051998a977fb0e3fe74000000000000000000000000000000000000000000000000000000008952166004880152306024880152608060448801526084870191610eed565b956003198588030160648601525195868152019094845b818110610ae65750508380955083809203925af18015610ad957610acb5780f35b610ad491610e06565b388180f35b50604051903d90823e3d90fd5b86516fffffffffffffffffffffffffffffffff16835260209687019689965088955090920191600101610aaa565b610b1f818587610e57565b356001600160a01b0381168103610c115760405163b360cea160e01b81526001600160a01b038b811660048301523060248301529190911660448201526020816064818c5afa908115610c06578b91610be8575b50610b7f828585610e57565b356fffffffffffffffffffffffffffffffff81168103610be457610ba291610ea5565b8651821015610bd0576fffffffffffffffffffffffffffffffff16600582901b870160200152600101610a28565b60248b634e487b7160e01b81526032600452fd5b8b80fd5b610c00915060203d8111610512576105048183610e06565b38610b73565b6040513d8d823e3d90fd5b8a80fd5b9050346106e65760206003193601126106e6576004357fffffffff000000000000000000000000000000000000000000000000000000008116809103610cb557602092507f7965db0b000000000000000000000000000000000000000000000000000000008114908115610c8b575b5015158152f35b7f01ffc9a70000000000000000000000000000000000000000000000000000000091501438610c84565b8280fd5b602435906001600160a01b0382168203610ccf57565b600080fd5b600435906001600160a01b0382168203610ccf57565b9181601f84011215610ccf5782359167ffffffffffffffff8311610ccf576020808501948460051b010111610ccf57565b906060600319830112610ccf576004356001600160a01b0381168103610ccf579160243567ffffffffffffffff8111610ccf5781610d5b91600401610cea565b929092916044359067ffffffffffffffff8211610ccf57610d7e91600401610cea565b9091565b604435906fffffffffffffffffffffffffffffffff82168203610ccf57565b15610da857565b60646040517f08c379a000000000000000000000000000000000000000000000000000000000815260206004820152601660248201527f43616c6c6572206973206e6f7420616e2061646d696e000000000000000000006044820152fd5b90601f601f19910116810190811067ffffffffffffffff821117610e2957604052565b634e487b7160e01b600052604160045260246000fd5b67ffffffffffffffff8111610e295760051b60200190565b9190811015610e675760051b0190565b634e487b7160e01b600052603260045260246000fd5b90816020910312610ccf57516fffffffffffffffffffffffffffffffff81168103610ccf5790565b906fffffffffffffffffffffffffffffffff809116911601906fffffffffffffffffffffffffffffffff8211610ed757565b634e487b7160e01b600052601160045260246000fd5b916020908281520191906000905b808210610f085750505090565b9091928335906001600160a01b0382168203610ccf57602080916001600160a01b03600194168152019401920190610efb565b80600052600060205260406000206001600160a01b03331660005260205260ff6040600020541615610f6a5750565b7fe2517d3f000000000000000000000000000000000000000000000000000000006000523360045260245260446000fd5b6001600160a01b03811660009081527fad3228b676f7d3cd4284a5443f17f1962b36e491b30a40b2405849e597ba5fb5602052604090205460ff16611047576001600160a01b031660008181527fad3228b676f7d3cd4284a5443f17f1962b36e491b30a40b2405849e597ba5fb560205260408120805460ff191660011790553391907f2f8788117e7eff1d82e926ec794901d17c78024a50270940304540a733656f0d8180a4600190565b50600090565b6001600160a01b03811660009081527f7d7ffb7a348e1c6a02869081a26547b49160dd3df72d1d75a570eb9b698292ec602052604090205460ff16611047576001600160a01b031660008181527f7d7ffb7a348e1c6a02869081a26547b49160dd3df72d1d75a570eb9b698292ec60205260408120805460ff191660011790553391907fa49807205ce4d355092ef5a8a18f56e8913cf4a201fbe287825b095693c21775907f2f8788117e7eff1d82e926ec794901d17c78024a50270940304540a733656f0d9080a4600190565b80600052600060205260406000206001600160a01b03831660005260205260ff60406000205416156000146111ae5780600052600060205260406000206001600160a01b0383166000526020526040600020600160ff198254161790556001600160a01b03339216907f2f8788117e7eff1d82e926ec794901d17c78024a50270940304540a733656f0d600080a4600190565b5050600090565b80600052600060205260406000206001600160a01b03831660005260205260ff604060002054166000146111ae5780600052600060205260406000206001600160a01b038316600052602052604060002060ff1981541690556001600160a01b03339216907ff6391f5c32d9c69d2a47ea670b442974b53935d1edc7fd64eb21e047a839171b600080a460019056fea26469706673582212202c7cd56dfbf76471b892e967122f620d3461e1b88295cbfe49f08173e1ff9b8564736f6c634300081a0033",
  "linkReferences": {},
  "deployedLinkReferences": {}
}