{
  "_format": "hh-sol-artifact-1",
  "contractName": "StremeFeeStreamer",
  "sourceName": "contracts/extras/StremeFeeStreamer.sol",
  "abi": [
    {
      "inputs": [
        {
          "internalType": "contract IGDAv1Forwarder",
          "name": "_gdaForwarder",
          "type": "address"
        },
        {
          "internalType": "address",
          "name": "_feeRecipient",
          "type": "address"
        },
        {
          "internalType": "contract IStremeZap",
          "name": "_zapContract",
          "type": "address"
        },
        {
          "internalType": "address",
          "name": "_defaultLpFactory",
          "type": "address"
        }
      ],
      "stateMutability": "nonpayable",
      "type": "constructor"
    },
    {
      "inputs": [],
      "name": "AccessControlBadConfirmation",
      "type": "error"
    },
    {
      "inputs": [
        {
          "internalType": "address",
          "name": "account",
          "type": "address"
        },
        {
          "internalType": "bytes32",
          "name": "neededRole",
          "type": "bytes32"
        }
      ],
      "name": "AccessControlUnauthorizedAccount",
      "type": "error"
    },
    {
      "anonymous": false,
      "inputs": [
        {
          "indexed": true,
          "internalType": "bytes32",
          "name": "role",
          "type": "bytes32"
        },
        {
          "indexed": true,
          "internalType": "bytes32",
          "name": "previousAdminRole",
          "type": "bytes32"
        },
        {
          "indexed": true,
          "internalType": "bytes32",
          "name": "newAdminRole",
          "type": "bytes32"
        }
      ],
      "name": "RoleAdminChanged",
      "type": "event"
    },
    {
      "anonymous": false,
      "inputs": [
        {
          "indexed": true,
          "internalType": "bytes32",
          "name": "role",
          "type": "bytes32"
        },
        {
          "indexed": true,
          "internalType": "address",
          "name": "account",
          "type": "address"
        },
        {
          "indexed": true,
          "internalType": "address",
          "name": "sender",
          "type": "address"
        }
      ],
      "name": "RoleGranted",
      "type": "event"
    },
    {
      "anonymous": false,
      "inputs": [
        {
          "indexed": true,
          "internalType": "bytes32",
          "name": "role",
          "type": "bytes32"
        },
        {
          "indexed": true,
          "internalType": "address",
          "name": "account",
          "type": "address"
        },
        {
          "indexed": true,
          "internalType": "address",
          "name": "sender",
          "type": "address"
        }
      ],
      "name": "RoleRevoked",
      "type": "event"
    },
    {
      "inputs": [],
      "name": "DEFAULT_ADMIN_ROLE",
      "outputs": [
        {
          "internalType": "bytes32",
          "name": "",
          "type": "bytes32"
        }
      ],
      "stateMutability": "view",
      "type": "function"
    },
    {
      "inputs": [],
      "name": "ETHx",
      "outputs": [
        {
          "internalType": "contract ISETH",
          "name": "",
          "type": "address"
        }
      ],
      "stateMutability": "view",
      "type": "function"
    },
    {
      "inputs": [],
      "name": "MANAGER_ROLE",
      "outputs": [
        {
          "internalType": "bytes32",
          "name": "",
          "type": "bytes32"
        }
      ],
      "stateMutability": "view",
      "type": "function"
    },
    {
      "inputs": [],
      "name": "STREME",
      "outputs": [
        {
          "internalType": "contract IERC20",
          "name": "",
          "type": "address"
        }
      ],
      "stateMutability": "view",
      "type": "function"
    },
    {
      "inputs": [],
      "name": "WETH",
      "outputs": [
        {
          "internalType": "contract IWETH",
          "name": "",
          "type": "address"
        }
      ],
      "stateMutability": "view",
      "type": "function"
    },
    {
      "inputs": [
        {
          "internalType": "address",
          "name": "factory",
          "type": "address"
        }
      ],
      "name": "addStakingFactory",
      "outputs": [],
      "stateMutability": "nonpayable",
      "type": "function"
    },
    {
      "inputs": [
        {
          "internalType": "address",
          "name": "token",
          "type": "address"
        }
      ],
      "name": "claimRewards",
      "outputs": [],
      "stateMutability": "nonpayable",
      "type": "function"
    },
    {
      "inputs": [
        {
          "internalType": "address",
          "name": "token",
          "type": "address"
        },
        {
          "internalType": "address",
          "name": "lpFactory",
          "type": "address"
        }
      ],
      "name": "claimRewardsViaLpFactory",
      "outputs": [],
      "stateMutability": "nonpayable",
      "type": "function"
    },
    {
      "inputs": [],
      "name": "defaultLpFactory",
      "outputs": [
        {
          "internalType": "address",
          "name": "",
          "type": "address"
        }
      ],
      "stateMutability": "view",
      "type": "function"
    },
    {
      "inputs": [],
      "name": "feeRecipient",
      "outputs": [
        {
          "internalType": "address",
          "name": "",
          "type": "address"
        }
      ],
      "stateMutability": "view",
      "type": "function"
    },
    {
      "inputs": [],
      "name": "flowDuration",
      "outputs": [
        {
          "internalType": "int96",
          "name": "",
          "type": "int96"
        }
      ],
      "stateMutability": "view",
      "type": "function"
    },
    {
      "inputs": [],
      "name": "gdaForwarder",
      "outputs": [
        {
          "internalType": "contract IGDAv1Forwarder",
          "name": "",
          "type": "address"
        }
      ],
      "stateMutability": "view",
      "type": "function"
    },
    {
      "inputs": [
        {
          "internalType": "bytes32",
          "name": "role",
          "type": "bytes32"
        }
      ],
      "name": "getRoleAdmin",
      "outputs": [
        {
          "internalType": "bytes32",
          "name": "",
          "type": "bytes32"
        }
      ],
      "stateMutability": "view",
      "type": "function"
    },
    {
      "inputs": [
        {
          "internalType": "bytes32",
          "name": "role",
          "type": "bytes32"
        },
        {
          "internalType": "address",
          "name": "account",
          "type": "address"
        }
      ],
      "name": "grantRole",
      "outputs": [],
      "stateMutability": "nonpayable",
      "type": "function"
    },
    {
      "inputs": [
        {
          "internalType": "bytes32",
          "name": "role",
          "type": "bytes32"
        },
        {
          "internalType": "address",
          "name": "account",
          "type": "address"
        }
      ],
      "name": "hasRole",
      "outputs": [
        {
          "internalType": "bool",
          "name": "",
          "type": "bool"
        }
      ],
      "stateMutability": "view",
      "type": "function"
    },
    {
      "inputs": [
        {
          "internalType": "address",
          "name": "",
          "type": "address"
        }
      ],
      "name": "lastStreamed",
      "outputs": [
        {
          "internalType": "uint256",
          "name": "",
          "type": "uint256"
        }
      ],
      "stateMutability": "view",
      "type": "function"
    },
    {
      "inputs": [
        {
          "internalType": "address",
          "name": "token",
          "type": "address"
        }
      ],
      "name": "poolStream",
      "outputs": [],
      "stateMutability": "nonpayable",
      "type": "function"
    },
    {
      "inputs": [
        {
          "internalType": "address",
          "name": "token",
          "type": "address"
        }
      ],
      "name": "predictStakedTokenAddress",
      "outputs": [
        {
          "internalType": "address",
          "name": "stakedTokenAddress",
          "type": "address"
        }
      ],
      "stateMutability": "view",
      "type": "function"
    },
    {
      "inputs": [
        {
          "internalType": "bytes32",
          "name": "role",
          "type": "bytes32"
        },
        {
          "internalType": "address",
          "name": "callerConfirmation",
          "type": "address"
        }
      ],
      "name": "renounceRole",
      "outputs": [],
      "stateMutability": "nonpayable",
      "type": "function"
    },
    {
      "inputs": [
        {
          "internalType": "bytes32",
          "name": "role",
          "type": "bytes32"
        },
        {
          "internalType": "address",
          "name": "account",
          "type": "address"
        }
      ],
      "name": "revokeRole",
      "outputs": [],
      "stateMutability": "nonpayable",
      "type": "function"
    },
    {
      "inputs": [
        {
          "internalType": "address",
          "name": "lpFactory",
          "type": "address"
        }
      ],
      "name": "setDefaultLpFactory",
      "outputs": [],
      "stateMutability": "nonpayable",
      "type": "function"
    },
    {
      "inputs": [
        {
          "internalType": "address",
          "name": "_feeRecipient",
          "type": "address"
        }
      ],
      "name": "setFeeRecipient",
      "outputs": [],
      "stateMutability": "nonpayable",
      "type": "function"
    },
    {
      "inputs": [
        {
          "internalType": "uint256",
          "name": "percentage",
          "type": "uint256"
        }
      ],
      "name": "setFeeRecipientPercentage",
      "outputs": [],
      "stateMutability": "nonpayable",
      "type": "function"
    },
    {
      "inputs": [
        {
          "internalType": "int96",
          "name": "duration",
          "type": "int96"
        }
      ],
      "name": "setFlowDuration",
      "outputs": [],
      "stateMutability": "nonpayable",
      "type": "function"
    },
    {
      "inputs": [
        {
          "internalType": "uint256",
          "name": "_streamThreshold",
          "type": "uint256"
        }
      ],
      "name": "setStreamThreshold",
      "outputs": [],
      "stateMutability": "nonpayable",
      "type": "function"
    },
    {
      "inputs": [
        {
          "internalType": "uint256",
          "name": "_swapThreshold",
          "type": "uint256"
        }
      ],
      "name": "setSwapThreshold",
      "outputs": [],
      "stateMutability": "nonpayable",
      "type": "function"
    },
    {
      "inputs": [
        {
          "internalType": "contract IStremeZap",
          "name": "_zapContract",
          "type": "address"
        }
      ],
      "name": "setZapContract",
      "outputs": [],
      "stateMutability": "nonpayable",
      "type": "function"
    },
    {
      "inputs": [
        {
          "internalType": "address",
          "name": "",
          "type": "address"
        }
      ],
      "name": "stakingContracts",
      "outputs": [
        {
          "internalType": "address",
          "name": "",
          "type": "address"
        }
      ],
      "stateMutability": "view",
      "type": "function"
    },
    {
      "inputs": [
        {
          "internalType": "uint256",
          "name": "",
          "type": "uint256"
        }
      ],
      "name": "stakingFactories",
      "outputs": [
        {
          "internalType": "address",
          "name": "",
          "type": "address"
        }
      ],
      "stateMutability": "view",
      "type": "function"
    },
    {
      "inputs": [],
      "name": "streamThreshold",
      "outputs": [
        {
          "internalType": "uint256",
          "name": "",
          "type": "uint256"
        }
      ],
      "stateMutability": "view",
      "type": "function"
    },
    {
      "inputs": [
        {
          "internalType": "bytes4",
          "name": "interfaceId",
          "type": "bytes4"
        }
      ],
      "name": "supportsInterface",
      "outputs": [
        {
          "internalType": "bool",
          "name": "",
          "type": "bool"
        }
      ],
      "stateMutability": "view",
      "type": "function"
    },
    {
      "inputs": [],
      "name": "swapThreshold",
      "outputs": [
        {
          "internalType": "uint256",
          "name": "",
          "type": "uint256"
        }
      ],
      "stateMutability": "view",
      "type": "function"
    },
    {
      "inputs": [
        {
          "internalType": "contract IERC20",
          "name": "token",
          "type": "address"
        },
        {
          "internalType": "address",
          "name": "recipient",
          "type": "address"
        },
        {
          "internalType": "uint256",
          "name": "amount",
          "type": "uint256"
        }
      ],
      "name": "withdraw",
      "outputs": [],
      "stateMutability": "nonpayable",
      "type": "function"
    },
    {
      "inputs": [],
      "name": "withdrawETH",
      "outputs": [],
      "stateMutability": "nonpayable",
      "type": "function"
    },
    {
      "inputs": [],
      "name": "zapContract",
      "outputs": [
        {
          "internalType": "contract IStremeZap",
          "name": "",
          "type": "address"
        }
      ],
      "stateMutability": "view",
      "type": "function"
    },
    {
      "stateMutability": "payable",
      "type": "receive"
    }
  ],
  "bytecode": "0x60803461039857601f6126a638819003918201601f19168301916001600160401b03831184841017610382578084926080946040528339810103126103985780516001600160a01b03811691908290036103985761005f6020820161039d565b60408201516001600160a01b0381169290839003610398576060610083910161039d565b600180546001600160a01b03166203c26760a71b179055603260025567016345785d8a000060035569d3c21bcecceda1000000600455926100c3336103b1565b506100cd3361042d565b50600180546001600160a01b03199081169290921790556006805482166001600160a01b0393841617905560058054821693909317909255600a80548316939091169290921790915560076020527f1c13a0460199fdf3d38d103e8af48fa4c56a32bd4446a291b3ad2158550295a8805482167393419f1c0f73b278c73085c17407794a6580deff1790557f0431fc819a89ed9b580468a3705d3634af506ef0f3d72bb605b16e696dc3e0508054821673291c99235270ea41499f243b1a8a43ad5c62e28c1790557faba4004ad297ec3dbb9aa07b4fd9845010f00cb134f76c6e52ddd8cca7dc0a1380548216735a4aa653b98ff91923d1c20797e698cc0ed661081790557fc234193f1632624882f4a34280dcc5b45151db87cdcc6132dfbbec11d38909d98054821673a1e0df593aa51f933b777aa0027ee9dae29ed2ac1790557f786572dd1d404de80c1a2347d33e5949d7e84e94eb9bd94e8f7b06698fb0c0ae80548216734d2b5181e22210da785a505d3d01dee0fa3ccb9217905573390873cddc99ac950c308cf898134f092ea661046000527f355ea281d90694571128d2539f91333edcdd9d11a1179d88acf1cf51d1e1fcd2805490911673e4770d660689175de6b79fdf28725b8c46d29e451790556009546801000000000000000081101561038257600181018060095581101561036c57600960008190526000805160206126668339815191529190910180546001600160a01b03191673c749105bc4b4ea6285dbbe2e8221c922bea07a9d179055546801000000000000000081101561038257600181018060095581101561036c5760096000526000805160206126668339815191520180546001600160a01b03191673293a5d47f5d76244b715ce0d0e759e022734948617905560405161216090816104c68239f35b634e487b7160e01b600052603260045260246000fd5b634e487b7160e01b600052604160045260246000fd5b600080fd5b51906001600160a01b038216820361039857565b6001600160a01b0381166000908152600080516020612686833981519152602052604090205460ff16610427576001600160a01b0316600081815260008051602061268683398151915260205260408120805460ff191660011790553391906000805160206126268339815191528180a4600190565b50600090565b6001600160a01b0381166000908152600080516020612646833981519152602052604090205460ff16610427576001600160a01b0316600081815260008051602061264683398151915260205260408120805460ff191660011790553391907f241ecf16d79d0f8dbfb92cbc07fe17840425976cf0667f022fe9877caa831b08906000805160206126268339815191529080a460019056fe608080604052600436101561001d575b50361561001b57600080fd5b005b60003560e01c90816301ffc9a714610cc9575080630445b66714610cab5780630881dd4414610c775780631a52394314610bac578063248a9ca314610b775780632549dad914610b505780632f2ff15d14610b1057806331136ada14610ae75780633618540c14610ac057806336568abe14610a615780633e16f55f146109fb57806346904840146109d45780634a8b937214610942578063550abcd0146109015780635af8bf25146108da5780636105e4f7146108ab5780636497d2851461088757806391d14854146108395780639255443a1461080f5780639bc181d2146107cc5780639d0014b1146107ab578063a217fddf1461078f578063ad5c464814610760578063d547741f1461071b578063d9caed12146104b9578063e086e5ec146103ec578063e44bb0cc146103b2578063e74b981b14610365578063e9add08414610318578063ec87621c146102dd578063ef5cfb8c1461026e578063f6c278c11461023f578063f98a312e14610221578063fa8b962c146102005763fcaa8737146101ab573861000f565b346101fb5760206003193601126101fb576004356001600160a01b0381168091036101fb576101d86111b3565b73ffffffffffffffffffffffffffffffffffffffff196005541617600555600080f35b600080fd5b346101fb5760206003193601126101fb576102196111b3565b600480359055005b346101fb5760006003193601126101fb576020600454604051908152f35b346101fb5760006003193601126101fb5760206040517346fd5cfb4c12d87acd3a13e92baa53240c661d938152f35b346101fb5760206003193601126101fb5761001b61028a610d67565b6102cb8160405161029c604082610dc4565b601b81527f436c61696d696e67207265776172647320666f7220746f6b656e3a00000000006020820152611fcd565b6001600160a01b03600a541690611d96565b346101fb5760006003193601126101fb5760206040517f241ecf16d79d0f8dbfb92cbc07fe17840425976cf0667f022fe9877caa831b088152f35b346101fb5760206003193601126101fb576001600160a01b03610339610d67565b6103416111b3565b1673ffffffffffffffffffffffffffffffffffffffff19600a541617600a55600080f35b346101fb5760206003193601126101fb576001600160a01b03610386610d67565b61038e6111b3565b1673ffffffffffffffffffffffffffffffffffffffff196006541617600655600080f35b346101fb5760206003193601126101fb576001600160a01b036103d3610d67565b1660005260086020526020604060002054604051908152f35b346101fb5760006003193601126101fb576104056111b3565b60008080806001600160a01b036006541647905af13d156104b4573d67ffffffffffffffff811161049e5760405190610448601f8201601f191660200183610dc4565b8152600060203d92013e5b1561045a57005b606460405162461bcd60e51b815260206004820152601360248201527f455448207472616e73666572206661696c6564000000000000000000000000006044820152fd5b634e487b7160e01b600052604160045260246000fd5b610453565b346101fb5760606003193601126101fb576004356001600160a01b0381168091036101fb576104e6610d7d565b6044356104f16111b3565b6001600160a01b038216156106d7578015610693576040516370a0823160e01b8152306004820152602081602481875afa801561060e57829160009161065e575b501061061a576040517fa9059cbb0000000000000000000000000000000000000000000000000000000081526001600160a01b03929092166004830152602482015290602090829060449082906000905af190811561060e576000916105df575b501561059b57005b606460405162461bcd60e51b815260206004820152601560248201527f546f6b656e207472616e73666572206661696c656400000000000000000000006044820152fd5b610601915060203d602011610607575b6105f98183610dc4565b810190610df6565b81610593565b503d6105ef565b6040513d6000823e3d90fd5b606460405162461bcd60e51b815260206004820152601a60248201527f496e73756666696369656e7420746f6b656e2062616c616e63650000000000006044820152fd5b9150506020813d60201161068b575b8161067a60209383610dc4565b810103126101fb5781905185610532565b3d915061066d565b606460405162461bcd60e51b815260206004820152602060248201527f416d6f756e74206d7573742062652067726561746572207468616e207a65726f6044820152fd5b606460405162461bcd60e51b815260206004820152601960248201527f496e76616c696420726563697069656e742061646472657373000000000000006044820152fd5b346101fb5760406003193601126101fb5761001b60043561073a610d7d565b9061075b61075682600052600060205260016040600020015490565b61123e565b611d07565b346101fb5760006003193601126101fb5760206040517342000000000000000000000000000000000000068152f35b346101fb5760006003193601126101fb57602060405160008152f35b346101fb5760206003193601126101fb576107c46111b3565b600435600355005b346101fb5760206003193601126101fb576001600160a01b036107ed610d67565b16600052600760205260206001600160a01b0360406000205416604051908152f35b346101fb5760406003193601126101fb5761001b61082b610d67565b610833610d7d565b90611d96565b346101fb5760406003193601126101fb57610852610d7d565b60043560005260006020526001600160a01b0360406000209116600052602052602060ff604060002054166040519015158152f35b346101fb5760006003193601126101fb57602060015460a01d60405190600b0b8152f35b346101fb5760006003193601126101fb576020604051733b3cd21242ba44e9865b066e5ef5d1cc1030cc588152f35b346101fb5760006003193601126101fb5760206001600160a01b0360015416604051908152f35b346101fb5760206003193601126101fb576004356009548110156101fb576001600160a01b03610932602092610d93565b90549060031b1c16604051908152f35b346101fb5760206003193601126101fb5760043561095e6111b3565b6064811161096b57600255005b608460405162461bcd60e51b8152602060048201526024808201527f50657263656e74616765206d757374206265206265747765656e203020616e6460448201527f20313030000000000000000000000000000000000000000000000000000000006064820152fd5b346101fb5760006003193601126101fb5760206001600160a01b0360065416604051908152f35b346101fb5760206003193601126101fb57610a14610d67565b610a1c6111b3565b6009546801000000000000000081101561049e57806001610a409201600955610d93565b6001600160a01b0380839493549260031b9316831b921b1916179055600080f35b346101fb5760406003193601126101fb57610a7a610d7d565b336001600160a01b03821603610a965761001b90600435611d07565b7f6697b2320000000000000000000000000000000000000000000000000000000060005260046000fd5b346101fb5760006003193601126101fb5760206001600160a01b03600a5416604051908152f35b346101fb5760206003193601126101fb57610b08610b03610d67565b611338565b61001b6117bc565b346101fb5760406003193601126101fb5761001b600435610b2f610d7d565b90610b4b61075682600052600060205260016040600020015490565b61129e565b346101fb5760006003193601126101fb5760206001600160a01b0360055416604051908152f35b346101fb5760206003193601126101fb576020610ba4600435600052600060205260016040600020015490565b604051908152f35b346101fb5760206003193601126101fb5760043580600b0b8082036101fb57600090610bd66111b3565b1315610c0d576001600160a01b0373ffffffffffffffffffffffffffffffffffffffff196001549260a01b16911617600155600080f35b608460405162461bcd60e51b815260206004820152602260248201527f4475726174696f6e206d7573742062652067726561746572207468616e207a6560448201527f726f0000000000000000000000000000000000000000000000000000000000006064820152fd5b346101fb5760206003193601126101fb576020610c9a610c95610d67565b610e68565b6001600160a01b0360405191168152f35b346101fb5760006003193601126101fb576020600354604051908152f35b346101fb5760206003193601126101fb57600435907fffffffff0000000000000000000000000000000000000000000000000000000082168092036101fb57817f7965db0b0000000000000000000000000000000000000000000000000000000060209314908115610d3d575b5015158152f35b7f01ffc9a70000000000000000000000000000000000000000000000000000000091501483610d36565b600435906001600160a01b03821682036101fb57565b602435906001600160a01b03821682036101fb57565b600954811015610dae57600960005260206000200190600090565b634e487b7160e01b600052603260045260246000fd5b90601f601f19910116810190811067ffffffffffffffff82111761049e57604052565b908160209103126101fb575190565b908160209103126101fb575180151581036101fb5790565b60405190610e1d604083610dc4565b600482527f2069733a000000000000000000000000000000000000000000000000000000006020830152565b908160209103126101fb57516001600160a01b03811681036101fb5790565b906001600160a01b0382168060005260076020526001600160a01b03604060002054168093606090610f0083604051610ea18582610dc4565b602481527f5374616b656420746f6b656e2066726f6d206d617070696e6720666f7220746f60208201527f6b656e3a00000000000000000000000000000000000000000000000000000000604082015283610efa610e0e565b9161204a565b8215610f73575b610f719350610f196040519283610dc4565b602582527f46696e616c207374616b656420746f6b656e206164647265737320666f72207460208301527f6f6b656e3a0000000000000000000000000000000000000000000000000000006040830152610efa610e0e565b565b6009546000945b818610610f89575b5050610f07565b91935091936001600160a01b03610f9f82610d93565b90549060031b1c16610fe86040918251610fb98482610dc4565b601981527f436865636b696e67207374616b696e6720666163746f72793a000000000000006020820152611fcd565b602460206001600160a01b03610ffd85610d93565b90549060031b1c168351928380927f0881dd440000000000000000000000000000000000000000000000000000000082528860048301525afa9081156111a85760009161117a575b506110858183516110568582610dc4565b601f81527f507265646963746564207374616b656420746f6b656e20616464726573733a006020820152611fcd565b803b61109a5750506001019391869391610f7a565b949250965050610f7193915061110a8387516110b68582610dc4565b602c81527f497320636f6e74726163742120436865636b696e6720706f6f6c20666f72207360208201527f74616b656420746f6b656e3a000000000000000000000000000000000000000089820152611fcd565b611173839687943b907f3a000000000000000000000000000000000000000000000000000000000000008151916111418784610dc4565b602183527f5374616b656420746f6b656e206164647265737320636f6465206c656e67746860208401528201526120cd565b3880610f82565b61119b915060203d81116111a1575b6111938183610dc4565b810190610e49565b38611045565b503d611189565b82513d6000823e3d90fd5b3360009081527fe84508f2c7fa9c351146748b3025cb78b45df37d868e48c6a75102fecdeee645602052604090205460ff16156111ec57565b7fe2517d3f00000000000000000000000000000000000000000000000000000000600052336004527f241ecf16d79d0f8dbfb92cbc07fe17840425976cf0667f022fe9877caa831b0860245260446000fd5b80600052600060205260406000206001600160a01b03331660005260205260ff604060002054161561126d5750565b7fe2517d3f000000000000000000000000000000000000000000000000000000006000523360045260245260446000fd5b80600052600060205260406000206001600160a01b03831660005260205260ff60406000205416156000146113315780600052600060205260406000206001600160a01b0383166000526020526040600020600160ff198254161790556001600160a01b03339216907f2f8788117e7eff1d82e926ec794901d17c78024a50270940304540a733656f0d600080a4600190565b5050600090565b6001600160a01b03811673420000000000000000000000000000000000000681148015611776575b611772576001600160a01b036040926113ae81855161137f8782610dc4565b601a81527f546f6b656e7320726563656976656420666f7220746f6b656e3a0000000000006020820152611fcd565b6113fb6113ba82610e68565b80928651906113c98883610dc4565b601b82527f5374616b696e6720636f6e747261637420666f7220746f6b656e3a00000000006020830152610efa610e0e565b16908161140757505050565b82516370a0823160e01b8152306004820152602081602481855afa90811561176757600091611735575b50600154906bffffffffffffffffffffffff8260a01d1690811561171f5704600b0b926000806114da61150088516114698a82610dc4565b601481527f466c6f77207261746520666f7220746f6b656e3a00000000000000000000000060208201526114f261149e610e0e565b8b519485937fe0e9ad4f000000000000000000000000000000000000000000000000000000006020860152606060248601526084850190611f8c565b908a6044850152602319848303016064850152611f8c565b03601f198101835282610dc4565b6020815191016a636f6e736f6c652e6c6f675afa5060008086517f2d5b6cb900000000000000000000000000000000000000000000000000000000602082015286602482015260248152611555604482610dc4565b6020815191016a636f6e736f6c652e6c6f675afa5084517f16f0115b000000000000000000000000000000000000000000000000000000008152602081600481855afa90811561171457916115ee60209260049695946000916116f7575b5088516115c08a82610dc4565b600f81527f746f207374616b696e6720706f6f6c000000000000000000000000000000000085820152611fcd565b8651948580927f16f0115b0000000000000000000000000000000000000000000000000000000082525afa9283156116ec5791602093916001600160a01b039695936000936116c5575b508660009160c494958851998a9788967f5a6c6dbc0000000000000000000000000000000000000000000000000000000088526004880152306024880152166044860152606485015260a060848501528260a4850152165af19081156116bb57506116a05750565b6116b89060203d602011610607576105f98183610dc4565b50565b513d6000823e3d90fd5b60c493506000916116e38992883d8a116111a1576111938183610dc4565b94509150611638565b85513d6000823e3d90fd5b61170e9150843d86116111a1576111938183610dc4565b386115b3565b86513d6000823e3d90fd5b634e487b7160e01b600052601260045260246000fd5b90506020813d60201161175f575b8161175060209383610dc4565b810103126101fb575138611431565b3d9150611743565b84513d6000823e3d90fd5b5050565b507346fd5cfb4c12d87acd3a13e92baa53240c661d938114611360565b818102929181159184041417156117a657565b634e487b7160e01b600052601160045260246000fd5b6040516370a0823160e01b81526000903060048201526020816024817342000000000000000000000000000000000000065afa9081156119f9578291611cd5575b5080611b82575b506040516370a0823160e01b81523060048201526020816024817346fd5cfb4c12d87acd3a13e92baa53240c661d935afa9081156119f9578291611b50575b5080611905575b504790600354821161185a575050565b60206001600160a01b03600554166084604051809581937fb60347a3000000000000000000000000000000000000000000000000000000008352733b3cd21242ba44e9865b066e5ef5d1cc1030cc5860048401528160248401528660448401528660648401525af19081156118f957506118d15750565b6116b89060203d6020116118f2575b6118ea8183610dc4565b810190610de7565b503d6118e0565b604051903d90823e3d90fd5b61191460649160025490611793565b0480151580611b3c575b611a3a575b506040516370a0823160e01b81523060048201526020816024817346fd5cfb4c12d87acd3a13e92baa53240c661d935afa9081156119f9578291611a08575b50801561184a577346fd5cfb4c12d87acd3a13e92baa53240c661d933b15611a0457604051907f160e8be300000000000000000000000000000000000000000000000000000000825260048201528181602481837346fd5cfb4c12d87acd3a13e92baa53240c661d935af180156119f9579082916119e1575b5061184a565b816119eb91610dc4565b6119f65780386119db565b80fd5b6040513d84823e3d90fd5b5080fd5b90506020813d602011611a32575b81611a2360209383610dc4565b810103126101fb575138611962565b3d9150611a16565b6006546040517fa9059cbb0000000000000000000000000000000000000000000000000000000081526001600160a01b0390911660048201526024810191909152602081604481857346fd5cfb4c12d87acd3a13e92baa53240c661d935af19081156119f9578291611b1d575b5015611ab35738611923565b608460405162461bcd60e51b815260206004820152602560248201527f45544878207472616e7366657220746f2066656520726563697069656e74206660448201527f61696c65640000000000000000000000000000000000000000000000000000006064820152fd5b611b36915060203d602011610607576105f98183610dc4565b38611aa7565b506001600160a01b0360065416151561191e565b90506020813d602011611b7a575b81611b6b60209383610dc4565b810103126101fb575138611843565b3d9150611b5e565b906064611b9160025484611793565b049182151580611cc1575b611ba8575b5090611804565b7342000000000000000000000000000000000000063b15611a0457604051907f2e1a7d4d00000000000000000000000000000000000000000000000000000000825260048201528181602481837342000000000000000000000000000000000000065af180156119f957611cb1575b50906001600160a01b03600654167346fd5cfb4c12d87acd3a13e92baa53240c661d933b15611cad5782906024604051809481937f7687d19b00000000000000000000000000000000000000000000000000000000835260048301527346fd5cfb4c12d87acd3a13e92baa53240c661d935af180156119f95790829115611ba15781611ca291610dc4565b6119f6578038611ba1565b8280fd5b81611cbb91610dc4565b38611c17565b506001600160a01b03600654161515611b9c565b90506020813d602011611cff575b81611cf060209383610dc4565b81010312611a045751386117fd565b3d9150611ce3565b80600052600060205260406000206001600160a01b03831660005260205260ff604060002054166000146113315780600052600060205260406000206001600160a01b038316600052602052604060002060ff1981541690556001600160a01b03339216907ff6391f5c32d9c69d2a47ea670b442974b53935d1edc7fd64eb21e047a839171b600080a4600190565b906001600160a01b031690813b156101fb576040517fef5cfb8c0000000000000000000000000000000000000000000000000000000081526000908181602481836001600160a01b038816988960048401525af180156119f9578290611f7c575b5050604051926370a0823160e01b8452306004850152602084602481845afa9384156119f9578294611f48575b508082526008602052604082205492611e746040948551611e458782610dc4565b601181527f50726576696f75732062616c616e63653a00000000000000000000000000000060208201526120cd565b611eb3858551611e848782610dc4565b601081527f43757272656e742062616c616e63653a0000000000000000000000000000000060208201526120cd565b8183526008602052838320548503858111611f345760045410611ede575b5050505050610f716117bc565b611f2190610b03818651611ef28882610dc4565b602081527f53747265616d696e67206e65772062616c616e636520666f7220746f6b656e3a6020820152611fcd565b8152600860205220553880808080611ed1565b602484634e487b7160e01b81526011600452fd5b9093506020813d602011611f74575b81611f6460209383610dc4565b810103126101fb57519238611e24565b3d9150611f57565b611f8591610dc4565b3881611df7565b919082519283825260005b848110611fb8575050601f19601f8460006020809697860101520116010190565b80602080928401015182828601015201611f97565b61201e6120336000939284936001600160a01b036040519485937f319af333000000000000000000000000000000000000000000000000000000006020860152604060248601526064850190611f8c565b9116604483015203601f198101835282610dc4565b6020815191016a636f6e736f6c652e6c6f675afa50565b612033906000946001600160a01b036120b86120a0958897836040519889977faabc9a310000000000000000000000000000000000000000000000000000000060208a0152608060248a015260a4890190611f8c565b92166044870152602319868303016064870152611f8c565b9116608483015203601f198101835282610dc4565b6121166120336000939284936040519384927fb60e72cc000000000000000000000000000000000000000000000000000000006020850152604060248501526064840190611f8c565b90604483015203601f198101835282610dc456fea2646970667358221220675a463d90b76689779521070db9be890d151c2bb9b59d42dac07bac91d6a37d64736f6c634300081a00332f8788117e7eff1d82e926ec794901d17c78024a50270940304540a733656f0de84508f2c7fa9c351146748b3025cb78b45df37d868e48c6a75102fecdeee6456e1540171b6c0c960b71a7020d9f60077f6af931a8bbf590da0223dacf75c7afad3228b676f7d3cd4284a5443f17f1962b36e491b30a40b2405849e597ba5fb5",
  "linkReferences": {},
  "deployedLinkReferences": {}
}