{
  "_format": "hh-sol-artifact-1",
  "contractName": "StremeFeeStreamer",
  "sourceName": "contracts/extras/StremeFeeStreamer.sol",
  "abi": [
    {
      "inputs": [
        {
          "internalType": "contract IGDAv1Forwarder",
          "name": "_gdaForwarder",
          "type": "address"
        },
        {
          "internalType": "address",
          "name": "_feeRecipient",
          "type": "address"
        },
        {
          "internalType": "contract IStremeZap",
          "name": "_zapContract",
          "type": "address"
        }
      ],
      "stateMutability": "nonpayable",
      "type": "constructor"
    },
    {
      "inputs": [],
      "name": "AccessControlBadConfirmation",
      "type": "error"
    },
    {
      "inputs": [
        {
          "internalType": "address",
          "name": "account",
          "type": "address"
        },
        {
          "internalType": "bytes32",
          "name": "neededRole",
          "type": "bytes32"
        }
      ],
      "name": "AccessControlUnauthorizedAccount",
      "type": "error"
    },
    {
      "anonymous": false,
      "inputs": [
        {
          "indexed": true,
          "internalType": "bytes32",
          "name": "role",
          "type": "bytes32"
        },
        {
          "indexed": true,
          "internalType": "bytes32",
          "name": "previousAdminRole",
          "type": "bytes32"
        },
        {
          "indexed": true,
          "internalType": "bytes32",
          "name": "newAdminRole",
          "type": "bytes32"
        }
      ],
      "name": "RoleAdminChanged",
      "type": "event"
    },
    {
      "anonymous": false,
      "inputs": [
        {
          "indexed": true,
          "internalType": "bytes32",
          "name": "role",
          "type": "bytes32"
        },
        {
          "indexed": true,
          "internalType": "address",
          "name": "account",
          "type": "address"
        },
        {
          "indexed": true,
          "internalType": "address",
          "name": "sender",
          "type": "address"
        }
      ],
      "name": "RoleGranted",
      "type": "event"
    },
    {
      "anonymous": false,
      "inputs": [
        {
          "indexed": true,
          "internalType": "bytes32",
          "name": "role",
          "type": "bytes32"
        },
        {
          "indexed": true,
          "internalType": "address",
          "name": "account",
          "type": "address"
        },
        {
          "indexed": true,
          "internalType": "address",
          "name": "sender",
          "type": "address"
        }
      ],
      "name": "RoleRevoked",
      "type": "event"
    },
    {
      "inputs": [],
      "name": "DEFAULT_ADMIN_ROLE",
      "outputs": [
        {
          "internalType": "bytes32",
          "name": "",
          "type": "bytes32"
        }
      ],
      "stateMutability": "view",
      "type": "function"
    },
    {
      "inputs": [],
      "name": "ETHx",
      "outputs": [
        {
          "internalType": "contract ISETH",
          "name": "",
          "type": "address"
        }
      ],
      "stateMutability": "view",
      "type": "function"
    },
    {
      "inputs": [],
      "name": "MANAGER_ROLE",
      "outputs": [
        {
          "internalType": "bytes32",
          "name": "",
          "type": "bytes32"
        }
      ],
      "stateMutability": "view",
      "type": "function"
    },
    {
      "inputs": [],
      "name": "STREME",
      "outputs": [
        {
          "internalType": "contract IERC20",
          "name": "",
          "type": "address"
        }
      ],
      "stateMutability": "view",
      "type": "function"
    },
    {
      "inputs": [],
      "name": "WETH",
      "outputs": [
        {
          "internalType": "contract IWETH",
          "name": "",
          "type": "address"
        }
      ],
      "stateMutability": "view",
      "type": "function"
    },
    {
      "inputs": [
        {
          "internalType": "address",
          "name": "factory",
          "type": "address"
        }
      ],
      "name": "addStakingFactory",
      "outputs": [],
      "stateMutability": "nonpayable",
      "type": "function"
    },
    {
      "inputs": [],
      "name": "feeRecipient",
      "outputs": [
        {
          "internalType": "address",
          "name": "",
          "type": "address"
        }
      ],
      "stateMutability": "view",
      "type": "function"
    },
    {
      "inputs": [],
      "name": "flowDuration",
      "outputs": [
        {
          "internalType": "int96",
          "name": "",
          "type": "int96"
        }
      ],
      "stateMutability": "view",
      "type": "function"
    },
    {
      "inputs": [],
      "name": "gdaForwarder",
      "outputs": [
        {
          "internalType": "contract IGDAv1Forwarder",
          "name": "",
          "type": "address"
        }
      ],
      "stateMutability": "view",
      "type": "function"
    },
    {
      "inputs": [
        {
          "internalType": "bytes32",
          "name": "role",
          "type": "bytes32"
        }
      ],
      "name": "getRoleAdmin",
      "outputs": [
        {
          "internalType": "bytes32",
          "name": "",
          "type": "bytes32"
        }
      ],
      "stateMutability": "view",
      "type": "function"
    },
    {
      "inputs": [
        {
          "internalType": "bytes32",
          "name": "role",
          "type": "bytes32"
        },
        {
          "internalType": "address",
          "name": "account",
          "type": "address"
        }
      ],
      "name": "grantRole",
      "outputs": [],
      "stateMutability": "nonpayable",
      "type": "function"
    },
    {
      "inputs": [
        {
          "internalType": "bytes32",
          "name": "role",
          "type": "bytes32"
        },
        {
          "internalType": "address",
          "name": "account",
          "type": "address"
        }
      ],
      "name": "hasRole",
      "outputs": [
        {
          "internalType": "bool",
          "name": "",
          "type": "bool"
        }
      ],
      "stateMutability": "view",
      "type": "function"
    },
    {
      "inputs": [
        {
          "internalType": "address",
          "name": "token",
          "type": "address"
        }
      ],
      "name": "predictStakedTokenAddress",
      "outputs": [
        {
          "internalType": "address",
          "name": "stakedTokenAddress",
          "type": "address"
        }
      ],
      "stateMutability": "view",
      "type": "function"
    },
    {
      "inputs": [
        {
          "internalType": "bytes32",
          "name": "role",
          "type": "bytes32"
        },
        {
          "internalType": "address",
          "name": "callerConfirmation",
          "type": "address"
        }
      ],
      "name": "renounceRole",
      "outputs": [],
      "stateMutability": "nonpayable",
      "type": "function"
    },
    {
      "inputs": [
        {
          "internalType": "bytes32",
          "name": "role",
          "type": "bytes32"
        },
        {
          "internalType": "address",
          "name": "account",
          "type": "address"
        }
      ],
      "name": "revokeRole",
      "outputs": [],
      "stateMutability": "nonpayable",
      "type": "function"
    },
    {
      "inputs": [
        {
          "internalType": "address",
          "name": "_feeRecipient",
          "type": "address"
        }
      ],
      "name": "setFeeRecipient",
      "outputs": [],
      "stateMutability": "nonpayable",
      "type": "function"
    },
    {
      "inputs": [
        {
          "internalType": "uint256",
          "name": "percentage",
          "type": "uint256"
        }
      ],
      "name": "setFeeRecipientPercentage",
      "outputs": [],
      "stateMutability": "nonpayable",
      "type": "function"
    },
    {
      "inputs": [
        {
          "internalType": "int96",
          "name": "duration",
          "type": "int96"
        }
      ],
      "name": "setFlowDuration",
      "outputs": [],
      "stateMutability": "nonpayable",
      "type": "function"
    },
    {
      "inputs": [
        {
          "internalType": "contract IStremeZap",
          "name": "_zapContract",
          "type": "address"
        }
      ],
      "name": "setZapContract",
      "outputs": [],
      "stateMutability": "nonpayable",
      "type": "function"
    },
    {
      "inputs": [
        {
          "internalType": "address",
          "name": "",
          "type": "address"
        }
      ],
      "name": "stakingContracts",
      "outputs": [
        {
          "internalType": "address",
          "name": "",
          "type": "address"
        }
      ],
      "stateMutability": "view",
      "type": "function"
    },
    {
      "inputs": [
        {
          "internalType": "uint256",
          "name": "",
          "type": "uint256"
        }
      ],
      "name": "stakingFactories",
      "outputs": [
        {
          "internalType": "address",
          "name": "",
          "type": "address"
        }
      ],
      "stateMutability": "view",
      "type": "function"
    },
    {
      "inputs": [
        {
          "internalType": "bytes4",
          "name": "interfaceId",
          "type": "bytes4"
        }
      ],
      "name": "supportsInterface",
      "outputs": [
        {
          "internalType": "bool",
          "name": "",
          "type": "bool"
        }
      ],
      "stateMutability": "view",
      "type": "function"
    },
    {
      "inputs": [
        {
          "internalType": "address",
          "name": "operator",
          "type": "address"
        },
        {
          "internalType": "address",
          "name": "from",
          "type": "address"
        },
        {
          "internalType": "address",
          "name": "to",
          "type": "address"
        },
        {
          "internalType": "uint256",
          "name": "amount",
          "type": "uint256"
        },
        {
          "internalType": "bytes",
          "name": "userData",
          "type": "bytes"
        },
        {
          "internalType": "bytes",
          "name": "operatorData",
          "type": "bytes"
        }
      ],
      "name": "tokensReceived",
      "outputs": [],
      "stateMutability": "nonpayable",
      "type": "function"
    },
    {
      "inputs": [
        {
          "internalType": "contract IERC20",
          "name": "token",
          "type": "address"
        },
        {
          "internalType": "address",
          "name": "recipient",
          "type": "address"
        },
        {
          "internalType": "uint256",
          "name": "amount",
          "type": "uint256"
        }
      ],
      "name": "withdraw",
      "outputs": [],
      "stateMutability": "nonpayable",
      "type": "function"
    },
    {
      "inputs": [],
      "name": "zapContract",
      "outputs": [
        {
          "internalType": "contract IStremeZap",
          "name": "",
          "type": "address"
        }
      ],
      "stateMutability": "view",
      "type": "function"
    },
    {
      "stateMutability": "payable",
      "type": "receive"
    }
  ],
  "bytecode": "0x6080806040523461040d57600090606081611d5880380380916100228285610412565b8339810103126104095780516001600160a01b03811691908290036104055760208101516001600160a01b038116919082900361040157604001516001600160a01b038116929083900361040157600180546001600160a01b031916731820a4b7618bde71dce8cdc73aab6c95905fad24179055600280546001600160a01b03166203c26760a71b17905560326003556100bb3361044b565b506100c5336104c7565b50600280546001600160a01b0319908116929092179055600580548216929092179091556004805490911691909117905560015481906001600160a01b0316803b156103fe578180916064604051809581936329965a1d60e01b83523060048401527fb281fc8c12954d22544db45de3159a39272895b169a852b314f9cc762e44c53b60248401523060448401525af180156103f1576103e1575b733b3cd21242ba44e9865b066e5ef5d1cc1030cc5890525060066020818152604080842080546001600160a01b03199081167393419f1c0f73b278c73085c17407794a6580deff179091557331c3cfb1b8332369c2d84220c950001c87a84c0985528383528185208054821673291c99235270ea41499f243b1a8a43ad5c62e28c1790557314f80aa2db36d8e69e4ba9fee32795a73a71a2f5855283835281852080548216735a4aa653b98ff91923d1c20797e698cc0ed661081790557341531c3448c6e178e4a342f4b20733ea8673ed3385528383528185208054821673a1e0df593aa51f933b777aa0027ee9dae29ed2ac17905573340d15c2930805f47e946b934252b25406f365ac855283835281852080548216734d2b5181e22210da785a505d3d01dee0fa3ccb9217905573390873cddc99ac950c308cf898134f092ea661048552929091528220805490911673e4770d660689175de6b79fdf28725b8c46d29e45179055600754680100000000000000008110156103cd5760018101806007558110156103b9576007808352600080516020611cf88339815191529190910180546001600160a01b03191673c749105bc4b4ea6285dbbe2e8221c922bea07a9d1790555490680100000000000000008210156103a55760018201806007558210156103915760079052600080516020611cf88339815191520180546001600160a01b03191673293a5d47f5d76244b715ce0d0e759e022734948617905560405161177890816105608239f35b634e487b7160e01b81526032600452602490fd5b634e487b7160e01b81526041600452602490fd5b634e487b7160e01b82526032600452602482fd5b634e487b7160e01b82526041600452602482fd5b6103ea91610412565b3881610160565b50604051903d90823e3d90fd5b50fd5b8380fd5b8280fd5b5080fd5b600080fd5b601f909101601f19168101906001600160401b0382119082101761043557604052565b634e487b7160e01b600052604160045260246000fd5b6001600160a01b0381166000908152600080516020611d38833981519152602052604090205460ff166104c1576001600160a01b03166000818152600080516020611d3883398151915260205260408120805460ff19166001179055339190600080516020611cd88339815191528180a4600190565b50600090565b6001600160a01b0381166000908152600080516020611d18833981519152602052604090205460ff166104c1576001600160a01b03166000818152600080516020611d1883398151915260205260408120805460ff191660011790553391907f241ecf16d79d0f8dbfb92cbc07fe17840425976cf0667f022fe9877caa831b0890600080516020611cd88339815191529080a460019056fe6080604052600436101561001b575b361561001957600080fd5b005b60003560e01c806223de2914610a0d57806301ffc9a71461096c5780630881dd44146109385780631a5239431461086d578063248a9ca3146108385780632549dad9146108115780632f2ff15d146107d157806336568abe146107725780633e16f55f146106f657806346904840146106cf5780634a8b93721461063d578063550abcd0146105fc5780635af8bf25146105d55780636105e4f7146105a65780636497d2851461058257806391d14854146105345780639bc181d2146104f1578063a217fddf146104d5578063ad5c4648146104a6578063d547741f14610461578063d9caed121461023e578063e74b981b146101f1578063ec87621c146101b6578063f6c278c1146101875763fcaa87370361000e5734610182576020600319360112610182576004356001600160a01b0381168091036101825761015f61152e565b73ffffffffffffffffffffffffffffffffffffffff196004541617600455600080f35b600080fd5b346101825760006003193601126101825760206040517346fd5cfb4c12d87acd3a13e92baa53240c661d938152f35b346101825760006003193601126101825760206040517f241ecf16d79d0f8dbfb92cbc07fe17840425976cf0667f022fe9877caa831b088152f35b34610182576020600319360112610182576001600160a01b03610212610a94565b61021a61152e565b1673ffffffffffffffffffffffffffffffffffffffff196005541617600555600080f35b34610182576060600319360112610182576004356001600160a01b0381168091036101825761026b610aaa565b60443561027661152e565b6001600160a01b0382161561041d57610290811515610b1f565b6040516370a0823160e01b8152306004820152602081602481875afa80156103985782916000916103e8575b50106103a4576040517fa9059cbb0000000000000000000000000000000000000000000000000000000081526001600160a01b03929092166004830152602482015290602090829060449082906000905af190811561039857600091610369575b501561032557005b606460405162461bcd60e51b815260206004820152601560248201527f546f6b656e207472616e73666572206661696c656400000000000000000000006044820152fd5b61038b915060203d602011610391575b6103838183610b6a565b810190610bd9565b8161031d565b503d610379565b6040513d6000823e3d90fd5b606460405162461bcd60e51b815260206004820152601a60248201527f496e73756666696369656e7420746f6b656e2062616c616e63650000000000006044820152fd5b9150506020813d602011610415575b8161040460209383610b6a565b8101031261018257819051856102bc565b3d91506103f7565b606460405162461bcd60e51b815260206004820152601960248201527f496e76616c696420726563697069656e742061646472657373000000000000006044820152fd5b3461018257604060031936011261018257610019600435610480610aaa565b906104a161049c82600052600060205260016040600020015490565b6115b9565b6116b3565b346101825760006003193601126101825760206040517342000000000000000000000000000000000000068152f35b3461018257600060031936011261018257602060405160008152f35b34610182576020600319360112610182576001600160a01b03610512610a94565b16600052600660205260206001600160a01b0360406000205416604051908152f35b346101825760406003193601126101825761054d610aaa565b60043560005260006020526001600160a01b0360406000209116600052602052602060ff604060002054166040519015158152f35b3461018257600060031936011261018257602060025460a01d60405190600b0b8152f35b34610182576000600319360112610182576020604051733b3cd21242ba44e9865b066e5ef5d1cc1030cc588152f35b346101825760006003193601126101825760206001600160a01b0360025416604051908152f35b3461018257602060031936011261018257600435600754811015610182576001600160a01b0361062d602092610aee565b90549060031b1c16604051908152f35b346101825760206003193601126101825760043561065961152e565b6064811161066657600355005b608460405162461bcd60e51b8152602060048201526024808201527f50657263656e74616765206d757374206265206265747765656e203020616e6460448201527f20313030000000000000000000000000000000000000000000000000000000006064820152fd5b346101825760006003193601126101825760206001600160a01b0360055416604051908152f35b346101825760206003193601126101825761070f610a94565b61071761152e565b6007546801000000000000000081101561075c5780600161073b9201600755610aee565b6001600160a01b0380839493549260031b9316831b921b1916179055600080f35b634e487b7160e01b600052604160045260246000fd5b346101825760406003193601126101825761078b610aaa565b336001600160a01b038216036107a757610019906004356116b3565b7f6697b2320000000000000000000000000000000000000000000000000000000060005260046000fd5b34610182576040600319360112610182576100196004356107f0610aaa565b9061080c61049c82600052600060205260016040600020015490565b611619565b346101825760006003193601126101825760206001600160a01b0360045416604051908152f35b34610182576020600319360112610182576020610865600435600052600060205260016040600020015490565b604051908152f35b346101825760206003193601126101825760043580600b0b8082036101825760009061089761152e565b13156108ce576001600160a01b0373ffffffffffffffffffffffffffffffffffffffff196002549260a01b16911617600255600080f35b608460405162461bcd60e51b815260206004820152602260248201527f4475726174696f6e206d7573742062652067726561746572207468616e207a6560448201527f726f0000000000000000000000000000000000000000000000000000000000006064820152fd5b3461018257602060031936011261018257602061095b610956610a94565b6113be565b6001600160a01b0360405191168152f35b34610182576020600319360112610182576004357fffffffff00000000000000000000000000000000000000000000000000000000811680910361018257807f7965db0b00000000000000000000000000000000000000000000000000000000602092149081156109e3575b506040519015158152f35b7f01ffc9a700000000000000000000000000000000000000000000000000000000915014826109d8565b346101825760c060031936011261018257610a26610a94565b50610a2f610aaa565b506044356001600160a01b03811681036101825760843567ffffffffffffffff811161018257610a63903690600401610ac0565b505060a4359067ffffffffffffffff821161018257610a89610019923690600401610ac0565b505060643590610bf1565b600435906001600160a01b038216820361018257565b602435906001600160a01b038216820361018257565b9181601f840112156101825782359167ffffffffffffffff8311610182576020838186019501011161018257565b600754811015610b0957600760005260206000200190600090565b634e487b7160e01b600052603260045260246000fd5b15610b2657565b606460405162461bcd60e51b815260206004820152602060248201527f416d6f756e74206d7573742062652067726561746572207468616e207a65726f6044820152fd5b90601f7fffffffffffffffffffffffffffffffffffffffffffffffffffffffffffffffe0910116810190811067ffffffffffffffff82111761075c57604052565b90816020910312610182575190565b9081602091031261018257516001600160a01b03811681036101825790565b90816020910312610182575180151581036101825790565b6001600160a01b033091160361135557610c0e6000911515610b1f565b73420000000000000000000000000000000000000633148015611338575b610d55576001600160a01b03610c41336113be565b168061118e575b506040516370a0823160e01b81523060048201526020816024817342000000000000000000000000000000000000065afa908115610e8057829161115c575b5080611009575b506040516370a0823160e01b81523060048201526020816024817346fd5cfb4c12d87acd3a13e92baa53240c661d935afa908115610e80578291610fd7575b5080610d8c575b50479081610ce0575050565b60206001600160a01b03600454166084604051809581937fb60347a3000000000000000000000000000000000000000000000000000000008352733b3cd21242ba44e9865b066e5ef5d1cc1030cc5860048401528160248401528660448401528660648401525af1908115610d805750610d58575b50565b610d559060203d602011610d79575b610d718183610b6a565b810190610bab565b503d610d67565b604051903d90823e3d90fd5b610d9b60649160035490611505565b0480151580610fc3575b610ec1575b506040516370a0823160e01b81523060048201526020816024817346fd5cfb4c12d87acd3a13e92baa53240c661d935afa908115610e80578291610e8f575b508015610cd4577346fd5cfb4c12d87acd3a13e92baa53240c661d933b15610e8b57604051907f160e8be300000000000000000000000000000000000000000000000000000000825260048201528181602481837346fd5cfb4c12d87acd3a13e92baa53240c661d935af18015610e8057908291610e68575b50610cd4565b81610e7291610b6a565b610e7d578038610e62565b80fd5b6040513d84823e3d90fd5b5080fd5b90506020813d602011610eb9575b81610eaa60209383610b6a565b81010312610182575138610de9565b3d9150610e9d565b6005546040517fa9059cbb0000000000000000000000000000000000000000000000000000000081526001600160a01b0390911660048201526024810191909152602081604481857346fd5cfb4c12d87acd3a13e92baa53240c661d935af1908115610e80578291610fa4575b5015610f3a5738610daa565b608460405162461bcd60e51b815260206004820152602560248201527f45544878207472616e7366657220746f2066656520726563697069656e74206660448201527f61696c65640000000000000000000000000000000000000000000000000000006064820152fd5b610fbd915060203d602011610391576103838183610b6a565b38610f2e565b506001600160a01b03600554161515610da5565b90506020813d602011611001575b81610ff260209383610b6a565b81010312610182575138610ccd565b3d9150610fe5565b90606461101860035484611505565b049182151580611148575b61102f575b5090610c8e565b7342000000000000000000000000000000000000063b15610e8b57604051907f2e1a7d4d00000000000000000000000000000000000000000000000000000000825260048201528181602481837342000000000000000000000000000000000000065af18015610e8057611138575b50906001600160a01b03600554167346fd5cfb4c12d87acd3a13e92baa53240c661d933b156111345782906024604051809481937f7687d19b00000000000000000000000000000000000000000000000000000000835260048301527346fd5cfb4c12d87acd3a13e92baa53240c661d935af18015610e805790829115611028578161112991610b6a565b610e7d578038611028565b8280fd5b8161114291610b6a565b3861109e565b506001600160a01b03600554161515611023565b90506020813d602011611186575b8161117760209383610b6a565b81010312610e8b575138610c87565b3d915061116a565b6040516370a0823160e01b8152306004820152602081602481335afa90811561132d5783916112fb575b50600254906bffffffffffffffffffffffff8260a01d169081156112e757600492916020910493604051938480927f16f0115b0000000000000000000000000000000000000000000000000000000082525afa9182156112dc57602092856001600160a01b039360c49382936112ab575b50849060405197889687957f5a6c6dbc000000000000000000000000000000000000000000000000000000008752336004880152306024880152166044860152600b0b606485015260a060848501528260a4850152165af18015610e805715610c48576112a49060203d602011610391576103838183610b6a565b5038610c48565b859193506112ce90873d89116112d5575b6112c68183610b6a565b810190610bba565b9290611229565b503d6112bc565b6040513d86823e3d90fd5b602485634e487b7160e01b81526012600452fd5b90506020813d602011611325575b8161131660209383610b6a565b810103126111345751386111b8565b3d9150611309565b6040513d85823e3d90fd5b507346fd5cfb4c12d87acd3a13e92baa53240c661d933314610c2c565b608460405162461bcd60e51b8152602060048201526024808201527f546f6b656e73206d7573742062652073656e7420746f207468697320636f6e7460448201527f72616374000000000000000000000000000000000000000000000000000000006064820152fd5b6001600160a01b0316908160005260066020526001600160a01b03604060002054169182156113ea5750565b6007549060005b8281106113fd57505050565b602460206001600160a01b0361141284610aee565b90549060031b1c16604051928380927f0881dd440000000000000000000000000000000000000000000000000000000082528760048301525afa8015610398576001600160a01b03916000916114e7575b50166040517f16f0115b000000000000000000000000000000000000000000000000000000008152602081600481855afa600091816114c7575b506114ad575b50506001016113f1565b6001600160a01b03166114c057806114a3565b9450505050565b6114e091925060203d81116112d5576112c68183610b6a565b903861149d565b6114ff915060203d81116112d5576112c68183610b6a565b38611463565b8181029291811591840414171561151857565b634e487b7160e01b600052601160045260246000fd5b3360009081527fe84508f2c7fa9c351146748b3025cb78b45df37d868e48c6a75102fecdeee645602052604090205460ff161561156757565b7fe2517d3f00000000000000000000000000000000000000000000000000000000600052336004527f241ecf16d79d0f8dbfb92cbc07fe17840425976cf0667f022fe9877caa831b0860245260446000fd5b80600052600060205260406000206001600160a01b03331660005260205260ff60406000205416156115e85750565b7fe2517d3f000000000000000000000000000000000000000000000000000000006000523360045260245260446000fd5b80600052600060205260406000206001600160a01b03831660005260205260ff60406000205416156000146116ac5780600052600060205260406000206001600160a01b0383166000526020526040600020600160ff198254161790556001600160a01b03339216907f2f8788117e7eff1d82e926ec794901d17c78024a50270940304540a733656f0d600080a4600190565b5050600090565b80600052600060205260406000206001600160a01b03831660005260205260ff604060002054166000146116ac5780600052600060205260406000206001600160a01b038316600052602052604060002060ff1981541690556001600160a01b03339216907ff6391f5c32d9c69d2a47ea670b442974b53935d1edc7fd64eb21e047a839171b600080a460019056fea26469706673582212207d54169c18ef1174cf5783c3986dce4e3d15d90895197fd2350d5a7c2eca367164736f6c634300081a00332f8788117e7eff1d82e926ec794901d17c78024a50270940304540a733656f0da66cc928b5edb82af9bd49922954155ab7b0942694bea4ce44661d9a8736c688e84508f2c7fa9c351146748b3025cb78b45df37d868e48c6a75102fecdeee645ad3228b676f7d3cd4284a5443f17f1962b36e491b30a40b2405849e597ba5fb5",
  "linkReferences": {},
  "deployedLinkReferences": {}
}