{
  "_format": "hh-sol-artifact-1",
  "contractName": "StremeEvents",
  "sourceName": "contracts/StremeEvents.sol",
  "abi": [
    {
      "inputs": [],
      "stateMutability": "nonpayable",
      "type": "constructor"
    },
    {
      "inputs": [],
      "name": "AccessControlBadConfirmation",
      "type": "error"
    },
    {
      "inputs": [
        {
          "internalType": "address",
          "name": "account",
          "type": "address"
        },
        {
          "internalType": "bytes32",
          "name": "neededRole",
          "type": "bytes32"
        }
      ],
      "name": "AccessControlUnauthorizedAccount",
      "type": "error"
    },
    {
      "anonymous": false,
      "inputs": [
        {
          "indexed": true,
          "internalType": "bytes32",
          "name": "role",
          "type": "bytes32"
        },
        {
          "indexed": true,
          "internalType": "bytes32",
          "name": "previousAdminRole",
          "type": "bytes32"
        },
        {
          "indexed": true,
          "internalType": "bytes32",
          "name": "newAdminRole",
          "type": "bytes32"
        }
      ],
      "name": "RoleAdminChanged",
      "type": "event"
    },
    {
      "anonymous": false,
      "inputs": [
        {
          "indexed": true,
          "internalType": "bytes32",
          "name": "role",
          "type": "bytes32"
        },
        {
          "indexed": true,
          "internalType": "address",
          "name": "account",
          "type": "address"
        },
        {
          "indexed": true,
          "internalType": "address",
          "name": "sender",
          "type": "address"
        }
      ],
      "name": "RoleGranted",
      "type": "event"
    },
    {
      "anonymous": false,
      "inputs": [
        {
          "indexed": true,
          "internalType": "bytes32",
          "name": "role",
          "type": "bytes32"
        },
        {
          "indexed": true,
          "internalType": "address",
          "name": "account",
          "type": "address"
        },
        {
          "indexed": true,
          "internalType": "address",
          "name": "sender",
          "type": "address"
        }
      ],
      "name": "RoleRevoked",
      "type": "event"
    },
    {
      "anonymous": false,
      "inputs": [
        {
          "indexed": true,
          "internalType": "address",
          "name": "token",
          "type": "address"
        },
        {
          "indexed": true,
          "internalType": "address",
          "name": "account",
          "type": "address"
        },
        {
          "indexed": false,
          "internalType": "uint256",
          "name": "depositTimestamp",
          "type": "uint256"
        },
        {
          "indexed": false,
          "internalType": "uint256",
          "name": "amount",
          "type": "uint256"
        }
      ],
      "name": "Stake",
      "type": "event"
    },
    {
      "anonymous": false,
      "inputs": [
        {
          "indexed": true,
          "internalType": "address",
          "name": "tokenIn",
          "type": "address"
        },
        {
          "indexed": true,
          "internalType": "address",
          "name": "tokenOut",
          "type": "address"
        },
        {
          "indexed": true,
          "internalType": "address",
          "name": "account",
          "type": "address"
        },
        {
          "indexed": false,
          "internalType": "uint256",
          "name": "amountIn",
          "type": "uint256"
        },
        {
          "indexed": false,
          "internalType": "uint256",
          "name": "amountOut",
          "type": "uint256"
        }
      ],
      "name": "Swapped",
      "type": "event"
    },
    {
      "anonymous": false,
      "inputs": [
        {
          "indexed": true,
          "internalType": "address",
          "name": "token",
          "type": "address"
        },
        {
          "indexed": true,
          "internalType": "address",
          "name": "deployer",
          "type": "address"
        }
      ],
      "name": "TokenDeployed",
      "type": "event"
    },
    {
      "anonymous": false,
      "inputs": [
        {
          "indexed": true,
          "internalType": "address",
          "name": "token",
          "type": "address"
        },
        {
          "indexed": true,
          "internalType": "address",
          "name": "account",
          "type": "address"
        },
        {
          "indexed": false,
          "internalType": "uint256",
          "name": "depositTimestamp",
          "type": "uint256"
        },
        {
          "indexed": false,
          "internalType": "uint256",
          "name": "amount",
          "type": "uint256"
        }
      ],
      "name": "Unstake",
      "type": "event"
    },
    {
      "inputs": [],
      "name": "DEFAULT_ADMIN_ROLE",
      "outputs": [
        {
          "internalType": "bytes32",
          "name": "",
          "type": "bytes32"
        }
      ],
      "stateMutability": "view",
      "type": "function"
    },
    {
      "inputs": [],
      "name": "EMITTER_CONTRACT",
      "outputs": [
        {
          "internalType": "bytes32",
          "name": "",
          "type": "bytes32"
        }
      ],
      "stateMutability": "view",
      "type": "function"
    },
    {
      "inputs": [],
      "name": "GRANTOR_ROLE",
      "outputs": [
        {
          "internalType": "bytes32",
          "name": "",
          "type": "bytes32"
        }
      ],
      "stateMutability": "view",
      "type": "function"
    },
    {
      "inputs": [
        {
          "internalType": "address",
          "name": "token",
          "type": "address"
        },
        {
          "internalType": "address",
          "name": "account",
          "type": "address"
        },
        {
          "internalType": "uint256",
          "name": "depositTimestamp",
          "type": "uint256"
        },
        {
          "internalType": "uint256",
          "name": "amount",
          "type": "uint256"
        }
      ],
      "name": "emitStake",
      "outputs": [],
      "stateMutability": "nonpayable",
      "type": "function"
    },
    {
      "inputs": [
        {
          "internalType": "address",
          "name": "tokenIn",
          "type": "address"
        },
        {
          "internalType": "address",
          "name": "tokenOut",
          "type": "address"
        },
        {
          "internalType": "address",
          "name": "account",
          "type": "address"
        },
        {
          "internalType": "uint256",
          "name": "amountIn",
          "type": "uint256"
        },
        {
          "internalType": "uint256",
          "name": "amountOut",
          "type": "uint256"
        }
      ],
      "name": "emitSwapped",
      "outputs": [],
      "stateMutability": "nonpayable",
      "type": "function"
    },
    {
      "inputs": [
        {
          "internalType": "address",
          "name": "token",
          "type": "address"
        },
        {
          "internalType": "address",
          "name": "deployer",
          "type": "address"
        }
      ],
      "name": "emitTokenDeployed",
      "outputs": [],
      "stateMutability": "nonpayable",
      "type": "function"
    },
    {
      "inputs": [
        {
          "internalType": "address",
          "name": "token",
          "type": "address"
        },
        {
          "internalType": "address",
          "name": "account",
          "type": "address"
        },
        {
          "internalType": "uint256",
          "name": "depositTimestamp",
          "type": "uint256"
        },
        {
          "internalType": "uint256",
          "name": "amount",
          "type": "uint256"
        }
      ],
      "name": "emitUnstake",
      "outputs": [],
      "stateMutability": "nonpayable",
      "type": "function"
    },
    {
      "inputs": [
        {
          "internalType": "bytes32",
          "name": "role",
          "type": "bytes32"
        }
      ],
      "name": "getRoleAdmin",
      "outputs": [
        {
          "internalType": "bytes32",
          "name": "",
          "type": "bytes32"
        }
      ],
      "stateMutability": "view",
      "type": "function"
    },
    {
      "inputs": [
        {
          "internalType": "bytes32",
          "name": "role",
          "type": "bytes32"
        },
        {
          "internalType": "address",
          "name": "account",
          "type": "address"
        }
      ],
      "name": "grantRole",
      "outputs": [],
      "stateMutability": "nonpayable",
      "type": "function"
    },
    {
      "inputs": [
        {
          "internalType": "bytes32",
          "name": "role",
          "type": "bytes32"
        },
        {
          "internalType": "address",
          "name": "account",
          "type": "address"
        }
      ],
      "name": "hasRole",
      "outputs": [
        {
          "internalType": "bool",
          "name": "",
          "type": "bool"
        }
      ],
      "stateMutability": "view",
      "type": "function"
    },
    {
      "inputs": [
        {
          "internalType": "address",
          "name": "account",
          "type": "address"
        }
      ],
      "name": "registerEmitter",
      "outputs": [],
      "stateMutability": "nonpayable",
      "type": "function"
    },
    {
      "inputs": [
        {
          "internalType": "bytes32",
          "name": "role",
          "type": "bytes32"
        },
        {
          "internalType": "address",
          "name": "callerConfirmation",
          "type": "address"
        }
      ],
      "name": "renounceRole",
      "outputs": [],
      "stateMutability": "nonpayable",
      "type": "function"
    },
    {
      "inputs": [
        {
          "internalType": "bytes32",
          "name": "role",
          "type": "bytes32"
        },
        {
          "internalType": "address",
          "name": "account",
          "type": "address"
        }
      ],
      "name": "revokeRole",
      "outputs": [],
      "stateMutability": "nonpayable",
      "type": "function"
    },
    {
      "inputs": [
        {
          "internalType": "bytes4",
          "name": "interfaceId",
          "type": "bytes4"
        }
      ],
      "name": "supportsInterface",
      "outputs": [
        {
          "internalType": "bool",
          "name": "",
          "type": "bool"
        }
      ],
      "stateMutability": "view",
      "type": "function"
    }
  ],
  "bytecode": "0x608060405234610077577fd10feaa7fea55567e367a112bc53907318a50949442dfc0570945570c5af57cf6001557fac8f2ed92c9aa769c5d03fe9df782a6c7afa95eaa925c17a07395ef67464a4a260025561005a3361007c565b50610067336001546100f8565b506040516106f090816101728239f35b600080fd5b6001600160a01b0381166000908152600080516020610882833981519152602052604090205460ff166100f2576001600160a01b0316600081815260008051602061088283398151915260205260408120805460ff191660011790553391906000805160206108628339815191528180a4600190565b50600090565b6000818152602081815260408083206001600160a01b038616845290915290205460ff1661016a576000818152602081815260408083206001600160a01b0395909516808452949091528120805460ff19166001179055339291906000805160206108628339815191529080a4600190565b505060009056fe608080604052600436101561001357600080fd5b60003560e01c90816301ffc9a71461042957508063055eda63146103ef5780630c6fde1e14610392578063248a9ca31461035d5780632cbd4e561461033f5780632f2ff15d146102ff57806336568abe146102a05780635664d9dc1461021b57806391d14854146101cd578063a217fddf146101b1578063d3a2804b14610182578063d547741f1461013b578063e15fb83f1461011d5763f9eff17f146100b957600080fd5b34610118576040600319360112610118576100d26104dd565b6001600160a01b03806100e36104c7565b6100ee600254610531565b1691167ff9a44e6db3fb6e0eb31c4013bda8c662fecef1768dd2412270cc8f8821cbccf3600080a3005b600080fd5b34610118576000600319360112610118576020600154604051908152f35b346101185760406003193601126101185761018060043561015a6104c7565b9061017b61017682600052600060205260016040600020015490565b610531565b61062b565b005b346101185760206003193601126101185761018061019e6104dd565b6101a9600154610531565b600254610591565b3461011857600060031936011261011857602060405160008152f35b34610118576040600319360112610118576101e66104c7565b60043560005260006020526001600160a01b0360406000209116600052602052602060ff604060002054166040519015158152f35b346101185760a0600319360112610118576102346104dd565b61023c6104c7565b90604435916001600160a01b0383168093036101185761025d600254610531565b7f6782190c91d4a7e8ad2a867deed6ec0a970cab8ff137ae2bd4abd92b3810f4d360406001600160a01b03808251946064358652608435602087015216941692a4005b34610118576040600319360112610118576102b96104c7565b336001600160a01b038216036102d5576101809060043561062b565b7f6697b2320000000000000000000000000000000000000000000000000000000060005260046000fd5b346101185760406003193601126101185761018060043561031e6104c7565b9061033a61017682600052600060205260016040600020015490565b610591565b34610118576000600319360112610118576020600254604051908152f35b3461011857602060031936011261011857602061038a600435600052600060205260016040600020015490565b604051908152f35b34610118576001600160a01b03807f63602d0ecc7b3a0ef7ff1a116e23056662d64280355ba8031b6d0d767c4b445860406103cc366104f3565b6103de60029894989793929754610531565b8451968752602087015216941692a3005b34610118576001600160a01b03807f18edd09e80386cd99df397e2e0d87d2bb259423eae08645e776321a36fe680ef60406103cc366104f3565b3461011857602060031936011261011857600435907fffffffff00000000000000000000000000000000000000000000000000000000821680920361011857817f7965db0b000000000000000000000000000000000000000000000000000000006020931490811561049d575b5015158152f35b7f01ffc9a70000000000000000000000000000000000000000000000000000000091501483610496565b602435906001600160a01b038216820361011857565b600435906001600160a01b038216820361011857565b6003196080910112610118576004356001600160a01b038116810361011857906024356001600160a01b038116810361011857906044359060643590565b80600052600060205260406000206001600160a01b03331660005260205260ff60406000205416156105605750565b7fe2517d3f000000000000000000000000000000000000000000000000000000006000523360045260245260446000fd5b80600052600060205260406000206001600160a01b03831660005260205260ff60406000205416156000146106245780600052600060205260406000206001600160a01b0383166000526020526040600020600160ff198254161790556001600160a01b03339216907f2f8788117e7eff1d82e926ec794901d17c78024a50270940304540a733656f0d600080a4600190565b5050600090565b80600052600060205260406000206001600160a01b03831660005260205260ff604060002054166000146106245780600052600060205260406000206001600160a01b038316600052602052604060002060ff1981541690556001600160a01b03339216907ff6391f5c32d9c69d2a47ea670b442974b53935d1edc7fd64eb21e047a839171b600080a460019056fea26469706673582212205018b50c8296e5bbb946a26e038c7fefb3f5e33dd85c39215f65374134b123ad64736f6c634300081a00332f8788117e7eff1d82e926ec794901d17c78024a50270940304540a733656f0dad3228b676f7d3cd4284a5443f17f1962b36e491b30a40b2405849e597ba5fb5",
  "linkReferences": {},
  "deployedLinkReferences": {}
}