{
  "_format": "hh-sol-artifact-1",
  "contractName": "StremeZapAero",
  "sourceName": "contracts/liquidity/aerodrome/StremeZapAero.sol",
  "abi": [
    {
      "inputs": [
        {
          "internalType": "contract ISwapRouter",
          "name": "_swapRouter",
          "type": "address"
        },
        {
          "internalType": "address",
          "name": "_weth",
          "type": "address"
        },
        {
          "internalType": "address",
          "name": "_ethx",
          "type": "address"
        },
        {
          "internalType": "contract ICLPoolFactory",
          "name": "_factory",
          "type": "address"
        }
      ],
      "stateMutability": "nonpayable",
      "type": "constructor"
    },
    {
      "inputs": [],
      "name": "ethx",
      "outputs": [
        {
          "internalType": "address",
          "name": "",
          "type": "address"
        }
      ],
      "stateMutability": "view",
      "type": "function"
    },
    {
      "inputs": [],
      "name": "factory",
      "outputs": [
        {
          "internalType": "contract ICLPoolFactory",
          "name": "",
          "type": "address"
        }
      ],
      "stateMutability": "view",
      "type": "function"
    },
    {
      "inputs": [
        {
          "internalType": "uint24",
          "name": "fee",
          "type": "uint24"
        }
      ],
      "name": "feeAmountTickSpacing",
      "outputs": [
        {
          "internalType": "int24",
          "name": "tickSpacing",
          "type": "int24"
        }
      ],
      "stateMutability": "view",
      "type": "function"
    },
    {
      "inputs": [],
      "name": "poolFee",
      "outputs": [
        {
          "internalType": "uint24",
          "name": "",
          "type": "uint24"
        }
      ],
      "stateMutability": "view",
      "type": "function"
    },
    {
      "inputs": [
        {
          "internalType": "contract ICLPool",
          "name": "pool",
          "type": "address"
        },
        {
          "internalType": "address",
          "name": "stremeCoin",
          "type": "address"
        },
        {
          "internalType": "uint256",
          "name": "amountIn",
          "type": "uint256"
        },
        {
          "internalType": "uint256",
          "name": "amountOutMin",
          "type": "uint256"
        },
        {
          "internalType": "address",
          "name": "stakingContract",
          "type": "address"
        }
      ],
      "name": "swap",
      "outputs": [
        {
          "internalType": "uint256",
          "name": "amountOut",
          "type": "uint256"
        }
      ],
      "stateMutability": "payable",
      "type": "function"
    },
    {
      "inputs": [],
      "name": "swapRouter",
      "outputs": [
        {
          "internalType": "contract ISwapRouter",
          "name": "",
          "type": "address"
        }
      ],
      "stateMutability": "view",
      "type": "function"
    },
    {
      "inputs": [
        {
          "internalType": "int256",
          "name": "amount0Delta",
          "type": "int256"
        },
        {
          "internalType": "int256",
          "name": "amount1Delta",
          "type": "int256"
        },
        {
          "internalType": "bytes",
          "name": "_data",
          "type": "bytes"
        }
      ],
      "name": "uniswapV3SwapCallback",
      "outputs": [],
      "stateMutability": "nonpayable",
      "type": "function"
    },
    {
      "inputs": [],
      "name": "weth",
      "outputs": [
        {
          "internalType": "address",
          "name": "",
          "type": "address"
        }
      ],
      "stateMutability": "view",
      "type": "function"
    },
    {
      "inputs": [
        {
          "internalType": "address",
          "name": "stremeCoin",
          "type": "address"
        },
        {
          "internalType": "uint256",
          "name": "amountIn",
          "type": "uint256"
        },
        {
          "internalType": "uint256",
          "name": "amountOutMin",
          "type": "uint256"
        },
        {
          "internalType": "address",
          "name": "stakingContract",
          "type": "address"
        }
      ],
      "name": "zap",
      "outputs": [
        {
          "internalType": "uint256",
          "name": "amountOut",
          "type": "uint256"
        }
      ],
      "stateMutability": "payable",
      "type": "function"
    },
    {
      "inputs": [
        {
          "internalType": "address",
          "name": "stremeCoin",
          "type": "address"
        },
        {
          "internalType": "uint256",
          "name": "amountIn",
          "type": "uint256"
        },
        {
          "internalType": "uint256",
          "name": "amountOutMin",
          "type": "uint256"
        },
        {
          "internalType": "address",
          "name": "stakingContract",
          "type": "address"
        }
      ],
      "name": "zapETHx",
      "outputs": [
        {
          "internalType": "uint256",
          "name": "amountOut",
          "type": "uint256"
        }
      ],
      "stateMutability": "payable",
      "type": "function"
    }
  ],
  "bytecode": "0x60a080604052346101c8576080816119b9803803809161001f82856101e1565b8339810103126101c85780516001600160a01b0381168082036101c8576100486020840161021a565b9160606100576040860161021a565b9401516001600160a01b03811692908390036101c857608091909152600080546001600160a01b03199081166001600160a01b03958616178255600180548216959096169485179095556003805490951690921790935560405163095ea7b360e01b81526004810193909352600019602484015260209183916044918391905af180156101d55761019c575b60026020527f4c7822208090c327f0cc7a269c08f35a44b98c48576136097ba3cde00e40f947805462ffffff199081166101f4179091557f5e7cc46d63c0d79d92b677239084c61b6b019c2759734090f1970fc4b4823988805482166107d0179055610bb86000527f8f2d796c159bb2bb788bc3f1a337a929c07b0cf1d9277451fd5f909c263c02d6805490911660c817905560405161178a908161022f82396080518181816102fb0152818161066c01526107090152f35b6020813d6020116101cd575b816101b5602093836101e1565b810103126101c8575180151581146100e3575b600080fd5b3d91506101a8565b6040513d6000823e3d90fd5b601f909101601f19168101906001600160401b0382119082101761020457604052565b634e487b7160e01b600052604160045260246000fd5b51906001600160a01b03821682036101c85756fe6080604052600436101561001257600080fd5b60003560e01c8063089fe6aa146100b757806322afcccb146100b257806335d88456146100ad5780633fc8cef3146100a8578063b60347a3146100a3578063c31c9c071461009e578063c45a015514610099578063d5bcb9b514610094578063df9467c31461008f5763fa461e331461008a57600080fd5b61098d565b610966565b610754565b61072d565b6106e9565b6104bb565b610494565b61016e565b6100e4565b346100d45760006003193601126100d457614e2060805260206080f35b600080fd5b60009103126100d457565b346100d45760206003193601126100d45760043562ffffff81168091036100d4576000526002602052602060406000205460020b604051908152f35b6001600160a01b038116036100d457565b359061013c82610120565b565b60031960809101126100d45760043561015681610120565b90602435906044359060643561016b81610120565b90565b6101773661013e565b6101858394929334146109f1565b6101a961019d61019d6001546001600160a01b031690565b6001600160a01b031690565b92833b156100d4576000600494604051958680927fcf81464b00000000000000000000000000000000000000000000000000000000825234905af1938415610415576102ed9461047f575b5060206001600160a01b0383169586151592836000146104785730915b6102a36102266001546001600160a01b031690565b614e206000526002602052936102936102617f4c7822208090c327f0cc7a269c08f35a44b98c48576136097ba3cde00e40f9475b5460020b90565b61027b61026c610ae1565b6001600160a01b039098168852565b6001600160a01b038b168789015260020b6040870152565b6001600160a01b03166060850152565b42608084015260a083015260c0820152600060e0820152604051809681927fa026383e00000000000000000000000000000000000000000000000000000000835260048301610b0f565b038160006001600160a01b037f0000000000000000000000000000000000000000000000000000000000000000165af193841561041557600094610447575b50610341575b604051838152602090f35b0390f35b6040517f095ea7b30000000000000000000000000000000000000000000000000000000081526001600160a01b039182166004820152602481018490529160209183916044918391600091165af180156104155761041a575b50813b156100d4576040517fadc9772e00000000000000000000000000000000000000000000000000000000815233600482015260248101829052916000908390604490829084905af19182156104155761033d926103fa575b80610332565b80610409600061040f93610ab2565b806100d9565b386103f4565b610ad5565b61043b9060203d602011610440575b6104338183610ab2565b810190610b96565b61039a565b503d610429565b61046a91945060203d602011610471575b6104628183610ab2565b810190610b00565b923861032c565b503d610458565b3391610211565b80610409600061048e93610ab2565b386101f4565b346100d45760006003193601126100d45760206001600160a01b0360005416604051908152f35b61065f6104c73661013e565b906104d68395949334146109f1565b60206001600160a01b0383169586151592836000146106e25730915b610503836104fe610bca565b611413565b61051361050e610c05565b61147d565b614e20600052600260205261055861055361054d7f4c7822208090c327f0cc7a269c08f35a44b98c48576136097ba3cde00e40f94761025a565b60020b90565b6114d2565b61056361050e610c40565b61056c87611514565b61057761050e610c7b565b6000546001600160a01b0316614e2060005260026020529261060b6105bb7f4c7822208090c327f0cc7a269c08f35a44b98c48576136097ba3cde00e40f94761025a565b916105fb6105c842610ce5565b936105e36105d4610ae1565b6001600160a01b039099168952565b6001600160a01b038c16888a015260020b6040880152565b6001600160a01b03166060860152565b608084015260a083015260c0820152600060e082015261062c61050e610cf9565b604051809681927fa026383e00000000000000000000000000000000000000000000000000000000835260048301610b0f565b0381346001600160a01b037f0000000000000000000000000000000000000000000000000000000000000000165af1938415610415576000946106c1575b506106a961050e610d34565b6106b28461155f565b61034157604051838152602090f35b6106db91945060203d602011610471576104628183610ab2565b923861069d565b33916104f2565b346100d45760006003193601126100d45760206040516001600160a01b037f0000000000000000000000000000000000000000000000000000000000000000168152f35b346100d45760006003193601126100d45760206001600160a01b0360035416604051908152f35b60a06003193601126100d45760043561076c81610120565b6024359061077982610120565b60443591606435916084359061078e82610120565b6107998534146109f1565b6108aa60406001600160a01b03841696871515938460001461095f5730915b6107c4836104fe610bca565b60006001600160a01b036107df82546001600160a01b031690565b614e206000526002602052946108676108177f4c7822208090c327f0cc7a269c08f35a44b98c48576136097ba3cde00e40f94761025a565b88517fffffffffffffffffffffffffffffffffffffffff0000000000000000000000006060998a1b8116602083015260e89290921b6034820152978d901b166037880152602b8752604b87610ab2565b61086f610af1565b95865233602087015261088361050e610d6f565b6108b873fffd8963efd1fc6a506488495d951d5263988d25968851998a9160208301610deb565b03601f1981018a5289610ab2565b6108f08751988997889687947f128acb0800000000000000000000000000000000000000000000000000000000865260048601610e2f565b0393165af1908115610415576106b2916109269160009161092f575b5061091861050e610e64565b610921816114d2565b610e9f565b94851015610ecc565b610951915060403d604011610958575b6109498183610ab2565b810190610e19565b503861090c565b503d61093f565b33916107b8565b346100d45760006003193601126100d45760206001600160a01b0360015416604051908152f35b346100d45760606003193601126100d45760443560243560043567ffffffffffffffff83116100d457366023840112156100d45782600401359167ffffffffffffffff83116100d45736602484860101116100d45760246109ef940191611181565b005b156109f857565b608460405162461bcd60e51b815260206004820152602360248201527f6d73672e76616c7565206d75737420626520657175616c20746f20616d6f756e60448201527f74496e00000000000000000000000000000000000000000000000000000000006064820152fd5b7f4e487b7100000000000000000000000000000000000000000000000000000000600052604160045260246000fd5b6040810190811067ffffffffffffffff821117610aad57604052565b610a62565b90601f601f19910116810190811067ffffffffffffffff821117610aad57604052565b6040513d6000823e3d90fd5b6040519061013c61010083610ab2565b6040519061013c604083610ab2565b908160209103126100d4575190565b61013c9092919260e0806101008301956001600160a01b0381511684526001600160a01b036020820151166020850152604081015160020b6040850152610b66606082015160608601906001600160a01b03169052565b6080810151608085015260a081015160a085015260c081015160c085015201519101906001600160a01b03169052565b908160209103126100d4575180151581036100d45790565b67ffffffffffffffff8111610aad57601f01601f191660200190565b60405190610bd9604083610ab2565b600b82527f726563697069656e743a200000000000000000000000000000000000000000006020830152565b60405190610c14604083610ab2565b600d82527f7469636b53706163696e673a20000000000000000000000000000000000000006020830152565b60405190610c4f604083610ab2565b600c82527f737472656d65436f696e3a2000000000000000000000000000000000000000006020830152565b60405190610c8a604083610ab2565b600d82527f6265666f726520706172616d73000000000000000000000000000000000000006020830152565b7f4e487b7100000000000000000000000000000000000000000000000000000000600052601160045260246000fd5b9061012c8201809211610cf457565b610cb6565b60405190610d08604083610ab2565b600c82527f616674657220706172616d7300000000000000000000000000000000000000006020830152565b60405190610d43604083610ab2565b601782527f616674657220737761702c20616d6f756e744f75743a200000000000000000006020830152565b60405190610d7e604083610ab2565b600b82527f6265666f726520737761700000000000000000000000000000000000000000006020830152565b919082519283825260005b848110610dd6575050601f19601f8460006020809697860101520116010190565b80602080928401015182828601015201610db5565b6020815260406001600160a01b036020610e0f855184838701526060860190610daa565b9401511691015290565b91908260409103126100d4576020825192015190565b9061016b949360a0936001600160a01b0380931684526000602085015260408401521660608201528160808201520190610daa565b60405190610e73604083610ab2565b601582527f616674657220737761702c20616d6f756e74303a2000000000000000000000006020830152565b7f80000000000000000000000000000000000000000000000000000000000000008114610cf45760000390565b15610ed357565b606460405162461bcd60e51b815260206004820152601360248201527f546f6f206c6974746c65207265636569766564000000000000000000000000006044820152fd5b60405190610f26604083610ab2565b601b82527f696e2063616c6c6261636b2c20616d6f756e743044656c74613a2000000000006020830152565b60405190610f61604083610ab2565b601b82527f696e2063616c6c6261636b2c20616d6f756e743144656c74613a2000000000006020830152565b156100d457565b6020818303126100d45780359067ffffffffffffffff82116100d45701906040828203126100d45760405191610fc983610a91565b803567ffffffffffffffff81116100d45781019082601f830112156100d457813592610ff484610bae565b906110026040519283610ab2565b848252602085850101116100d457600060208561102d96828097018386013783010152845201610131565b602082015290565b60405190611044604083610ab2565b600982527f746f6b656e496e3a2000000000000000000000000000000000000000000000006020830152565b6040519061107f604083610ab2565b600a82527f746f6b656e4f75743a20000000000000000000000000000000000000000000006020830152565b908160209103126100d4575161016b81610120565b604051906110cf604083610ab2565b600682527f706f6f6c3a2000000000000000000000000000000000000000000000000000006020830152565b6040519061110a604083610ab2565b600c82527f6d73672e73656e6465723a2000000000000000000000000000000000000000006020830152565b1561113d57565b606460405162461bcd60e51b815260206004820152601760248201527f43616c6c6261636b206f6e6c792066726f6d20706f6f6c0000000000000000006044820152fd5b6111d3611287936020939560006111d99461119d61050e610f17565b6111a6816114d2565b6111b161050e610f52565b6111ba896114d2565b138015611409575b6111cb90610f8d565b810190610f94565b516115a1565b91906111e661050e611035565b6111ef82611514565b6111fa61050e611070565b61120381611514565b61120e61050e610c05565b61121a8360020b6114d2565b61122f61019d6003546001600160a01b031690565b91604051958694859384937f28af8d0b0000000000000000000000000000000000000000000000000000000085526004850191926001600160a01b03604092959481606086019716855216602084015260020b910152565b03915afa908115610415576112d8916001600160a01b03916000916113da575b506112b361050e6110c0565b6112bc81611514565b6112c761050e6110fb565b6112d033611514565b163314611136565b6112f061019d61019d6000546001600160a01b031690565b803b156100d457600082916004604051809481937fd0e30db00000000000000000000000000000000000000000000000000000000083525af180156104155760009260209261139a926113c6575b5061135661019d61019d86546001600160a01b031690565b6040517fa9059cbb00000000000000000000000000000000000000000000000000000000815233600482015260248101929092529093849283919082906044820190565b03925af18015610415576113ab5750565b6113c39060203d602011610440576104338183610ab2565b50565b80610409866113d493610ab2565b3861133e565b6113fc915060203d602011611402575b6113f48183610ab2565b8101906110ab565b386112a7565b503d6113ea565b50600087136111c2565b6114786114639161013c936001600160a01b036040519485937f319af333000000000000000000000000000000000000000000000000000000006020860152604060248601526064850190610daa565b9116604483015203601f198101835282610ab2565b611633565b6114c461147861013c926040519283917f41304fac000000000000000000000000000000000000000000000000000000006020840152602060248401526044830190610daa565b03601f198101835282610ab2565b61013c90604051907f2d5b6cb9000000000000000000000000000000000000000000000000000000006020830152602482015260248152611478604482610ab2565b61013c906001600160a01b03604051917f2c2ecbc200000000000000000000000000000000000000000000000000000000602084015216602482015260248152611478604482610ab2565b61013c90604051907ff82c50f1000000000000000000000000000000000000000000000000000000006020830152602482015260248152611478604482610ab2565b906115b46014600084519050101561164e565b602082015160601c9160178151106115ef576115ec601762ffffff81840151166115e3627fffff821115611709565b60020b92611699565b91565b606460405162461bcd60e51b815260206004820152600360248201527f554f4200000000000000000000000000000000000000000000000000000000006044820152fd5b600080916020815191016a636f6e736f6c652e6c6f675afa50565b1561165557565b606460405162461bcd60e51b815260206004820152600360248201527f414f4200000000000000000000000000000000000000000000000000000000006044820152fd5b906014810191828211610cf4578183106116c5576116bc6020938251101561164e565b01015160601c90565b606460405162461bcd60e51b815260206004820152600260248201527f414f0000000000000000000000000000000000000000000000000000000000006044820152fd5b1561171057565b606460405162461bcd60e51b815260206004820152600260248201527f494f0000000000000000000000000000000000000000000000000000000000006044820152fdfea26469706673582212202f6fb7bf7bbb1b4c3f67febf231323d230f107ab8991d88ea3d09437c15e4b8664736f6c634300081a0033",
  "linkReferences": {},
  "deployedLinkReferences": {}
}