{
  "_format": "hh-sol-artifact-1",
  "contractName": "StremeAutoStaker",
  "sourceName": "contracts/extras/StremeAutoStaker.sol",
  "abi": [
    {
      "inputs": [
        {
          "internalType": "contract IStremeZap",
          "name": "_zapContract",
          "type": "address"
        }
      ],
      "stateMutability": "nonpayable",
      "type": "constructor"
    },
    {
      "inputs": [],
      "name": "AccessControlBadConfirmation",
      "type": "error"
    },
    {
      "inputs": [
        {
          "internalType": "address",
          "name": "account",
          "type": "address"
        },
        {
          "internalType": "bytes32",
          "name": "neededRole",
          "type": "bytes32"
        }
      ],
      "name": "AccessControlUnauthorizedAccount",
      "type": "error"
    },
    {
      "anonymous": false,
      "inputs": [
        {
          "indexed": true,
          "internalType": "bytes32",
          "name": "role",
          "type": "bytes32"
        },
        {
          "indexed": true,
          "internalType": "bytes32",
          "name": "previousAdminRole",
          "type": "bytes32"
        },
        {
          "indexed": true,
          "internalType": "bytes32",
          "name": "newAdminRole",
          "type": "bytes32"
        }
      ],
      "name": "RoleAdminChanged",
      "type": "event"
    },
    {
      "anonymous": false,
      "inputs": [
        {
          "indexed": true,
          "internalType": "bytes32",
          "name": "role",
          "type": "bytes32"
        },
        {
          "indexed": true,
          "internalType": "address",
          "name": "account",
          "type": "address"
        },
        {
          "indexed": true,
          "internalType": "address",
          "name": "sender",
          "type": "address"
        }
      ],
      "name": "RoleGranted",
      "type": "event"
    },
    {
      "anonymous": false,
      "inputs": [
        {
          "indexed": true,
          "internalType": "bytes32",
          "name": "role",
          "type": "bytes32"
        },
        {
          "indexed": true,
          "internalType": "address",
          "name": "account",
          "type": "address"
        },
        {
          "indexed": true,
          "internalType": "address",
          "name": "sender",
          "type": "address"
        }
      ],
      "name": "RoleRevoked",
      "type": "event"
    },
    {
      "inputs": [],
      "name": "DEFAULT_ADMIN_ROLE",
      "outputs": [
        {
          "internalType": "bytes32",
          "name": "",
          "type": "bytes32"
        }
      ],
      "stateMutability": "view",
      "type": "function"
    },
    {
      "inputs": [],
      "name": "MANAGER_ROLE",
      "outputs": [
        {
          "internalType": "bytes32",
          "name": "",
          "type": "bytes32"
        }
      ],
      "stateMutability": "view",
      "type": "function"
    },
    {
      "inputs": [
        {
          "internalType": "address[]",
          "name": "stakedTokens",
          "type": "address[]"
        },
        {
          "internalType": "address",
          "name": "recipient",
          "type": "address"
        }
      ],
      "name": "autoStake",
      "outputs": [],
      "stateMutability": "nonpayable",
      "type": "function"
    },
    {
      "inputs": [
        {
          "internalType": "bytes32",
          "name": "role",
          "type": "bytes32"
        }
      ],
      "name": "getRoleAdmin",
      "outputs": [
        {
          "internalType": "bytes32",
          "name": "",
          "type": "bytes32"
        }
      ],
      "stateMutability": "view",
      "type": "function"
    },
    {
      "inputs": [
        {
          "internalType": "bytes32",
          "name": "role",
          "type": "bytes32"
        },
        {
          "internalType": "address",
          "name": "account",
          "type": "address"
        }
      ],
      "name": "grantRole",
      "outputs": [],
      "stateMutability": "nonpayable",
      "type": "function"
    },
    {
      "inputs": [
        {
          "internalType": "bytes32",
          "name": "role",
          "type": "bytes32"
        },
        {
          "internalType": "address",
          "name": "account",
          "type": "address"
        }
      ],
      "name": "hasRole",
      "outputs": [
        {
          "internalType": "bool",
          "name": "",
          "type": "bool"
        }
      ],
      "stateMutability": "view",
      "type": "function"
    },
    {
      "inputs": [
        {
          "internalType": "bytes32",
          "name": "role",
          "type": "bytes32"
        },
        {
          "internalType": "address",
          "name": "callerConfirmation",
          "type": "address"
        }
      ],
      "name": "renounceRole",
      "outputs": [],
      "stateMutability": "nonpayable",
      "type": "function"
    },
    {
      "inputs": [
        {
          "internalType": "bytes32",
          "name": "role",
          "type": "bytes32"
        },
        {
          "internalType": "address",
          "name": "account",
          "type": "address"
        }
      ],
      "name": "revokeRole",
      "outputs": [],
      "stateMutability": "nonpayable",
      "type": "function"
    },
    {
      "inputs": [
        {
          "internalType": "contract IStremeZap",
          "name": "_zapContract",
          "type": "address"
        }
      ],
      "name": "setZapContract",
      "outputs": [],
      "stateMutability": "nonpayable",
      "type": "function"
    },
    {
      "inputs": [
        {
          "internalType": "bytes4",
          "name": "interfaceId",
          "type": "bytes4"
        }
      ],
      "name": "supportsInterface",
      "outputs": [
        {
          "internalType": "bool",
          "name": "",
          "type": "bool"
        }
      ],
      "stateMutability": "view",
      "type": "function"
    },
    {
      "inputs": [
        {
          "internalType": "contract IERC20",
          "name": "token",
          "type": "address"
        }
      ],
      "name": "withdraw",
      "outputs": [],
      "stateMutability": "nonpayable",
      "type": "function"
    },
    {
      "inputs": [],
      "name": "zapContract",
      "outputs": [
        {
          "internalType": "contract IStremeZap",
          "name": "",
          "type": "address"
        }
      ],
      "stateMutability": "view",
      "type": "function"
    },
    {
      "stateMutability": "payable",
      "type": "receive"
    }
  ],
  "bytecode": "0x60803461008857601f610ece38819003918201601f19168301916001600160401b0383118484101761008d5780849260209460405283398101031261008857516001600160a01b038116908190036100885761005a336100a3565b506100643361011f565b50600180546001600160a01b031916919091179055604051610cb690816101b88239f35b600080fd5b634e487b7160e01b600052604160045260246000fd5b6001600160a01b0381166000908152600080516020610eae833981519152602052604090205460ff16610119576001600160a01b03166000818152600080516020610eae83398151915260205260408120805460ff19166001179055339190600080516020610e6e8339815191528180a4600190565b50600090565b6001600160a01b0381166000908152600080516020610e8e833981519152602052604090205460ff16610119576001600160a01b03166000818152600080516020610e8e83398151915260205260408120805460ff191660011790553391907f241ecf16d79d0f8dbfb92cbc07fe17840425976cf0667f022fe9877caa831b0890600080516020610e6e8339815191529080a460019056fe608080604052600436101561001d575b50361561001b57600080fd5b005b60003560e01c90816301ffc9a71461095057508063248a9ca31461091b5780632549dad9146108f45780632f2ff15d146108b457806336568abe146108555780633ec6db7e1461038f57806351cff8d9146101f857806391d14854146101aa578063a217fddf1461018e578063d547741f14610149578063ec87621c1461010e5763fcaa8737146100ae573861000f565b34610109576020600319360112610109576004356001600160a01b038116809103610109576100db610a6c565b7fffffffffffffffffffffffff00000000000000000000000000000000000000006001541617600155600080f35b600080fd5b346101095760006003193601126101095760206040517f241ecf16d79d0f8dbfb92cbc07fe17840425976cf0667f022fe9877caa831b088152f35b346101095760406003193601126101095761001b6004356101686109ee565b9061018961018482600052600060205260016040600020015490565b610af7565b610bf1565b3461010957600060031936011261010957602060405160008152f35b34610109576040600319360112610109576101c36109ee565b60043560005260006020526001600160a01b0360406000209116600052602052602060ff604060002054166040519015158152f35b34610109576020600319360112610109576004356001600160a01b03811680910361010957610225610a6c565b6040517f70a08231000000000000000000000000000000000000000000000000000000008152306004820152602081602481855afa80156103505760009061035c575b602091506040519283917fa9059cbb0000000000000000000000000000000000000000000000000000000083523360048401526024830152816000604482800301925af190811561035057600091610321575b50156102c357005b60646040517f08c379a000000000000000000000000000000000000000000000000000000000815260206004820152601560248201527f546f6b656e207472616e73666572206661696c656400000000000000000000006044820152fd5b610343915060203d602011610349575b61033b8183610a04565b810190610a54565b816102bb565b503d610331565b6040513d6000823e3d90fd5b506020813d602011610387575b8161037660209383610a04565b810103126101095760209051610268565b3d9150610369565b346101095760406003193601126101095760043567ffffffffffffffff811161010957366023820112156101095780600401359067ffffffffffffffff8211610826578160051b90604051926103e86020840185610a04565b8352602460208401928201019036821161010957602401915b81831061080657836104116109ee565b9061041a610a6c565b6001600160a01b0360009216905b805183101561001b576000926001600160a01b0360208260051b8401015116846040517fee5361b3000000000000000000000000000000000000000000000000000000008152602081600481865afa80156107fb5782906107b3575b6001600160a01b039150166040517f70a08231000000000000000000000000000000000000000000000000000000008152306004820152602081602481855afa9081156106dd578391610782575b50156106e8575b6040517fdd62ed3e000000000000000000000000000000000000000000000000000000008152306004820152836024820152602081604481855afa9081156106dd5783916106a8575b50156105a9575b5090803b156105a55781906044604051809481937fadc9772e000000000000000000000000000000000000000000000000000000008352896004840152600160248401525af1801561059a5794600193949561058a575b5050019190610428565b61059391610a04565b8480610580565b6040513d87823e3d90fd5b5080fd5b6020906044604051809481937f095ea7b30000000000000000000000000000000000000000000000000000000083528760048401527fffffffffffffffffffffffffffffffffffffffffffffffffffffffffffffffff60248401525af190811561069d57869161067f575b5015610621578486610529565b60646040517f08c379a000000000000000000000000000000000000000000000000000000000815260206004820152602060248201527f537472656d654175746f5374616b65723a20617070726f7665206661696c65646044820152fd5b610697915060203d81116103495761033b8183610a04565b86610614565b6040513d88823e3d90fd5b90506020813d82116106d5575b816106c260209383610a04565b810103126106d1575188610522565b8280fd5b3d91506106b5565b6040513d85823e3d90fd5b6509184e72a00060206001600160a01b03600154166084604051809481937fb60347a30000000000000000000000000000000000000000000000000000000083528760048401528160248401528860448401528860648401525af180156106dd57610754575b506104d9565b6107749060203d811161077b575b61076c8183610a04565b810190610a45565b508761074e565b503d610762565b90506020813d82116107ab575b8161079c60209383610a04565b810103126106d15751886104d2565b3d915061078f565b506020813d82116107f3575b816107cc60209383610a04565b810103126105a557516001600160a01b03811681036105a5576001600160a01b0390610484565b3d91506107bf565b6040513d84823e3d90fd5b82356001600160a01b038116810361010957815260209283019201610401565b7f4e487b7100000000000000000000000000000000000000000000000000000000600052604160045260246000fd5b346101095760406003193601126101095761086e6109ee565b336001600160a01b0382160361088a5761001b90600435610bf1565b7f6697b2320000000000000000000000000000000000000000000000000000000060005260046000fd5b346101095760406003193601126101095761001b6004356108d36109ee565b906108ef61018482600052600060205260016040600020015490565b610b57565b346101095760006003193601126101095760206001600160a01b0360015416604051908152f35b34610109576020600319360112610109576020610948600435600052600060205260016040600020015490565b604051908152f35b3461010957602060031936011261010957600435907fffffffff00000000000000000000000000000000000000000000000000000000821680920361010957817f7965db0b00000000000000000000000000000000000000000000000000000000602093149081156109c4575b5015158152f35b7f01ffc9a700000000000000000000000000000000000000000000000000000000915014836109bd565b602435906001600160a01b038216820361010957565b90601f7fffffffffffffffffffffffffffffffffffffffffffffffffffffffffffffffe0910116810190811067ffffffffffffffff82111761082657604052565b90816020910312610109575190565b90816020910312610109575180151581036101095790565b3360009081527fe84508f2c7fa9c351146748b3025cb78b45df37d868e48c6a75102fecdeee645602052604090205460ff1615610aa557565b7fe2517d3f00000000000000000000000000000000000000000000000000000000600052336004527f241ecf16d79d0f8dbfb92cbc07fe17840425976cf0667f022fe9877caa831b0860245260446000fd5b80600052600060205260406000206001600160a01b03331660005260205260ff6040600020541615610b265750565b7fe2517d3f000000000000000000000000000000000000000000000000000000006000523360045260245260446000fd5b80600052600060205260406000206001600160a01b03831660005260205260ff6040600020541615600014610bea5780600052600060205260406000206001600160a01b0383166000526020526040600020600160ff198254161790556001600160a01b03339216907f2f8788117e7eff1d82e926ec794901d17c78024a50270940304540a733656f0d600080a4600190565b5050600090565b80600052600060205260406000206001600160a01b03831660005260205260ff60406000205416600014610bea5780600052600060205260406000206001600160a01b038316600052602052604060002060ff1981541690556001600160a01b03339216907ff6391f5c32d9c69d2a47ea670b442974b53935d1edc7fd64eb21e047a839171b600080a460019056fea2646970667358221220fd825e4a54a0fd9d262c1eb8425f7e50168de9d5b53aa99c77a5a7c260f06f6064736f6c634300081a00332f8788117e7eff1d82e926ec794901d17c78024a50270940304540a733656f0de84508f2c7fa9c351146748b3025cb78b45df37d868e48c6a75102fecdeee645ad3228b676f7d3cd4284a5443f17f1962b36e491b30a40b2405849e597ba5fb5",
  "linkReferences": {},
  "deployedLinkReferences": {}
}