{
  "_format": "hh-sol-artifact-1",
  "contractName": "StremeDeploy",
  "sourceName": "contracts/extras/StremeDeploy.sol",
  "abi": [
    {
      "inputs": [
        {
          "internalType": "contract IStreme",
          "name": "_streme",
          "type": "address"
        }
      ],
      "stateMutability": "nonpayable",
      "type": "constructor"
    },
    {
      "inputs": [
        {
          "internalType": "address",
          "name": "tokenFactory",
          "type": "address"
        },
        {
          "internalType": "address",
          "name": "postDeployHook",
          "type": "address"
        },
        {
          "internalType": "address",
          "name": "liquidityFactory",
          "type": "address"
        },
        {
          "internalType": "address",
          "name": "postLPHook",
          "type": "address"
        },
        {
          "components": [
            {
              "internalType": "string",
              "name": "_name",
              "type": "string"
            },
            {
              "internalType": "string",
              "name": "_symbol",
              "type": "string"
            },
            {
              "internalType": "uint256",
              "name": "_supply",
              "type": "uint256"
            },
            {
              "internalType": "uint24",
              "name": "_fee",
              "type": "uint24"
            },
            {
              "internalType": "bytes32",
              "name": "_salt",
              "type": "bytes32"
            },
            {
              "internalType": "address",
              "name": "_deployer",
              "type": "address"
            },
            {
              "internalType": "uint256",
              "name": "_fid",
              "type": "uint256"
            },
            {
              "internalType": "string",
              "name": "_image",
              "type": "string"
            },
            {
              "internalType": "string",
              "name": "_castHash",
              "type": "string"
            },
            {
              "components": [
                {
                  "internalType": "int24",
                  "name": "tick",
                  "type": "int24"
                },
                {
                  "internalType": "address",
                  "name": "pairedToken",
                  "type": "address"
                },
                {
                  "internalType": "uint24",
                  "name": "devBuyFee",
                  "type": "uint24"
                }
              ],
              "internalType": "struct IStreme.PoolConfig",
              "name": "_poolConfig",
              "type": "tuple"
            }
          ],
          "internalType": "struct IStreme.PreSaleTokenConfig",
          "name": "preSaleTokenConfig",
          "type": "tuple"
        }
      ],
      "name": "deploy",
      "outputs": [
        {
          "internalType": "address",
          "name": "token",
          "type": "address"
        },
        {
          "internalType": "uint256",
          "name": "liquidityId",
          "type": "uint256"
        }
      ],
      "stateMutability": "payable",
      "type": "function"
    },
    {
      "inputs": [],
      "name": "streme",
      "outputs": [
        {
          "internalType": "contract IStreme",
          "name": "",
          "type": "address"
        }
      ],
      "stateMutability": "view",
      "type": "function"
    }
  ],
  "bytecode": "0x608034607057601f6105ea38819003918201601f19168301916001600160401b03831184841017607557808492602094604052833981010312607057516001600160a01b03811690819003607057600080546001600160a01b03191691909117905560405161055e908161008c8239f35b600080fd5b634e487b7160e01b600052604160045260246000fdfe608080604052600436101561001357600080fd5b60003560e01c908163021a1abf14610425575063bcbb74931461003557600080fd5b60a06003193601126103f1576004356001600160a01b0381168091036103f157602435906001600160a01b0382168092036103f157604435916001600160a01b0383168093036103f157606435916001600160a01b0383168093036103f15760843567ffffffffffffffff81116103f1578036036101806003198201126103f157604051610140810181811067ffffffffffffffff8211176103f657604052826004013567ffffffffffffffff81116103f1576100f89060043691860101610480565b8152602483013567ffffffffffffffff81116103f15761011e9060043691860101610480565b906020810191825260408101916044850135835261013e606486016104d7565b60608301908152608083016084870135815261015c60a48801610449565b9160a0850192835260c085019360c4890135855260e489013567ffffffffffffffff81116103f15761019490600436918c0101610480565b9560e081019687526101048a013567ffffffffffffffff81116103f1577ffffffffffffffffffffffffffffffffffffffffffffffffffffffffffffffedc6101e48c600460609436920101610480565b9a61010084019b8c5201126103f1576040519960608b018b811067ffffffffffffffff8211176103f6576040526101248101358060020b81036103f1578b526102306101448201610449565b60208c015261016401610242906104d7565b60408b01526101208101998a526000546001600160a01b03169c6040519e8f9d8e809e7fe8c59f3700000000000000000000000000000000000000000000000000000000825260048201526024015260448d015260648c015260848b0160a090525160a48b0161018090526102248b016102bb916104e7565b9051908a810360a3190160c48c01526102d3916104e7565b955160e48a01525162ffffff1661010489015251610124880152516001600160a01b031661014487015251610164860152519084810360a3190161018486015261031c916104e7565b90519083810360a319016101a4850152610335916104e7565b9051805160020b6101c484015260208101516001600160a01b03166101e48401526040015162ffffff1661020483015203815a604094600091f180156103e5576000908190610398575b604092506001600160a01b038351921682526020820152f35b506040823d6040116103dd575b816103b26040938361045d565b810103126103da578151906001600160a01b03821682036103da57506020604092015161037f565b80fd5b3d91506103a5565b6040513d6000823e3d90fd5b600080fd5b7f4e487b7100000000000000000000000000000000000000000000000000000000600052604160045260246000fd5b346103f15760006003193601126103f1576020906001600160a01b03600054168152f35b35906001600160a01b03821682036103f157565b90601f601f19910116810190811067ffffffffffffffff8211176103f657604052565b81601f820112156103f15780359067ffffffffffffffff82116103f657604051926104b56020601f19601f860116018561045d565b828452602083830101116103f157816000926020809301838601378301015290565b359062ffffff821682036103f157565b919082519283825260005b848110610513575050601f19601f8460006020809697860101520116010190565b806020809284010151828286010152016104f256fea2646970667358221220d7a1c815f912ed55aa45845fab4f55399e35d6f3ba85391f8f32d65b001dd14164736f6c634300081a0033",
  "linkReferences": {},
  "deployedLinkReferences": {}
}