{
  "_format": "hh-sol-artifact-1",
  "contractName": "StremePreBuyFactory",
  "sourceName": "contracts/postlp/prebuy/StremePreBuyFactory.sol",
  "abi": [
    {
      "inputs": [
        {
          "internalType": "contract IStremePreBuyETH",
          "name": "_implementation",
          "type": "address"
        }
      ],
      "stateMutability": "nonpayable",
      "type": "constructor"
    },
    {
      "inputs": [],
      "name": "AccessControlBadConfirmation",
      "type": "error"
    },
    {
      "inputs": [
        {
          "internalType": "address",
          "name": "account",
          "type": "address"
        },
        {
          "internalType": "bytes32",
          "name": "neededRole",
          "type": "bytes32"
        }
      ],
      "name": "AccessControlUnauthorizedAccount",
      "type": "error"
    },
    {
      "inputs": [],
      "name": "FailedDeployment",
      "type": "error"
    },
    {
      "inputs": [
        {
          "internalType": "uint256",
          "name": "balance",
          "type": "uint256"
        },
        {
          "internalType": "uint256",
          "name": "needed",
          "type": "uint256"
        }
      ],
      "name": "InsufficientBalance",
      "type": "error"
    },
    {
      "anonymous": false,
      "inputs": [
        {
          "indexed": true,
          "internalType": "address",
          "name": "token",
          "type": "address"
        },
        {
          "indexed": false,
          "internalType": "address",
          "name": "preBuyAddress",
          "type": "address"
        },
        {
          "indexed": false,
          "internalType": "address",
          "name": "admin",
          "type": "address"
        }
      ],
      "name": "PreBuyCreated",
      "type": "event"
    },
    {
      "anonymous": false,
      "inputs": [
        {
          "indexed": true,
          "internalType": "bytes32",
          "name": "role",
          "type": "bytes32"
        },
        {
          "indexed": true,
          "internalType": "bytes32",
          "name": "previousAdminRole",
          "type": "bytes32"
        },
        {
          "indexed": true,
          "internalType": "bytes32",
          "name": "newAdminRole",
          "type": "bytes32"
        }
      ],
      "name": "RoleAdminChanged",
      "type": "event"
    },
    {
      "anonymous": false,
      "inputs": [
        {
          "indexed": true,
          "internalType": "bytes32",
          "name": "role",
          "type": "bytes32"
        },
        {
          "indexed": true,
          "internalType": "address",
          "name": "account",
          "type": "address"
        },
        {
          "indexed": true,
          "internalType": "address",
          "name": "sender",
          "type": "address"
        }
      ],
      "name": "RoleGranted",
      "type": "event"
    },
    {
      "anonymous": false,
      "inputs": [
        {
          "indexed": true,
          "internalType": "bytes32",
          "name": "role",
          "type": "bytes32"
        },
        {
          "indexed": true,
          "internalType": "address",
          "name": "account",
          "type": "address"
        },
        {
          "indexed": true,
          "internalType": "address",
          "name": "sender",
          "type": "address"
        }
      ],
      "name": "RoleRevoked",
      "type": "event"
    },
    {
      "inputs": [],
      "name": "DEFAULT_ADMIN_ROLE",
      "outputs": [
        {
          "internalType": "bytes32",
          "name": "",
          "type": "bytes32"
        }
      ],
      "stateMutability": "view",
      "type": "function"
    },
    {
      "inputs": [],
      "name": "MANAGER_ROLE",
      "outputs": [
        {
          "internalType": "bytes32",
          "name": "",
          "type": "bytes32"
        }
      ],
      "stateMutability": "view",
      "type": "function"
    },
    {
      "inputs": [
        {
          "internalType": "address",
          "name": "_token",
          "type": "address"
        },
        {
          "components": [
            {
              "internalType": "uint256",
              "name": "minDeposit",
              "type": "uint256"
            },
            {
              "internalType": "uint256",
              "name": "maxDeposit",
              "type": "uint256"
            },
            {
              "internalType": "uint256",
              "name": "totalCap",
              "type": "uint256"
            },
            {
              "internalType": "uint256",
              "name": "lockupDuration",
              "type": "uint256"
            },
            {
              "internalType": "uint256",
              "name": "vestingDuration",
              "type": "uint256"
            }
          ],
          "internalType": "struct IStremePreBuyETH.PreBuySettings",
          "name": "_preBuySettings",
          "type": "tuple"
        },
        {
          "internalType": "address",
          "name": "_admin",
          "type": "address"
        }
      ],
      "name": "createPreBuy",
      "outputs": [
        {
          "internalType": "contract IStremePreBuyETH",
          "name": "",
          "type": "address"
        }
      ],
      "stateMutability": "nonpayable",
      "type": "function"
    },
    {
      "inputs": [
        {
          "internalType": "bytes32",
          "name": "role",
          "type": "bytes32"
        }
      ],
      "name": "getRoleAdmin",
      "outputs": [
        {
          "internalType": "bytes32",
          "name": "",
          "type": "bytes32"
        }
      ],
      "stateMutability": "view",
      "type": "function"
    },
    {
      "inputs": [
        {
          "internalType": "bytes32",
          "name": "role",
          "type": "bytes32"
        },
        {
          "internalType": "address",
          "name": "account",
          "type": "address"
        }
      ],
      "name": "grantRole",
      "outputs": [],
      "stateMutability": "nonpayable",
      "type": "function"
    },
    {
      "inputs": [
        {
          "internalType": "bytes32",
          "name": "role",
          "type": "bytes32"
        },
        {
          "internalType": "address",
          "name": "account",
          "type": "address"
        }
      ],
      "name": "hasRole",
      "outputs": [
        {
          "internalType": "bool",
          "name": "",
          "type": "bool"
        }
      ],
      "stateMutability": "view",
      "type": "function"
    },
    {
      "inputs": [],
      "name": "implementation",
      "outputs": [
        {
          "internalType": "contract IStremePreBuyETH",
          "name": "",
          "type": "address"
        }
      ],
      "stateMutability": "view",
      "type": "function"
    },
    {
      "inputs": [
        {
          "internalType": "bytes32",
          "name": "role",
          "type": "bytes32"
        },
        {
          "internalType": "address",
          "name": "callerConfirmation",
          "type": "address"
        }
      ],
      "name": "renounceRole",
      "outputs": [],
      "stateMutability": "nonpayable",
      "type": "function"
    },
    {
      "inputs": [
        {
          "internalType": "bytes32",
          "name": "role",
          "type": "bytes32"
        },
        {
          "internalType": "address",
          "name": "account",
          "type": "address"
        }
      ],
      "name": "revokeRole",
      "outputs": [],
      "stateMutability": "nonpayable",
      "type": "function"
    },
    {
      "inputs": [
        {
          "internalType": "contract IStremePreBuyETH",
          "name": "_implementation",
          "type": "address"
        }
      ],
      "name": "setImplementation",
      "outputs": [],
      "stateMutability": "nonpayable",
      "type": "function"
    },
    {
      "inputs": [
        {
          "internalType": "bytes4",
          "name": "interfaceId",
          "type": "bytes4"
        }
      ],
      "name": "supportsInterface",
      "outputs": [
        {
          "internalType": "bool",
          "name": "",
          "type": "bool"
        }
      ],
      "stateMutability": "view",
      "type": "function"
    }
  ],
  "bytecode": "0x60803461008857601f610a8838819003918201601f19168301916001600160401b0383118484101761008d5780849260209460405283398101031261008857516001600160a01b0381169081900361008857600180546001600160a01b03191691909117905561006e336100a3565b506100783361011f565b5060405161087090816101b88239f35b600080fd5b634e487b7160e01b600052604160045260246000fd5b6001600160a01b0381166000908152600080516020610a68833981519152602052604090205460ff16610119576001600160a01b03166000818152600080516020610a6883398151915260205260408120805460ff19166001179055339190600080516020610a288339815191528180a4600190565b50600090565b6001600160a01b0381166000908152600080516020610a48833981519152602052604090205460ff16610119576001600160a01b03166000818152600080516020610a4883398151915260205260408120805460ff191660011790553391907f241ecf16d79d0f8dbfb92cbc07fe17840425976cf0667f022fe9877caa831b0890600080516020610a288339815191529080a460019056fe608080604052600436101561001357600080fd5b600090813560e01c90816301ffc9a7146105f257508063248a9ca3146105bc5780632f2ff15d1461057b57806336568abe1461051d5780635c60da1b146104f65780638d79b59b1461027857806391d148541461022c578063a217fddf14610210578063d547741f146101c6578063d784d426146100d75763ec87621c1461009a57600080fd5b346100d457806003193601126100d45760206040517f241ecf16d79d0f8dbfb92cbc07fe17840425976cf0667f022fe9877caa831b088152f35b80fd5b50346100d45760206003193601126100d4576004356001600160a01b0381168091036101c2577f241ecf16d79d0f8dbfb92cbc07fe17840425976cf0667f022fe9877caa831b08825281602052604082206001600160a01b03331660005260205260ff6040600020541615610172577fffffffffffffffffffffffff0000000000000000000000000000000000000000600154161760015580f35b6044827fe2517d3f000000000000000000000000000000000000000000000000000000008152336004527f241ecf16d79d0f8dbfb92cbc07fe17840425976cf0667f022fe9877caa831b08602452fd5b5080fd5b50346100d45760406003193601126100d45761020c6004356101e6610696565b9061020761020282600052600060205260016040600020015490565b6106b1565b6107ab565b5080f35b50346100d457806003193601126100d457602090604051908152f35b50346100d45760406003193601126100d4576001600160a01b036040610250610696565b92600435815280602052209116600052602052602060ff604060002054166040519015158152f35b50346100d45760e06003193601126100d4576004356001600160a01b0381168091036101c25760a07fffffffffffffffffffffffffffffffffffffffffffffffffffffffffffffffdc3601126101c2576040519060a0820182811067ffffffffffffffff8211176104c95760405260243582526020820191604435835260408101906064358252606081016084358152608082019060a435825260c435936001600160a01b0385168095036104c5576e5af43d82803e903d91602b57fd5bf37fffffffffffffffffffffffffffffffffff000000000000000000000000000000600154763d602d80600a3d3981f3363d3d373d3d3d363d7300000062ffffff8260881c16178b5260781b16176020526001600160a01b03603760098af01696871561049d57873b1561049957604051947f543d1dad0000000000000000000000000000000000000000000000000000000086528760048701525160248601525160448501525160648401525160848301525160a48201528160c4820152848160e48183885af1801561048e57610444575b602084847f1a4f680f083c6c606780e9f9fd7ab54c519424be1138cb817413202cc2c0231e60408681519085825286820152a2604051908152f35b67ffffffffffffffff811161046157604090815260209450610409565b6024857f4e487b710000000000000000000000000000000000000000000000000000000081526041600452fd5b6040513d87823e3d90fd5b8880fd5b6004897fb06ebf3d000000000000000000000000000000000000000000000000000000008152fd5b8780fd5b6024847f4e487b710000000000000000000000000000000000000000000000000000000081526041600452fd5b50346100d457806003193601126100d45760206001600160a01b0360015416604051908152f35b50346100d45760406003193601126100d457610537610696565b336001600160a01b038216036105535761020c906004356107ab565b6004827f6697b232000000000000000000000000000000000000000000000000000000008152fd5b50346100d45760406003193601126100d45761020c60043561059b610696565b906105b761020282600052600060205260016040600020015490565b610711565b50346100d45760206003193601126100d45760206105ea600435600052600060205260016040600020015490565b604051908152f35b9050346101c25760206003193601126101c2576004357fffffffff00000000000000000000000000000000000000000000000000000000811680910361069257602092507f7965db0b000000000000000000000000000000000000000000000000000000008114908115610668575b5015158152f35b7f01ffc9a70000000000000000000000000000000000000000000000000000000091501438610661565b8280fd5b602435906001600160a01b03821682036106ac57565b600080fd5b80600052600060205260406000206001600160a01b03331660005260205260ff60406000205416156106e05750565b7fe2517d3f000000000000000000000000000000000000000000000000000000006000523360045260245260446000fd5b80600052600060205260406000206001600160a01b03831660005260205260ff60406000205416156000146107a45780600052600060205260406000206001600160a01b0383166000526020526040600020600160ff198254161790556001600160a01b03339216907f2f8788117e7eff1d82e926ec794901d17c78024a50270940304540a733656f0d600080a4600190565b5050600090565b80600052600060205260406000206001600160a01b03831660005260205260ff604060002054166000146107a45780600052600060205260406000206001600160a01b038316600052602052604060002060ff1981541690556001600160a01b03339216907ff6391f5c32d9c69d2a47ea670b442974b53935d1edc7fd64eb21e047a839171b600080a460019056fea2646970667358221220334b7330400e6948a38d5f8e834a44bdf0ed2b0caa20f901b5e1cec3ba86002864736f6c634300081a00332f8788117e7eff1d82e926ec794901d17c78024a50270940304540a733656f0de84508f2c7fa9c351146748b3025cb78b45df37d868e48c6a75102fecdeee645ad3228b676f7d3cd4284a5443f17f1962b36e491b30a40b2405849e597ba5fb5",
  "linkReferences": {},
  "deployedLinkReferences": {}
}