{
  "_format": "hh-sol-artifact-1",
  "contractName": "LPFactoryAero",
  "sourceName": "contracts/liquidity/aerodrome/LPFactoryAero.sol",
  "abi": [
    {
      "inputs": [
        {
          "internalType": "address",
          "name": "_poolLauncher",
          "type": "address"
        },
        {
          "internalType": "address",
          "name": "_feeCollector",
          "type": "address"
        }
      ],
      "stateMutability": "nonpayable",
      "type": "constructor"
    },
    {
      "inputs": [],
      "name": "AccessControlBadConfirmation",
      "type": "error"
    },
    {
      "inputs": [
        {
          "internalType": "address",
          "name": "account",
          "type": "address"
        },
        {
          "internalType": "bytes32",
          "name": "neededRole",
          "type": "bytes32"
        }
      ],
      "name": "AccessControlUnauthorizedAccount",
      "type": "error"
    },
    {
      "inputs": [],
      "name": "Invalid",
      "type": "error"
    },
    {
      "inputs": [],
      "name": "NotFound",
      "type": "error"
    },
    {
      "inputs": [],
      "name": "Unauthorized",
      "type": "error"
    },
    {
      "anonymous": false,
      "inputs": [
        {
          "indexed": true,
          "internalType": "address",
          "name": "lockerAddress",
          "type": "address"
        },
        {
          "indexed": true,
          "internalType": "address",
          "name": "deployer",
          "type": "address"
        },
        {
          "indexed": true,
          "internalType": "address",
          "name": "token",
          "type": "address"
        },
        {
          "indexed": false,
          "internalType": "address",
          "name": "poolAddress",
          "type": "address"
        },
        {
          "indexed": false,
          "internalType": "uint256",
          "name": "tokenId",
          "type": "uint256"
        }
      ],
      "name": "LPCreated",
      "type": "event"
    },
    {
      "anonymous": false,
      "inputs": [
        {
          "indexed": true,
          "internalType": "bytes32",
          "name": "role",
          "type": "bytes32"
        },
        {
          "indexed": true,
          "internalType": "bytes32",
          "name": "previousAdminRole",
          "type": "bytes32"
        },
        {
          "indexed": true,
          "internalType": "bytes32",
          "name": "newAdminRole",
          "type": "bytes32"
        }
      ],
      "name": "RoleAdminChanged",
      "type": "event"
    },
    {
      "anonymous": false,
      "inputs": [
        {
          "indexed": true,
          "internalType": "bytes32",
          "name": "role",
          "type": "bytes32"
        },
        {
          "indexed": true,
          "internalType": "address",
          "name": "account",
          "type": "address"
        },
        {
          "indexed": true,
          "internalType": "address",
          "name": "sender",
          "type": "address"
        }
      ],
      "name": "RoleGranted",
      "type": "event"
    },
    {
      "anonymous": false,
      "inputs": [
        {
          "indexed": true,
          "internalType": "bytes32",
          "name": "role",
          "type": "bytes32"
        },
        {
          "indexed": true,
          "internalType": "address",
          "name": "account",
          "type": "address"
        },
        {
          "indexed": true,
          "internalType": "address",
          "name": "sender",
          "type": "address"
        }
      ],
      "name": "RoleRevoked",
      "type": "event"
    },
    {
      "inputs": [],
      "name": "DEFAULT_ADMIN_ROLE",
      "outputs": [
        {
          "internalType": "bytes32",
          "name": "",
          "type": "bytes32"
        }
      ],
      "stateMutability": "view",
      "type": "function"
    },
    {
      "inputs": [],
      "name": "DEPLOYER_ROLE",
      "outputs": [
        {
          "internalType": "bytes32",
          "name": "",
          "type": "bytes32"
        }
      ],
      "stateMutability": "view",
      "type": "function"
    },
    {
      "inputs": [
        {
          "internalType": "address",
          "name": "token",
          "type": "address"
        }
      ],
      "name": "claimRewards",
      "outputs": [],
      "stateMutability": "nonpayable",
      "type": "function"
    },
    {
      "inputs": [
        {
          "internalType": "contract IERC20",
          "name": "token",
          "type": "address"
        },
        {
          "internalType": "address",
          "name": "pairedToken",
          "type": "address"
        },
        {
          "internalType": "int24",
          "name": "tick",
          "type": "int24"
        },
        {
          "internalType": "uint24",
          "name": "fee",
          "type": "uint24"
        },
        {
          "internalType": "uint256",
          "name": "supplyPerPool",
          "type": "uint256"
        },
        {
          "internalType": "address",
          "name": "deployer",
          "type": "address"
        },
        {
          "internalType": "uint256",
          "name": "",
          "type": "uint256"
        }
      ],
      "name": "createLP",
      "outputs": [
        {
          "internalType": "uint256",
          "name": "positionId",
          "type": "uint256"
        }
      ],
      "stateMutability": "nonpayable",
      "type": "function"
    },
    {
      "inputs": [
        {
          "internalType": "address",
          "name": "",
          "type": "address"
        }
      ],
      "name": "deploymentInfoForToken",
      "outputs": [
        {
          "internalType": "address",
          "name": "token",
          "type": "address"
        },
        {
          "internalType": "uint256",
          "name": "positionId",
          "type": "uint256"
        },
        {
          "internalType": "address",
          "name": "locker",
          "type": "address"
        }
      ],
      "stateMutability": "view",
      "type": "function"
    },
    {
      "inputs": [
        {
          "internalType": "uint24",
          "name": "fee",
          "type": "uint24"
        }
      ],
      "name": "feeAmountTickSpacing",
      "outputs": [
        {
          "internalType": "int24",
          "name": "tickSpacing",
          "type": "int24"
        }
      ],
      "stateMutability": "view",
      "type": "function"
    },
    {
      "inputs": [],
      "name": "feeCollector",
      "outputs": [
        {
          "internalType": "contract IStremeFeeCollector",
          "name": "",
          "type": "address"
        }
      ],
      "stateMutability": "view",
      "type": "function"
    },
    {
      "inputs": [
        {
          "internalType": "bytes32",
          "name": "role",
          "type": "bytes32"
        }
      ],
      "name": "getRoleAdmin",
      "outputs": [
        {
          "internalType": "bytes32",
          "name": "",
          "type": "bytes32"
        }
      ],
      "stateMutability": "view",
      "type": "function"
    },
    {
      "inputs": [
        {
          "internalType": "address",
          "name": "user",
          "type": "address"
        }
      ],
      "name": "getTokensDeployedByUser",
      "outputs": [
        {
          "components": [
            {
              "internalType": "address",
              "name": "token",
              "type": "address"
            },
            {
              "internalType": "uint256",
              "name": "positionId",
              "type": "uint256"
            },
            {
              "internalType": "address",
              "name": "locker",
              "type": "address"
            }
          ],
          "internalType": "struct LPFactoryAero.DeploymentInfo[]",
          "name": "",
          "type": "tuple[]"
        }
      ],
      "stateMutability": "view",
      "type": "function"
    },
    {
      "inputs": [
        {
          "internalType": "bytes32",
          "name": "role",
          "type": "bytes32"
        },
        {
          "internalType": "address",
          "name": "account",
          "type": "address"
        }
      ],
      "name": "grantRole",
      "outputs": [],
      "stateMutability": "nonpayable",
      "type": "function"
    },
    {
      "inputs": [
        {
          "internalType": "bytes32",
          "name": "role",
          "type": "bytes32"
        },
        {
          "internalType": "address",
          "name": "account",
          "type": "address"
        }
      ],
      "name": "hasRole",
      "outputs": [
        {
          "internalType": "bool",
          "name": "",
          "type": "bool"
        }
      ],
      "stateMutability": "view",
      "type": "function"
    },
    {
      "inputs": [
        {
          "internalType": "address",
          "name": "token",
          "type": "address"
        }
      ],
      "name": "pool",
      "outputs": [
        {
          "internalType": "address",
          "name": "",
          "type": "address"
        }
      ],
      "stateMutability": "view",
      "type": "function"
    },
    {
      "inputs": [],
      "name": "poolLauncher",
      "outputs": [
        {
          "internalType": "contract ICLPoolLauncher",
          "name": "",
          "type": "address"
        }
      ],
      "stateMutability": "view",
      "type": "function"
    },
    {
      "inputs": [
        {
          "internalType": "bytes32",
          "name": "role",
          "type": "bytes32"
        },
        {
          "internalType": "address",
          "name": "callerConfirmation",
          "type": "address"
        }
      ],
      "name": "renounceRole",
      "outputs": [],
      "stateMutability": "nonpayable",
      "type": "function"
    },
    {
      "inputs": [
        {
          "internalType": "bytes32",
          "name": "role",
          "type": "bytes32"
        },
        {
          "internalType": "address",
          "name": "account",
          "type": "address"
        }
      ],
      "name": "revokeRole",
      "outputs": [],
      "stateMutability": "nonpayable",
      "type": "function"
    },
    {
      "inputs": [
        {
          "internalType": "bytes4",
          "name": "interfaceId",
          "type": "bytes4"
        }
      ],
      "name": "supportsInterface",
      "outputs": [
        {
          "internalType": "bool",
          "name": "",
          "type": "bool"
        }
      ],
      "stateMutability": "view",
      "type": "function"
    },
    {
      "inputs": [
        {
          "internalType": "address",
          "name": "",
          "type": "address"
        },
        {
          "internalType": "uint256",
          "name": "",
          "type": "uint256"
        }
      ],
      "name": "tokensDeployedByUsers",
      "outputs": [
        {
          "internalType": "address",
          "name": "token",
          "type": "address"
        },
        {
          "internalType": "uint256",
          "name": "positionId",
          "type": "uint256"
        },
        {
          "internalType": "address",
          "name": "locker",
          "type": "address"
        }
      ],
      "stateMutability": "view",
      "type": "function"
    },
    {
      "inputs": [
        {
          "internalType": "address",
          "name": "newFeeCollector",
          "type": "address"
        }
      ],
      "name": "updateFeeCollector",
      "outputs": [],
      "stateMutability": "nonpayable",
      "type": "function"
    },
    {
      "inputs": [
        {
          "internalType": "uint24",
          "name": "fee",
          "type": "uint24"
        },
        {
          "internalType": "int24",
          "name": "tickSpacing",
          "type": "int24"
        }
      ],
      "name": "updateTickSpacing",
      "outputs": [],
      "stateMutability": "nonpayable",
      "type": "function"
    },
    {
      "inputs": [],
      "name": "weth",
      "outputs": [
        {
          "internalType": "address",
          "name": "",
          "type": "address"
        }
      ],
      "stateMutability": "view",
      "type": "function"
    }
  ],
  "bytecode": "0x60803461015f57601f611ce038819003918201601f19168301916001600160401b0383118484101761016457808492604094855283398101031261015f57610052602061004b8361017a565b920161017a565b600180546001600160a01b031916734200000000000000000000000000000000000006179055906100823361018e565b5061008c3361020a565b50600380546001600160a01b03199081166001600160a01b0393841617909155600280549091169290911691909117905560046020527f1a7544ad5846bb9e505e24c04cf59c6eef8fca1599cf172fd12e40a246d0c6e8805462ffffff199081166101f4179091557f8cc740d51daa94ff54f33bd779c2d20149f524c340519b49181be5a08615f829805482166107d0179055610bb86000527f72dffa9b822156d9cf4b0090fa0b656bcb9cc2b2c60eb6acfc20a34f54b31743805490911660c81790556040516119dd90816102a38239f35b600080fd5b634e487b7160e01b600052604160045260246000fd5b51906001600160a01b038216820361015f57565b6001600160a01b0381166000908152600080516020611cc0833981519152602052604090205460ff16610204576001600160a01b03166000818152600080516020611cc083398151915260205260408120805460ff19166001179055339190600080516020611c808339815191528180a4600190565b50600090565b6001600160a01b0381166000908152600080516020611ca0833981519152602052604090205460ff16610204576001600160a01b03166000818152600080516020611ca083398151915260205260408120805460ff191660011790553391907ffc425f2263d0df187444b70e47283d622c70181c5baebb1306a01edba1ce184c90600080516020611c808339815191529080a460019056fe608080604052600436101561001357600080fd5b600090813560e01c90816301ffc9a7146115415750806306562980146114e0578063156522a8146114ab57806322afcccb14611474578063248a9ca3146114465780632e172e5f146105d95780632f2ff15d1461059857806331a837d31461057157806336568abe146105135780633fc8cef3146104ec57806388aea8721461047557806391d1485414610429578063a217fddf1461040d578063bdef367914610309578063c415b95c146102e2578063d2c35ce814610296578063d547741f1461024c578063df306d38146101d6578063ecd002611461019b5763ef5cfb8c146100fd57600080fd5b3461018957602060031936011261018957806101176115e1565b6001600160a01b036002541690813b15610197576001600160a01b03602484928360405195869485937fef5cfb8c0000000000000000000000000000000000000000000000000000000085521660048401525af1801561018c576101785750f35b8161018291611689565b6101895780f35b80fd5b6040513d84823e3d90fd5b5050fd5b503461018957806003193601126101895760206040517ffc425f2263d0df187444b70e47283d622c70181c5baebb1306a01edba1ce184c8152f35b5034610189576040600319360112610189576101f061160d565b602435908160020b82036102485762ffffff9061020b6117e4565b168252600460205260408220907fffffffffffffffffffffffffffffffffffffffffffffffffffffffffff0000008254169062ffffff1617905580f35b8280fd5b50346101895760406003193601126101895761029260043561026c6115f7565b9061028d61028882600052600060205260016040600020015490565b611837565b611918565b5080f35b5034610189576020600319360112610189576001600160a01b036102b86115e1565b6102c06117e4565b1673ffffffffffffffffffffffffffffffffffffffff19600254161760025580f35b503461018957806003193601126101895760206001600160a01b0360025416604051908152f35b5034610189576020600319360112610189576001600160a01b0361032b6115e1565b168152600560205260408120805467ffffffffffffffff81116103f9576040519061035c60208260051b0183611689565b80825260208201809385526020852085915b8383106103db57868587604051928392602084019060208552518091526040840192915b8181106103a0575050500390f35b91935091602060606001926001600160a01b036040885182815116845285810151868501520151166040820152019401910191849392610392565b600360206001926103eb856116ca565b81520192019201919061036e565b602483634e487b7160e01b81526041600452fd5b5034610189578060031936011261018957602090604051908152f35b5034610189576040600319360112610189576001600160a01b03604061044d6115f7565b92600435815280602052209116600052602052602060ff604060002054166040519015158152f35b50346101895760406003193601126101895761048f6115e1565b6001600160a01b03602435911682526005602052604082208054821015610248576104ba925061161f565b5080546001820154600290920154604080516001600160a01b0393841681526020810194909452911690820152606090f35b503461018957806003193601126101895760206001600160a01b0360015416604051908152f35b50346101895760406003193601126101895761052d6115f7565b336001600160a01b038216036105495761029290600435611918565b6004827f6697b232000000000000000000000000000000000000000000000000000000008152fd5b503461018957806003193601126101895760206001600160a01b0360035416604051908152f35b5034610189576040600319360112610189576102926004356105b86115f7565b906105d461028882600052600060205260016040600020015490565b61187e565b50346101895760e0600319360112610189576004356001600160a01b038116809103610d81576106076115f7565b604435928360020b809403610189576064359362ffffff8516809503610d815760843560a435956001600160a01b038716809703610c8c577ffc425f2263d0df187444b70e47283d622c70181c5baebb1306a01edba1ce184c845283602052604084206001600160a01b033316855260205260ff6040852054161561140f576040517f23b872dd000000000000000000000000000000000000000000000000000000008152336004820152306024820152826044820152602081606481888b5af180156113e7576113f2575b506001600160a01b0360035416604051907f095ea7b30000000000000000000000000000000000000000000000000000000082526004820152826024820152602081604481888b5af180156113e7576113ba575b5083526004602052604083205460020b9283159485801590816113a7575b5015611349576001600160a01b03169384871015611321578184121561131a577f80000000000000000000000000000000000000000000000000000000000000008414610dcc57838203915b620d89e8968784116112bc5760018416156112935770ffffffffffffffffffffffffffffffffff6ffffcb933bd6fad37aa2d162d1a5940015b169360028116611258575b6004811661121d575b600881166111e2575b601081166111a7575b6020811661116c575b60408116611131575b608081166110f6575b61010081166110bb575b6102008116611080575b6104008116611045575b610800811661100a575b6110008116610fcf575b6120008116610f94575b6140008116610f59575b6180008116610f1e575b620100008116610ee3575b620200008116610eaa575b620400008116610e5f575b6208000016610e2c575b818613610de9575b63ffffffff8460201c941615600014610de05760ff825b168401809411610dcc57610db857818091970560020b02928360020b938403610da2576040519161010083019483861067ffffffffffffffff871117610d8c5760a0966001600160a01b0361018496600095829960405287528560208801528560408801528560608801521660808601528785015260c0840152603c60e084015263ffffffff60e06040519461093a86611651565b8b865260208601998a526040860193845260608601908152876003541693886040519b8c9a8b997f499a98fd000000000000000000000000000000000000000000000000000000008b52511660048a0152511660248801525160020b6044870152518051606487015260208101516084870152604081015160a4870152606081015160c48701526001600160a01b0360808201511660e48701528881015160020b61010487015260c081015160020b610124870152015116610144840152306101648401525af18015610ca757600090610cec575b6001600160a01b0391501692604051927f313c06a0000000000000000000000000000000000000000000000000000000008452602084600481885afa938415610ca757600094610cb8575b506001600160a01b0360025416853b15610cb357604051907ff2fde38b0000000000000000000000000000000000000000000000000000000082526004820152600081602481838a5af18015610ca757610c90575b506001600160a01b0360025416803b15610c8c5783809160c4604051809481937f603fec230000000000000000000000000000000000000000000000000000000083528760048401528b602484015288604484015281606484015260a060848401528160a48401525af18015610c8157908491610c6c575b505060405194610b368661166d565b818652846020870152604086015282526006602052610bb384604084209060026001600160a01b036040819382808251161673ffffffffffffffffffffffffffffffffffffffff19875416178655602081015160018701550151169201911673ffffffffffffffffffffffffffffffffffffffff19825416179055565b8152600560205260408120805490680100000000000000008210156103f95790610be29160018201815561161f565b919091610c595750602092610c51919060026001600160a01b036040819382808251161673ffffffffffffffffffffffffffffffffffffffff19875416178655602081015160018701550151169201911673ffffffffffffffffffffffffffffffffffffffff19825416179055565b604051908152f35b80634e487b7160e01b6024925280600452fd5b81610c7691611689565b610248578238610b27565b6040513d86823e3d90fd5b8380fd5b610c9e919350600090611689565b60009138610aaf565b6040513d6000823e3d90fd5b600080fd5b9093506020813d602011610ce4575b81610cd460209383611689565b81010312610cb357519238610a5a565b3d9150610cc7565b8160a03d60a011610d85575b610d028183611689565b81010360a08112610d81576080136101895760405190610d2182611651565b82519063ffffffff8216820361018957506001600160a01b039282608092610d7c9452610d50602083016116fd565b6020820152610d61604083016116fd565b60408201526060610d738184016116fd565b910152016116fd565b610a0f565b5080fd5b503d610cf8565b634e487b7160e01b600052604160045260246000fd5b634e487b7160e01b600052601160045260246000fd5b80634e487b7160e01b602492526012600452fd5b602482634e487b7160e01b81526011600452fd5b60ff60016108a5565b928015610e18577fffffffffffffffffffffffffffffffffffffffffffffffffffffffffffffffff049261088e565b602482634e487b7160e01b81526012600452fd5b926b048a170391f7dc42444e8fa28102908082046b048a170391f7dc42444e8fa21490151715610dcc5760801c92610886565b936d2216e584f5fa1ea926041bedfe988102908082046d2216e584f5fa1ea926041bedfe981490151715610e965760801c9361087c565b602483634e487b7160e01b81526011600452fd5b936e5d6af8dedb81196699c329225ee6048102908082046e5d6af8dedb81196699c329225ee6041490151715610e965760801c93610871565b936f09aa508b5b7a84e1c677de54f3e99bc98102908082046f09aa508b5b7a84e1c677de54f3e99bc91490151715610e965760801c93610866565b936f31be135f97d08fd981231505542fcfa68102908082046f31be135f97d08fd981231505542fcfa61490151715610e965760801c9361085b565b936f70d869a156d2a1b890bb3df62baf32f78102908082046f70d869a156d2a1b890bb3df62baf32f71490151715610e965760801c93610851565b936fa9f746462d870fdf8a65dc1f90e061e58102908082046fa9f746462d870fdf8a65dc1f90e061e51490151715610e965760801c93610847565b936fd097f3bdfd2022b8845ad8f792aa58258102908082046fd097f3bdfd2022b8845ad8f792aa58251490151715610e965760801c9361083d565b936fe7159475a2c29b7443b29c7fa6e889d98102908082046fe7159475a2c29b7443b29c7fa6e889d91490151715610e965760801c93610833565b936ff3392b0822b70005940c7a398e4b70f38102908082046ff3392b0822b70005940c7a398e4b70f31490151715610e965760801c93610829565b936ff987a7253ac413176f2b074cf7815e548102908082046ff987a7253ac413176f2b074cf7815e541490151715610e965760801c9361081f565b936ffcbe86c7900a88aedcffc83b479aa3a48102908082046ffcbe86c7900a88aedcffc83b479aa3a41490151715610e965760801c93610815565b936ffe5dee046a99a2a811c461f1969c30538102908082046ffe5dee046a99a2a811c461f1969c30531490151715610e965760801c9361080b565b936fff2ea16466c96a3843ec78b326b528618102908082046fff2ea16466c96a3843ec78b326b528611490151715610e965760801c93610802565b936fff973b41fa98c081472e6896dfb254c08102908082046fff973b41fa98c081472e6896dfb254c01490151715610e965760801c936107f9565b936fffcb9843d60f6159c9db58835c9266448102908082046fffcb9843d60f6159c9db58835c9266441490151715610e965760801c936107f0565b936fffe5caca7e10e4e61c3624eaa0941cd08102908082046fffe5caca7e10e4e61c3624eaa0941cd01490151715610e965760801c936107e7565b936ffff2e50f5f656932ef12357cf3c7fdcc8102908082046ffff2e50f5f656932ef12357cf3c7fdcc1490151715610e965760801c936107de565b936ffff97272373d413259a46990580e213a8102908082046ffff97272373d413259a46990580e213a1490151715610e965760801c936107d5565b70ffffffffffffffffffffffffffffffffff7001000000000000000000000000000000006107ca565b60646040517f08c379a000000000000000000000000000000000000000000000000000000000815260206004820152600160248201527f54000000000000000000000000000000000000000000000000000000000000006044820152fd5b8391610791565b6004827f6dac6a09000000000000000000000000000000000000000000000000000000008152fd5b60646040517f08c379a000000000000000000000000000000000000000000000000000000000815260206004820152600c60248201527f496e76616c6964207469636b00000000000000000000000000000000000000006044820152fd5b9050610e185784840760020b1586610745565b6113db9060203d6020116113e0575b6113d38183611689565b8101906117cc565b610727565b503d6113c9565b6040513d87823e3d90fd5b61140a9060203d6020116113e0576113d38183611689565b6106d3565b60448463e2517d3f60e01b8152336004527ffc425f2263d0df187444b70e47283d622c70181c5baebb1306a01edba1ce184c602452fd5b5034610189576020600319360112610189576020610c51600435600052600060205260016040600020015490565b503461018957602060031936011261018957604060209162ffffff61149761160d565b16815260048352205460020b604051908152f35b50346101895760206003193601126101895760206114cf6114ca6115e1565b611711565b6001600160a01b0360405191168152f35b5034610189576020600319360112610189576040906001600160a01b036115056115e1565b1681526006602090815291902080546001820154600290920154604080516001600160a01b039384168152948501939093521690820152606090f35b905034610d81576020600319360112610d81576004357fffffffff00000000000000000000000000000000000000000000000000000000811680910361024857602092507f7965db0b0000000000000000000000000000000000000000000000000000000081149081156115b7575b5015158152f35b7f01ffc9a700000000000000000000000000000000000000000000000000000000915014386115b0565b600435906001600160a01b0382168203610cb357565b602435906001600160a01b0382168203610cb357565b6004359062ffffff82168203610cb357565b805482101561163b576000526003602060002091020190600090565b634e487b7160e01b600052603260045260246000fd5b6080810190811067ffffffffffffffff821117610d8c57604052565b6060810190811067ffffffffffffffff821117610d8c57604052565b90601f7fffffffffffffffffffffffffffffffffffffffffffffffffffffffffffffffe0910116810190811067ffffffffffffffff821117610d8c57604052565b906040516116d78161166d565b60406001600160a01b036002839582815416855260018101546020860152015416910152565b51906001600160a01b0382168203610cb357565b6001600160a01b0316600052600660205261172f60406000206116ca565b6001600160a01b03815116156117c65760206001600160a01b036040600493015116604051928380927f16f0115b0000000000000000000000000000000000000000000000000000000082525afa908115610ca75760009161178f575090565b90506020813d6020116117be575b816117aa60209383611689565b81010312610cb3576117bb906116fd565b90565b3d915061179d565b50600090565b90816020910312610cb357518015158103610cb35790565b3360009081527fad3228b676f7d3cd4284a5443f17f1962b36e491b30a40b2405849e597ba5fb5602052604090205460ff161561181d57565b63e2517d3f60e01b60005233600452600060245260446000fd5b80600052600060205260406000206001600160a01b03331660005260205260ff60406000205416156118665750565b63e2517d3f60e01b6000523360045260245260446000fd5b80600052600060205260406000206001600160a01b03831660005260205260ff60406000205416156000146119115780600052600060205260406000206001600160a01b0383166000526020526040600020600160ff198254161790556001600160a01b03339216907f2f8788117e7eff1d82e926ec794901d17c78024a50270940304540a733656f0d600080a4600190565b5050600090565b80600052600060205260406000206001600160a01b03831660005260205260ff604060002054166000146119115780600052600060205260406000206001600160a01b038316600052602052604060002060ff1981541690556001600160a01b03339216907ff6391f5c32d9c69d2a47ea670b442974b53935d1edc7fd64eb21e047a839171b600080a460019056fea26469706673582212208671eebc658c2c40407e62db0a265bdc25a529f8f394203b1ef8f8fa90d84d3464736f6c634300081a00332f8788117e7eff1d82e926ec794901d17c78024a50270940304540a733656f0d740c5e3e456bed56f053f960110118ba9b95a1f5359a82283516fb2e81b6e37ead3228b676f7d3cd4284a5443f17f1962b36e491b30a40b2405849e597ba5fb5",
  "linkReferences": {},
  "deployedLinkReferences": {}
}