{
  "_format": "hh-sol-artifact-1",
  "contractName": "StremeStakingValve",
  "sourceName": "contracts/extras/StremeStakingValve.sol",
  "abi": [
    {
      "inputs": [
        {
          "internalType": "contract ISTremeStakingFactory",
          "name": "_stakingFactory",
          "type": "address"
        },
        {
          "internalType": "contract IStremeAllocationHook",
          "name": "_allocationHook",
          "type": "address"
        },
        {
          "internalType": "contract IStremeLPFactory",
          "name": "_lpFactory",
          "type": "address"
        },
        {
          "internalType": "contract IUniswapV3Factory",
          "name": "_uniswapFactory",
          "type": "address"
        },
        {
          "internalType": "contract INonFungiblePositionManager",
          "name": "_positionManager",
          "type": "address"
        }
      ],
      "stateMutability": "nonpayable",
      "type": "constructor"
    },
    {
      "inputs": [],
      "name": "AccessControlBadConfirmation",
      "type": "error"
    },
    {
      "inputs": [
        {
          "internalType": "address",
          "name": "account",
          "type": "address"
        },
        {
          "internalType": "bytes32",
          "name": "neededRole",
          "type": "bytes32"
        }
      ],
      "name": "AccessControlUnauthorizedAccount",
      "type": "error"
    },
    {
      "anonymous": false,
      "inputs": [
        {
          "indexed": false,
          "internalType": "uint256",
          "name": "percent",
          "type": "uint256"
        }
      ],
      "name": "PercentSwappedOutUpdated",
      "type": "event"
    },
    {
      "anonymous": false,
      "inputs": [
        {
          "indexed": true,
          "internalType": "bytes32",
          "name": "role",
          "type": "bytes32"
        },
        {
          "indexed": true,
          "internalType": "bytes32",
          "name": "previousAdminRole",
          "type": "bytes32"
        },
        {
          "indexed": true,
          "internalType": "bytes32",
          "name": "newAdminRole",
          "type": "bytes32"
        }
      ],
      "name": "RoleAdminChanged",
      "type": "event"
    },
    {
      "anonymous": false,
      "inputs": [
        {
          "indexed": true,
          "internalType": "bytes32",
          "name": "role",
          "type": "bytes32"
        },
        {
          "indexed": true,
          "internalType": "address",
          "name": "account",
          "type": "address"
        },
        {
          "indexed": true,
          "internalType": "address",
          "name": "sender",
          "type": "address"
        }
      ],
      "name": "RoleGranted",
      "type": "event"
    },
    {
      "anonymous": false,
      "inputs": [
        {
          "indexed": true,
          "internalType": "bytes32",
          "name": "role",
          "type": "bytes32"
        },
        {
          "indexed": true,
          "internalType": "address",
          "name": "account",
          "type": "address"
        },
        {
          "indexed": true,
          "internalType": "address",
          "name": "sender",
          "type": "address"
        }
      ],
      "name": "RoleRevoked",
      "type": "event"
    },
    {
      "anonymous": false,
      "inputs": [
        {
          "indexed": true,
          "internalType": "address",
          "name": "token",
          "type": "address"
        }
      ],
      "name": "ValveClosed",
      "type": "event"
    },
    {
      "anonymous": false,
      "inputs": [
        {
          "indexed": true,
          "internalType": "address",
          "name": "token",
          "type": "address"
        }
      ],
      "name": "ValveOpened",
      "type": "event"
    },
    {
      "inputs": [],
      "name": "DEFAULT_ADMIN_ROLE",
      "outputs": [
        {
          "internalType": "bytes32",
          "name": "",
          "type": "bytes32"
        }
      ],
      "stateMutability": "view",
      "type": "function"
    },
    {
      "inputs": [],
      "name": "MANAGER_ROLE",
      "outputs": [
        {
          "internalType": "bytes32",
          "name": "",
          "type": "bytes32"
        }
      ],
      "stateMutability": "view",
      "type": "function"
    },
    {
      "inputs": [],
      "name": "allocationHook",
      "outputs": [
        {
          "internalType": "contract IStremeAllocationHook",
          "name": "",
          "type": "address"
        }
      ],
      "stateMutability": "view",
      "type": "function"
    },
    {
      "inputs": [
        {
          "internalType": "address",
          "name": "token",
          "type": "address"
        }
      ],
      "name": "canCloseValve",
      "outputs": [
        {
          "internalType": "bool",
          "name": "",
          "type": "bool"
        }
      ],
      "stateMutability": "view",
      "type": "function"
    },
    {
      "inputs": [
        {
          "internalType": "address",
          "name": "token",
          "type": "address"
        }
      ],
      "name": "canOpenValve",
      "outputs": [
        {
          "internalType": "bool",
          "name": "",
          "type": "bool"
        }
      ],
      "stateMutability": "view",
      "type": "function"
    },
    {
      "inputs": [
        {
          "internalType": "address",
          "name": "token",
          "type": "address"
        }
      ],
      "name": "closeValve",
      "outputs": [],
      "stateMutability": "nonpayable",
      "type": "function"
    },
    {
      "inputs": [
        {
          "internalType": "bytes32",
          "name": "role",
          "type": "bytes32"
        }
      ],
      "name": "getRoleAdmin",
      "outputs": [
        {
          "internalType": "bytes32",
          "name": "",
          "type": "bytes32"
        }
      ],
      "stateMutability": "view",
      "type": "function"
    },
    {
      "inputs": [
        {
          "internalType": "bytes32",
          "name": "role",
          "type": "bytes32"
        },
        {
          "internalType": "address",
          "name": "account",
          "type": "address"
        }
      ],
      "name": "grantRole",
      "outputs": [],
      "stateMutability": "nonpayable",
      "type": "function"
    },
    {
      "inputs": [
        {
          "internalType": "bytes32",
          "name": "role",
          "type": "bytes32"
        },
        {
          "internalType": "address",
          "name": "account",
          "type": "address"
        }
      ],
      "name": "hasRole",
      "outputs": [
        {
          "internalType": "bool",
          "name": "",
          "type": "bool"
        }
      ],
      "stateMutability": "view",
      "type": "function"
    },
    {
      "inputs": [
        {
          "internalType": "address",
          "name": "",
          "type": "address"
        }
      ],
      "name": "lockedValves",
      "outputs": [
        {
          "internalType": "bool",
          "name": "",
          "type": "bool"
        }
      ],
      "stateMutability": "view",
      "type": "function"
    },
    {
      "inputs": [],
      "name": "lpFactory",
      "outputs": [
        {
          "internalType": "contract IStremeLPFactory",
          "name": "",
          "type": "address"
        }
      ],
      "stateMutability": "view",
      "type": "function"
    },
    {
      "inputs": [
        {
          "internalType": "address",
          "name": "token",
          "type": "address"
        }
      ],
      "name": "openValve",
      "outputs": [],
      "stateMutability": "nonpayable",
      "type": "function"
    },
    {
      "inputs": [],
      "name": "percentSwappedOut",
      "outputs": [
        {
          "internalType": "uint256",
          "name": "",
          "type": "uint256"
        }
      ],
      "stateMutability": "view",
      "type": "function"
    },
    {
      "inputs": [],
      "name": "positionManager",
      "outputs": [
        {
          "internalType": "contract INonFungiblePositionManager",
          "name": "",
          "type": "address"
        }
      ],
      "stateMutability": "view",
      "type": "function"
    },
    {
      "inputs": [
        {
          "internalType": "bytes32",
          "name": "role",
          "type": "bytes32"
        },
        {
          "internalType": "address",
          "name": "callerConfirmation",
          "type": "address"
        }
      ],
      "name": "renounceRole",
      "outputs": [],
      "stateMutability": "nonpayable",
      "type": "function"
    },
    {
      "inputs": [
        {
          "internalType": "bytes32",
          "name": "role",
          "type": "bytes32"
        },
        {
          "internalType": "address",
          "name": "account",
          "type": "address"
        }
      ],
      "name": "revokeRole",
      "outputs": [],
      "stateMutability": "nonpayable",
      "type": "function"
    },
    {
      "inputs": [
        {
          "internalType": "uint256",
          "name": "percent",
          "type": "uint256"
        }
      ],
      "name": "setPercentSwappedOut",
      "outputs": [],
      "stateMutability": "nonpayable",
      "type": "function"
    },
    {
      "inputs": [],
      "name": "stakingFactory",
      "outputs": [
        {
          "internalType": "contract ISTremeStakingFactory",
          "name": "",
          "type": "address"
        }
      ],
      "stateMutability": "view",
      "type": "function"
    },
    {
      "inputs": [
        {
          "internalType": "bytes4",
          "name": "interfaceId",
          "type": "bytes4"
        }
      ],
      "name": "supportsInterface",
      "outputs": [
        {
          "internalType": "bool",
          "name": "",
          "type": "bool"
        }
      ],
      "stateMutability": "view",
      "type": "function"
    },
    {
      "inputs": [],
      "name": "uniswapFactory",
      "outputs": [
        {
          "internalType": "contract IUniswapV3Factory",
          "name": "",
          "type": "address"
        }
      ],
      "stateMutability": "view",
      "type": "function"
    }
  ],
  "bytecode": "0x60803461011f57601f6115da38819003918201601f19168301916001600160401b038311848410176101245780849260a09460405283398101031261011f5780516001600160a01b038116919082900361011f5760208101516001600160a01b0381169081900361011f5760408201516001600160a01b038116919082900361011f5760608301516001600160a01b038116939084900361011f57608001516001600160a01b038116949085900361011f57603260015560018060a01b0319600254161760025560018060a01b0319600354161760035560018060a01b0319600454161760045560018060a01b0319600554161760055560018060a01b0319600654161760065561010f3361013a565b506040516113cf90816101eb8239f35b600080fd5b634e487b7160e01b600052604160045260246000fd5b6001600160a01b03811660009081526000805160206115ba833981519152602052604090205460ff166101e4576001600160a01b031660008181526000805160206115ba83398151915260205260408120805460ff191660011790553391907f241ecf16d79d0f8dbfb92cbc07fe17840425976cf0667f022fe9877caa831b08907f2f8788117e7eff1d82e926ec794901d17c78024a50270940304540a733656f0d9080a4600190565b5060009056fe608080604052600436101561001357600080fd5b600090813560e01c90816301ffc9a714610ab75750806307815e761461096757806311c7978a14610943578063248a9ca31461090d57806329134768146108e65780632f2ff15d146108a557806336568abe1461084757806377e9f9d714610819578063791b98bc146107f25780637cc16839146107cb578063835b411b146107ad57806384dea8ea1461057a5780638bdb2afa1461055357806391d1485414610507578063a0fec9ec146104ca578063a217fddf146104ae578063d547741f14610464578063e2091b5c14610161578063e7dcba5e1461013a5763ec87621c146100fd57600080fd5b3461013757806003193601126101375760206040517f241ecf16d79d0f8dbfb92cbc07fe17840425976cf0667f022fe9877caa831b088152f35b80fd5b503461013757806003193601126101375760206001600160a01b0360035416604051908152f35b50346101375760206003193601126101375761017b610b57565b7f241ecf16d79d0f8dbfb92cbc07fe17840425976cf0667f022fe9877caa831b08825281602052604082206001600160a01b03331660005260205260ff60406000205416801561044f575b6101cf90610be5565b816001600160a01b03600254166001600160a01b03604051937f0881dd440000000000000000000000000000000000000000000000000000000085521692836004820152602081602481855afa8015610444578390610400575b6001600160a01b0391501661023f811515610cc1565b6040517fbc3b48b2000000000000000000000000000000000000000000000000000000008152846004820152602081602481865afa9081156103f55784916103bb575b50823b156103b75760648492836fffffffffffffffffffffffffffffffff9560405196879586947fed1d1d2d00000000000000000000000000000000000000000000000000000000865260048601528260248601521660448401525af180156103ac57610393575b507f241ecf16d79d0f8dbfb92cbc07fe17840425976cf0667f022fe9877caa831b08905281602052604082206001600160a01b03331660005260205260ff6040600020541660001461037557808252600760205260408220600160ff198254161790555b7f745c4fa02e8e91436e6675ec645595e2ed0f2a9d3d11dde73e0ead47aa53cfe28280a280f35b808252600760205261038e60ff60408420541615610d0c565b61034e565b8161039d91610c56565b6103a85781386102ea565b5080fd5b6040513d84823e3d90fd5b8380fd5b90506020813d6020116103ed575b816103d660209383610c56565b810103126103b7576103e790610d57565b38610282565b3d91506103c9565b6040513d86823e3d90fd5b506020813d60201161043c575b8161041a60209383610c56565b81010312610438576104336001600160a01b0391610cad565b610229565b8280fd5b3d915061040d565b6040513d85823e3d90fd5b506101cf61045c82610de2565b1590506101c6565b5034610137576040600319360112610137576104aa600435610484610b72565b906104a56104a082600052600060205260016040600020015490565b610d74565b61130a565b5080f35b5034610137578060031936011261013757602090604051908152f35b50346101375760206003193601126101375760ff60406020926001600160a01b036104f3610b57565b168152600784522054166040519015158152f35b5034610137576040600319360112610137576001600160a01b03604061052b610b72565b92600435815280602052209116600052602052602060ff604060002054166040519015158152f35b503461013757806003193601126101375760206001600160a01b0360055416604051908152f35b503461013757602060031936011261013757610594610b57565b9061059e82610de2565b801561076e575b6105ae90610be5565b6001600160a01b03600254166001600160a01b03604051937f0881dd440000000000000000000000000000000000000000000000000000000085521692836004820152602081602481855afa801561044457839061072e575b6001600160a01b0391501661061d811515610cc1565b813b156104385782916064839260405194859384927fed1d1d2d0000000000000000000000000000000000000000000000000000000084526004840152806024840152600160448401525af180156103ac5761071e575b50907f241ecf16d79d0f8dbfb92cbc07fe17840425976cf0667f022fe9877caa831b08825281602052604082206001600160a01b03331660005260205260ff6040600020541660001461070057808252600760205260408220600160ff198254161790555b7feeb8381ba0f40d7f31a768383e05c9d8f89de5b0253bae86d1bd5ec2aa5cf4ca8280a280f35b808252600760205261071960ff60408420541615610d0c565b6106d9565b8161072891610c56565b38610674565b506020813d602011610766575b8161074860209383610c56565b81010312610438576107616001600160a01b0391610cad565b610607565b3d915061073b565b507f241ecf16d79d0f8dbfb92cbc07fe17840425976cf0667f022fe9877caa831b0881526020818152604080832033845290915281205460ff166105a5565b50346101375780600319360112610137576020600154604051908152f35b503461013757806003193601126101375760206001600160a01b0360045416604051908152f35b503461013757806003193601126101375760206001600160a01b0360065416604051908152f35b503461013757602060031936011261013757602061083d610838610b57565b610bba565b6040519015158152f35b503461013757604060031936011261013757610861610b72565b336001600160a01b0382160361087d576104aa9060043561130a565b6004827f6697b232000000000000000000000000000000000000000000000000000000008152fd5b5034610137576040600319360112610137576104aa6004356108c5610b72565b906108e16104a082600052600060205260016040600020015490565b611277565b503461013757806003193601126101375760206001600160a01b0360025416604051908152f35b503461013757602060031936011261013757602061093b600435600052600060205260016040600020015490565b604051908152f35b503461013757602060031936011261013757602061083d610962610b57565b610b88565b5034610137576020600319360112610137576004357f241ecf16d79d0f8dbfb92cbc07fe17840425976cf0667f022fe9877caa831b08825281602052604082206001600160a01b033316835260205260ff60408320541615610a6757606481116109fd576020817fcb72d02daa3e2a167ecf4a0f5b74a114943c52f5a3bd79eb1b5aa00b488215be92600155604051908152a180f35b608460405162461bcd60e51b815260206004820152602160248201527f50657263656e74206d757374206265206265747765656e203020616e6420313060448201527f30000000000000000000000000000000000000000000000000000000000000006064820152fd5b6044827fe2517d3f000000000000000000000000000000000000000000000000000000008152336004527f241ecf16d79d0f8dbfb92cbc07fe17840425976cf0667f022fe9877caa831b08602452fd5b9050346103a85760206003193601126103a8576004357fffffffff00000000000000000000000000000000000000000000000000000000811680910361043857602092507f7965db0b000000000000000000000000000000000000000000000000000000008114908115610b2d575b5015158152f35b7f01ffc9a70000000000000000000000000000000000000000000000000000000091501438610b26565b600435906001600160a01b0382168203610b6d57565b600080fd5b602435906001600160a01b0382168203610b6d57565b6001600160a01b038116600052600760205260ff60406000205416610bb457610bb090610de2565b1590565b50600090565b6001600160a01b038116600052600760205260ff60406000205416610bb457610be290610de2565b90565b15610bec57565b608460405162461bcd60e51b815260206004820152603460248201527f43616c6c6572206973206e6f742061206d616e61676572206f722042616c616e60448201527f6365207468726573686f6c64206e6f74206d65740000000000000000000000006064820152fd5b90601f7fffffffffffffffffffffffffffffffffffffffffffffffffffffffffffffffe0910116810190811067ffffffffffffffff821117610c9757604052565b634e487b7160e01b600052604160045260246000fd5b51906001600160a01b0382168203610b6d57565b15610cc857565b606460405162461bcd60e51b815260206004820152601660248201527f5374616b656420746f6b656e206e6f7420666f756e64000000000000000000006044820152fd5b15610d1357565b606460405162461bcd60e51b815260206004820152600f60248201527f56616c7665206973206c6f636b656400000000000000000000000000000000006044820152fd5b51906fffffffffffffffffffffffffffffffff82168203610b6d57565b80600052600060205260406000206001600160a01b03331660005260205260ff6040600020541615610da35750565b7fe2517d3f000000000000000000000000000000000000000000000000000000006000523360045260245260446000fd5b51908160020b8203610b6d57565b6001600160a01b0360608160045416926024604051809481937f0656298000000000000000000000000000000000000000000000000000000000835216958660048301525afa908115611092576000916111ee575b50906001600160a01b03604083015116156111e75761018060206001600160a01b03600654169301516024604051809581937f99fbab8800000000000000000000000000000000000000000000000000000000835260048301525afa8015611092576000908193829161110e575b5060646020926001600160a01b039262ffffff84600554169185604051998a9788967f1698ee820000000000000000000000000000000000000000000000000000000088521660048701521660248501521660448301525afa918215611092576000926110d2575b506001600160a01b03604051927f70a08231000000000000000000000000000000000000000000000000000000008452166004830152602082602481845afa9182156110925760009261109e575b5060206001600160a01b0360035416916024604051809481937f8de3cb2a00000000000000000000000000000000000000000000000000000000835260048301525afa90811561109257600091611060575b5064174876e80081029080820464174876e800148115171561104a576c01431e0fae6d7217caa00000000290808204670de0b6b3a7640000149015171561104a5760649004806c01431e0fae6d7217caa000000003906c01431e0fae6d7217caa0000000821161104a576001546064036064811161104a5780830292830414906c01431e0fae6d7217caa000000014171561104a57606490041190565b634e487b7160e01b600052601160045260246000fd5b906020823d60201161108a575b8161107a60209383610c56565b8101031261013757505138610fad565b3d915061106d565b6040513d6000823e3d90fd5b9091506020813d6020116110ca575b816110ba60209383610c56565b81010312610b6d57519038610f5b565b3d91506110ad565b9091506020813d602011611106575b816110ee60209383610c56565b81010312610b6d576110ff90610cad565b9038610f0d565b3d91506110e1565b91935050610180813d82116111df575b8161112c6101809383610c56565b810103126104385780516bffffffffffffffffffffffff8116036104385761115660208201610cad565b5061116360408201610cad565b61116f60608301610cad565b9160808101519462ffffff8616860361013757506020926001600160a01b03926111d3610160846111a460a060649701610dd4565b506111b160c08201610dd4565b506111be60e08201610d57565b506111cc6101408201610d57565b5001610d57565b50909592509250610ea5565b3d915061111e565b5050600090565b6060813d60601161126f575b8161120760609383610c56565b810103126103a85760405191606083019083821067ffffffffffffffff83111761125b575061125091604091825261123e81610cad565b84526020810151602085015201610cad565b604082015238610e37565b80634e487b7160e01b602492526041600452fd5b3d91506111fa565b80600052600060205260406000206001600160a01b03831660005260205260ff60406000205416156000146111e75780600052600060205260406000206001600160a01b0383166000526020526040600020600160ff198254161790556001600160a01b03339216907f2f8788117e7eff1d82e926ec794901d17c78024a50270940304540a733656f0d600080a4600190565b80600052600060205260406000206001600160a01b03831660005260205260ff604060002054166000146111e75780600052600060205260406000206001600160a01b038316600052602052604060002060ff1981541690556001600160a01b03339216907ff6391f5c32d9c69d2a47ea670b442974b53935d1edc7fd64eb21e047a839171b600080a460019056fea264697066735822122005468164193be35c28b13e3cd63645b623d6faf12a7a2ba5d71d96521e04172264736f6c634300081a0033e84508f2c7fa9c351146748b3025cb78b45df37d868e48c6a75102fecdeee645",
  "linkReferences": {},
  "deployedLinkReferences": {}
}