{
  "_format": "hh-sol-artifact-1",
  "contractName": "StakedTokenV2",
  "sourceName": "contracts/hook/staking/StakedTokenV2.sol",
  "abi": [
    {
      "inputs": [],
      "stateMutability": "nonpayable",
      "type": "constructor"
    },
    {
      "inputs": [],
      "name": "AccessControlBadConfirmation",
      "type": "error"
    },
    {
      "inputs": [
        {
          "internalType": "address",
          "name": "account",
          "type": "address"
        },
        {
          "internalType": "bytes32",
          "name": "neededRole",
          "type": "bytes32"
        }
      ],
      "name": "AccessControlUnauthorizedAccount",
      "type": "error"
    },
    {
      "inputs": [
        {
          "internalType": "address",
          "name": "spender",
          "type": "address"
        },
        {
          "internalType": "uint256",
          "name": "allowance",
          "type": "uint256"
        },
        {
          "internalType": "uint256",
          "name": "needed",
          "type": "uint256"
        }
      ],
      "name": "ERC20InsufficientAllowance",
      "type": "error"
    },
    {
      "inputs": [
        {
          "internalType": "address",
          "name": "sender",
          "type": "address"
        },
        {
          "internalType": "uint256",
          "name": "balance",
          "type": "uint256"
        },
        {
          "internalType": "uint256",
          "name": "needed",
          "type": "uint256"
        }
      ],
      "name": "ERC20InsufficientBalance",
      "type": "error"
    },
    {
      "inputs": [
        {
          "internalType": "address",
          "name": "approver",
          "type": "address"
        }
      ],
      "name": "ERC20InvalidApprover",
      "type": "error"
    },
    {
      "inputs": [
        {
          "internalType": "address",
          "name": "receiver",
          "type": "address"
        }
      ],
      "name": "ERC20InvalidReceiver",
      "type": "error"
    },
    {
      "inputs": [
        {
          "internalType": "address",
          "name": "sender",
          "type": "address"
        }
      ],
      "name": "ERC20InvalidSender",
      "type": "error"
    },
    {
      "inputs": [
        {
          "internalType": "address",
          "name": "spender",
          "type": "address"
        }
      ],
      "name": "ERC20InvalidSpender",
      "type": "error"
    },
    {
      "inputs": [],
      "name": "InvalidInitialization",
      "type": "error"
    },
    {
      "inputs": [],
      "name": "NotInitializing",
      "type": "error"
    },
    {
      "inputs": [],
      "name": "ReentrancyGuardReentrantCall",
      "type": "error"
    },
    {
      "anonymous": false,
      "inputs": [
        {
          "indexed": true,
          "internalType": "address",
          "name": "owner",
          "type": "address"
        },
        {
          "indexed": true,
          "internalType": "address",
          "name": "spender",
          "type": "address"
        },
        {
          "indexed": false,
          "internalType": "uint256",
          "name": "value",
          "type": "uint256"
        }
      ],
      "name": "Approval",
      "type": "event"
    },
    {
      "anonymous": false,
      "inputs": [
        {
          "indexed": true,
          "internalType": "address",
          "name": "account",
          "type": "address"
        },
        {
          "indexed": false,
          "internalType": "uint256",
          "name": "depositTimestamp",
          "type": "uint256"
        },
        {
          "indexed": false,
          "internalType": "uint256",
          "name": "amount",
          "type": "uint256"
        }
      ],
      "name": "Deposit",
      "type": "event"
    },
    {
      "anonymous": false,
      "inputs": [
        {
          "indexed": false,
          "internalType": "uint64",
          "name": "version",
          "type": "uint64"
        }
      ],
      "name": "Initialized",
      "type": "event"
    },
    {
      "anonymous": false,
      "inputs": [
        {
          "indexed": false,
          "internalType": "uint256",
          "name": "duration",
          "type": "uint256"
        }
      ],
      "name": "LockDurationUpdated",
      "type": "event"
    },
    {
      "anonymous": false,
      "inputs": [
        {
          "indexed": true,
          "internalType": "bytes32",
          "name": "role",
          "type": "bytes32"
        },
        {
          "indexed": true,
          "internalType": "bytes32",
          "name": "previousAdminRole",
          "type": "bytes32"
        },
        {
          "indexed": true,
          "internalType": "bytes32",
          "name": "newAdminRole",
          "type": "bytes32"
        }
      ],
      "name": "RoleAdminChanged",
      "type": "event"
    },
    {
      "anonymous": false,
      "inputs": [
        {
          "indexed": true,
          "internalType": "bytes32",
          "name": "role",
          "type": "bytes32"
        },
        {
          "indexed": true,
          "internalType": "address",
          "name": "account",
          "type": "address"
        },
        {
          "indexed": true,
          "internalType": "address",
          "name": "sender",
          "type": "address"
        }
      ],
      "name": "RoleGranted",
      "type": "event"
    },
    {
      "anonymous": false,
      "inputs": [
        {
          "indexed": true,
          "internalType": "bytes32",
          "name": "role",
          "type": "bytes32"
        },
        {
          "indexed": true,
          "internalType": "address",
          "name": "account",
          "type": "address"
        },
        {
          "indexed": true,
          "internalType": "address",
          "name": "sender",
          "type": "address"
        }
      ],
      "name": "RoleRevoked",
      "type": "event"
    },
    {
      "anonymous": false,
      "inputs": [
        {
          "indexed": true,
          "internalType": "address",
          "name": "from",
          "type": "address"
        },
        {
          "indexed": true,
          "internalType": "address",
          "name": "to",
          "type": "address"
        },
        {
          "indexed": false,
          "internalType": "uint256",
          "name": "value",
          "type": "uint256"
        }
      ],
      "name": "Transfer",
      "type": "event"
    },
    {
      "anonymous": false,
      "inputs": [
        {
          "indexed": true,
          "internalType": "address",
          "name": "account",
          "type": "address"
        },
        {
          "indexed": false,
          "internalType": "uint256",
          "name": "depositTimestamp",
          "type": "uint256"
        },
        {
          "indexed": false,
          "internalType": "uint256",
          "name": "amount",
          "type": "uint256"
        }
      ],
      "name": "Withdraw",
      "type": "event"
    },
    {
      "inputs": [],
      "name": "DEFAULT_ADMIN_ROLE",
      "outputs": [
        {
          "internalType": "bytes32",
          "name": "",
          "type": "bytes32"
        }
      ],
      "stateMutability": "view",
      "type": "function"
    },
    {
      "inputs": [],
      "name": "MANAGER_ROLE",
      "outputs": [
        {
          "internalType": "bytes32",
          "name": "",
          "type": "bytes32"
        }
      ],
      "stateMutability": "view",
      "type": "function"
    },
    {
      "inputs": [
        {
          "internalType": "address",
          "name": "owner",
          "type": "address"
        },
        {
          "internalType": "address",
          "name": "spender",
          "type": "address"
        }
      ],
      "name": "allowance",
      "outputs": [
        {
          "internalType": "uint256",
          "name": "",
          "type": "uint256"
        }
      ],
      "stateMutability": "view",
      "type": "function"
    },
    {
      "inputs": [
        {
          "internalType": "address",
          "name": "spender",
          "type": "address"
        },
        {
          "internalType": "uint256",
          "name": "value",
          "type": "uint256"
        }
      ],
      "name": "approve",
      "outputs": [
        {
          "internalType": "bool",
          "name": "",
          "type": "bool"
        }
      ],
      "stateMutability": "nonpayable",
      "type": "function"
    },
    {
      "inputs": [
        {
          "internalType": "address",
          "name": "account",
          "type": "address"
        }
      ],
      "name": "balanceOf",
      "outputs": [
        {
          "internalType": "uint256",
          "name": "",
          "type": "uint256"
        }
      ],
      "stateMutability": "view",
      "type": "function"
    },
    {
      "inputs": [
        {
          "internalType": "uint256",
          "name": "value",
          "type": "uint256"
        }
      ],
      "name": "burn",
      "outputs": [],
      "stateMutability": "nonpayable",
      "type": "function"
    },
    {
      "inputs": [
        {
          "internalType": "address",
          "name": "account",
          "type": "address"
        },
        {
          "internalType": "uint256",
          "name": "value",
          "type": "uint256"
        }
      ],
      "name": "burnFrom",
      "outputs": [],
      "stateMutability": "nonpayable",
      "type": "function"
    },
    {
      "inputs": [],
      "name": "decimals",
      "outputs": [
        {
          "internalType": "uint8",
          "name": "",
          "type": "uint8"
        }
      ],
      "stateMutability": "view",
      "type": "function"
    },
    {
      "inputs": [
        {
          "internalType": "address",
          "name": "to",
          "type": "address"
        }
      ],
      "name": "delegate",
      "outputs": [],
      "stateMutability": "nonpayable",
      "type": "function"
    },
    {
      "inputs": [
        {
          "internalType": "address",
          "name": "",
          "type": "address"
        }
      ],
      "name": "delegates",
      "outputs": [
        {
          "internalType": "address",
          "name": "",
          "type": "address"
        }
      ],
      "stateMutability": "view",
      "type": "function"
    },
    {
      "inputs": [
        {
          "internalType": "address",
          "name": "account",
          "type": "address"
        }
      ],
      "name": "depositTimestamps",
      "outputs": [
        {
          "internalType": "uint256",
          "name": "",
          "type": "uint256"
        }
      ],
      "stateMutability": "view",
      "type": "function"
    },
    {
      "inputs": [
        {
          "internalType": "bytes32",
          "name": "role",
          "type": "bytes32"
        }
      ],
      "name": "getRoleAdmin",
      "outputs": [
        {
          "internalType": "bytes32",
          "name": "",
          "type": "bytes32"
        }
      ],
      "stateMutability": "view",
      "type": "function"
    },
    {
      "inputs": [
        {
          "internalType": "bytes32",
          "name": "role",
          "type": "bytes32"
        },
        {
          "internalType": "address",
          "name": "account",
          "type": "address"
        }
      ],
      "name": "grantRole",
      "outputs": [],
      "stateMutability": "nonpayable",
      "type": "function"
    },
    {
      "inputs": [
        {
          "internalType": "bytes32",
          "name": "role",
          "type": "bytes32"
        },
        {
          "internalType": "address",
          "name": "account",
          "type": "address"
        }
      ],
      "name": "hasRole",
      "outputs": [
        {
          "internalType": "bool",
          "name": "",
          "type": "bool"
        }
      ],
      "stateMutability": "view",
      "type": "function"
    },
    {
      "inputs": [
        {
          "internalType": "address",
          "name": "_defaultAdmin",
          "type": "address"
        },
        {
          "internalType": "string",
          "name": "_name",
          "type": "string"
        },
        {
          "internalType": "string",
          "name": "_symbol",
          "type": "string"
        },
        {
          "internalType": "address",
          "name": "_stakeableToken",
          "type": "address"
        },
        {
          "internalType": "address",
          "name": "_pool",
          "type": "address"
        },
        {
          "internalType": "uint256",
          "name": "_lockDuration",
          "type": "uint256"
        },
        {
          "internalType": "address",
          "name": "_teamRecipient",
          "type": "address"
        }
      ],
      "name": "initialize",
      "outputs": [],
      "stateMutability": "nonpayable",
      "type": "function"
    },
    {
      "inputs": [],
      "name": "lockDuration",
      "outputs": [
        {
          "internalType": "uint256",
          "name": "",
          "type": "uint256"
        }
      ],
      "stateMutability": "view",
      "type": "function"
    },
    {
      "inputs": [],
      "name": "name",
      "outputs": [
        {
          "internalType": "string",
          "name": "",
          "type": "string"
        }
      ],
      "stateMutability": "view",
      "type": "function"
    },
    {
      "inputs": [],
      "name": "pool",
      "outputs": [
        {
          "internalType": "contract IDistributionPool",
          "name": "",
          "type": "address"
        }
      ],
      "stateMutability": "view",
      "type": "function"
    },
    {
      "inputs": [
        {
          "internalType": "uint256",
          "name": "newDuration",
          "type": "uint256"
        }
      ],
      "name": "reduceLockDuration",
      "outputs": [],
      "stateMutability": "nonpayable",
      "type": "function"
    },
    {
      "inputs": [
        {
          "internalType": "bytes32",
          "name": "role",
          "type": "bytes32"
        },
        {
          "internalType": "address",
          "name": "callerConfirmation",
          "type": "address"
        }
      ],
      "name": "renounceRole",
      "outputs": [],
      "stateMutability": "nonpayable",
      "type": "function"
    },
    {
      "inputs": [
        {
          "internalType": "bytes32",
          "name": "role",
          "type": "bytes32"
        },
        {
          "internalType": "address",
          "name": "account",
          "type": "address"
        }
      ],
      "name": "revokeRole",
      "outputs": [],
      "stateMutability": "nonpayable",
      "type": "function"
    },
    {
      "inputs": [
        {
          "internalType": "contract IDistributionPool",
          "name": "_pool",
          "type": "address"
        }
      ],
      "name": "setPool",
      "outputs": [],
      "stateMutability": "nonpayable",
      "type": "function"
    },
    {
      "inputs": [
        {
          "internalType": "uint256",
          "name": "_unitDecimals",
          "type": "uint256"
        }
      ],
      "name": "setUnitDecimals",
      "outputs": [],
      "stateMutability": "nonpayable",
      "type": "function"
    },
    {
      "inputs": [
        {
          "internalType": "address",
          "name": "to",
          "type": "address"
        },
        {
          "internalType": "uint256",
          "name": "amount",
          "type": "uint256"
        }
      ],
      "name": "stake",
      "outputs": [],
      "stateMutability": "nonpayable",
      "type": "function"
    },
    {
      "inputs": [
        {
          "internalType": "address",
          "name": "delegateTo",
          "type": "address"
        },
        {
          "internalType": "uint256",
          "name": "amount",
          "type": "uint256"
        }
      ],
      "name": "stakeAndDelegate",
      "outputs": [],
      "stateMutability": "nonpayable",
      "type": "function"
    },
    {
      "inputs": [],
      "name": "stakeableToken",
      "outputs": [
        {
          "internalType": "contract IERC20",
          "name": "",
          "type": "address"
        }
      ],
      "stateMutability": "view",
      "type": "function"
    },
    {
      "inputs": [],
      "name": "stakingFactory",
      "outputs": [
        {
          "internalType": "address",
          "name": "",
          "type": "address"
        }
      ],
      "stateMutability": "view",
      "type": "function"
    },
    {
      "inputs": [
        {
          "internalType": "bytes4",
          "name": "interfaceId",
          "type": "bytes4"
        }
      ],
      "name": "supportsInterface",
      "outputs": [
        {
          "internalType": "bool",
          "name": "",
          "type": "bool"
        }
      ],
      "stateMutability": "view",
      "type": "function"
    },
    {
      "inputs": [],
      "name": "symbol",
      "outputs": [
        {
          "internalType": "string",
          "name": "",
          "type": "string"
        }
      ],
      "stateMutability": "view",
      "type": "function"
    },
    {
      "inputs": [
        {
          "internalType": "uint256",
          "name": "amount",
          "type": "uint256"
        }
      ],
      "name": "tokensToUnits",
      "outputs": [
        {
          "internalType": "uint128",
          "name": "",
          "type": "uint128"
        }
      ],
      "stateMutability": "view",
      "type": "function"
    },
    {
      "inputs": [],
      "name": "totalSupply",
      "outputs": [
        {
          "internalType": "uint256",
          "name": "",
          "type": "uint256"
        }
      ],
      "stateMutability": "view",
      "type": "function"
    },
    {
      "inputs": [
        {
          "internalType": "address",
          "name": "to",
          "type": "address"
        },
        {
          "internalType": "uint256",
          "name": "value",
          "type": "uint256"
        }
      ],
      "name": "transfer",
      "outputs": [
        {
          "internalType": "bool",
          "name": "",
          "type": "bool"
        }
      ],
      "stateMutability": "nonpayable",
      "type": "function"
    },
    {
      "inputs": [
        {
          "internalType": "address",
          "name": "from",
          "type": "address"
        },
        {
          "internalType": "address",
          "name": "to",
          "type": "address"
        },
        {
          "internalType": "uint256",
          "name": "value",
          "type": "uint256"
        }
      ],
      "name": "transferFrom",
      "outputs": [
        {
          "internalType": "bool",
          "name": "",
          "type": "bool"
        }
      ],
      "stateMutability": "nonpayable",
      "type": "function"
    },
    {
      "inputs": [],
      "name": "unitDecimals",
      "outputs": [
        {
          "internalType": "uint256",
          "name": "",
          "type": "uint256"
        }
      ],
      "stateMutability": "view",
      "type": "function"
    },
    {
      "inputs": [
        {
          "internalType": "address",
          "name": "account",
          "type": "address"
        }
      ],
      "name": "unlockDate",
      "outputs": [
        {
          "internalType": "uint256",
          "name": "",
          "type": "uint256"
        }
      ],
      "stateMutability": "view",
      "type": "function"
    },
    {
      "inputs": [
        {
          "internalType": "address",
          "name": "to",
          "type": "address"
        },
        {
          "internalType": "uint256",
          "name": "amount",
          "type": "uint256"
        }
      ],
      "name": "unstake",
      "outputs": [],
      "stateMutability": "nonpayable",
      "type": "function"
    },
    {
      "inputs": [
        {
          "internalType": "address",
          "name": "memberAddr",
          "type": "address"
        },
        {
          "internalType": "uint128",
          "name": "newUnits",
          "type": "uint128"
        }
      ],
      "name": "updateMemberUnits",
      "outputs": [],
      "stateMutability": "nonpayable",
      "type": "function"
    }
  ],
  "bytecode": "0x6080806040523460d2577ff0c57e16840df040f15088dc2f81fe391c3923bec73e23a9662efc9c229c6a005460ff8160401c1660c1576002600160401b03196001600160401b03821601605c575b604051612f8f90816100d88239f35b6001600160401b0319166001600160401b039081177ff0c57e16840df040f15088dc2f81fe391c3923bec73e23a9662efc9c229c6a005581527fc7f505b2f371ae2175ee4913f4499e1f2633a7b5936321eed1cdaeb6115181d290602090a13880604d565b63f92ee8a960e01b60005260046000fd5b600080fdfe608080604052600436101561001357600080fd5b600090813560e01c90816301ffc9a714611fca575080630455444314611fac57806305271a2a14611f8e57806306fdde0314611ea9578063095ea7b314611d9e57806316f0115b14611d7757806318160ddd14611d3a5780631b16777714611c8a57806323b872dd14611c51578063240be94414611c19578063248a9ca314611bcc5780632913476814611ba55780632f2ff15d14611b45578063313ce56714611b2957806336568abe14611acb57806342966c6814611aad5780634437152a14611a5e57806349ccd69e14611a02578063587cde1e146119c85780635bbbbc171461198d5780635c19a95c1461154657806370a08231146114ef57806379cc6790146114bb57806388f6a494146113bb57806391d148541461134f57806395d89b4114611232578063987b4c3914610ab1578063a217fddf14610a95578063a9059cbb14610a63578063adc9772e1461057c578063bdfc371e14610559578063c242652c1461043e578063c2a672e014610302578063d547741f14610299578063dd62ed3e1461021b578063ec87621c146101e05763ee5361b3146101b857600080fd5b346101dd57806003193601126101dd576001600160a01b036020915416604051908152f35b80fd5b50346101dd57806003193601126101dd5760206040517f241ecf16d79d0f8dbfb92cbc07fe17840425976cf0667f022fe9877caa831b088152f35b50346101dd5760406003193601126101dd576102356120b4565b6001600160a01b036102816102486120cf565b926001600160a01b03166000527f52c63247e1f47db19d5ce0460030c497f067ca4cebf71ba98eeadabe20bace01602052604060002090565b91166000526020526020604060002054604051908152f35b50346101dd5760406003193601126101dd576102fe6004356102b96120cf565b906102f96102f4826000527f02dd7bc7dec4dceedda775e58dd541e08a116c6c53815c0bd028192f7b62680060205260016040600020015490565b6122bb565b612b9a565b5080f35b50346101dd5760406003193601126101dd5761031c6120b4565b6103906020602435809361032e612e87565b6103388233612c67565b6001600160a01b0386541690866040518096819582947fa9059cbb00000000000000000000000000000000000000000000000000000000845260048401602090939291936001600160a01b0360408201951681520152565b03925af1801561043357610406575b50338252600160205260408220549060405191825260208201527ff279e6a1f5e320cca91135676d9cb6e44ca8a08c0b88342bcdb1144f6511b56860403392a260017f9b779b17422d0df92223018b32b4d1fa46e071723d6817e2486d003becc55f005580f35b6104279060203d60201161042c575b61041f81836120e5565b8101906121af565b61039f565b503d610415565b6040513d85823e3d90fd5b50346101dd5760206003193601126101dd576004358180527f02dd7bc7dec4dceedda775e58dd541e08a116c6c53815c0bd028192f7b626800602052604082206001600160a01b03331660005260205260ff6040600020541615610542576006548110156104d8576020817f3e062f634a950eae456fa5f8fb53a4f59f55039983bd73df7a34a313b75443d492600655604051908152a180f35b608460405162461bcd60e51b815260206004820152604060248201527f5374616b6564546f6b656e3a206e6577206475726174696f6e206d757374206260448201527f65206c657373207468616e207468652063757272656e74206475726174696f6e6064820152fd5b60448263e2517d3f60e01b81523360045280602452fd5b50346101dd5760206003193601126101dd57610573612249565b60043560035580f35b50346101dd5760406003193601126101dd576105966120b4565b602435906105a2612e87565b8260206001600160a01b038254166064604051809481937f23b872dd0000000000000000000000000000000000000000000000000000000083523360048401523060248401528860448401525af180156108a857610a46575b506001600160a01b038116918215610a1a57610638817f52c63247e1f47db19d5ce0460030c497f067ca4cebf71ba98eeadabe20bace02546121c7565b7f52c63247e1f47db19d5ce0460030c497f067ca4cebf71ba98eeadabe20bace02558284527f52c63247e1f47db19d5ce0460030c497f067ca4cebf71ba98eeadabe20bace006020526040842081815401905582847fddf252ad1be2c89b69c2b068fc378daa952ba7f163c4a11628f55a4df523b3ef6020604051858152a36001600160801b036106d36106cd600354612e59565b83612e67565b85805260046020526040862054911692906001600160a01b031615610a135784805260046020526001600160a01b03604086205416905b848652600460205260408620546001600160a01b031615610a0d575083855260046020526001600160a01b03604086205416905b6001600160a01b03811690816108eb575b50506001600160a01b03811690816107c8575b85857f90890809c654f11d6e72a28fa60149770a0d11ec6c92319d6ceb2bb0a4ea1a15604086838552600160205242828620558151904282526020820152a260017f9b779b17422d0df92223018b32b4d1fa46e071723d6817e2486d003becc55f005580f35b6001600160a01b036002541660405192630fefbc0960e01b84526004840152602083602481845afa9283156108e05761084c9560209461080f928a916108b3575b50612229565b9187604051809781958294631b16777760e01b8452600484019092916001600160801b036020916001600160a01b03604085019616845216910152565b03925af19081156108a8577f90890809c654f11d6e72a28fa60149770a0d11ec6c92319d6ceb2bb0a4ea1a1592604092610889575b819250610762565b6108a19060203d60201161042c5761041f81836120e5565b5038610881565b6040513d86823e3d90fd5b6108d39150863d88116108d9575b6108cb81836120e5565b8101906121ea565b38610809565b503d6108c1565b6040513d89823e3d90fd5b6001600160a01b03600254169060405192630fefbc0960e01b84526004840152602083602481855afa918215610a0257869389936109e1575b506001600160801b038316928361093e575b50505061074f565b8461099595602095116000146109d85761095791612209565b915b89604051809681958294631b16777760e01b8452600484019092916001600160801b036020916001600160a01b03604085019616845216910152565b03925af180156109cd576109ae575b8080808693610936565b6109c69060203d60201161042c5761041f81836120e5565b50386109a4565b6040513d88823e3d90fd5b50508891610959565b6109fb91935060203d6020116108d9576108cb81836120e5565b9138610924565b6040513d8a823e3d90fd5b9061073e565b849061070a565b6024847fec442f0500000000000000000000000000000000000000000000000000000000815280600452fd5b610a5e9060203d60201161042c5761041f81836120e5565b6105fb565b50346101dd5760406003193601126101dd57610a8a610a806120b4565b60243590336124a6565b602060405160018152f35b50346101dd57806003193601126101dd57602090604051908152f35b50346101dd5760e06003193601126101dd57610acb6120b4565b9060243567ffffffffffffffff811161122e57610aec90369060040161211e565b60443567ffffffffffffffff811161122a57610b0c90369060040161211e565b92606435906001600160a01b03821680920361122657608435916001600160a01b0383168093036112225760c435916001600160a01b03831680930361121e577ff0c57e16840df040f15088dc2f81fe391c3923bec73e23a9662efc9c229c6a00549460ff8660401c16159567ffffffffffffffff811680159081611216575b600114908161120c575b159081611203575b506111db578660017fffffffffffffffffffffffffffffffffffffffffffffffff00000000000000008316177ff0c57e16840df040f15088dc2f81fe391c3923bec73e23a9662efc9c229c6a0055611186575b50610bfa612f00565b610c02612f00565b80519067ffffffffffffffff8211611172578190610c407f52c63247e1f47db19d5ce0460030c497f067ca4cebf71ba98eeadabe20bace0354612175565b601f81116110e5575b50602090601f8311600114611044578992611039575b50506000198260011b9260031b1c1916177f52c63247e1f47db19d5ce0460030c497f067ca4cebf71ba98eeadabe20bace03555b865167ffffffffffffffff811161102557610cce7f52c63247e1f47db19d5ce0460030c497f067ca4cebf71ba98eeadabe20bace0454612175565b97601f8911610fa3575b87809950969750602090601f8311600114610eeb57928260449593610d8a9360209998968b92610ee0575b50506000198260011b9260031b1c1916177f52c63247e1f47db19d5ce0460030c497f067ca4cebf71ba98eeadabe20bace04555b610d3f612f00565b610d47612f00565b610d4f612f00565b60017f9b779b17422d0df92223018b32b4d1fa46e071723d6817e2486d003becc55f0055610d7b612f00565b610d8481612942565b506129f4565b50610d94336129f4565b5073ffffffffffffffffffffffffffffffffffffffff198654161785558273ffffffffffffffffffffffffffffffffffffffff19600254161760025560a43560065560126003553373ffffffffffffffffffffffffffffffffffffffff1960055416176005556040519485938492631b16777760e01b84526004840152600160248401525af1801561043357610ec1575b50610e2d5780f35b7fffffffffffffffffffffffffffffffffffffffffffffff00ffffffffffffffff7ff0c57e16840df040f15088dc2f81fe391c3923bec73e23a9662efc9c229c6a0054167ff0c57e16840df040f15088dc2f81fe391c3923bec73e23a9662efc9c229c6a00557fc7f505b2f371ae2175ee4913f4499e1f2633a7b5936321eed1cdaeb6115181d2602060405160018152a180f35b610ed99060203d60201161042c5761041f81836120e5565b5038610e25565b015190503880610d03565b601f19839298979695949316907f52c63247e1f47db19d5ce0460030c497f067ca4cebf71ba98eeadabe20bace04885288882091885b818110610f885750926044969594926020999a60019383610d8a9710610f6f575b505050811b017f52c63247e1f47db19d5ce0460030c497f067ca4cebf71ba98eeadabe20bace0455610d37565b015160001960f88460031b161c19169055388080610f42565b828b0151845560209a8b019a8d9a5060019094019301610f21565b7f52c63247e1f47db19d5ce0460030c497f067ca4cebf71ba98eeadabe20bace0488527f46a2803e59a4de4e7a4c574b1243f25977ac4c77d5a1a4a609b5394cebb4a2aa601f830160051c8101996020841061101b575b601f0160051c01985b8981106110105750610cd8565b888155600101611003565b9099508990610ffa565b602487634e487b7160e01b81526041600452fd5b015190503880610c5f565b7f52c63247e1f47db19d5ce0460030c497f067ca4cebf71ba98eeadabe20bace038a52818a2092601f19168a5b8181106110cd57509084600195949392106110b4575b505050811b017f52c63247e1f47db19d5ce0460030c497f067ca4cebf71ba98eeadabe20bace0355610c93565b015160001960f88460031b161c19169055388080611087565b92936020600181928786015181550195019301611071565b7f52c63247e1f47db19d5ce0460030c497f067ca4cebf71ba98eeadabe20bace038a529091507f2ae08a8e29253f69ac5d979a101956ab8f8d9d7ded63fa7a83b16fc47648eab0601f840160051c81019160208510611168575b90601f859493920160051c01905b81811061115a5750610c49565b8a815584935060010161114d565b909150819061113f565b602488634e487b7160e01b81526041600452fd5b7fffffffffffffffffffffffffffffffffffffffffffffff0000000000000000001668010000000000000001177ff0c57e16840df040f15088dc2f81fe391c3923bec73e23a9662efc9c229c6a005538610bf1565b6004887ff92ee8a9000000000000000000000000000000000000000000000000000000008152fd5b90501538610b9e565b303b159150610b96565b889150610b8c565b8580fd5b8480fd5b8380fd5b8280fd5b5080fd5b50346101dd57806003193601126101dd5760405190807f52c63247e1f47db19d5ce0460030c497f067ca4cebf71ba98eeadabe20bace04549061127482612175565b808552916001811690811561132857506001146112ac575b6112a88461129c818603826120e5565b6040519182918261206a565b0390f35b7f52c63247e1f47db19d5ce0460030c497f067ca4cebf71ba98eeadabe20bace0481527f46a2803e59a4de4e7a4c574b1243f25977ac4c77d5a1a4a609b5394cebb4a2aa939250905b80821061130e5750909150810160200161129c8261128c565b9192600181602092548385880101520191019092916112f5565b60ff191660208087019190915292151560051b8501909201925061129c915083905061128c565b50346101dd5760406003193601126101dd576001600160a01b0360406113736120cf565b9260043581527f02dd7bc7dec4dceedda775e58dd541e08a116c6c53815c0bd028192f7b626800602052209116600052602052602060ff604060002054166040519015158152f35b50346101dd5760406003193601126101dd576113d56120b4565b303b1561122e576040517fadc9772e0000000000000000000000000000000000000000000000000000000081523360048201526024803590820152828160448183305af18015610433576114a2575b506001600160a01b0382911633810361143a5750f35b303b1561149f57604051907f5c19a95c0000000000000000000000000000000000000000000000000000000082526004820152818160248183305af18015611494576114835750f35b8161148d916120e5565b6101dd5780f35b6040513d84823e3d90fd5b50fd5b916114b5816001600160a01b03946120e5565b91611424565b50346101dd5760406003193601126101dd576114ec6114d86120b4565b602435906114e7823383612321565b612c67565b80f35b50346101dd5760206003193601126101dd5760406020916001600160a01b036115166120b4565b1681527f52c63247e1f47db19d5ce0460030c497f067ca4cebf71ba98eeadabe20bace0083522054604051908152f35b50346101dd5760206003193601126101dd576115606120b4565b6001600160a01b0381168015611923573383527f52c63247e1f47db19d5ce0460030c497f067ca4cebf71ba98eeadabe20bace00602052826001600160801b036115b960408320546115b3600354612e59565b90612e67565b338352600460205260408320549116906001600160a01b0316156117e3576001600160a01b036002541633835260046020526001600160a01b036040842054169060405191630fefbc0960e01b83526004830152602082602481845afa9182156108a85784926117c2575b506001600160801b03821661172b575b50506001600160a01b036002541660405190630fefbc0960e01b8252846004830152602082602481845afa9182156108a8576020936116b89361167d9287916108b35750612229565b604051631b16777760e01b81526001600160a01b03881660048201526001600160801b03909116602482015293849283919082906044820190565b03925af180156108a85761170c575b505b33036117075750805b33825260046020526001600160a01b0360408320911673ffffffffffffffffffffffffffffffffffffffff1982541617905580f35b6116d2565b6117249060203d60201161042c5761041f81836120e5565b50386116c7565b61178e9160209133865260048352611751856001600160a01b0360408920541693612209565b9186604051809681958294631b16777760e01b8452600484019092916001600160801b036020916001600160a01b03604085019616845216910152565b03925af18015610433576117a3575b80611634565b6117bb9060203d60201161042c5761041f81836120e5565b503861179d565b6117dc91925060203d6020116108d9576108cb81836120e5565b9038611624565b6001600160a01b0360025416604051630fefbc0960e01b8152336004820152602081602481855afa9081156108a857849261182c8560209461185e948791611906575b50612209565b604051631b16777760e01b81523360048201526001600160801b03909116602482015293849283919082906044820190565b03925af18015610433576118e9575b506001600160a01b036002541660405190630fefbc0960e01b8252846004830152602082602481845afa9182156108a8576020936118b59361167d9287916108b35750612229565b03925af180156108a8576118ca575b506116c9565b6118e29060203d60201161042c5761041f81836120e5565b50386118c4565b6119019060203d60201161042c5761041f81836120e5565b61186d565b61191d9150863d88116108d9576108cb81836120e5565b38611826565b608460405162461bcd60e51b815260206004820152602960248201527f5374616b6564546f6b656e3a2064656c656761746520746f20746865207a657260448201527f6f206164647265737300000000000000000000000000000000000000000000006064820152fd5b50346101dd5760206003193601126101dd5760206001600160801b036119bf6119b7600354612e59565b600435612e67565b16604051908152f35b50346101dd5760206003193601126101dd576001600160a01b036040602092826119f06120b4565b16815260048452205416604051908152f35b50346101dd5760206003193601126101dd576020906001600160a01b03611a276120b4565b16808252600183526040822054611a4257505b604051908152f35b8152600182526040902054600654611a59916121c7565b611a3a565b50346101dd5760206003193601126101dd576004356001600160a01b03811680910361122e57611a8c612249565b73ffffffffffffffffffffffffffffffffffffffff19600254161760025580f35b50346101dd5760206003193601126101dd576114ec60043533612c67565b50346101dd5760406003193601126101dd57611ae56120cf565b336001600160a01b03821603611b01576102fe90600435612b9a565b6004827f6697b232000000000000000000000000000000000000000000000000000000008152fd5b50346101dd57806003193601126101dd57602060405160128152f35b50346101dd5760406003193601126101dd576102fe600435611b656120cf565b90611ba06102f4826000527f02dd7bc7dec4dceedda775e58dd541e08a116c6c53815c0bd028192f7b62680060205260016040600020015490565b612ac2565b50346101dd57806003193601126101dd5760206001600160a01b0360055416604051908152f35b50346101dd5760206003193601126101dd576020611a3a6004356000527f02dd7bc7dec4dceedda775e58dd541e08a116c6c53815c0bd028192f7b62680060205260016040600020015490565b50346101dd5760206003193601126101dd5760406020916001600160a01b03611c406120b4565b168152600183522054604051908152f35b50346101dd5760606003193601126101dd57610a8a611c6e6120b4565b611c766120cf565b60443591611c85833383612321565b6124a6565b50346101dd5760406003193601126101dd57611ca46120b4565b602435906001600160801b038216820361122a57611d1091602091611cc7612249565b6001600160a01b03600254169085604051809681958294631b16777760e01b8452600484019092916001600160801b036020916001600160a01b03604085019616845216910152565b03925af1801561149457611d22575080f35b6102fe9060203d60201161042c5761041f81836120e5565b50346101dd57806003193601126101dd5760207f52c63247e1f47db19d5ce0460030c497f067ca4cebf71ba98eeadabe20bace0254604051908152f35b50346101dd57806003193601126101dd5760206001600160a01b0360025416604051908152f35b50346101dd5760406003193601126101dd57611db86120b4565b602435903315611e7d576001600160a01b0316918215611e515760408291611e12336001600160a01b03166000527f52c63247e1f47db19d5ce0460030c497f067ca4cebf71ba98eeadabe20bace01602052604060002090565b85825260205220556040519081527f8c5be1e5ebec7d5bd14f71427d1e84f3dd0314c0f7b2291e5b200ac8c7c3b92560203392a3602060405160018152f35b807f94280d62000000000000000000000000000000000000000000000000000000006024925280600452fd5b6024837fe602df0500000000000000000000000000000000000000000000000000000000815280600452fd5b50346101dd57806003193601126101dd5760405190807f52c63247e1f47db19d5ce0460030c497f067ca4cebf71ba98eeadabe20bace035490611eeb82612175565b80855291600181169081156113285750600114611f12576112a88461129c818603826120e5565b7f52c63247e1f47db19d5ce0460030c497f067ca4cebf71ba98eeadabe20bace0381527f2ae08a8e29253f69ac5d979a101956ab8f8d9d7ded63fa7a83b16fc47648eab0939250905b808210611f745750909150810160200161129c8261128c565b919260018160209254838588010152019101909291611f5b565b50346101dd57806003193601126101dd576020600354604051908152f35b50346101dd57806003193601126101dd576020600654604051908152f35b90503461122e57602060031936011261122e576004357fffffffff00000000000000000000000000000000000000000000000000000000811680910361122a57602092507f7965db0b000000000000000000000000000000000000000000000000000000008114908115612040575b5015158152f35b7f01ffc9a70000000000000000000000000000000000000000000000000000000091501438612039565b9190916020815282519283602083015260005b84811061209e575050601f19601f8460006040809697860101520116010190565b806020809284010151604082860101520161207d565b600435906001600160a01b03821682036120ca57565b600080fd5b602435906001600160a01b03821682036120ca57565b90601f601f19910116810190811067ffffffffffffffff82111761210857604052565b634e487b7160e01b600052604160045260246000fd5b81601f820112156120ca5780359067ffffffffffffffff821161210857604051926121536020601f19601f86011601856120e5565b828452602083830101116120ca57816000926020809301838601378301015290565b90600182811c921680156121a5575b602083101461218f57565b634e487b7160e01b600052602260045260246000fd5b91607f1691612184565b908160209103126120ca575180151581036120ca5790565b919082018092116121d457565b634e487b7160e01b600052601160045260246000fd5b908160209103126120ca57516001600160801b03811681036120ca5790565b906001600160801b03809116911603906001600160801b0382116121d457565b906001600160801b03809116911601906001600160801b0382116121d457565b3360009081527f06484cc59dc38e4f67c31122333a17ca81b3ca18cdf02bfc298072fa52b0316a602052604090205460ff161561228257565b63e2517d3f60e01b600052336004527f241ecf16d79d0f8dbfb92cbc07fe17840425976cf0667f022fe9877caa831b0860245260446000fd5b806000527f02dd7bc7dec4dceedda775e58dd541e08a116c6c53815c0bd028192f7b62680060205260406000206001600160a01b03331660005260205260ff60406000205416156123095750565b63e2517d3f60e01b6000523360045260245260446000fd5b919061235f836001600160a01b03166000527f52c63247e1f47db19d5ce0460030c497f067ca4cebf71ba98eeadabe20bace01602052604060002090565b6001600160a01b038216600052602052604060002054926000198410612386575b50505050565b828410612467576001600160a01b03811615612438576001600160a01b03821615612409576123ef6001600160a01b03916001600160a01b03166000527f52c63247e1f47db19d5ce0460030c497f067ca4cebf71ba98eeadabe20bace01602052604060002090565b911660005260205260406000209103905538808080612380565b7f94280d6200000000000000000000000000000000000000000000000000000000600052600060045260246000fd5b7fe602df0500000000000000000000000000000000000000000000000000000000600052600060045260246000fd5b506001600160a01b0383917ffb8f41b2000000000000000000000000000000000000000000000000000000006000521660045260245260445260646000fd5b6001600160a01b0381168015612913576001600160a01b0383169081156128e4576000948186527f52c63247e1f47db19d5ce0460030c497f067ca4cebf71ba98eeadabe20bace0060205260408620548181106128b05781908388527f52c63247e1f47db19d5ce0460030c497f067ca4cebf71ba98eeadabe20bace006020520360408720558286527f52c63247e1f47db19d5ce0460030c497f067ca4cebf71ba98eeadabe20bace006020526040862081815401905582827fddf252ad1be2c89b69c2b068fc378daa952ba7f163c4a11628f55a4df523b3ef6020604051858152a381865260016020526125a26040872054600654906121c7565b421115612847576125c06001600160801b03916115b3600354612e59565b82875260046020526040872054911693906001600160a01b03161561283f5750845260046020526001600160a01b03604085205416925b818552600460205260408520546001600160a01b0316156128375750835260046020526001600160a01b03604084205416915b6001600160a01b0381169081612729575b50506001600160a01b03821690816126535750505050565b6001600160a01b03600254169160405190630fefbc0960e01b82526004820152602081602481865afa90811561271e578594926020949261269d926126da98916108b35750612229565b9184604051809781958294631b16777760e01b8452600484019092916001600160801b036020916001600160a01b03604085019616845216910152565b03925af190811561271257506126f3575b808080612380565b61270b9060203d60201161042c5761041f81836120e5565b50386126eb565b604051903d90823e3d90fd5b6040513d87823e3d90fd5b6001600160a01b036002541660405192630fefbc0960e01b84526004840152602083602481845afa9283156109cd5790849392918793612816575b506001600160801b038316928361277e575b50505061263b565b846127d5956020951160001461280d5761279791612209565b915b87604051809681958294631b16777760e01b8452600484019092916001600160801b036020916001600160a01b03604085019616845216910152565b03925af180156108a8576127ee575b8080808493612776565b6128069060203d60201161042c5761041f81836120e5565b50386127e4565b50508691612799565b61283091935060203d6020116108d9576108cb81836120e5565b9138612764565b90509161262a565b9050926125f7565b608460405162461bcd60e51b8152602060048201526024808201527f5374616b6564546f6b656e3a20746f6b656e7320617265207374696c6c206c6f60448201527f636b6564000000000000000000000000000000000000000000000000000000006064820152fd5b6064935086927fe450d38c000000000000000000000000000000000000000000000000000000008452600452602452604452fd5b7fec442f0500000000000000000000000000000000000000000000000000000000600052600060045260246000fd5b7f96c6fd1e00000000000000000000000000000000000000000000000000000000600052600060045260246000fd5b6001600160a01b03811660009081527fb7db2dd08fcb62d0c9e08c51941cae53c267786a0b75803fb7960902fc8ef97d602052604090205460ff166129ee576001600160a01b031660008181527fb7db2dd08fcb62d0c9e08c51941cae53c267786a0b75803fb7960902fc8ef97d60205260408120805460ff191660011790553391907f2f8788117e7eff1d82e926ec794901d17c78024a50270940304540a733656f0d8180a4600190565b50600090565b6001600160a01b03811660009081527f06484cc59dc38e4f67c31122333a17ca81b3ca18cdf02bfc298072fa52b0316a602052604090205460ff166129ee576001600160a01b031660008181527f06484cc59dc38e4f67c31122333a17ca81b3ca18cdf02bfc298072fa52b0316a60205260408120805460ff191660011790553391907f241ecf16d79d0f8dbfb92cbc07fe17840425976cf0667f022fe9877caa831b08907f2f8788117e7eff1d82e926ec794901d17c78024a50270940304540a733656f0d9080a4600190565b806000527f02dd7bc7dec4dceedda775e58dd541e08a116c6c53815c0bd028192f7b62680060205260406000206001600160a01b03831660005260205260ff6040600020541615600014612b9357806000527f02dd7bc7dec4dceedda775e58dd541e08a116c6c53815c0bd028192f7b62680060205260406000206001600160a01b0383166000526020526040600020600160ff198254161790556001600160a01b03339216907f2f8788117e7eff1d82e926ec794901d17c78024a50270940304540a733656f0d600080a4600190565b5050600090565b806000527f02dd7bc7dec4dceedda775e58dd541e08a116c6c53815c0bd028192f7b62680060205260406000206001600160a01b03831660005260205260ff60406000205416600014612b9357806000527f02dd7bc7dec4dceedda775e58dd541e08a116c6c53815c0bd028192f7b62680060205260406000206001600160a01b038316600052602052604060002060ff1981541690556001600160a01b03339216907ff6391f5c32d9c69d2a47ea670b442974b53935d1edc7fd64eb21e047a839171b600080a4600190565b6001600160a01b0381168015612913576000928184527f52c63247e1f47db19d5ce0460030c497f067ca4cebf71ba98eeadabe20bace006020526040842054818110612e255781908386527f52c63247e1f47db19d5ce0460030c497f067ca4cebf71ba98eeadabe20bace00602052036040852055807f52c63247e1f47db19d5ce0460030c497f067ca4cebf71ba98eeadabe20bace0254037f52c63247e1f47db19d5ce0460030c497f067ca4cebf71ba98eeadabe20bace025583827fddf252ad1be2c89b69c2b068fc378daa952ba7f163c4a11628f55a4df523b3ef6020604051858152a38184526001602052612d676040852054600654906121c7565b42111561284757612d856001600160801b03916115b3600354612e59565b82855260046020526040852054911692906001600160a01b031615612e1d5750825260046020526001600160a01b03604083205416905b828052600460205260408320546001600160a01b031615612e165782805260046020526001600160a01b03604084205416916001600160a01b03811690816127295750506001600160a01b03821690816126535750505050565b829161262a565b905090612dbc565b6064935084927fe450d38c000000000000000000000000000000000000000000000000000000008452600452602452604452fd5b604d81116121d457600a0a90565b8115612e71570490565b634e487b7160e01b600052601260045260246000fd5b60027f9b779b17422d0df92223018b32b4d1fa46e071723d6817e2486d003becc55f005414612ed65760027f9b779b17422d0df92223018b32b4d1fa46e071723d6817e2486d003becc55f0055565b7f3ee5aeb50000000000000000000000000000000000000000000000000000000060005260046000fd5b60ff7ff0c57e16840df040f15088dc2f81fe391c3923bec73e23a9662efc9c229c6a005460401c1615612f2f57565b7fd7e6bcf80000000000000000000000000000000000000000000000000000000060005260046000fdfea2646970667358221220a7fb05a1ff4a226e3a44e8e14f39595909ecb00b46fa9fd12d667341919b3bc364736f6c634300081a0033",
  "linkReferences": {},
  "deployedLinkReferences": {}
}