{
  "_format": "hh-sol-artifact-1",
  "contractName": "StakedTokenV2",
  "sourceName": "contracts/hook/staking/StakedTokenv2.sol",
  "abi": [
    {
      "inputs": [],
      "stateMutability": "nonpayable",
      "type": "constructor"
    },
    {
      "inputs": [],
      "name": "AccessControlBadConfirmation",
      "type": "error"
    },
    {
      "inputs": [
        {
          "internalType": "address",
          "name": "account",
          "type": "address"
        },
        {
          "internalType": "bytes32",
          "name": "neededRole",
          "type": "bytes32"
        }
      ],
      "name": "AccessControlUnauthorizedAccount",
      "type": "error"
    },
    {
      "inputs": [
        {
          "internalType": "address",
          "name": "spender",
          "type": "address"
        },
        {
          "internalType": "uint256",
          "name": "allowance",
          "type": "uint256"
        },
        {
          "internalType": "uint256",
          "name": "needed",
          "type": "uint256"
        }
      ],
      "name": "ERC20InsufficientAllowance",
      "type": "error"
    },
    {
      "inputs": [
        {
          "internalType": "address",
          "name": "sender",
          "type": "address"
        },
        {
          "internalType": "uint256",
          "name": "balance",
          "type": "uint256"
        },
        {
          "internalType": "uint256",
          "name": "needed",
          "type": "uint256"
        }
      ],
      "name": "ERC20InsufficientBalance",
      "type": "error"
    },
    {
      "inputs": [
        {
          "internalType": "address",
          "name": "approver",
          "type": "address"
        }
      ],
      "name": "ERC20InvalidApprover",
      "type": "error"
    },
    {
      "inputs": [
        {
          "internalType": "address",
          "name": "receiver",
          "type": "address"
        }
      ],
      "name": "ERC20InvalidReceiver",
      "type": "error"
    },
    {
      "inputs": [
        {
          "internalType": "address",
          "name": "sender",
          "type": "address"
        }
      ],
      "name": "ERC20InvalidSender",
      "type": "error"
    },
    {
      "inputs": [
        {
          "internalType": "address",
          "name": "spender",
          "type": "address"
        }
      ],
      "name": "ERC20InvalidSpender",
      "type": "error"
    },
    {
      "inputs": [],
      "name": "InvalidInitialization",
      "type": "error"
    },
    {
      "inputs": [],
      "name": "NotInitializing",
      "type": "error"
    },
    {
      "inputs": [],
      "name": "ReentrancyGuardReentrantCall",
      "type": "error"
    },
    {
      "anonymous": false,
      "inputs": [
        {
          "indexed": true,
          "internalType": "address",
          "name": "owner",
          "type": "address"
        },
        {
          "indexed": true,
          "internalType": "address",
          "name": "spender",
          "type": "address"
        },
        {
          "indexed": false,
          "internalType": "uint256",
          "name": "value",
          "type": "uint256"
        }
      ],
      "name": "Approval",
      "type": "event"
    },
    {
      "anonymous": false,
      "inputs": [
        {
          "indexed": true,
          "internalType": "address",
          "name": "delegator",
          "type": "address"
        },
        {
          "indexed": true,
          "internalType": "address",
          "name": "delegatee",
          "type": "address"
        }
      ],
      "name": "Delegated",
      "type": "event"
    },
    {
      "anonymous": false,
      "inputs": [
        {
          "indexed": true,
          "internalType": "address",
          "name": "account",
          "type": "address"
        },
        {
          "indexed": false,
          "internalType": "uint256",
          "name": "depositTimestamp",
          "type": "uint256"
        },
        {
          "indexed": false,
          "internalType": "uint256",
          "name": "amount",
          "type": "uint256"
        }
      ],
      "name": "Deposit",
      "type": "event"
    },
    {
      "anonymous": false,
      "inputs": [
        {
          "indexed": false,
          "internalType": "uint64",
          "name": "version",
          "type": "uint64"
        }
      ],
      "name": "Initialized",
      "type": "event"
    },
    {
      "anonymous": false,
      "inputs": [
        {
          "indexed": false,
          "internalType": "uint256",
          "name": "duration",
          "type": "uint256"
        }
      ],
      "name": "LockDurationUpdated",
      "type": "event"
    },
    {
      "anonymous": false,
      "inputs": [
        {
          "indexed": true,
          "internalType": "bytes32",
          "name": "role",
          "type": "bytes32"
        },
        {
          "indexed": true,
          "internalType": "bytes32",
          "name": "previousAdminRole",
          "type": "bytes32"
        },
        {
          "indexed": true,
          "internalType": "bytes32",
          "name": "newAdminRole",
          "type": "bytes32"
        }
      ],
      "name": "RoleAdminChanged",
      "type": "event"
    },
    {
      "anonymous": false,
      "inputs": [
        {
          "indexed": true,
          "internalType": "bytes32",
          "name": "role",
          "type": "bytes32"
        },
        {
          "indexed": true,
          "internalType": "address",
          "name": "account",
          "type": "address"
        },
        {
          "indexed": true,
          "internalType": "address",
          "name": "sender",
          "type": "address"
        }
      ],
      "name": "RoleGranted",
      "type": "event"
    },
    {
      "anonymous": false,
      "inputs": [
        {
          "indexed": true,
          "internalType": "bytes32",
          "name": "role",
          "type": "bytes32"
        },
        {
          "indexed": true,
          "internalType": "address",
          "name": "account",
          "type": "address"
        },
        {
          "indexed": true,
          "internalType": "address",
          "name": "sender",
          "type": "address"
        }
      ],
      "name": "RoleRevoked",
      "type": "event"
    },
    {
      "anonymous": false,
      "inputs": [
        {
          "indexed": true,
          "internalType": "address",
          "name": "from",
          "type": "address"
        },
        {
          "indexed": true,
          "internalType": "address",
          "name": "to",
          "type": "address"
        },
        {
          "indexed": false,
          "internalType": "uint256",
          "name": "value",
          "type": "uint256"
        }
      ],
      "name": "Transfer",
      "type": "event"
    },
    {
      "anonymous": false,
      "inputs": [
        {
          "indexed": true,
          "internalType": "address",
          "name": "account",
          "type": "address"
        },
        {
          "indexed": false,
          "internalType": "uint256",
          "name": "depositTimestamp",
          "type": "uint256"
        },
        {
          "indexed": false,
          "internalType": "uint256",
          "name": "amount",
          "type": "uint256"
        }
      ],
      "name": "Withdraw",
      "type": "event"
    },
    {
      "inputs": [],
      "name": "DEFAULT_ADMIN_ROLE",
      "outputs": [
        {
          "internalType": "bytes32",
          "name": "",
          "type": "bytes32"
        }
      ],
      "stateMutability": "view",
      "type": "function"
    },
    {
      "inputs": [],
      "name": "MANAGER_ROLE",
      "outputs": [
        {
          "internalType": "bytes32",
          "name": "",
          "type": "bytes32"
        }
      ],
      "stateMutability": "view",
      "type": "function"
    },
    {
      "inputs": [
        {
          "internalType": "address",
          "name": "owner",
          "type": "address"
        },
        {
          "internalType": "address",
          "name": "spender",
          "type": "address"
        }
      ],
      "name": "allowance",
      "outputs": [
        {
          "internalType": "uint256",
          "name": "",
          "type": "uint256"
        }
      ],
      "stateMutability": "view",
      "type": "function"
    },
    {
      "inputs": [
        {
          "internalType": "address",
          "name": "spender",
          "type": "address"
        },
        {
          "internalType": "uint256",
          "name": "value",
          "type": "uint256"
        }
      ],
      "name": "approve",
      "outputs": [
        {
          "internalType": "bool",
          "name": "",
          "type": "bool"
        }
      ],
      "stateMutability": "nonpayable",
      "type": "function"
    },
    {
      "inputs": [
        {
          "internalType": "address",
          "name": "account",
          "type": "address"
        }
      ],
      "name": "balanceOf",
      "outputs": [
        {
          "internalType": "uint256",
          "name": "",
          "type": "uint256"
        }
      ],
      "stateMutability": "view",
      "type": "function"
    },
    {
      "inputs": [
        {
          "internalType": "uint256",
          "name": "value",
          "type": "uint256"
        }
      ],
      "name": "burn",
      "outputs": [],
      "stateMutability": "nonpayable",
      "type": "function"
    },
    {
      "inputs": [
        {
          "internalType": "address",
          "name": "account",
          "type": "address"
        },
        {
          "internalType": "uint256",
          "name": "value",
          "type": "uint256"
        }
      ],
      "name": "burnFrom",
      "outputs": [],
      "stateMutability": "nonpayable",
      "type": "function"
    },
    {
      "inputs": [],
      "name": "decimals",
      "outputs": [
        {
          "internalType": "uint8",
          "name": "",
          "type": "uint8"
        }
      ],
      "stateMutability": "view",
      "type": "function"
    },
    {
      "inputs": [
        {
          "internalType": "address",
          "name": "to",
          "type": "address"
        }
      ],
      "name": "delegate",
      "outputs": [],
      "stateMutability": "nonpayable",
      "type": "function"
    },
    {
      "inputs": [
        {
          "internalType": "address",
          "name": "",
          "type": "address"
        }
      ],
      "name": "delegates",
      "outputs": [
        {
          "internalType": "address",
          "name": "",
          "type": "address"
        }
      ],
      "stateMutability": "view",
      "type": "function"
    },
    {
      "inputs": [
        {
          "internalType": "address",
          "name": "account",
          "type": "address"
        }
      ],
      "name": "depositTimestamps",
      "outputs": [
        {
          "internalType": "uint256",
          "name": "",
          "type": "uint256"
        }
      ],
      "stateMutability": "view",
      "type": "function"
    },
    {
      "inputs": [
        {
          "internalType": "bytes32",
          "name": "role",
          "type": "bytes32"
        }
      ],
      "name": "getRoleAdmin",
      "outputs": [
        {
          "internalType": "bytes32",
          "name": "",
          "type": "bytes32"
        }
      ],
      "stateMutability": "view",
      "type": "function"
    },
    {
      "inputs": [
        {
          "internalType": "bytes32",
          "name": "role",
          "type": "bytes32"
        },
        {
          "internalType": "address",
          "name": "account",
          "type": "address"
        }
      ],
      "name": "grantRole",
      "outputs": [],
      "stateMutability": "nonpayable",
      "type": "function"
    },
    {
      "inputs": [
        {
          "internalType": "bytes32",
          "name": "role",
          "type": "bytes32"
        },
        {
          "internalType": "address",
          "name": "account",
          "type": "address"
        }
      ],
      "name": "hasRole",
      "outputs": [
        {
          "internalType": "bool",
          "name": "",
          "type": "bool"
        }
      ],
      "stateMutability": "view",
      "type": "function"
    },
    {
      "inputs": [
        {
          "internalType": "address",
          "name": "_defaultAdmin",
          "type": "address"
        },
        {
          "internalType": "string",
          "name": "_name",
          "type": "string"
        },
        {
          "internalType": "string",
          "name": "_symbol",
          "type": "string"
        },
        {
          "internalType": "address",
          "name": "_stakeableToken",
          "type": "address"
        },
        {
          "internalType": "address",
          "name": "_pool",
          "type": "address"
        },
        {
          "internalType": "uint256",
          "name": "_lockDuration",
          "type": "uint256"
        },
        {
          "internalType": "address",
          "name": "_teamRecipient",
          "type": "address"
        }
      ],
      "name": "initialize",
      "outputs": [],
      "stateMutability": "nonpayable",
      "type": "function"
    },
    {
      "inputs": [],
      "name": "lockDuration",
      "outputs": [
        {
          "internalType": "uint256",
          "name": "",
          "type": "uint256"
        }
      ],
      "stateMutability": "view",
      "type": "function"
    },
    {
      "inputs": [],
      "name": "name",
      "outputs": [
        {
          "internalType": "string",
          "name": "",
          "type": "string"
        }
      ],
      "stateMutability": "view",
      "type": "function"
    },
    {
      "inputs": [],
      "name": "pool",
      "outputs": [
        {
          "internalType": "contract IDistributionPool",
          "name": "",
          "type": "address"
        }
      ],
      "stateMutability": "view",
      "type": "function"
    },
    {
      "inputs": [
        {
          "internalType": "uint256",
          "name": "newDuration",
          "type": "uint256"
        }
      ],
      "name": "reduceLockDuration",
      "outputs": [],
      "stateMutability": "nonpayable",
      "type": "function"
    },
    {
      "inputs": [
        {
          "internalType": "bytes32",
          "name": "role",
          "type": "bytes32"
        },
        {
          "internalType": "address",
          "name": "callerConfirmation",
          "type": "address"
        }
      ],
      "name": "renounceRole",
      "outputs": [],
      "stateMutability": "nonpayable",
      "type": "function"
    },
    {
      "inputs": [
        {
          "internalType": "bytes32",
          "name": "role",
          "type": "bytes32"
        },
        {
          "internalType": "address",
          "name": "account",
          "type": "address"
        }
      ],
      "name": "revokeRole",
      "outputs": [],
      "stateMutability": "nonpayable",
      "type": "function"
    },
    {
      "inputs": [
        {
          "internalType": "contract IDistributionPool",
          "name": "_pool",
          "type": "address"
        }
      ],
      "name": "setPool",
      "outputs": [],
      "stateMutability": "nonpayable",
      "type": "function"
    },
    {
      "inputs": [
        {
          "internalType": "uint256",
          "name": "_unitDecimals",
          "type": "uint256"
        }
      ],
      "name": "setUnitDecimals",
      "outputs": [],
      "stateMutability": "nonpayable",
      "type": "function"
    },
    {
      "inputs": [
        {
          "internalType": "address",
          "name": "to",
          "type": "address"
        },
        {
          "internalType": "uint256",
          "name": "amount",
          "type": "uint256"
        }
      ],
      "name": "stake",
      "outputs": [],
      "stateMutability": "nonpayable",
      "type": "function"
    },
    {
      "inputs": [
        {
          "internalType": "address",
          "name": "delegateTo",
          "type": "address"
        },
        {
          "internalType": "uint256",
          "name": "amount",
          "type": "uint256"
        }
      ],
      "name": "stakeAndDelegate",
      "outputs": [],
      "stateMutability": "nonpayable",
      "type": "function"
    },
    {
      "inputs": [],
      "name": "stakeableToken",
      "outputs": [
        {
          "internalType": "contract IERC20",
          "name": "",
          "type": "address"
        }
      ],
      "stateMutability": "view",
      "type": "function"
    },
    {
      "inputs": [],
      "name": "stakingFactory",
      "outputs": [
        {
          "internalType": "address",
          "name": "",
          "type": "address"
        }
      ],
      "stateMutability": "view",
      "type": "function"
    },
    {
      "inputs": [
        {
          "internalType": "bytes4",
          "name": "interfaceId",
          "type": "bytes4"
        }
      ],
      "name": "supportsInterface",
      "outputs": [
        {
          "internalType": "bool",
          "name": "",
          "type": "bool"
        }
      ],
      "stateMutability": "view",
      "type": "function"
    },
    {
      "inputs": [],
      "name": "symbol",
      "outputs": [
        {
          "internalType": "string",
          "name": "",
          "type": "string"
        }
      ],
      "stateMutability": "view",
      "type": "function"
    },
    {
      "inputs": [
        {
          "internalType": "uint256",
          "name": "amount",
          "type": "uint256"
        }
      ],
      "name": "tokensToUnits",
      "outputs": [
        {
          "internalType": "uint128",
          "name": "",
          "type": "uint128"
        }
      ],
      "stateMutability": "view",
      "type": "function"
    },
    {
      "inputs": [],
      "name": "totalSupply",
      "outputs": [
        {
          "internalType": "uint256",
          "name": "",
          "type": "uint256"
        }
      ],
      "stateMutability": "view",
      "type": "function"
    },
    {
      "inputs": [
        {
          "internalType": "address",
          "name": "to",
          "type": "address"
        },
        {
          "internalType": "uint256",
          "name": "value",
          "type": "uint256"
        }
      ],
      "name": "transfer",
      "outputs": [
        {
          "internalType": "bool",
          "name": "",
          "type": "bool"
        }
      ],
      "stateMutability": "nonpayable",
      "type": "function"
    },
    {
      "inputs": [
        {
          "internalType": "address",
          "name": "from",
          "type": "address"
        },
        {
          "internalType": "address",
          "name": "to",
          "type": "address"
        },
        {
          "internalType": "uint256",
          "name": "value",
          "type": "uint256"
        }
      ],
      "name": "transferFrom",
      "outputs": [
        {
          "internalType": "bool",
          "name": "",
          "type": "bool"
        }
      ],
      "stateMutability": "nonpayable",
      "type": "function"
    },
    {
      "inputs": [],
      "name": "unitDecimals",
      "outputs": [
        {
          "internalType": "uint256",
          "name": "",
          "type": "uint256"
        }
      ],
      "stateMutability": "view",
      "type": "function"
    },
    {
      "inputs": [
        {
          "internalType": "address",
          "name": "account",
          "type": "address"
        }
      ],
      "name": "unlockDate",
      "outputs": [
        {
          "internalType": "uint256",
          "name": "",
          "type": "uint256"
        }
      ],
      "stateMutability": "view",
      "type": "function"
    },
    {
      "inputs": [
        {
          "internalType": "address",
          "name": "to",
          "type": "address"
        },
        {
          "internalType": "uint256",
          "name": "amount",
          "type": "uint256"
        }
      ],
      "name": "unstake",
      "outputs": [],
      "stateMutability": "nonpayable",
      "type": "function"
    },
    {
      "inputs": [
        {
          "internalType": "address",
          "name": "memberAddr",
          "type": "address"
        },
        {
          "internalType": "uint128",
          "name": "newUnits",
          "type": "uint128"
        }
      ],
      "name": "updateMemberUnits",
      "outputs": [],
      "stateMutability": "nonpayable",
      "type": "function"
    }
  ],
  "bytecode": "0x6080806040523460d2577ff0c57e16840df040f15088dc2f81fe391c3923bec73e23a9662efc9c229c6a005460ff8160401c1660c1576002600160401b03196001600160401b03821601605c575b604051612de990816100d88239f35b6001600160401b0319166001600160401b039081177ff0c57e16840df040f15088dc2f81fe391c3923bec73e23a9662efc9c229c6a005581527fc7f505b2f371ae2175ee4913f4499e1f2633a7b5936321eed1cdaeb6115181d290602090a13880604d565b63f92ee8a960e01b60005260046000fd5b600080fdfe608080604052600436101561001357600080fd5b60003560e01c90816301ffc9a7146116095750806304554443146115eb57806305271a2a146115cd57806306fdde03146114e7578063095ea7b3146113e357806316f0115b146113bc57806318160ddd1461137f5780631b167777146112d157806323b872dd14611299578063240be9441461125f578063248a9ca31461121357806329134768146111ec5780632f2ff15d1461118d578063313ce5671461117157806336568abe1461111257806342966c68146110f55780634437152a146110a557806349ccd69e1461103d578063587cde1e14610ffa5780635bbbbc1714610fc05780635c19a95c14610f9f57806370a0823114610f4657806379cc679014610f1657806388f6a49414610ed657806391d1485414610e6957806395d89b4114610d4e578063987b4c39146105f4578063a217fddf146105d8578063a9059cbb146105a7578063adc9772e14610554578063bdfc371e14610533578063c242652c14610428578063c2a672e014610300578063d547741f1461029a578063dd62ed3e1461021d578063ec87621c146101e25763ee5361b3146101b657600080fd5b346101dd5760006003193601126101dd5760206001600160a01b0360005416604051908152f35b600080fd5b346101dd5760006003193601126101dd5760206040517f241ecf16d79d0f8dbfb92cbc07fe17840425976cf0667f022fe9877caa831b088152f35b346101dd5760406003193601126101dd576102366116f1565b6001600160a01b03610282610249611707565b926001600160a01b03166000527f52c63247e1f47db19d5ce0460030c497f067ca4cebf71ba98eeadabe20bace01602052604060002090565b91166000526020526020604060002054604051908152f35b346101dd5760406003193601126101dd576102fe6004356102b9611707565b906102f96102f4826000527f02dd7bc7dec4dceedda775e58dd541e08a116c6c53815c0bd028192f7b62680060205260016040600020015490565b61187e565b612149565b005b346101dd5760406003193601126101dd576103196116f1565b60243590610325612ce1565b61032f8233612216565b60206001600160a01b036044816000541693600060405195869485937fa9059cbb0000000000000000000000000000000000000000000000000000000085521660048401528760248401525af1801561041c576103ef575b503360005260016020526040600020549060405191825260208201527ff279e6a1f5e320cca91135676d9cb6e44ca8a08c0b88342bcdb1144f6511b56860403392a260017f9b779b17422d0df92223018b32b4d1fa46e071723d6817e2486d003becc55f0055005b6104109060203d602011610415575b610408818361171d565b8101906117d1565b610387565b503d6103fe565b6040513d6000823e3d90fd5b346101dd5760206003193601126101dd573360009081527fb7db2dd08fcb62d0c9e08c51941cae53c267786a0b75803fb7960902fc8ef97d60205260409020546004359060ff1615610519576006548110156104af576020817f3e062f634a950eae456fa5f8fb53a4f59f55039983bd73df7a34a313b75443d492600655604051908152a1005b608460405162461bcd60e51b815260206004820152604060248201527f5374616b6564546f6b656e3a206e6577206475726174696f6e206d757374206260448201527f65206c657373207468616e207468652063757272656e74206475726174696f6e6064820152fd5b63e2517d3f60e01b60005233600452600060245260446000fd5b346101dd5760206003193601126101dd5761054c61180c565b600435600355005b346101dd5760406003193601126101dd576105816105706116f1565b610578612ce1565b602435906128f8565b60017f9b779b17422d0df92223018b32b4d1fa46e071723d6817e2486d003becc55f0055005b346101dd5760406003193601126101dd576105cd6105c36116f1565b6024359033611a0b565b602060405160018152f35b346101dd5760006003193601126101dd57602060405160008152f35b346101dd5760e06003193601126101dd5761060d6116f1565b60243567ffffffffffffffff81116101dd5761062d903690600401611740565b9060443567ffffffffffffffff81116101dd5761064e903690600401611740565b6064356001600160a01b0381168091036101dd57608435926001600160a01b0384168094036101dd5760c435926001600160a01b0384168094036101dd577ff0c57e16840df040f15088dc2f81fe391c3923bec73e23a9662efc9c229c6a00549560ff8760401c16159667ffffffffffffffff811680159081610d46575b6001149081610d3c575b159081610d33575b50610d09578760017fffffffffffffffffffffffffffffffffffffffffffffffff00000000000000008316177ff0c57e16840df040f15088dc2f81fe391c3923bec73e23a9662efc9c229c6a0055610cb4575b5061073a612d5a565b610742612d5a565b80519067ffffffffffffffff8211610b5e5781906107807f52c63247e1f47db19d5ce0460030c497f067ca4cebf71ba98eeadabe20bace0354611797565b601f8111610c25575b50602090601f8311600114610b7f57600092610b74575b50506000198260011b9260031b1c1916177f52c63247e1f47db19d5ce0460030c497f067ca4cebf71ba98eeadabe20bace03555b80519067ffffffffffffffff8211610b5e576108107f52c63247e1f47db19d5ce0460030c497f067ca4cebf71ba98eeadabe20bace0454611797565b601f8111610ada575b50602090601f8311600114610a2657604493836020979460009997946108c7948b92610a1b575b50506000198260011b9260031b1c1916177f52c63247e1f47db19d5ce0460030c497f067ca4cebf71ba98eeadabe20bace04555b61087c612d5a565b610884612d5a565b61088c612d5a565b60017f9b779b17422d0df92223018b32b4d1fa46e071723d6817e2486d003becc55f00556108b8612d5a565b6108c181611ef1565b50611fa3565b506108d133611fa3565b5073ffffffffffffffffffffffffffffffffffffffff198654161785558273ffffffffffffffffffffffffffffffffffffffff19600254161760025560a43560065560126003553373ffffffffffffffffffffffffffffffffffffffff1960055416176005556040519485938492631b16777760e01b84526004840152600160248401525af1801561041c576109fc575b5061096957005b7fffffffffffffffffffffffffffffffffffffffffffffff00ffffffffffffffff7ff0c57e16840df040f15088dc2f81fe391c3923bec73e23a9662efc9c229c6a0054167ff0c57e16840df040f15088dc2f81fe391c3923bec73e23a9662efc9c229c6a00557fc7f505b2f371ae2175ee4913f4499e1f2633a7b5936321eed1cdaeb6115181d2602060405160018152a1005b610a149060203d60201161041557610408818361171d565b5081610962565b015190508b80610840565b90601f198316917f52c63247e1f47db19d5ce0460030c497f067ca4cebf71ba98eeadabe20bace04600052816000209260005b818110610ac257508460009997946108c7946044989460209b9860019510610aa9575b505050811b017f52c63247e1f47db19d5ce0460030c497f067ca4cebf71ba98eeadabe20bace0455610874565b015160001960f88460031b161c191690558b8080610a7c565b92936020600181928786015181550195019301610a59565b7f52c63247e1f47db19d5ce0460030c497f067ca4cebf71ba98eeadabe20bace046000527f46a2803e59a4de4e7a4c574b1243f25977ac4c77d5a1a4a609b5394cebb4a2aa601f840160051c81019160208510610b54575b601f0160051c01905b818110610b485750610819565b60008155600101610b3b565b9091508190610b32565b634e487b7160e01b600052604160045260246000fd5b0151905088806107a0565b91601f1916917f52c63247e1f47db19d5ce0460030c497f067ca4cebf71ba98eeadabe20bace03600052816000209260005b818110610c0d5750908460019594939210610bf4575b505050811b017f52c63247e1f47db19d5ce0460030c497f067ca4cebf71ba98eeadabe20bace03556107d4565b015160001960f88460031b161c19169055888080610bc7565b92936020600181928786015181550195019301610bb1565b7f52c63247e1f47db19d5ce0460030c497f067ca4cebf71ba98eeadabe20bace036000529091507f2ae08a8e29253f69ac5d979a101956ab8f8d9d7ded63fa7a83b16fc47648eab0601f840160051c81019160208510610caa575b90601f859493920160051c01905b818110610c9b5750610789565b60008155849350600101610c8e565b9091508190610c80565b7fffffffffffffffffffffffffffffffffffffffffffffff0000000000000000001668010000000000000001177ff0c57e16840df040f15088dc2f81fe391c3923bec73e23a9662efc9c229c6a005587610731565b7ff92ee8a90000000000000000000000000000000000000000000000000000000060005260046000fd5b905015896106de565b303b1591506106d6565b8991506106cc565b346101dd5760006003193601126101dd5760405160007f52c63247e1f47db19d5ce0460030c497f067ca4cebf71ba98eeadabe20bace0454610d8f81611797565b8084529060018116908115610e455750600114610dc7575b610dc383610db78185038261171d565b604051918291826116a7565b0390f35b7f52c63247e1f47db19d5ce0460030c497f067ca4cebf71ba98eeadabe20bace0460009081527f46a2803e59a4de4e7a4c574b1243f25977ac4c77d5a1a4a609b5394cebb4a2aa939250905b808210610e2b57509091508101602001610db7610da7565b919260018160209254838588010152019101909291610e13565b60ff191660208086019190915291151560051b84019091019150610db79050610da7565b346101dd5760406003193601126101dd57610e82611707565b6004356000527f02dd7bc7dec4dceedda775e58dd541e08a116c6c53815c0bd028192f7b6268006020526001600160a01b0360406000209116600052602052602060ff604060002054166040519015158152f35b346101dd5760406003193601126101dd57610eef6116f1565b610efb602435336128f8565b336001600160a01b03821603610f0d57005b6102fe90612495565b346101dd5760406003193601126101dd576102fe610f326116f1565b60243590610f418233836118e4565b612216565b346101dd5760206003193601126101dd576001600160a01b03610f676116f1565b166000527f52c63247e1f47db19d5ce0460030c497f067ca4cebf71ba98eeadabe20bace006020526020604060002054604051908152f35b346101dd5760206003193601126101dd576102fe610fbb6116f1565b612495565b346101dd5760206003193601126101dd5760206001600160801b03610ff1610fe9600354612408565b600435612416565b16604051908152f35b346101dd5760206003193601126101dd576001600160a01b0361101b6116f1565b16600052600460205260206001600160a01b0360406000205416604051908152f35b346101dd5760206003193601126101dd576001600160a01b0361105e6116f1565b16806000526001602052604060002054156000146110845750602060005b604051908152f35b600052600160205260206110a0604060002054600654906117e9565b61107c565b346101dd5760206003193601126101dd576004356001600160a01b0381168091036101dd576110d261180c565b73ffffffffffffffffffffffffffffffffffffffff196002541617600255600080f35b346101dd5760206003193601126101dd576102fe60043533612216565b346101dd5760406003193601126101dd5761112b611707565b336001600160a01b03821603611147576102fe90600435612149565b7f6697b2320000000000000000000000000000000000000000000000000000000060005260046000fd5b346101dd5760006003193601126101dd57602060405160128152f35b346101dd5760406003193601126101dd576102fe6004356111ac611707565b906111e76102f4826000527f02dd7bc7dec4dceedda775e58dd541e08a116c6c53815c0bd028192f7b62680060205260016040600020015490565b612071565b346101dd5760006003193601126101dd5760206001600160a01b0360055416604051908152f35b346101dd5760206003193601126101dd57602061107c6004356000527f02dd7bc7dec4dceedda775e58dd541e08a116c6c53815c0bd028192f7b62680060205260016040600020015490565b346101dd5760206003193601126101dd576001600160a01b036112806116f1565b1660005260016020526020604060002054604051908152f35b346101dd5760606003193601126101dd576105cd6112b56116f1565b6112bd611707565b604435916112cc8333836118e4565b611a0b565b346101dd5760406003193601126101dd576112ea6116f1565b602435906001600160801b03821682036101dd576113579160209161130d61180c565b6001600160a01b0360025416906000604051809681958294631b16777760e01b8452600484019092916001600160801b036020916001600160a01b03604085019616845216910152565b03925af1801561041c5761136757005b6102fe9060203d60201161041557610408818361171d565b346101dd5760006003193601126101dd5760207f52c63247e1f47db19d5ce0460030c497f067ca4cebf71ba98eeadabe20bace0254604051908152f35b346101dd5760006003193601126101dd5760206001600160a01b0360025416604051908152f35b346101dd5760406003193601126101dd576113fc6116f1565b6024359033156114b8576001600160a01b0316908115611489573360009081527f52c63247e1f47db19d5ce0460030c497f067ca4cebf71ba98eeadabe20bace016020526040902082600052602052806040600020556040519081527f8c5be1e5ebec7d5bd14f71427d1e84f3dd0314c0f7b2291e5b200ac8c7c3b92560203392a3602060405160018152f35b7f94280d6200000000000000000000000000000000000000000000000000000000600052600060045260246000fd5b7fe602df0500000000000000000000000000000000000000000000000000000000600052600060045260246000fd5b346101dd5760006003193601126101dd5760405160007f52c63247e1f47db19d5ce0460030c497f067ca4cebf71ba98eeadabe20bace035461152881611797565b8084529060018116908115610e45575060011461154f57610dc383610db78185038261171d565b7f52c63247e1f47db19d5ce0460030c497f067ca4cebf71ba98eeadabe20bace0360009081527f2ae08a8e29253f69ac5d979a101956ab8f8d9d7ded63fa7a83b16fc47648eab0939250905b8082106115b357509091508101602001610db7610da7565b91926001816020925483858801015201910190929161159b565b346101dd5760006003193601126101dd576020600354604051908152f35b346101dd5760006003193601126101dd576020600654604051908152f35b346101dd5760206003193601126101dd57600435907fffffffff0000000000000000000000000000000000000000000000000000000082168092036101dd57817f7965db0b000000000000000000000000000000000000000000000000000000006020931490811561167d575b5015158152f35b7f01ffc9a70000000000000000000000000000000000000000000000000000000091501483611676565b9190916020815282519283602083015260005b8481106116db575050601f19601f8460006040809697860101520116010190565b80602080928401015160408286010152016116ba565b600435906001600160a01b03821682036101dd57565b602435906001600160a01b03821682036101dd57565b90601f601f19910116810190811067ffffffffffffffff821117610b5e57604052565b81601f820112156101dd5780359067ffffffffffffffff8211610b5e57604051926117756020601f19601f860116018561171d565b828452602083830101116101dd57816000926020809301838601378301015290565b90600182811c921680156117c7575b60208310146117b157565b634e487b7160e01b600052602260045260246000fd5b91607f16916117a6565b908160209103126101dd575180151581036101dd5790565b919082018092116117f657565b634e487b7160e01b600052601160045260246000fd5b3360009081527f06484cc59dc38e4f67c31122333a17ca81b3ca18cdf02bfc298072fa52b0316a602052604090205460ff161561184557565b63e2517d3f60e01b600052336004527f241ecf16d79d0f8dbfb92cbc07fe17840425976cf0667f022fe9877caa831b0860245260446000fd5b806000527f02dd7bc7dec4dceedda775e58dd541e08a116c6c53815c0bd028192f7b62680060205260406000206001600160a01b03331660005260205260ff60406000205416156118cc5750565b63e2517d3f60e01b6000523360045260245260446000fd5b9190611922836001600160a01b03166000527f52c63247e1f47db19d5ce0460030c497f067ca4cebf71ba98eeadabe20bace01602052604060002090565b6001600160a01b038216600052602052604060002054926000198410611949575b50505050565b8284106119cc576001600160a01b038116156114b8576001600160a01b03821615611489576119b26001600160a01b03916001600160a01b03166000527f52c63247e1f47db19d5ce0460030c497f067ca4cebf71ba98eeadabe20bace01602052604060002090565b911660005260205260406000209103905538808080611943565b506001600160a01b0383917ffb8f41b2000000000000000000000000000000000000000000000000000000006000521660045260245260445260646000fd5b6001600160a01b0381168015611ec2576001600160a01b038316908115611e93576000948186527f52c63247e1f47db19d5ce0460030c497f067ca4cebf71ba98eeadabe20bace006020526040862054818110611e5f5781908388527f52c63247e1f47db19d5ce0460030c497f067ca4cebf71ba98eeadabe20bace006020520360408720558286527f52c63247e1f47db19d5ce0460030c497f067ca4cebf71ba98eeadabe20bace006020526040862081815401905582827fddf252ad1be2c89b69c2b068fc378daa952ba7f163c4a11628f55a4df523b3ef6020604051858152a38186526001602052611b076040872054600654906117e9565b421115611df657611b2b6001600160801b0391611b25600354612408565b90612416565b82875260046020526040872054911693906001600160a01b031615611dee5750845260046020526001600160a01b03604085205416925b818552600460205260408520546001600160a01b031615611de65750835260046020526001600160a01b03604084205416915b6001600160a01b0381169081611cc2575b50506001600160a01b0382169081611bbe5750505050565b6001600160a01b03600254169160405190630fefbc0960e01b82526004820152602081602481865afa908115611cb75785949260209492611c0992611c469891611c8a575b50612475565b9184604051809781958294631b16777760e01b8452600484019092916001600160801b036020916001600160a01b03604085019616845216910152565b03925af1908115611c7e5750611c5f575b808080611943565b611c779060203d60201161041557610408818361171d565b5038611c57565b604051903d90823e3d90fd5b611caa9150863d8811611cb0575b611ca2818361171d565b810190612436565b38611c03565b503d611c98565b6040513d87823e3d90fd5b6001600160a01b036002541660405192630fefbc0960e01b84526004840152602083602481845afa928315611ddb5790849392918793611dba575b506001600160801b0383169283611d17575b505050611ba6565b84611d6e9560209511600014611db157611d3091612455565b915b87604051809681958294631b16777760e01b8452600484019092916001600160801b036020916001600160a01b03604085019616845216910152565b03925af18015611da657611d87575b8080808493611d0f565b611d9f9060203d60201161041557610408818361171d565b5038611d7d565b6040513d86823e3d90fd5b50508691611d32565b611dd491935060203d602011611cb057611ca2818361171d565b9138611cfd565b6040513d88823e3d90fd5b905091611b95565b905092611b62565b608460405162461bcd60e51b8152602060048201526024808201527f5374616b6564546f6b656e3a20746f6b656e7320617265207374696c6c206c6f60448201527f636b6564000000000000000000000000000000000000000000000000000000006064820152fd5b6064935086927fe450d38c000000000000000000000000000000000000000000000000000000008452600452602452604452fd5b7fec442f0500000000000000000000000000000000000000000000000000000000600052600060045260246000fd5b7f96c6fd1e00000000000000000000000000000000000000000000000000000000600052600060045260246000fd5b6001600160a01b03811660009081527fb7db2dd08fcb62d0c9e08c51941cae53c267786a0b75803fb7960902fc8ef97d602052604090205460ff16611f9d576001600160a01b031660008181527fb7db2dd08fcb62d0c9e08c51941cae53c267786a0b75803fb7960902fc8ef97d60205260408120805460ff191660011790553391907f2f8788117e7eff1d82e926ec794901d17c78024a50270940304540a733656f0d8180a4600190565b50600090565b6001600160a01b03811660009081527f06484cc59dc38e4f67c31122333a17ca81b3ca18cdf02bfc298072fa52b0316a602052604090205460ff16611f9d576001600160a01b031660008181527f06484cc59dc38e4f67c31122333a17ca81b3ca18cdf02bfc298072fa52b0316a60205260408120805460ff191660011790553391907f241ecf16d79d0f8dbfb92cbc07fe17840425976cf0667f022fe9877caa831b08907f2f8788117e7eff1d82e926ec794901d17c78024a50270940304540a733656f0d9080a4600190565b806000527f02dd7bc7dec4dceedda775e58dd541e08a116c6c53815c0bd028192f7b62680060205260406000206001600160a01b03831660005260205260ff604060002054161560001461214257806000527f02dd7bc7dec4dceedda775e58dd541e08a116c6c53815c0bd028192f7b62680060205260406000206001600160a01b0383166000526020526040600020600160ff198254161790556001600160a01b03339216907f2f8788117e7eff1d82e926ec794901d17c78024a50270940304540a733656f0d600080a4600190565b5050600090565b806000527f02dd7bc7dec4dceedda775e58dd541e08a116c6c53815c0bd028192f7b62680060205260406000206001600160a01b03831660005260205260ff6040600020541660001461214257806000527f02dd7bc7dec4dceedda775e58dd541e08a116c6c53815c0bd028192f7b62680060205260406000206001600160a01b038316600052602052604060002060ff1981541690556001600160a01b03339216907ff6391f5c32d9c69d2a47ea670b442974b53935d1edc7fd64eb21e047a839171b600080a4600190565b6001600160a01b0381168015611ec2576000928184527f52c63247e1f47db19d5ce0460030c497f067ca4cebf71ba98eeadabe20bace0060205260408420548181106123d45781908386527f52c63247e1f47db19d5ce0460030c497f067ca4cebf71ba98eeadabe20bace00602052036040852055807f52c63247e1f47db19d5ce0460030c497f067ca4cebf71ba98eeadabe20bace0254037f52c63247e1f47db19d5ce0460030c497f067ca4cebf71ba98eeadabe20bace025583827fddf252ad1be2c89b69c2b068fc378daa952ba7f163c4a11628f55a4df523b3ef6020604051858152a381845260016020526123166040852054600654906117e9565b421115611df6576123346001600160801b0391611b25600354612408565b82855260046020526040852054911692906001600160a01b0316156123cc5750825260046020526001600160a01b03604083205416905b828052600460205260408320546001600160a01b0316156123c55782805260046020526001600160a01b03604084205416916001600160a01b0381169081611cc25750506001600160a01b0382169081611bbe5750505050565b8291611b95565b90509061236b565b6064935084927fe450d38c000000000000000000000000000000000000000000000000000000008452600452602452604452fd5b604d81116117f657600a0a90565b8115612420570490565b634e487b7160e01b600052601260045260246000fd5b908160209103126101dd57516001600160801b03811681036101dd5790565b906001600160801b03809116911603906001600160801b0382116117f657565b906001600160801b03809116911601906001600160801b0382116117f657565b6001600160a01b03811690811561288e57336000527f52c63247e1f47db19d5ce0460030c497f067ca4cebf71ba98eeadabe20bace006020526001600160801b036124ea604060002054611b25600354612408565b163360005260046020526001600160a01b0360406000205416151560001461274a576001600160a01b03600254163360005260046020526001600160a01b03604060002054169060405191630fefbc0960e01b83526004830152602082602481845afa91821561041c57600092612729575b506001600160801b03821661268f575b50506001600160a01b03600254169060405191630fefbc0960e01b8352846004840152602083602481845afa90811561041c576125b86020936125f3936000968791611c8a5750612475565b604051631b16777760e01b81526001600160a01b03871660048201526001600160801b03909116602482015293849283919082906044820190565b03925af1801561041c57612670575b505b33820361266b575060005b3360005260046020526001600160a01b036040600020911673ffffffffffffffffffffffffffffffffffffffff19825416179055337f4bc154dd35d6a5cb9206482ecb473cdbf2473006d6bce728b9cc0741bcc59ea2600080a3565b61260f565b6126889060203d60201161041557610408818361171d565b5038612602565b6126f59160209133600052600483526126b7856001600160a01b036040600020541693612455565b916000604051809681958294631b16777760e01b8452600484019092916001600160801b036020916001600160a01b03604085019616845216910152565b03925af1801561041c5761270a575b8061256c565b6127229060203d60201161041557610408818361171d565b5038612704565b61274391925060203d602011611cb057611ca2818361171d565b903861255c565b6001600160a01b0360025416604051630fefbc0960e01b8152336004820152602081602481855afa90811561041c57600092612794856020946127c6948791612871575b50612455565b604051631b16777760e01b81523360048201526001600160801b03909116602482015293849283919082906044820190565b03925af1801561041c57612854575b506001600160a01b03600254169060405191630fefbc0960e01b8352846004840152602083602481845afa90811561041c576125b8602093612820936000968791611c8a5750612475565b03925af1801561041c57612835575b50612604565b61284d9060203d60201161041557610408818361171d565b503861282f565b61286c9060203d60201161041557610408818361171d565b6127d5565b6128889150863d8811611cb057611ca2818361171d565b3861278e565b608460405162461bcd60e51b815260206004820152602960248201527f5374616b6564546f6b656e3a2064656c656761746520746f20746865207a657260448201527f6f206164647265737300000000000000000000000000000000000000000000006064820152fd5b90600060206001600160a01b038254166064604051809481937f23b872dd0000000000000000000000000000000000000000000000000000000083523360048401523060248401528760448401525af1801561041c57612cc4575b506001600160a01b038216918215611e9357612990827f52c63247e1f47db19d5ce0460030c497f067ca4cebf71ba98eeadabe20bace02546117e9565b7f52c63247e1f47db19d5ce0460030c497f067ca4cebf71ba98eeadabe20bace02556000908382527f52c63247e1f47db19d5ce0460030c497f067ca4cebf71ba98eeadabe20bace006020526040822083815401905583827fddf252ad1be2c89b69c2b068fc378daa952ba7f163c4a11628f55a4df523b3ef6020604051878152a36001600160801b03612a2e612a28600354612408565b85612416565b838052600460205260408420549116906001600160a01b031615612cbd5782805260046020526001600160a01b03604084205416915b858452600460205260408420546001600160a01b031615612cb7575084835260046020526001600160a01b03604084205416915b6001600160a01b0381169081612bf0575b50506001600160a01b0382169081612aff575b5050507f90890809c654f11d6e72a28fa60149770a0d11ec6c92319d6ceb2bb0a4ea1a1591818460409352600160205282429120558151904282526020820152a2565b6001600160a01b03600254169160405190630fefbc0960e01b82526004820152602081602481865afa908115611cb757612b85949260209492612b48928891611c8a5750612475565b9185604051809681958294631b16777760e01b8452600484019092916001600160801b036020916001600160a01b03604085019616845216910152565b03925af18015612be557917f90890809c654f11d6e72a28fa60149770a0d11ec6c92319d6ceb2bb0a4ea1a159391604093612bc6575b829450819350612abc565b612bde9060203d60201161041557610408818361171d565b5038612bbb565b6040513d84823e3d90fd5b6001600160a01b036002541660405192630fefbc0960e01b84526004840152602083602481845afa928315611ddb5790849392918793612c96575b506001600160801b0383169283612c45575b505050612aa9565b84612c5e9560209511600014611db157611d3091612455565b03925af18015611da657612c77575b8080808493612c3d565b612c8f9060203d60201161041557610408818361171d565b5038612c6d565b612cb091935060203d602011611cb057611ca2818361171d565b9138612c2b565b91612a98565b8291612a64565b612cdc9060203d60201161041557610408818361171d565b612953565b60027f9b779b17422d0df92223018b32b4d1fa46e071723d6817e2486d003becc55f005414612d305760027f9b779b17422d0df92223018b32b4d1fa46e071723d6817e2486d003becc55f0055565b7f3ee5aeb50000000000000000000000000000000000000000000000000000000060005260046000fd5b60ff7ff0c57e16840df040f15088dc2f81fe391c3923bec73e23a9662efc9c229c6a005460401c1615612d8957565b7fd7e6bcf80000000000000000000000000000000000000000000000000000000060005260046000fdfea2646970667358221220ba55794debbd0857d9fdb60a2d67c47c9c45d662842d22c5d2709bcef52ca6d264736f6c634300081a0033",
  "linkReferences": {},
  "deployedLinkReferences": {}
}