{
  "_format": "hh-sol-artifact-1",
  "contractName": "StremeFeeCollector",
  "sourceName": "contracts/liquidity/fees/StremeFeeCollector.sol",
  "abi": [
    {
      "inputs": [
        {
          "internalType": "contract IStremeFeeStreamer",
          "name": "_feeStreamer",
          "type": "address"
        },
        {
          "internalType": "address",
          "name": "teamRecipient",
          "type": "address"
        },
        {
          "internalType": "uint256",
          "name": "teamReward",
          "type": "uint256"
        }
      ],
      "stateMutability": "nonpayable",
      "type": "constructor"
    },
    {
      "inputs": [],
      "name": "AccessControlBadConfirmation",
      "type": "error"
    },
    {
      "inputs": [
        {
          "internalType": "address",
          "name": "account",
          "type": "address"
        },
        {
          "internalType": "bytes32",
          "name": "neededRole",
          "type": "bytes32"
        }
      ],
      "name": "AccessControlUnauthorizedAccount",
      "type": "error"
    },
    {
      "inputs": [
        {
          "internalType": "uint256",
          "name": "tokenId",
          "type": "uint256"
        }
      ],
      "name": "InvalidTokenId",
      "type": "error"
    },
    {
      "inputs": [
        {
          "internalType": "address",
          "name": "user",
          "type": "address"
        }
      ],
      "name": "NotAllowed",
      "type": "error"
    },
    {
      "anonymous": false,
      "inputs": [
        {
          "indexed": true,
          "internalType": "address",
          "name": "stremeCoin",
          "type": "address"
        },
        {
          "indexed": true,
          "internalType": "address",
          "name": "pairedToken",
          "type": "address"
        },
        {
          "indexed": false,
          "internalType": "uint256",
          "name": "stremeCoinAmount",
          "type": "uint256"
        },
        {
          "indexed": false,
          "internalType": "uint256",
          "name": "pairedTokenAmount",
          "type": "uint256"
        }
      ],
      "name": "FeesClaimed",
      "type": "event"
    },
    {
      "anonymous": false,
      "inputs": [
        {
          "indexed": true,
          "internalType": "address",
          "name": "from",
          "type": "address"
        },
        {
          "indexed": false,
          "internalType": "uint256",
          "name": "tokenId",
          "type": "uint256"
        }
      ],
      "name": "Received",
      "type": "event"
    },
    {
      "anonymous": false,
      "inputs": [
        {
          "indexed": true,
          "internalType": "bytes32",
          "name": "role",
          "type": "bytes32"
        },
        {
          "indexed": true,
          "internalType": "bytes32",
          "name": "previousAdminRole",
          "type": "bytes32"
        },
        {
          "indexed": true,
          "internalType": "bytes32",
          "name": "newAdminRole",
          "type": "bytes32"
        }
      ],
      "name": "RoleAdminChanged",
      "type": "event"
    },
    {
      "anonymous": false,
      "inputs": [
        {
          "indexed": true,
          "internalType": "bytes32",
          "name": "role",
          "type": "bytes32"
        },
        {
          "indexed": true,
          "internalType": "address",
          "name": "account",
          "type": "address"
        },
        {
          "indexed": true,
          "internalType": "address",
          "name": "sender",
          "type": "address"
        }
      ],
      "name": "RoleGranted",
      "type": "event"
    },
    {
      "anonymous": false,
      "inputs": [
        {
          "indexed": true,
          "internalType": "bytes32",
          "name": "role",
          "type": "bytes32"
        },
        {
          "indexed": true,
          "internalType": "address",
          "name": "account",
          "type": "address"
        },
        {
          "indexed": true,
          "internalType": "address",
          "name": "sender",
          "type": "address"
        }
      ],
      "name": "RoleRevoked",
      "type": "event"
    },
    {
      "inputs": [],
      "name": "DEFAULT_ADMIN_ROLE",
      "outputs": [
        {
          "internalType": "bytes32",
          "name": "",
          "type": "bytes32"
        }
      ],
      "stateMutability": "view",
      "type": "function"
    },
    {
      "inputs": [],
      "name": "DEPLOYER_ROLE",
      "outputs": [
        {
          "internalType": "bytes32",
          "name": "",
          "type": "bytes32"
        }
      ],
      "stateMutability": "view",
      "type": "function"
    },
    {
      "inputs": [],
      "name": "MANAGER_ROLE",
      "outputs": [
        {
          "internalType": "bytes32",
          "name": "",
          "type": "bytes32"
        }
      ],
      "stateMutability": "view",
      "type": "function"
    },
    {
      "inputs": [
        {
          "internalType": "address",
          "name": "stremeCoin",
          "type": "address"
        }
      ],
      "name": "_teamOverrideRewardRecipientForToken",
      "outputs": [
        {
          "internalType": "address",
          "name": "recipient",
          "type": "address"
        },
        {
          "internalType": "uint256",
          "name": "reward",
          "type": "uint256"
        }
      ],
      "stateMutability": "view",
      "type": "function"
    },
    {
      "inputs": [],
      "name": "_teamRecipient",
      "outputs": [
        {
          "internalType": "address",
          "name": "",
          "type": "address"
        }
      ],
      "stateMutability": "view",
      "type": "function"
    },
    {
      "inputs": [],
      "name": "_teamReward",
      "outputs": [
        {
          "internalType": "uint256",
          "name": "",
          "type": "uint256"
        }
      ],
      "stateMutability": "view",
      "type": "function"
    },
    {
      "inputs": [
        {
          "internalType": "address",
          "name": "distributor",
          "type": "address"
        },
        {
          "internalType": "bool",
          "name": "approved",
          "type": "bool"
        }
      ],
      "name": "approveDistributor",
      "outputs": [],
      "stateMutability": "nonpayable",
      "type": "function"
    },
    {
      "inputs": [
        {
          "internalType": "address",
          "name": "distributor",
          "type": "address"
        }
      ],
      "name": "approvedDistributors",
      "outputs": [
        {
          "internalType": "bool",
          "name": "approved",
          "type": "bool"
        }
      ],
      "stateMutability": "view",
      "type": "function"
    },
    {
      "inputs": [
        {
          "internalType": "address",
          "name": "stremeCoinAddress",
          "type": "address"
        }
      ],
      "name": "claimRewards",
      "outputs": [],
      "stateMutability": "nonpayable",
      "type": "function"
    },
    {
      "inputs": [
        {
          "internalType": "address",
          "name": "stremeCoin",
          "type": "address"
        },
        {
          "internalType": "address",
          "name": "_locker",
          "type": "address"
        },
        {
          "internalType": "address",
          "name": "admin",
          "type": "address"
        },
        {
          "internalType": "address",
          "name": "distributor",
          "type": "address"
        },
        {
          "internalType": "bytes",
          "name": "data",
          "type": "bytes"
        }
      ],
      "name": "editFeeCollectionStrategy",
      "outputs": [],
      "stateMutability": "nonpayable",
      "type": "function"
    },
    {
      "inputs": [
        {
          "internalType": "address",
          "name": "stremeCoin",
          "type": "address"
        }
      ],
      "name": "feeCollectionStrategies",
      "outputs": [
        {
          "internalType": "address",
          "name": "locker",
          "type": "address"
        },
        {
          "internalType": "address",
          "name": "admin",
          "type": "address"
        },
        {
          "internalType": "address",
          "name": "distributor",
          "type": "address"
        },
        {
          "internalType": "bytes",
          "name": "data",
          "type": "bytes"
        }
      ],
      "stateMutability": "view",
      "type": "function"
    },
    {
      "inputs": [],
      "name": "feeStreamer",
      "outputs": [
        {
          "internalType": "contract IStremeFeeStreamer",
          "name": "",
          "type": "address"
        }
      ],
      "stateMutability": "view",
      "type": "function"
    },
    {
      "inputs": [
        {
          "internalType": "bytes32",
          "name": "role",
          "type": "bytes32"
        }
      ],
      "name": "getRoleAdmin",
      "outputs": [
        {
          "internalType": "bytes32",
          "name": "",
          "type": "bytes32"
        }
      ],
      "stateMutability": "view",
      "type": "function"
    },
    {
      "inputs": [
        {
          "internalType": "bytes32",
          "name": "role",
          "type": "bytes32"
        },
        {
          "internalType": "address",
          "name": "account",
          "type": "address"
        }
      ],
      "name": "grantRole",
      "outputs": [],
      "stateMutability": "nonpayable",
      "type": "function"
    },
    {
      "inputs": [
        {
          "internalType": "bytes32",
          "name": "role",
          "type": "bytes32"
        },
        {
          "internalType": "address",
          "name": "account",
          "type": "address"
        }
      ],
      "name": "hasRole",
      "outputs": [
        {
          "internalType": "bool",
          "name": "",
          "type": "bool"
        }
      ],
      "stateMutability": "view",
      "type": "function"
    },
    {
      "inputs": [
        {
          "internalType": "address",
          "name": "stremeCoin",
          "type": "address"
        }
      ],
      "name": "locker",
      "outputs": [
        {
          "internalType": "address",
          "name": "",
          "type": "address"
        }
      ],
      "stateMutability": "view",
      "type": "function"
    },
    {
      "inputs": [
        {
          "internalType": "address",
          "name": "",
          "type": "address"
        },
        {
          "internalType": "address",
          "name": "from",
          "type": "address"
        },
        {
          "internalType": "uint256",
          "name": "id",
          "type": "uint256"
        },
        {
          "internalType": "bytes",
          "name": "",
          "type": "bytes"
        }
      ],
      "name": "onERC721Received",
      "outputs": [
        {
          "internalType": "bytes4",
          "name": "",
          "type": "bytes4"
        }
      ],
      "stateMutability": "nonpayable",
      "type": "function"
    },
    {
      "inputs": [],
      "name": "positionManager",
      "outputs": [
        {
          "internalType": "address",
          "name": "",
          "type": "address"
        }
      ],
      "stateMutability": "view",
      "type": "function"
    },
    {
      "inputs": [
        {
          "internalType": "bytes32",
          "name": "role",
          "type": "bytes32"
        },
        {
          "internalType": "address",
          "name": "callerConfirmation",
          "type": "address"
        }
      ],
      "name": "renounceRole",
      "outputs": [],
      "stateMutability": "nonpayable",
      "type": "function"
    },
    {
      "inputs": [
        {
          "internalType": "bytes32",
          "name": "role",
          "type": "bytes32"
        },
        {
          "internalType": "address",
          "name": "account",
          "type": "address"
        }
      ],
      "name": "revokeRole",
      "outputs": [],
      "stateMutability": "nonpayable",
      "type": "function"
    },
    {
      "inputs": [
        {
          "internalType": "address",
          "name": "stremeCoin",
          "type": "address"
        },
        {
          "internalType": "address",
          "name": "_locker",
          "type": "address"
        },
        {
          "internalType": "address",
          "name": "admin",
          "type": "address"
        },
        {
          "internalType": "address",
          "name": "distributor",
          "type": "address"
        },
        {
          "internalType": "bytes",
          "name": "data",
          "type": "bytes"
        }
      ],
      "name": "setFeeCollectionStrategy",
      "outputs": [],
      "stateMutability": "nonpayable",
      "type": "function"
    },
    {
      "inputs": [
        {
          "internalType": "contract IStremeFeeStreamer",
          "name": "_feeStreamer",
          "type": "address"
        }
      ],
      "name": "setFeeStreamer",
      "outputs": [],
      "stateMutability": "nonpayable",
      "type": "function"
    },
    {
      "inputs": [
        {
          "internalType": "address",
          "name": "stremeCoin",
          "type": "address"
        },
        {
          "internalType": "address",
          "name": "recipient",
          "type": "address"
        },
        {
          "internalType": "uint256",
          "name": "reward",
          "type": "uint256"
        }
      ],
      "name": "setOverrideTeamRewardRecipient",
      "outputs": [],
      "stateMutability": "nonpayable",
      "type": "function"
    },
    {
      "inputs": [
        {
          "internalType": "address",
          "name": "teamRecipient",
          "type": "address"
        }
      ],
      "name": "setTeamRecipient",
      "outputs": [],
      "stateMutability": "nonpayable",
      "type": "function"
    },
    {
      "inputs": [
        {
          "internalType": "uint256",
          "name": "teamReward",
          "type": "uint256"
        }
      ],
      "name": "setTeamReward",
      "outputs": [],
      "stateMutability": "nonpayable",
      "type": "function"
    },
    {
      "inputs": [
        {
          "internalType": "bytes4",
          "name": "interfaceId",
          "type": "bytes4"
        }
      ],
      "name": "supportsInterface",
      "outputs": [
        {
          "internalType": "bool",
          "name": "",
          "type": "bool"
        }
      ],
      "stateMutability": "view",
      "type": "function"
    },
    {
      "inputs": [
        {
          "internalType": "address",
          "name": "stremeCoin",
          "type": "address"
        },
        {
          "internalType": "address",
          "name": "newOwner",
          "type": "address"
        }
      ],
      "name": "transferLocker",
      "outputs": [],
      "stateMutability": "nonpayable",
      "type": "function"
    },
    {
      "inputs": [
        {
          "internalType": "contract IERC20",
          "name": "token",
          "type": "address"
        },
        {
          "internalType": "address",
          "name": "to",
          "type": "address"
        },
        {
          "internalType": "uint256",
          "name": "amount",
          "type": "uint256"
        }
      ],
      "name": "withdrawERC20",
      "outputs": [],
      "stateMutability": "nonpayable",
      "type": "function"
    }
  ],
  "bytecode": "0x6080346100e357601f61206338819003918201601f19168301916001600160401b038311848410176100e8578084926060946040528339810103126100e35780516001600160a01b038116908190036100e3576020820151906001600160a01b0382168083036100e35760406100d3940151917303a520b32c04bf3beef7beb72e919cf822ed34f160018060a01b031960025416176002556100a0336100fe565b506100aa3361017a565b5060018060a01b0319600154161760015560018060a01b0319600454161760045560035561017a565b50604051611df090816102138239f35b600080fd5b634e487b7160e01b600052604160045260246000fd5b6001600160a01b0381166000908152600080516020612043833981519152602052604090205460ff16610174576001600160a01b0316600081815260008051602061204383398151915260205260408120805460ff191660011790553391906000805160206120038339815191528180a4600190565b50600090565b6001600160a01b0381166000908152600080516020612023833981519152602052604090205460ff16610174576001600160a01b0316600081815260008051602061202383398151915260205260408120805460ff191660011790553391907f241ecf16d79d0f8dbfb92cbc07fe17840425976cf0667f022fe9877caa831b08906000805160206120038339815191529080a460019056fe608080604052600436101561001357600080fd5b600090813560e01c90816301ffc9a7146113eb5750806304b79f4c146113c4578063150b7a02146112a15780631d681c671461127e5780631dddc0ee1461122b578063248a9ca3146111f55780632ad94b68146111d75780632f2ff15d1461119657806336568abe14611138578063427fc9f7146110e757806344004cc1146110395780634d1c5d9914610ffc57806350621aed14610f695780635e80660e14610f0f578063603fec2314610cb5578063791b98bc14610c8e57806391d1485414610c47578063a071d35914610c20578063a217fddf14610c04578063cbab7cec14610bb8578063d547741f14610b6e578063d71c9c1214610b34578063ec87621c14610af9578063ecd0026114610abe578063ef5cfb8c146105ff578063ef7ccc931461053f578063f1340649146102bc5763f95fa87d1461015557600080fd5b346102665760406003193601126102665761016e61148b565b6001600160a01b0361017e6114a6565b91610187611762565b168252600760205260408220906101df6003604051936101a6856115d5565b6001600160a01b0381541685526001600160a01b0360018201541660208601526001600160a01b03600282015416604086015201611614565b60608301526001600160a01b0382511615610278576001600160a01b038392511690813b15610274576001600160a01b03602484928360405195869485937ff2fde38b0000000000000000000000000000000000000000000000000000000085521660048401525af18015610269576102555750f35b8161025f916115f1565b6102665780f35b80fd5b6040513d84823e3d90fd5b5050fd5b606460405162461bcd60e51b815260206004820152600d60248201527f4e6f206c6f636b657220736574000000000000000000000000000000000000006044820152fd5b5034610266576001600160a01b03906102d4366114ea565b919294969096169586865260076020526001600160a01b0360016040882001541633036104fb5760039461033e6001600160a01b0394928580941694856104de575b84604051986103248a6115d5565b16885284602089019416845260408801958652369161171b565b9760608601988952875260076020528180604089209651161673ffffffffffffffffffffffffffffffffffffffff1986541617855551168260018501911673ffffffffffffffffffffffffffffffffffffffff1982541617905551166001600160a01b0360028301911673ffffffffffffffffffffffffffffffffffffffff1982541617905501915191825167ffffffffffffffff81116104ca576103e38254611569565b601f8111610485575b506020601f82116001146104265783948293949261041b575b50506000198260011b9260031b1c191617905580f35b015190503880610405565b82845280842090601f198316855b81811061046d57509583600195969710610454575b505050811b01905580f35b015160001960f88460031b161c19169055388080610449565b9192602060018192868b015181550194019201610434565b82845260208420601f830160051c810191602084106104c0575b601f0160051c01905b8181106104b557506103ec565b8481556001016104a8565b909150819061049f565b602483634e487b7160e01b81526041600452fd5b858a5260066020526104f660ff60408c2054166116d0565b610316565b606460405162461bcd60e51b815260206004820152600960248201527f4e6f742061646d696e00000000000000000000000000000000000000000000006044820152fd5b5034610266576020600319360112610266576001600160a01b0361056161148b565b1681526007602052604081206001600160a01b038154166001600160a01b03600183015416926105a160036001600160a01b036002860154169401611614565b9260405194859384526020840152604083015260806060830152825192836080840152815b8481106105e7575050601f83601f199260a080968601015201168101030190f35b602082820181015160a08884010152869450016105c6565b503461026657602060031936011261026657806001600160a01b0361062261148b565b1680825260076020526040822061067a600360405192610641846115d5565b6001600160a01b0381541684526001600160a01b0360018201541660208501526001600160a01b03600282015416604085015201611614565b6060820190815281516001600160a01b03168061070e575050506001600160a01b036001541690813b156102745782916024839260405195869384927fef5cfb8c00000000000000000000000000000000000000000000000000000000845260048401525af18015610701576106f1575b50505b80f35b6106fa916115f1565b38816106eb565b50604051903d90823e3d90fd5b92935090913081036109b45750516020818051810103126109b05760200151916001600160a01b0360025416604051937f99fbab8800000000000000000000000000000000000000000000000000000000855280600486015261018085602481855afa9485156109a557869087966108d2575b506001600160a01b0316928084141590816108be575b50610893576001600160a01b039160846040928351906107b6826115d5565b81528860208201933085526fffffffffffffffffffffffffffffffff86840181815281606086019181835289519a8b998a987ffc6f7865000000000000000000000000000000000000000000000000000000008a525160048a01525116602488015251166044860152511660648401525af1918215610888576106ee948692879461084c575b506001600160a01b0316906119cf565b6108799194506001600160a01b03935060403d604011610881575b61087181836115f1565b810190611944565b93909261083c565b503d610867565b6040513d87823e3d90fd5b7fed15e6cf000000000000000000000000000000000000000000000000000000008652600452602485fd5b90506001600160a01b038616141538610797565b955050610180853d821161099d575b816108ef61018093836115f1565b810103126109995784516bffffffffffffffffffffffff811603610999576109196020860161195a565b506109266040860161195a565b946109336060820161195a565b95608082015162ffffff8116036109955761098e6101608361095f60a06001600160a01b03960161196e565b5061096c60c0820161196e565b5061097960e0820161197c565b50610987610140820161197c565b500161197c565b5090610781565b8780fd5b8580fd5b3d91506108e1565b6040513d88823e3d90fd5b8380fd5b9290506040517f15a0ea6a00000000000000000000000000000000000000000000000000000000815230600482015260408160248188885af19182156108885760049486928794610a98575b50602090604051968780927fd21220a70000000000000000000000000000000000000000000000000000000082525afa9485156109a5578695610a52575b506001600160a01b036106ee9516906119cf565b94506020853d602011610a90575b81610a6d602093836115f1565b81010312610999576001600160a01b03610a896106ee9661195a565b9550610a3e565b3d9150610a60565b610ab69194506020935060403d6040116108815761087181836115f1565b939092610a00565b503461026657806003193601126102665760206040517ffc425f2263d0df187444b70e47283d622c70181c5baebb1306a01edba1ce184c8152f35b503461026657806003193601126102665760206040517f241ecf16d79d0f8dbfb92cbc07fe17840425976cf0667f022fe9877caa831b088152f35b5034610266576020600319360112610266576001600160a01b03604060209282610b5c61148b565b16815260078452205416604051908152f35b503461026657604060031936011261026657610bb4600435610b8e6114a6565b90610baf610baa82600052600060205260016040600020015490565b6117d4565b6118b5565b5080f35b5034610266576020600319360112610266576001600160a01b03610bda61148b565b610be2611762565b1673ffffffffffffffffffffffffffffffffffffffff19600454161760045580f35b5034610266578060031936011261026657602090604051908152f35b503461026657806003193601126102665760206001600160a01b0360045416604051908152f35b50346102665760406003193601126102665760ff6040602092610c686114a6565b60043582528185526001600160a01b038383209116825284522054166040519015158152f35b503461026657806003193601126102665760206001600160a01b0360025416604051908152f35b503461026657610cc4366114ea565b92917ffc425f2263d0df187444b70e47283d622c70181c5baebb1306a01edba1ce184c8796975285602052604086206001600160a01b033316875260205260ff60408720541615610ed8576001600160a01b039283610d546003979694828095169586610ebb575b8360405199610d3a8b6115d5565b1689528360208a019516855260408901968752369161171b565b9860608701998a5216875260076020528180604089209651161673ffffffffffffffffffffffffffffffffffffffff1986541617855551168260018501911673ffffffffffffffffffffffffffffffffffffffff1982541617905551166001600160a01b0360028301911673ffffffffffffffffffffffffffffffffffffffff1982541617905501915191825167ffffffffffffffff81116104ca57610dfa8254611569565b601f8111610e76575b506020601f8211600114610e315783948293949261041b5750506000198260011b9260031b1c191617905580f35b82845280842090601f198316855b818110610e5e5750958360019596971061045457505050811b01905580f35b9192602060018192868b015181550194019201610e3f565b82845260208420601f830160051c81019160208410610eb1575b601f0160051c01905b818110610ea65750610e03565b848155600101610e99565b9091508190610e90565b868b526006602052610ed360ff60408d2054166116d0565b610d2c565b60448663e2517d3f60e01b8152336004527ffc425f2263d0df187444b70e47283d622c70181c5baebb1306a01edba1ce184c602452fd5b503461026657604060031936011261026657610f2961148b565b60243590811515809203610f65576001600160a01b0390610f48611762565b1682526006602052604082209060ff60ff19835416911617905580f35b8280fd5b503461026657606060031936011261026657610f8361148b565b6001610f8d6114a6565b91610f96611762565b6001600160a01b0360405193610fab856115a3565b1683526001600160a01b036020840191604435835216845260056020526001600160a01b0380604086209451161673ffffffffffffffffffffffffffffffffffffffff198454161783555191015580f35b50346102665760206003193601126102665760ff60406020926001600160a01b0361102561148b565b168152600684522054166040519015158152f35b503461026657606060031936011261026657806004356001600160a01b0381168091036110e4576110aa60209161106e6114a6565b611076611762565b60405163a9059cbb60e01b81526001600160a01b039091166004820152604480356024830152909485938492839190820190565b03925af18015610269576110bc575080f35b610bb49060203d6020116110dd575b6110d581836115f1565b8101906116b8565b503d6110cb565b50fd5b5034610266576020600319360112610266576040906001600160a01b0361110c61148b565b168152600560209081529190208054600190910154604080516001600160a01b03909316835292820152f35b5034610266576040600319360112610266576111526114a6565b336001600160a01b0382160361116e57610bb4906004356118b5565b6004827f6697b232000000000000000000000000000000000000000000000000000000008152fd5b503461026657604060031936011261026657610bb46004356111b66114a6565b906111d2610baa82600052600060205260016040600020015490565b61181b565b50346102665780600319360112610266576020600354604051908152f35b5034610266576020600319360112610266576020611223600435600052600060205260016040600020015490565b604051908152f35b5034610266576020600319360112610266576004356001600160a01b03811680910361127a57611259611762565b73ffffffffffffffffffffffffffffffffffffffff19600154161760015580f35b5080fd5b503461026657602060031936011261026657611298611762565b60043560035580f35b5034610266576080600319360112610266576112bb61148b565b506112c46114a6565b9060643567ffffffffffffffff811161127a576112e59036906004016114bc565b50507f241ecf16d79d0f8dbfb92cbc07fe17840425976cf0667f022fe9877caa831b08815280602052604081206001600160a01b038316825260205260ff6040822054161561139057507f88a5966d370b9919b20f3e2c13ff65706f196a4e32cc2c12bf57088f8852587460206001600160a01b036040519360443585521692a260206040517f150b7a02000000000000000000000000000000000000000000000000000000008152f35b6001600160a01b036024927ffa5cd00f00000000000000000000000000000000000000000000000000000000835216600452fd5b503461026657806003193601126102665760206001600160a01b0360015416604051908152f35b90503461127a57602060031936011261127a576004357fffffffff000000000000000000000000000000000000000000000000000000008116809103610f6557602092507f7965db0b000000000000000000000000000000000000000000000000000000008114908115611461575b5015158152f35b7f01ffc9a7000000000000000000000000000000000000000000000000000000009150143861145a565b600435906001600160a01b03821682036114a157565b600080fd5b602435906001600160a01b03821682036114a157565b9181601f840112156114a15782359167ffffffffffffffff83116114a157602083818601950101116114a157565b60a06003198201126114a1576004356001600160a01b03811681036114a157916024356001600160a01b03811681036114a157916044356001600160a01b03811681036114a157916064356001600160a01b03811681036114a157916084359067ffffffffffffffff82116114a157611565916004016114bc565b9091565b90600182811c92168015611599575b602083101461158357565b634e487b7160e01b600052602260045260246000fd5b91607f1691611578565b6040810190811067ffffffffffffffff8211176115bf57604052565b634e487b7160e01b600052604160045260246000fd5b6080810190811067ffffffffffffffff8211176115bf57604052565b90601f601f19910116810190811067ffffffffffffffff8211176115bf57604052565b906040519182600082549261162884611569565b8084529360018116908115611696575060011461164f575b5061164d925003836115f1565b565b90506000929192526020600020906000915b81831061167a57505090602061164d9282010138611640565b6020919350806001915483858901015201910190918492611661565b6020935061164d95925060ff1991501682840152151560051b82010138611640565b908160209103126114a1575180151581036114a15790565b156116d757565b606460405162461bcd60e51b815260206004820152601860248201527f4469737472696275746f72206e6f7420617070726f76656400000000000000006044820152fd5b92919267ffffffffffffffff82116115bf57604051916117456020601f19601f84011601846115f1565b8294818452818301116114a1578281602093846000960137010152565b3360009081527fe84508f2c7fa9c351146748b3025cb78b45df37d868e48c6a75102fecdeee645602052604090205460ff161561179b57565b63e2517d3f60e01b600052336004527f241ecf16d79d0f8dbfb92cbc07fe17840425976cf0667f022fe9877caa831b0860245260446000fd5b80600052600060205260406000206001600160a01b03331660005260205260ff60406000205416156118035750565b63e2517d3f60e01b6000523360045260245260446000fd5b80600052600060205260406000206001600160a01b03831660005260205260ff60406000205416156000146118ae5780600052600060205260406000206001600160a01b0383166000526020526040600020600160ff198254161790556001600160a01b03339216907f2f8788117e7eff1d82e926ec794901d17c78024a50270940304540a733656f0d600080a4600190565b5050600090565b80600052600060205260406000206001600160a01b03831660005260205260ff604060002054166000146118ae5780600052600060205260406000206001600160a01b038316600052602052604060002060ff1981541690556001600160a01b03339216907ff6391f5c32d9c69d2a47ea670b442974b53935d1edc7fd64eb21e047a839171b600080a4600190565b91908260409103126114a1576020825192015190565b51906001600160a01b03821682036114a157565b51908160020b82036114a157565b51906fffffffffffffffffffffffffffffffff821682036114a157565b818102929181159184041417156119ac57565b634e487b7160e01b600052601160045260246000fd5b919082039182116119ac57565b919260408501928351956001600160a01b03600097168015159081611da4575b5015611b71575083516040517f095ea7b30000000000000000000000000000000000000000000000000000000081526001600160a01b03918216600482015260248101879052911692906020816044818a885af18015611b4957906001600160a01b039291611b54575b5084516040517f095ea7b30000000000000000000000000000000000000000000000000000000081526001600160a01b03909116600482015260248101849052911693906020816044818a895af18015611b4957906001600160a01b039291611b2c575b50511690813b1561099957918560849281959460405197889687957fd4ccd5e000000000000000000000000000000000000000000000000000000000875260048701526024860152604485015260648401525af1801561026957611b1f575050565b81611b29916115f1565b50565b611b449060203d6020116110dd576110d581836115f1565b611abd565b6040513d89823e3d90fd5b611b6c9060203d6020116110dd576110d581836115f1565b611a59565b909293506001600160a01b0360045416946001600160a01b036003549416918288526005602052602060408920604051611baa816115a3565b60016001600160a01b03835416928383520154928391015280611d98575b505060200194611c2260206001600160a01b03885116611bf46064611bed8a88611999565b04866119c2565b60405163a9059cbb60e01b81526001600160a01b039092166004830152602482015291829081906044820190565b03818c885af18015611d8d576001600160a01b03611c5f936020938293611d72575b5016975116611bf46064611c588989611999565b04876119c2565b03818b8a5af18015611d6757926064611c8687602095611cb9958d98611d4c575b50611999565b60405163a9059cbb60e01b81526001600160a01b038b166004820152919004602482015293849283919082906044820190565b03925af180156109a55786959360209593606493611ce093611d159a50611d4c5750611999565b04918460405180978195829463a9059cbb60e01b845260048401602090939291936001600160a01b0360408201951681520152565b03925af1908115611d405750611d285750565b611b299060203d6020116110dd576110d581836115f1565b604051903d90823e3d90fd5b611d6290883d8a116110dd576110d581836115f1565b611c80565b6040513d8a823e3d90fd5b611d8890853d87116110dd576110d581836115f1565b611c44565b6040513d8b823e3d90fd5b97509450602038611bc8565b8852506006602052604087205460ff16386119ef56fea26469706673582212208971639476280483aed2dfeb9890e02f95b57a9bcc505afb102a987e096a562164736f6c634300081a00332f8788117e7eff1d82e926ec794901d17c78024a50270940304540a733656f0de84508f2c7fa9c351146748b3025cb78b45df37d868e48c6a75102fecdeee645ad3228b676f7d3cd4284a5443f17f1962b36e491b30a40b2405849e597ba5fb5",
  "linkReferences": {},
  "deployedLinkReferences": {}
}