{
  "_format": "hh-sol-artifact-1",
  "contractName": "StremeFeeCollector",
  "sourceName": "contracts/liquidity/fees/StremeFeeCollector.sol",
  "abi": [
    {
      "inputs": [
        {
          "internalType": "contract IStremeFeeStreamer",
          "name": "_feeStreamer",
          "type": "address"
        },
        {
          "internalType": "address",
          "name": "teamRecipient",
          "type": "address"
        },
        {
          "internalType": "uint256",
          "name": "teamReward",
          "type": "uint256"
        }
      ],
      "stateMutability": "nonpayable",
      "type": "constructor"
    },
    {
      "inputs": [],
      "name": "AccessControlBadConfirmation",
      "type": "error"
    },
    {
      "inputs": [
        {
          "internalType": "address",
          "name": "account",
          "type": "address"
        },
        {
          "internalType": "bytes32",
          "name": "neededRole",
          "type": "bytes32"
        }
      ],
      "name": "AccessControlUnauthorizedAccount",
      "type": "error"
    },
    {
      "inputs": [
        {
          "internalType": "uint256",
          "name": "tokenId",
          "type": "uint256"
        }
      ],
      "name": "InvalidTokenId",
      "type": "error"
    },
    {
      "inputs": [
        {
          "internalType": "address",
          "name": "user",
          "type": "address"
        }
      ],
      "name": "NotAllowed",
      "type": "error"
    },
    {
      "anonymous": false,
      "inputs": [
        {
          "indexed": true,
          "internalType": "address",
          "name": "stremeCoin",
          "type": "address"
        },
        {
          "indexed": true,
          "internalType": "address",
          "name": "pairedToken",
          "type": "address"
        },
        {
          "indexed": false,
          "internalType": "uint256",
          "name": "stremeCoinAmount",
          "type": "uint256"
        },
        {
          "indexed": false,
          "internalType": "uint256",
          "name": "pairedTokenAmount",
          "type": "uint256"
        }
      ],
      "name": "FeesClaimed",
      "type": "event"
    },
    {
      "anonymous": false,
      "inputs": [
        {
          "indexed": true,
          "internalType": "address",
          "name": "from",
          "type": "address"
        },
        {
          "indexed": false,
          "internalType": "uint256",
          "name": "tokenId",
          "type": "uint256"
        }
      ],
      "name": "Received",
      "type": "event"
    },
    {
      "anonymous": false,
      "inputs": [
        {
          "indexed": true,
          "internalType": "bytes32",
          "name": "role",
          "type": "bytes32"
        },
        {
          "indexed": true,
          "internalType": "bytes32",
          "name": "previousAdminRole",
          "type": "bytes32"
        },
        {
          "indexed": true,
          "internalType": "bytes32",
          "name": "newAdminRole",
          "type": "bytes32"
        }
      ],
      "name": "RoleAdminChanged",
      "type": "event"
    },
    {
      "anonymous": false,
      "inputs": [
        {
          "indexed": true,
          "internalType": "bytes32",
          "name": "role",
          "type": "bytes32"
        },
        {
          "indexed": true,
          "internalType": "address",
          "name": "account",
          "type": "address"
        },
        {
          "indexed": true,
          "internalType": "address",
          "name": "sender",
          "type": "address"
        }
      ],
      "name": "RoleGranted",
      "type": "event"
    },
    {
      "anonymous": false,
      "inputs": [
        {
          "indexed": true,
          "internalType": "bytes32",
          "name": "role",
          "type": "bytes32"
        },
        {
          "indexed": true,
          "internalType": "address",
          "name": "account",
          "type": "address"
        },
        {
          "indexed": true,
          "internalType": "address",
          "name": "sender",
          "type": "address"
        }
      ],
      "name": "RoleRevoked",
      "type": "event"
    },
    {
      "inputs": [],
      "name": "DEFAULT_ADMIN_ROLE",
      "outputs": [
        {
          "internalType": "bytes32",
          "name": "",
          "type": "bytes32"
        }
      ],
      "stateMutability": "view",
      "type": "function"
    },
    {
      "inputs": [],
      "name": "DEPLOYER_ROLE",
      "outputs": [
        {
          "internalType": "bytes32",
          "name": "",
          "type": "bytes32"
        }
      ],
      "stateMutability": "view",
      "type": "function"
    },
    {
      "inputs": [],
      "name": "MANAGER_ROLE",
      "outputs": [
        {
          "internalType": "bytes32",
          "name": "",
          "type": "bytes32"
        }
      ],
      "stateMutability": "view",
      "type": "function"
    },
    {
      "inputs": [
        {
          "internalType": "address",
          "name": "stremeCoin",
          "type": "address"
        }
      ],
      "name": "_teamOverrideRewardRecipientForToken",
      "outputs": [
        {
          "internalType": "address",
          "name": "recipient",
          "type": "address"
        },
        {
          "internalType": "uint256",
          "name": "reward",
          "type": "uint256"
        }
      ],
      "stateMutability": "view",
      "type": "function"
    },
    {
      "inputs": [],
      "name": "_teamRecipient",
      "outputs": [
        {
          "internalType": "address",
          "name": "",
          "type": "address"
        }
      ],
      "stateMutability": "view",
      "type": "function"
    },
    {
      "inputs": [],
      "name": "_teamReward",
      "outputs": [
        {
          "internalType": "uint256",
          "name": "",
          "type": "uint256"
        }
      ],
      "stateMutability": "view",
      "type": "function"
    },
    {
      "inputs": [
        {
          "internalType": "address",
          "name": "distributor",
          "type": "address"
        },
        {
          "internalType": "bool",
          "name": "approved",
          "type": "bool"
        }
      ],
      "name": "approveDistributor",
      "outputs": [],
      "stateMutability": "nonpayable",
      "type": "function"
    },
    {
      "inputs": [
        {
          "internalType": "address",
          "name": "distributor",
          "type": "address"
        }
      ],
      "name": "approvedDistributors",
      "outputs": [
        {
          "internalType": "bool",
          "name": "approved",
          "type": "bool"
        }
      ],
      "stateMutability": "view",
      "type": "function"
    },
    {
      "inputs": [
        {
          "internalType": "address",
          "name": "stremeCoinAddress",
          "type": "address"
        }
      ],
      "name": "claimRewards",
      "outputs": [],
      "stateMutability": "nonpayable",
      "type": "function"
    },
    {
      "inputs": [
        {
          "internalType": "address",
          "name": "stremeCoin",
          "type": "address"
        },
        {
          "internalType": "address",
          "name": "_locker",
          "type": "address"
        },
        {
          "internalType": "address",
          "name": "admin",
          "type": "address"
        },
        {
          "internalType": "address",
          "name": "distributor",
          "type": "address"
        },
        {
          "internalType": "bytes",
          "name": "data",
          "type": "bytes"
        }
      ],
      "name": "editFeeCollectionStrategy",
      "outputs": [],
      "stateMutability": "nonpayable",
      "type": "function"
    },
    {
      "inputs": [
        {
          "internalType": "address",
          "name": "stremeCoin",
          "type": "address"
        }
      ],
      "name": "feeCollectionStrategies",
      "outputs": [
        {
          "internalType": "address",
          "name": "locker",
          "type": "address"
        },
        {
          "internalType": "address",
          "name": "admin",
          "type": "address"
        },
        {
          "internalType": "address",
          "name": "distributor",
          "type": "address"
        },
        {
          "internalType": "bytes",
          "name": "data",
          "type": "bytes"
        }
      ],
      "stateMutability": "view",
      "type": "function"
    },
    {
      "inputs": [],
      "name": "feeStreamer",
      "outputs": [
        {
          "internalType": "contract IStremeFeeStreamer",
          "name": "",
          "type": "address"
        }
      ],
      "stateMutability": "view",
      "type": "function"
    },
    {
      "inputs": [
        {
          "internalType": "bytes32",
          "name": "role",
          "type": "bytes32"
        }
      ],
      "name": "getRoleAdmin",
      "outputs": [
        {
          "internalType": "bytes32",
          "name": "",
          "type": "bytes32"
        }
      ],
      "stateMutability": "view",
      "type": "function"
    },
    {
      "inputs": [
        {
          "internalType": "bytes32",
          "name": "role",
          "type": "bytes32"
        },
        {
          "internalType": "address",
          "name": "account",
          "type": "address"
        }
      ],
      "name": "grantRole",
      "outputs": [],
      "stateMutability": "nonpayable",
      "type": "function"
    },
    {
      "inputs": [
        {
          "internalType": "bytes32",
          "name": "role",
          "type": "bytes32"
        },
        {
          "internalType": "address",
          "name": "account",
          "type": "address"
        }
      ],
      "name": "hasRole",
      "outputs": [
        {
          "internalType": "bool",
          "name": "",
          "type": "bool"
        }
      ],
      "stateMutability": "view",
      "type": "function"
    },
    {
      "inputs": [
        {
          "internalType": "address",
          "name": "stremeCoin",
          "type": "address"
        }
      ],
      "name": "locker",
      "outputs": [
        {
          "internalType": "address",
          "name": "",
          "type": "address"
        }
      ],
      "stateMutability": "view",
      "type": "function"
    },
    {
      "inputs": [
        {
          "internalType": "address",
          "name": "",
          "type": "address"
        },
        {
          "internalType": "address",
          "name": "from",
          "type": "address"
        },
        {
          "internalType": "uint256",
          "name": "id",
          "type": "uint256"
        },
        {
          "internalType": "bytes",
          "name": "",
          "type": "bytes"
        }
      ],
      "name": "onERC721Received",
      "outputs": [
        {
          "internalType": "bytes4",
          "name": "",
          "type": "bytes4"
        }
      ],
      "stateMutability": "nonpayable",
      "type": "function"
    },
    {
      "inputs": [],
      "name": "positionManager",
      "outputs": [
        {
          "internalType": "address",
          "name": "",
          "type": "address"
        }
      ],
      "stateMutability": "view",
      "type": "function"
    },
    {
      "inputs": [
        {
          "internalType": "bytes32",
          "name": "role",
          "type": "bytes32"
        },
        {
          "internalType": "address",
          "name": "callerConfirmation",
          "type": "address"
        }
      ],
      "name": "renounceRole",
      "outputs": [],
      "stateMutability": "nonpayable",
      "type": "function"
    },
    {
      "inputs": [
        {
          "internalType": "bytes32",
          "name": "role",
          "type": "bytes32"
        },
        {
          "internalType": "address",
          "name": "account",
          "type": "address"
        }
      ],
      "name": "revokeRole",
      "outputs": [],
      "stateMutability": "nonpayable",
      "type": "function"
    },
    {
      "inputs": [
        {
          "internalType": "address",
          "name": "stremeCoin",
          "type": "address"
        },
        {
          "internalType": "address",
          "name": "_locker",
          "type": "address"
        },
        {
          "internalType": "address",
          "name": "admin",
          "type": "address"
        },
        {
          "internalType": "address",
          "name": "distributor",
          "type": "address"
        },
        {
          "internalType": "bytes",
          "name": "data",
          "type": "bytes"
        }
      ],
      "name": "setFeeCollectionStrategy",
      "outputs": [],
      "stateMutability": "nonpayable",
      "type": "function"
    },
    {
      "inputs": [
        {
          "internalType": "address",
          "name": "stremeCoin",
          "type": "address"
        },
        {
          "internalType": "address",
          "name": "recipient",
          "type": "address"
        },
        {
          "internalType": "uint256",
          "name": "reward",
          "type": "uint256"
        }
      ],
      "name": "setOverrideTeamRewardRecipient",
      "outputs": [],
      "stateMutability": "nonpayable",
      "type": "function"
    },
    {
      "inputs": [
        {
          "internalType": "bytes4",
          "name": "interfaceId",
          "type": "bytes4"
        }
      ],
      "name": "supportsInterface",
      "outputs": [
        {
          "internalType": "bool",
          "name": "",
          "type": "bool"
        }
      ],
      "stateMutability": "view",
      "type": "function"
    },
    {
      "inputs": [
        {
          "internalType": "contract IERC20",
          "name": "token",
          "type": "address"
        },
        {
          "internalType": "address",
          "name": "to",
          "type": "address"
        },
        {
          "internalType": "uint256",
          "name": "amount",
          "type": "uint256"
        }
      ],
      "name": "withdrawERC20",
      "outputs": [],
      "stateMutability": "nonpayable",
      "type": "function"
    }
  ],
  "bytecode": "0x6080346100e357601f611e5738819003918201601f19168301916001600160401b038311848410176100e8578084926060946040528339810103126100e35780516001600160a01b038116908190036100e3576020820151906001600160a01b0382168083036100e35760406100d3940151917303a520b32c04bf3beef7beb72e919cf822ed34f160018060a01b031960025416176002556100a0336100fe565b506100aa3361017a565b5060018060a01b0319600154161760015560018060a01b0319600454161760045560035561017a565b50604051611be490816102138239f35b600080fd5b634e487b7160e01b600052604160045260246000fd5b6001600160a01b0381166000908152600080516020611e37833981519152602052604090205460ff16610174576001600160a01b03166000818152600080516020611e3783398151915260205260408120805460ff19166001179055339190600080516020611df78339815191528180a4600190565b50600090565b6001600160a01b0381166000908152600080516020611e17833981519152602052604090205460ff16610174576001600160a01b03166000818152600080516020611e1783398151915260205260408120805460ff191660011790553391907f241ecf16d79d0f8dbfb92cbc07fe17840425976cf0667f022fe9877caa831b0890600080516020611df78339815191529080a460019056fe608080604052600436101561001357600080fd5b600090813560e01c90816301ffc9a7146111c55750806304b79f4c1461119e578063150b7a0214611077578063248a9ca3146110415780632ad94b68146110235780632f2ff15d14610fe257806336568abe14610f84578063427fc9f714610f3357806344004cc114610e7a5780634d1c5d9914610e3d57806350621aed14610daa5780635e80660e14610d50578063603fec2314610af6578063791b98bc14610acf57806391d1485414610a88578063a071d35914610a61578063a217fddf14610a45578063d547741f146109fb578063d71c9c12146109c1578063ec87621c14610986578063ecd002611461094b578063ef5cfb8c14610488578063ef7ccc93146103c85763f13406491461012957600080fd5b346103c5576001600160a01b0390610140366112c4565b919294969096169586865260076020526001600160a01b036001604088200154163303610367576003946101aa6001600160a01b03949285809416948561034a575b84604051986101908a6113af565b16885284602089019416845260408801958652369161150f565b9760608601988952875260076020528180604089209651161673ffffffffffffffffffffffffffffffffffffffff1986541617855551168260018501911673ffffffffffffffffffffffffffffffffffffffff1982541617905551166001600160a01b0360028301911673ffffffffffffffffffffffffffffffffffffffff1982541617905501915191825167ffffffffffffffff81116103365761024f8254611343565b601f81116102f1575b506020601f821160011461029257839482939492610287575b50506000198260011b9260031b1c191617905580f35b015190503880610271565b82845280842090601f198316855b8181106102d9575095836001959697106102c0575b505050811b01905580f35b015160001960f88460031b161c191690553880806102b5565b9192602060018192868b0151815501940192016102a0565b82845260208420601f830160051c8101916020841061032c575b601f0160051c01905b8181106103215750610258565b848155600101610314565b909150819061030b565b602483634e487b7160e01b81526041600452fd5b858a52600660205261036260ff60408c2054166114aa565b610182565b60646040517f08c379a000000000000000000000000000000000000000000000000000000000815260206004820152600960248201527f4e6f742061646d696e00000000000000000000000000000000000000000000006044820152fd5b80fd5b50346103c55760206003193601126103c5576001600160a01b036103ea611265565b1681526007602052604081206001600160a01b038154166001600160a01b036001830154169261042a60036001600160a01b0360028601541694016113ee565b9260405194859384526020840152604083015260806060830152825192836080840152815b848110610470575050601f83601f199260a080968601015201168101030190f35b602082820181015160a088840101528694500161044f565b50346103c55760206003193601126103c557806001600160a01b036104ab611265565b168082526007602052604082206105036003604051926104ca846113af565b6001600160a01b0381541684526001600160a01b0360018201541660208501526001600160a01b036002820154166040850152016113ee565b6060820190815281516001600160a01b03168061059b575050506001600160a01b036001541690813b156105975782916024839260405195869384927fef5cfb8c00000000000000000000000000000000000000000000000000000000845260048401525af1801561058a5761057a575b50505b80f35b610583916113cb565b3881610574565b50604051903d90823e3d90fd5b5050fd5b929350909130810361084157505160208180518101031261083d5760200151916001600160a01b0360025416604051937f99fbab8800000000000000000000000000000000000000000000000000000000855280600486015261018085602481855afa948515610832578690879661075f575b506001600160a01b03169280841415908161074b575b50610720576001600160a01b03916084604092835190610643826113af565b81528860208201933085526fffffffffffffffffffffffffffffffff86840181815281606086019181835289519a8b998a987ffc6f7865000000000000000000000000000000000000000000000000000000008a525160048a01525116602488015251166044860152511660648401525af19182156107155761057794869287946106d9575b506001600160a01b0316906117c3565b6107069194506001600160a01b03935060403d60401161070e575b6106fe81836113cb565b810190611738565b9390926106c9565b503d6106f4565b6040513d87823e3d90fd5b7fed15e6cf000000000000000000000000000000000000000000000000000000008652600452602485fd5b90506001600160a01b038616141538610624565b955050610180853d821161082a575b8161077c61018093836113cb565b810103126108265784516bffffffffffffffffffffffff811603610826576107a66020860161174e565b506107b36040860161174e565b946107c06060820161174e565b95608082015162ffffff8116036108225761081b610160836107ec60a06001600160a01b039601611762565b506107f960c08201611762565b5061080660e08201611770565b506108146101408201611770565b5001611770565b509061060e565b8780fd5b8580fd5b3d915061076e565b6040513d88823e3d90fd5b8380fd5b9290506040517f15a0ea6a00000000000000000000000000000000000000000000000000000000815230600482015260408160248188885af19182156107155760049486928794610925575b50602090604051968780927fd21220a70000000000000000000000000000000000000000000000000000000082525afa9485156108325786956108df575b506001600160a01b036105779516906117c3565b94506020853d60201161091d575b816108fa602093836113cb565b81010312610826576001600160a01b036109166105779661174e565b95506108cb565b3d91506108ed565b6109439194506020935060403d60401161070e576106fe81836113cb565b93909261088d565b50346103c557806003193601126103c55760206040517ffc425f2263d0df187444b70e47283d622c70181c5baebb1306a01edba1ce184c8152f35b50346103c557806003193601126103c55760206040517f241ecf16d79d0f8dbfb92cbc07fe17840425976cf0667f022fe9877caa831b088152f35b50346103c55760206003193601126103c5576001600160a01b036040602092826109e9611265565b16815260078452205416604051908152f35b50346103c55760406003193601126103c557610a41600435610a1b611280565b90610a3c610a3782600052600060205260016040600020015490565b6115c8565b6116a9565b5080f35b50346103c557806003193601126103c557602090604051908152f35b50346103c557806003193601126103c55760206001600160a01b0360045416604051908152f35b50346103c55760406003193601126103c55760ff6040602092610aa9611280565b60043582528185526001600160a01b038383209116825284522054166040519015158152f35b50346103c557806003193601126103c55760206001600160a01b0360025416604051908152f35b50346103c557610b05366112c4565b92917ffc425f2263d0df187444b70e47283d622c70181c5baebb1306a01edba1ce184c8796975285602052604086206001600160a01b033316875260205260ff60408720541615610d19576001600160a01b039283610b956003979694828095169586610cfc575b8360405199610b7b8b6113af565b1689528360208a019516855260408901968752369161150f565b9860608701998a5216875260076020528180604089209651161673ffffffffffffffffffffffffffffffffffffffff1986541617855551168260018501911673ffffffffffffffffffffffffffffffffffffffff1982541617905551166001600160a01b0360028301911673ffffffffffffffffffffffffffffffffffffffff1982541617905501915191825167ffffffffffffffff811161033657610c3b8254611343565b601f8111610cb7575b506020601f8211600114610c72578394829394926102875750506000198260011b9260031b1c191617905580f35b82845280842090601f198316855b818110610c9f575095836001959697106102c057505050811b01905580f35b9192602060018192868b015181550194019201610c80565b82845260208420601f830160051c81019160208410610cf2575b601f0160051c01905b818110610ce75750610c44565b848155600101610cda565b9091508190610cd1565b868b526006602052610d1460ff60408d2054166114aa565b610b6d565b60448663e2517d3f60e01b8152336004527ffc425f2263d0df187444b70e47283d622c70181c5baebb1306a01edba1ce184c602452fd5b50346103c55760406003193601126103c557610d6a611265565b60243590811515809203610da6576001600160a01b0390610d89611556565b1682526006602052604082209060ff60ff19835416911617905580f35b8280fd5b50346103c55760606003193601126103c557610dc4611265565b6001610dce611280565b91610dd7611556565b6001600160a01b0360405193610dec8561137d565b1683526001600160a01b036020840191604435835216845260056020526001600160a01b0380604086209451161673ffffffffffffffffffffffffffffffffffffffff198454161783555191015580f35b50346103c55760206003193601126103c55760ff60406020926001600160a01b03610e66611265565b168152600684522054166040519015158152f35b50346103c55760606003193601126103c557806004356001600160a01b038116809103610f3057610eeb602091610eaf611280565b610eb7611556565b60405163a9059cbb60e01b81526001600160a01b039091166004820152604480356024830152909485938492839190820190565b03925af18015610f2557610efd575080f35b610a419060203d602011610f1e575b610f1681836113cb565b810190611492565b503d610f0c565b6040513d84823e3d90fd5b50fd5b50346103c55760206003193601126103c5576040906001600160a01b03610f58611265565b168152600560209081529190208054600190910154604080516001600160a01b03909316835292820152f35b50346103c55760406003193601126103c557610f9e611280565b336001600160a01b03821603610fba57610a41906004356116a9565b6004827f6697b232000000000000000000000000000000000000000000000000000000008152fd5b50346103c55760406003193601126103c557610a41600435611002611280565b9061101e610a3782600052600060205260016040600020015490565b61160f565b50346103c557806003193601126103c5576020600354604051908152f35b50346103c55760206003193601126103c557602061106f600435600052600060205260016040600020015490565b604051908152f35b50346103c55760806003193601126103c557611091611265565b5061109a611280565b9060643567ffffffffffffffff811161119a576110bb903690600401611296565b50507f241ecf16d79d0f8dbfb92cbc07fe17840425976cf0667f022fe9877caa831b08815280602052604081206001600160a01b038316825260205260ff6040822054161561116657507f88a5966d370b9919b20f3e2c13ff65706f196a4e32cc2c12bf57088f8852587460206001600160a01b036040519360443585521692a260206040517f150b7a02000000000000000000000000000000000000000000000000000000008152f35b6001600160a01b036024927ffa5cd00f00000000000000000000000000000000000000000000000000000000835216600452fd5b5080fd5b50346103c557806003193601126103c55760206001600160a01b0360015416604051908152f35b90503461119a57602060031936011261119a576004357fffffffff000000000000000000000000000000000000000000000000000000008116809103610da657602092507f7965db0b00000000000000000000000000000000000000000000000000000000811490811561123b575b5015158152f35b7f01ffc9a70000000000000000000000000000000000000000000000000000000091501438611234565b600435906001600160a01b038216820361127b57565b600080fd5b602435906001600160a01b038216820361127b57565b9181601f8401121561127b5782359167ffffffffffffffff831161127b576020838186019501011161127b57565b60a060031982011261127b576004356001600160a01b038116810361127b57916024356001600160a01b038116810361127b57916044356001600160a01b038116810361127b57916064356001600160a01b038116810361127b57916084359067ffffffffffffffff821161127b5761133f91600401611296565b9091565b90600182811c92168015611373575b602083101461135d57565b634e487b7160e01b600052602260045260246000fd5b91607f1691611352565b6040810190811067ffffffffffffffff82111761139957604052565b634e487b7160e01b600052604160045260246000fd5b6080810190811067ffffffffffffffff82111761139957604052565b90601f601f19910116810190811067ffffffffffffffff82111761139957604052565b906040519182600082549261140284611343565b80845293600181169081156114705750600114611429575b50611427925003836113cb565b565b90506000929192526020600020906000915b818310611454575050906020611427928201013861141a565b602091935080600191548385890101520191019091849261143b565b6020935061142795925060ff1991501682840152151560051b8201013861141a565b9081602091031261127b5751801515810361127b5790565b156114b157565b60646040517f08c379a000000000000000000000000000000000000000000000000000000000815260206004820152601860248201527f4469737472696275746f72206e6f7420617070726f76656400000000000000006044820152fd5b92919267ffffffffffffffff821161139957604051916115396020601f19601f84011601846113cb565b82948184528183011161127b578281602093846000960137010152565b3360009081527fe84508f2c7fa9c351146748b3025cb78b45df37d868e48c6a75102fecdeee645602052604090205460ff161561158f57565b63e2517d3f60e01b600052336004527f241ecf16d79d0f8dbfb92cbc07fe17840425976cf0667f022fe9877caa831b0860245260446000fd5b80600052600060205260406000206001600160a01b03331660005260205260ff60406000205416156115f75750565b63e2517d3f60e01b6000523360045260245260446000fd5b80600052600060205260406000206001600160a01b03831660005260205260ff60406000205416156000146116a25780600052600060205260406000206001600160a01b0383166000526020526040600020600160ff198254161790556001600160a01b03339216907f2f8788117e7eff1d82e926ec794901d17c78024a50270940304540a733656f0d600080a4600190565b5050600090565b80600052600060205260406000206001600160a01b03831660005260205260ff604060002054166000146116a25780600052600060205260406000206001600160a01b038316600052602052604060002060ff1981541690556001600160a01b03339216907ff6391f5c32d9c69d2a47ea670b442974b53935d1edc7fd64eb21e047a839171b600080a4600190565b919082604091031261127b576020825192015190565b51906001600160a01b038216820361127b57565b51908160020b820361127b57565b51906fffffffffffffffffffffffffffffffff8216820361127b57565b818102929181159184041417156117a057565b634e487b7160e01b600052601160045260246000fd5b919082039182116117a057565b919260408501928351956001600160a01b03600097168015159081611b98575b5015611965575083516040517f095ea7b30000000000000000000000000000000000000000000000000000000081526001600160a01b03918216600482015260248101879052911692906020816044818a885af1801561193d57906001600160a01b039291611948575b5084516040517f095ea7b30000000000000000000000000000000000000000000000000000000081526001600160a01b03909116600482015260248101849052911693906020816044818a895af1801561193d57906001600160a01b039291611920575b50511690813b1561082657918560849281959460405197889687957fd4ccd5e000000000000000000000000000000000000000000000000000000000875260048701526024860152604485015260648401525af18015610f2557611913575050565b8161191d916113cb565b50565b6119389060203d602011610f1e57610f1681836113cb565b6118b1565b6040513d89823e3d90fd5b6119609060203d602011610f1e57610f1681836113cb565b61184d565b909293506001600160a01b0360045416946001600160a01b03600354941691828852600560205260206040892060405161199e8161137d565b60016001600160a01b03835416928383520154928391015280611b8c575b505060200194611a1660206001600160a01b038851166119e860646119e18a8861178d565b04866117b6565b60405163a9059cbb60e01b81526001600160a01b039092166004830152602482015291829081906044820190565b03818c885af18015611b81576001600160a01b03611a53936020938293611b66575b50169751166119e86064611a4c898961178d565b04876117b6565b03818b8a5af18015611b5b57926064611a7a87602095611aad958d98611b40575b5061178d565b60405163a9059cbb60e01b81526001600160a01b038b166004820152919004602482015293849283919082906044820190565b03925af180156108325786959360209593606493611ad493611b099a50611b40575061178d565b04918460405180978195829463a9059cbb60e01b845260048401602090939291936001600160a01b0360408201951681520152565b03925af1908115611b345750611b1c5750565b61191d9060203d602011610f1e57610f1681836113cb565b604051903d90823e3d90fd5b611b5690883d8a11610f1e57610f1681836113cb565b611a74565b6040513d8a823e3d90fd5b611b7c90853d8711610f1e57610f1681836113cb565b611a38565b6040513d8b823e3d90fd5b975094506020386119bc565b8852506006602052604087205460ff16386117e356fea2646970667358221220685e4eba8ade482e1f4d570660588033a9097b112a335605cc8d0507cd7adb5664736f6c634300081a00332f8788117e7eff1d82e926ec794901d17c78024a50270940304540a733656f0de84508f2c7fa9c351146748b3025cb78b45df37d868e48c6a75102fecdeee645ad3228b676f7d3cd4284a5443f17f1962b36e491b30a40b2405849e597ba5fb5",
  "linkReferences": {},
  "deployedLinkReferences": {}
}