{
  "_format": "hh-sol-artifact-1",
  "contractName": "StremeFeeDistributorTransfer",
  "sourceName": "contracts/liquidity/fees/distributors/StremeFeeDistributorTransfer.sol",
  "abi": [
    {
      "inputs": [
        {
          "internalType": "contract IStremeFeeCollector",
          "name": "_feeCollector",
          "type": "address"
        }
      ],
      "stateMutability": "nonpayable",
      "type": "constructor"
    },
    {
      "inputs": [],
      "name": "AccessControlBadConfirmation",
      "type": "error"
    },
    {
      "inputs": [
        {
          "internalType": "address",
          "name": "account",
          "type": "address"
        },
        {
          "internalType": "bytes32",
          "name": "neededRole",
          "type": "bytes32"
        }
      ],
      "name": "AccessControlUnauthorizedAccount",
      "type": "error"
    },
    {
      "anonymous": false,
      "inputs": [
        {
          "indexed": true,
          "internalType": "bytes32",
          "name": "role",
          "type": "bytes32"
        },
        {
          "indexed": true,
          "internalType": "bytes32",
          "name": "previousAdminRole",
          "type": "bytes32"
        },
        {
          "indexed": true,
          "internalType": "bytes32",
          "name": "newAdminRole",
          "type": "bytes32"
        }
      ],
      "name": "RoleAdminChanged",
      "type": "event"
    },
    {
      "anonymous": false,
      "inputs": [
        {
          "indexed": true,
          "internalType": "bytes32",
          "name": "role",
          "type": "bytes32"
        },
        {
          "indexed": true,
          "internalType": "address",
          "name": "account",
          "type": "address"
        },
        {
          "indexed": true,
          "internalType": "address",
          "name": "sender",
          "type": "address"
        }
      ],
      "name": "RoleGranted",
      "type": "event"
    },
    {
      "anonymous": false,
      "inputs": [
        {
          "indexed": true,
          "internalType": "bytes32",
          "name": "role",
          "type": "bytes32"
        },
        {
          "indexed": true,
          "internalType": "address",
          "name": "account",
          "type": "address"
        },
        {
          "indexed": true,
          "internalType": "address",
          "name": "sender",
          "type": "address"
        }
      ],
      "name": "RoleRevoked",
      "type": "event"
    },
    {
      "inputs": [],
      "name": "DEFAULT_ADMIN_ROLE",
      "outputs": [
        {
          "internalType": "bytes32",
          "name": "",
          "type": "bytes32"
        }
      ],
      "stateMutability": "view",
      "type": "function"
    },
    {
      "inputs": [],
      "name": "DEPLOYER_ROLE",
      "outputs": [
        {
          "internalType": "bytes32",
          "name": "",
          "type": "bytes32"
        }
      ],
      "stateMutability": "view",
      "type": "function"
    },
    {
      "inputs": [],
      "name": "MANAGER_ROLE",
      "outputs": [
        {
          "internalType": "bytes32",
          "name": "",
          "type": "bytes32"
        }
      ],
      "stateMutability": "view",
      "type": "function"
    },
    {
      "inputs": [
        {
          "internalType": "contract IERC20",
          "name": "stremeCoin",
          "type": "address"
        },
        {
          "internalType": "contract IERC20",
          "name": "pairedToken",
          "type": "address"
        },
        {
          "internalType": "uint256",
          "name": "stremeCoinAmount",
          "type": "uint256"
        },
        {
          "internalType": "uint256",
          "name": "pairedTokenAmount",
          "type": "uint256"
        }
      ],
      "name": "distributeFees",
      "outputs": [],
      "stateMutability": "nonpayable",
      "type": "function"
    },
    {
      "inputs": [],
      "name": "feeCollector",
      "outputs": [
        {
          "internalType": "contract IStremeFeeCollector",
          "name": "",
          "type": "address"
        }
      ],
      "stateMutability": "view",
      "type": "function"
    },
    {
      "inputs": [
        {
          "internalType": "bytes32",
          "name": "role",
          "type": "bytes32"
        }
      ],
      "name": "getRoleAdmin",
      "outputs": [
        {
          "internalType": "bytes32",
          "name": "",
          "type": "bytes32"
        }
      ],
      "stateMutability": "view",
      "type": "function"
    },
    {
      "inputs": [
        {
          "internalType": "bytes32",
          "name": "role",
          "type": "bytes32"
        },
        {
          "internalType": "address",
          "name": "account",
          "type": "address"
        }
      ],
      "name": "grantRole",
      "outputs": [],
      "stateMutability": "nonpayable",
      "type": "function"
    },
    {
      "inputs": [
        {
          "internalType": "bytes32",
          "name": "role",
          "type": "bytes32"
        },
        {
          "internalType": "address",
          "name": "account",
          "type": "address"
        }
      ],
      "name": "hasRole",
      "outputs": [
        {
          "internalType": "bool",
          "name": "",
          "type": "bool"
        }
      ],
      "stateMutability": "view",
      "type": "function"
    },
    {
      "inputs": [
        {
          "internalType": "bytes32",
          "name": "role",
          "type": "bytes32"
        },
        {
          "internalType": "address",
          "name": "callerConfirmation",
          "type": "address"
        }
      ],
      "name": "renounceRole",
      "outputs": [],
      "stateMutability": "nonpayable",
      "type": "function"
    },
    {
      "inputs": [
        {
          "internalType": "bytes32",
          "name": "role",
          "type": "bytes32"
        },
        {
          "internalType": "address",
          "name": "account",
          "type": "address"
        }
      ],
      "name": "revokeRole",
      "outputs": [],
      "stateMutability": "nonpayable",
      "type": "function"
    },
    {
      "inputs": [
        {
          "internalType": "bytes4",
          "name": "interfaceId",
          "type": "bytes4"
        }
      ],
      "name": "supportsInterface",
      "outputs": [
        {
          "internalType": "bool",
          "name": "",
          "type": "bool"
        }
      ],
      "stateMutability": "view",
      "type": "function"
    }
  ],
  "bytecode": "0x60803461009257601f610fd738819003918201601f19168301916001600160401b038311848410176100975780849260209460405283398101031261009257516001600160a01b038116908190036100925761005a336100ad565b5061006433610129565b5061006e816101c1565b50600180546001600160a01b031916919091179055604051610cfd908161025a8239f35b600080fd5b634e487b7160e01b600052604160045260246000fd5b6001600160a01b0381166000908152600080516020610fb7833981519152602052604090205460ff16610123576001600160a01b03166000818152600080516020610fb783398151915260205260408120805460ff19166001179055339190600080516020610f578339815191528180a4600190565b50600090565b6001600160a01b0381166000908152600080516020610f77833981519152602052604090205460ff16610123576001600160a01b03166000818152600080516020610f7783398151915260205260408120805460ff191660011790553391907f241ecf16d79d0f8dbfb92cbc07fe17840425976cf0667f022fe9877caa831b0890600080516020610f578339815191529080a4600190565b6001600160a01b0381166000908152600080516020610f97833981519152602052604090205460ff16610123576001600160a01b03166000818152600080516020610f9783398151915260205260408120805460ff191660011790553391907ffc425f2263d0df187444b70e47283d622c70181c5baebb1306a01edba1ce184c90600080516020610f578339815191529080a460019056fe608080604052600436101561001357600080fd5b60003560e01c90816301ffc9a7146109df57508063248a9ca3146109aa5780632f2ff15d1461097857806336568abe1461092757806391d14854146108e6578063a217fddf146108ca578063c415b95c146108a3578063d4ccd5e01461014c578063d547741f14610113578063ec87621c146100d85763ecd002611461009857600080fd5b346100d35760006003193601126100d35760206040517ffc425f2263d0df187444b70e47283d622c70181c5baebb1306a01edba1ce184c8152f35b600080fd5b346100d35760006003193601126100d35760206040517f241ecf16d79d0f8dbfb92cbc07fe17840425976cf0667f022fe9877caa831b088152f35b346100d35761014a61012436610a7d565b9061014561014082600052600060205260016040600020015490565b610b3e565b610c38565b005b346100d35760806003193601126100d3576004356001600160a01b0381168091036100d3576024356001600160a01b0381168091036100d3573360009081527f740c5e3e456bed56f053f960110118ba9b95a1f5359a82283516fb2e81b6e37e60205260409020546044359260643592909160ff1615610851576001600160a01b0360015416936040517fef7ccc93000000000000000000000000000000000000000000000000000000008152836004820152600081602481895afa90811561053a57600091610770575b506040517fa071d3590000000000000000000000000000000000000000000000000000000081526020816004818a5afa90811561053a57600091610736575b50936040517f2ad94b680000000000000000000000000000000000000000000000000000000081526020816004818b5afa90811561053a57600091610703575b506040602491988151928380927f427fc9f70000000000000000000000000000000000000000000000000000000082528660048301525afa90811561053a57600091610687575b506001600160a01b0381511680610676575b50506040517f23b872dd000000000000000000000000000000000000000000000000000000008152336004820152306024820152604481018490526020816064816000865af190811561053a57600091610657575b50156105f9576040517f23b872dd000000000000000000000000000000000000000000000000000000008152336004820152306024820152604481018790526020816064816000895af190811561053a576000916105da575b501561057c576103ef9160206103bf60646103b88b88610b08565b0486610b31565b60405163a9059cbb60e01b81526001600160a01b0384166004820152602481019190915293849081906044820190565b03816000865af190811561053a5761044e93602092610561575b5061042060646104198b8b610b08565b0489610b31565b60405163a9059cbb60e01b81526001600160a01b039092166004830152602482015292839081906044820190565b03816000885af190811561053a576064610477896000966020966104aa96610546575b50610b08565b60405163a9059cbb60e01b81526001600160a01b0389166004820152919004602482015293849283919082906044820190565b03925af1801561053a57610502956020956064936104cc936105465750610b08565b0491600060405180968195829463a9059cbb60e01b845260048401602090939291936001600160a01b0360408201951681520152565b03925af1801561053a5761051257005b61014a9060203d602011610533575b61052b8183610aa3565b810190610af0565b503d610521565b6040513d6000823e3d90fd5b61055c90883d8a116105335761052b8183610aa3565b610471565b61057790833d85116105335761052b8183610aa3565b610409565b60646040517f08c379a000000000000000000000000000000000000000000000000000000000815260206004820152601e60248201527f5472616e73666572206f6620506169726564546f6b656e206661696c656400006044820152fd5b6105f3915060203d6020116105335761052b8183610aa3565b8861039d565b60646040517f08c379a000000000000000000000000000000000000000000000000000000000815260206004820152601d60248201527f5472616e73666572206f6620537472656d65436f696e206661696c65640000006044820152fd5b610670915060203d6020116105335761052b8183610aa3565b88610344565b6020909101519750945087806102ef565b6040813d6040116106fb575b816106a060409383610aa3565b810103126106f75760405191604083019083821067ffffffffffffffff8311176106e357506040526020906106d481610adc565b835201516020820152886102dd565b80634e487b7160e01b602492526041600452fd5b5080fd5b3d9150610693565b90506020813d60201161072e575b8161071e60209383610aa3565b810103126100d357516040610296565b3d9150610711565b90506020813d602011610768575b8161075160209383610aa3565b810103126100d35761076290610adc565b87610256565b3d9150610744565b903d8082843e6107808184610aa3565b82016080838203126106f75761079583610adc565b506107a260208401610adc565b926107af60408201610adc565b5060608101519067ffffffffffffffff821161083557019080601f8301121561084d5781519167ffffffffffffffff831161083957604051916107fc6020601f19601f8701160184610aa3565b8383526020848301011161083557835b838110610820575050016020015286610217565b8060208092840101518282860101520161080c565b8380fd5b602484634e487b7160e01b81526041600452fd5b8280fd5b7fe2517d3f00000000000000000000000000000000000000000000000000000000600052336004527ffc425f2263d0df187444b70e47283d622c70181c5baebb1306a01edba1ce184c60245260446000fd5b346100d35760006003193601126100d35760206001600160a01b0360015416604051908152f35b346100d35760006003193601126100d357602060405160008152f35b346100d3576108f436610a7d565b9060005260006020526001600160a01b0360406000209116600052602052602060ff604060002054166040519015158152f35b346100d35761093536610a7d565b336001600160a01b0382160361094e5761014a91610c38565b7f6697b2320000000000000000000000000000000000000000000000000000000060005260046000fd5b346100d35761014a61098936610a7d565b906109a561014082600052600060205260016040600020015490565b610b9e565b346100d35760206003193601126100d35760206109d7600435600052600060205260016040600020015490565b604051908152f35b346100d35760206003193601126100d357600435907fffffffff0000000000000000000000000000000000000000000000000000000082168092036100d357817f7965db0b0000000000000000000000000000000000000000000000000000000060209314908115610a53575b5015158152f35b7f01ffc9a70000000000000000000000000000000000000000000000000000000091501483610a4c565b60031960409101126100d357600435906024356001600160a01b03811681036100d35790565b90601f601f19910116810190811067ffffffffffffffff821117610ac657604052565b634e487b7160e01b600052604160045260246000fd5b51906001600160a01b03821682036100d357565b908160209103126100d3575180151581036100d35790565b81810292918115918404141715610b1b57565b634e487b7160e01b600052601160045260246000fd5b91908203918211610b1b57565b80600052600060205260406000206001600160a01b03331660005260205260ff6040600020541615610b6d5750565b7fe2517d3f000000000000000000000000000000000000000000000000000000006000523360045260245260446000fd5b80600052600060205260406000206001600160a01b03831660005260205260ff6040600020541615600014610c315780600052600060205260406000206001600160a01b0383166000526020526040600020600160ff198254161790556001600160a01b03339216907f2f8788117e7eff1d82e926ec794901d17c78024a50270940304540a733656f0d600080a4600190565b5050600090565b80600052600060205260406000206001600160a01b03831660005260205260ff60406000205416600014610c315780600052600060205260406000206001600160a01b038316600052602052604060002060ff1981541690556001600160a01b03339216907ff6391f5c32d9c69d2a47ea670b442974b53935d1edc7fd64eb21e047a839171b600080a460019056fea264697066735822122064c91bdecf0039a14f64dae6eda5c3d3f19b3579036fb09921f4a8f1fb65dc0064736f6c634300081a00332f8788117e7eff1d82e926ec794901d17c78024a50270940304540a733656f0de84508f2c7fa9c351146748b3025cb78b45df37d868e48c6a75102fecdeee645740c5e3e456bed56f053f960110118ba9b95a1f5359a82283516fb2e81b6e37ead3228b676f7d3cd4284a5443f17f1962b36e491b30a40b2405849e597ba5fb5",
  "linkReferences": {},
  "deployedLinkReferences": {}
}