{
  "_format": "hh-sol-artifact-1",
  "contractName": "Streme",
  "sourceName": "contracts/Streme.sol",
  "abi": [
    {
      "inputs": [
        {
          "internalType": "address",
          "name": "owner_",
          "type": "address"
        }
      ],
      "stateMutability": "nonpayable",
      "type": "constructor"
    },
    {
      "inputs": [],
      "name": "AccessControlBadConfirmation",
      "type": "error"
    },
    {
      "inputs": [
        {
          "internalType": "address",
          "name": "account",
          "type": "address"
        },
        {
          "internalType": "bytes32",
          "name": "neededRole",
          "type": "bytes32"
        }
      ],
      "name": "AccessControlUnauthorizedAccount",
      "type": "error"
    },
    {
      "inputs": [],
      "name": "Deprecated",
      "type": "error"
    },
    {
      "inputs": [],
      "name": "NotRegistered",
      "type": "error"
    },
    {
      "anonymous": false,
      "inputs": [
        {
          "indexed": true,
          "internalType": "bytes32",
          "name": "role",
          "type": "bytes32"
        },
        {
          "indexed": true,
          "internalType": "bytes32",
          "name": "previousAdminRole",
          "type": "bytes32"
        },
        {
          "indexed": true,
          "internalType": "bytes32",
          "name": "newAdminRole",
          "type": "bytes32"
        }
      ],
      "name": "RoleAdminChanged",
      "type": "event"
    },
    {
      "anonymous": false,
      "inputs": [
        {
          "indexed": true,
          "internalType": "bytes32",
          "name": "role",
          "type": "bytes32"
        },
        {
          "indexed": true,
          "internalType": "address",
          "name": "account",
          "type": "address"
        },
        {
          "indexed": true,
          "internalType": "address",
          "name": "sender",
          "type": "address"
        }
      ],
      "name": "RoleGranted",
      "type": "event"
    },
    {
      "anonymous": false,
      "inputs": [
        {
          "indexed": true,
          "internalType": "bytes32",
          "name": "role",
          "type": "bytes32"
        },
        {
          "indexed": true,
          "internalType": "address",
          "name": "account",
          "type": "address"
        },
        {
          "indexed": true,
          "internalType": "address",
          "name": "sender",
          "type": "address"
        }
      ],
      "name": "RoleRevoked",
      "type": "event"
    },
    {
      "anonymous": false,
      "inputs": [
        {
          "indexed": false,
          "internalType": "address",
          "name": "tokenAddress",
          "type": "address"
        },
        {
          "indexed": false,
          "internalType": "uint256",
          "name": "positionId",
          "type": "uint256"
        },
        {
          "indexed": false,
          "internalType": "address",
          "name": "deployer",
          "type": "address"
        },
        {
          "indexed": false,
          "internalType": "uint256",
          "name": "fid",
          "type": "uint256"
        },
        {
          "indexed": false,
          "internalType": "string",
          "name": "name",
          "type": "string"
        },
        {
          "indexed": false,
          "internalType": "string",
          "name": "symbol",
          "type": "string"
        },
        {
          "indexed": false,
          "internalType": "uint256",
          "name": "supply",
          "type": "uint256"
        },
        {
          "indexed": false,
          "internalType": "string",
          "name": "castHash",
          "type": "string"
        }
      ],
      "name": "TokenCreated",
      "type": "event"
    },
    {
      "inputs": [],
      "name": "DEFAULT_ADMIN_ROLE",
      "outputs": [
        {
          "internalType": "bytes32",
          "name": "",
          "type": "bytes32"
        }
      ],
      "stateMutability": "view",
      "type": "function"
    },
    {
      "inputs": [],
      "name": "DEPLOYER_ROLE",
      "outputs": [
        {
          "internalType": "bytes32",
          "name": "",
          "type": "bytes32"
        }
      ],
      "stateMutability": "view",
      "type": "function"
    },
    {
      "inputs": [],
      "name": "MANAGER_ROLE",
      "outputs": [
        {
          "internalType": "bytes32",
          "name": "",
          "type": "bytes32"
        }
      ],
      "stateMutability": "view",
      "type": "function"
    },
    {
      "inputs": [
        {
          "internalType": "contract IStremeTokenFactory",
          "name": "tokenFactory",
          "type": "address"
        },
        {
          "internalType": "contract IStremePostDeployHook",
          "name": "postDeployHook",
          "type": "address"
        },
        {
          "internalType": "contract IStremeLiquidityFactory",
          "name": "liquidityFactory",
          "type": "address"
        },
        {
          "internalType": "contract IStremePostLPHook",
          "name": "postLPHook",
          "type": "address"
        },
        {
          "components": [
            {
              "internalType": "string",
              "name": "_name",
              "type": "string"
            },
            {
              "internalType": "string",
              "name": "_symbol",
              "type": "string"
            },
            {
              "internalType": "uint256",
              "name": "_supply",
              "type": "uint256"
            },
            {
              "internalType": "uint24",
              "name": "_fee",
              "type": "uint24"
            },
            {
              "internalType": "bytes32",
              "name": "_salt",
              "type": "bytes32"
            },
            {
              "internalType": "address",
              "name": "_deployer",
              "type": "address"
            },
            {
              "internalType": "uint256",
              "name": "_fid",
              "type": "uint256"
            },
            {
              "internalType": "string",
              "name": "_image",
              "type": "string"
            },
            {
              "internalType": "string",
              "name": "_castHash",
              "type": "string"
            },
            {
              "components": [
                {
                  "internalType": "int24",
                  "name": "tick",
                  "type": "int24"
                },
                {
                  "internalType": "address",
                  "name": "pairedToken",
                  "type": "address"
                },
                {
                  "internalType": "uint24",
                  "name": "devBuyFee",
                  "type": "uint24"
                }
              ],
              "internalType": "struct Streme.PoolConfig",
              "name": "_poolConfig",
              "type": "tuple"
            }
          ],
          "internalType": "struct Streme.PreSaleTokenConfig",
          "name": "preSaleTokenConfig",
          "type": "tuple"
        }
      ],
      "name": "deployToken",
      "outputs": [
        {
          "internalType": "address",
          "name": "token",
          "type": "address"
        },
        {
          "internalType": "uint256",
          "name": "liquidityId",
          "type": "uint256"
        }
      ],
      "stateMutability": "payable",
      "type": "function"
    },
    {
      "inputs": [],
      "name": "deprecated",
      "outputs": [
        {
          "internalType": "bool",
          "name": "",
          "type": "bool"
        }
      ],
      "stateMutability": "view",
      "type": "function"
    },
    {
      "inputs": [
        {
          "internalType": "string",
          "name": "_symbol",
          "type": "string"
        },
        {
          "internalType": "address",
          "name": "_requestor",
          "type": "address"
        },
        {
          "internalType": "address",
          "name": "_tokenFactory",
          "type": "address"
        },
        {
          "internalType": "address",
          "name": "_pairedToken",
          "type": "address"
        }
      ],
      "name": "generateSalt",
      "outputs": [
        {
          "internalType": "bytes32",
          "name": "salt",
          "type": "bytes32"
        },
        {
          "internalType": "address",
          "name": "token",
          "type": "address"
        }
      ],
      "stateMutability": "view",
      "type": "function"
    },
    {
      "inputs": [
        {
          "internalType": "bytes32",
          "name": "role",
          "type": "bytes32"
        }
      ],
      "name": "getRoleAdmin",
      "outputs": [
        {
          "internalType": "bytes32",
          "name": "",
          "type": "bytes32"
        }
      ],
      "stateMutability": "view",
      "type": "function"
    },
    {
      "inputs": [
        {
          "internalType": "bytes32",
          "name": "role",
          "type": "bytes32"
        },
        {
          "internalType": "address",
          "name": "account",
          "type": "address"
        }
      ],
      "name": "grantRole",
      "outputs": [],
      "stateMutability": "nonpayable",
      "type": "function"
    },
    {
      "inputs": [
        {
          "internalType": "bytes32",
          "name": "role",
          "type": "bytes32"
        },
        {
          "internalType": "address",
          "name": "account",
          "type": "address"
        }
      ],
      "name": "hasRole",
      "outputs": [
        {
          "internalType": "bool",
          "name": "",
          "type": "bool"
        }
      ],
      "stateMutability": "view",
      "type": "function"
    },
    {
      "inputs": [
        {
          "internalType": "address",
          "name": "",
          "type": "address"
        }
      ],
      "name": "liquidityFactories",
      "outputs": [
        {
          "internalType": "bool",
          "name": "",
          "type": "bool"
        }
      ],
      "stateMutability": "view",
      "type": "function"
    },
    {
      "inputs": [],
      "name": "owner",
      "outputs": [
        {
          "internalType": "address",
          "name": "",
          "type": "address"
        }
      ],
      "stateMutability": "view",
      "type": "function"
    },
    {
      "inputs": [
        {
          "internalType": "address",
          "name": "",
          "type": "address"
        }
      ],
      "name": "postDelpoyHooks",
      "outputs": [
        {
          "internalType": "bool",
          "name": "",
          "type": "bool"
        }
      ],
      "stateMutability": "view",
      "type": "function"
    },
    {
      "inputs": [
        {
          "internalType": "address",
          "name": "",
          "type": "address"
        }
      ],
      "name": "postLPHooks",
      "outputs": [
        {
          "internalType": "bool",
          "name": "",
          "type": "bool"
        }
      ],
      "stateMutability": "view",
      "type": "function"
    },
    {
      "inputs": [
        {
          "internalType": "string",
          "name": "_symbol",
          "type": "string"
        },
        {
          "internalType": "address",
          "name": "_requestor",
          "type": "address"
        },
        {
          "internalType": "bytes32",
          "name": "_salt",
          "type": "bytes32"
        },
        {
          "internalType": "address",
          "name": "_tokenFactory",
          "type": "address"
        }
      ],
      "name": "predictToken",
      "outputs": [
        {
          "internalType": "address",
          "name": "",
          "type": "address"
        }
      ],
      "stateMutability": "view",
      "type": "function"
    },
    {
      "inputs": [
        {
          "internalType": "address",
          "name": "factory",
          "type": "address"
        },
        {
          "internalType": "bool",
          "name": "enabled",
          "type": "bool"
        }
      ],
      "name": "registerLiquidityFactory",
      "outputs": [],
      "stateMutability": "nonpayable",
      "type": "function"
    },
    {
      "inputs": [
        {
          "internalType": "address",
          "name": "hook",
          "type": "address"
        },
        {
          "internalType": "bool",
          "name": "enabled",
          "type": "bool"
        }
      ],
      "name": "registerPostDeployHook",
      "outputs": [],
      "stateMutability": "nonpayable",
      "type": "function"
    },
    {
      "inputs": [
        {
          "internalType": "address",
          "name": "hook",
          "type": "address"
        },
        {
          "internalType": "bool",
          "name": "enabled",
          "type": "bool"
        }
      ],
      "name": "registerPostLPHook",
      "outputs": [],
      "stateMutability": "nonpayable",
      "type": "function"
    },
    {
      "inputs": [
        {
          "internalType": "address",
          "name": "factory",
          "type": "address"
        },
        {
          "internalType": "bool",
          "name": "enabled",
          "type": "bool"
        }
      ],
      "name": "registerTokenFactory",
      "outputs": [],
      "stateMutability": "nonpayable",
      "type": "function"
    },
    {
      "inputs": [
        {
          "internalType": "bytes32",
          "name": "role",
          "type": "bytes32"
        },
        {
          "internalType": "address",
          "name": "callerConfirmation",
          "type": "address"
        }
      ],
      "name": "renounceRole",
      "outputs": [],
      "stateMutability": "nonpayable",
      "type": "function"
    },
    {
      "inputs": [
        {
          "internalType": "bytes32",
          "name": "role",
          "type": "bytes32"
        },
        {
          "internalType": "address",
          "name": "account",
          "type": "address"
        }
      ],
      "name": "revokeRole",
      "outputs": [],
      "stateMutability": "nonpayable",
      "type": "function"
    },
    {
      "inputs": [
        {
          "internalType": "bool",
          "name": "_deprecated",
          "type": "bool"
        }
      ],
      "name": "setDeprecated",
      "outputs": [],
      "stateMutability": "nonpayable",
      "type": "function"
    },
    {
      "inputs": [
        {
          "internalType": "bytes4",
          "name": "interfaceId",
          "type": "bytes4"
        }
      ],
      "name": "supportsInterface",
      "outputs": [
        {
          "internalType": "bool",
          "name": "",
          "type": "bool"
        }
      ],
      "stateMutability": "view",
      "type": "function"
    },
    {
      "inputs": [
        {
          "internalType": "address",
          "name": "",
          "type": "address"
        }
      ],
      "name": "tokenFactories",
      "outputs": [
        {
          "internalType": "bool",
          "name": "",
          "type": "bool"
        }
      ],
      "stateMutability": "view",
      "type": "function"
    },
    {
      "inputs": [
        {
          "internalType": "address",
          "name": "_token",
          "type": "address"
        },
        {
          "internalType": "address",
          "name": "recipient",
          "type": "address"
        }
      ],
      "name": "withdrawERC20",
      "outputs": [],
      "stateMutability": "nonpayable",
      "type": "function"
    },
    {
      "inputs": [
        {
          "internalType": "address",
          "name": "recipient",
          "type": "address"
        }
      ],
      "name": "withdrawETH",
      "outputs": [],
      "stateMutability": "nonpayable",
      "type": "function"
    }
  ],
  "bytecode": "0x6080346100a157601f611ad938819003918201601f19168301916001600160401b038311848410176100a6578084926020946040528339810103126100a157516001600160a01b03811681036100a157610058816100bc565b5061006281610138565b5061006c816101d0565b5060018054610100600160a81b03191660089290921b610100600160a81b03169190911790556040516117f090816102698239f35b600080fd5b634e487b7160e01b600052604160045260246000fd5b6001600160a01b0381166000908152600080516020611ab9833981519152602052604090205460ff16610132576001600160a01b03166000818152600080516020611ab983398151915260205260408120805460ff19166001179055339190600080516020611a598339815191528180a4600190565b50600090565b6001600160a01b0381166000908152600080516020611a79833981519152602052604090205460ff16610132576001600160a01b03166000818152600080516020611a7983398151915260205260408120805460ff191660011790553391907f241ecf16d79d0f8dbfb92cbc07fe17840425976cf0667f022fe9877caa831b0890600080516020611a598339815191529080a4600190565b6001600160a01b0381166000908152600080516020611a99833981519152602052604090205460ff16610132576001600160a01b03166000818152600080516020611a9983398151915260205260408120805460ff191660011790553391907ffc425f2263d0df187444b70e47283d622c70181c5baebb1306a01edba1ce184c90600080516020611a598339815191529080a460019056fe6080604052600436101561001257600080fd5b6000803560e01c8063017ea1411461133557806301ffc9a7146112935780630e136b1914611270578063156a42df146112335780631adacc06146111f6578063248a9ca3146111c05780632f2ff15d1461117f578063325642151461112b57806336568abe146110cd5780634245d2b814611079578063690d83201461102b5780636dd91f2e14610fee5780637fefb6a814610ede5780638da5cb5b14610eb457806391d1485414610e6d5780639456fbcc14610d60578063a217fddf14610d44578063a673481f14610d07578063d05db32814610cb3578063d547741f14610c69578063d848dee714610c30578063e8c59f37146101ff578063ec87621c146101c4578063ecd00261146101895763fac23c901461013057600080fd5b346101865760406003193601126101865761018361014c611522565b6001600160a01b0361015c61154c565b916101656115d8565b1683526004602052604083209060ff60ff1983541691151516179055565b80f35b80fd5b503461018657806003193601126101865760206040517ffc425f2263d0df187444b70e47283d622c70181c5baebb1306a01edba1ce184c8152f35b503461018657806003193601126101865760206040517f241ecf16d79d0f8dbfb92cbc07fe17840425976cf0667f022fe9877caa831b088152f35b5060a060031936011261018657600435906001600160a01b03821680920361018657602435916001600160a01b0383168093036108b657604435906001600160a01b038216820361088657606435926001600160a01b0384168403610186576084359167ffffffffffffffff83116108b657823603956101806003198801126108865760405193610140850185811067ffffffffffffffff821117610c1c57604052806004013567ffffffffffffffff8111610aee576102c5906004369184010161149a565b8552602481013567ffffffffffffffff8111610aee576102eb906004369184010161149a565b6020860152604481013560408601526103066064820161155b565b606086015260808501976084820135895261032360a48301611538565b60a087015260c482013560c087015260e482013567ffffffffffffffff811161090057610356906004369185010161149a565b60e087015261010482013567ffffffffffffffff8111610900576060916103a47ffffffffffffffffffffffffffffffffffffffffffffffffffffffffffffffedc926004369187010161149a565b6101008901520112610b2e57604051906060820182811067ffffffffffffffff821117610c08576040526101248101358060020b810361090057610400916101649184526103f56101448201611538565b60208501520161155b565b60408201526101208501527ffc425f2263d0df187444b70e47283d622c70181c5baebb1306a01edba1ce184c835282602052604083206001600160a01b033316845260205260ff60408420541615610bd15760ff60015416610ba957818352600260205260ff60408420541615610b9a578015158080610b83575b610b74576001600160a01b0386168452600460205260ff60408520541615610b74576001600160a01b0387161515928380610b54575b610b455761053096979860209161051e8789518a86810151956001600160a01b0360a06040840151930151169051906040519e8f98899788967fab368a2a00000000000000000000000000000000000000000000000000000000885260c0600489015260c488019061157f565b9060031987830301602488015261157f565b926044850152306064850152608484015260a483015203925af1958615610b3a578496610afa575b50610982575b506040516370a0823160e01b81523060048201526020816024816001600160a01b0389165afa90811561094457839161094f575b506040517f095ea7b30000000000000000000000000000000000000000000000000000000081526001600160a01b0387166004820152602481019190915260208180604481010381866001600160a01b038a165af1801561094457610917575b50610120830151946001600160a01b036020870151169062ffffff6040885160020b980151166040516370a0823160e01b81523060048201526020816024816001600160a01b038c165afa90811561090c5790869493929185916108cd575b5060a08801516001600160a01b0316916040519a8b957f2e172e5f0000000000000000000000000000000000000000000000000000000087526001600160a01b038c166004880152602487015260448601526064850152608484015260a48301528260c48301526001600160a01b0316815a9360e492602095f19485156108c257829561088a575b506107a7575b50806001600160a01b0360a07f8df367d10c042c43a79f6842addf298c4b250b4cb2145cae311c9ba110ff8e179301511661078860c083015192805161077560208301516107676101006040860151950151936040519889986001600160a01b038d168a528d60208b015260408a01526060890152610100608089015261010088019061157f565b9086820360a088015261157f565b9160c085015283820360e085015261157f565b0390a1604080516001600160a01b039290921682526020820192909252f35b6001600160a01b0360206101208401510151166001600160a01b0360a084015116906001600160a01b0387163b1561088657906064839260405198899384927f3e288e460000000000000000000000000000000000000000000000000000000084526001600160a01b038a166004850152602484015260448301526001600160a01b033491165af1948515610879577f8df367d10c042c43a79f6842addf298c4b250b4cb2145cae311c9ba110ff8e17939495610869575b50849392506106df565b8161087391611461565b3861085f565b50604051903d90823e3d90fd5b8280fd5b9094506020813d6020116108ba575b816108a660209383611461565b810103126108b6575193386106d9565b5080fd5b3d9150610899565b6040513d84823e3d90fd5b9192939450506020813d602011610904575b816108ec60209383611461565b810103126109005790859392915138610651565b8580fd5b3d91506108df565b6040513d88823e3d90fd5b6109389060203d60201161093d575b6109308183611461565b8101906115c0565b6105f2565b503d610926565b6040513d85823e3d90fd5b90506020813d60201161097a575b8161096a60209383611461565b8101031261088657516020610592565b3d915061095d565b6001600160a01b0385166040516370a0823160e01b8152306004820152602081602481855afa908115610ab8578591610ac3575b506040517f095ea7b30000000000000000000000000000000000000000000000000000000081526001600160a01b0384166004820152602481019190915260208160448188865af18015610ab8579060209291610a9d575b5060446001600160a01b0360015460081c16918660405195869485937fe5b4abd1000000000000000000000000000000000000000000000000000000008552600485015260248401525af18015610944571561055e576020813d602011610a95575b81610a7d60209383611461565b8101031261088657610a8e9061156b565b503861055e565b3d9150610a70565b610ab390833d851161093d576109308183611461565b610a0e565b6040513d87823e3d90fd5b90506020813d602011610af2575b81610ade60209383611461565b81010312610aee575160206109b6565b8480fd5b3d9150610ad1565b9095506020813d602011610b32575b81610b1660209383611461565b81010312610b2e57610b279061156b565b9438610558565b8380fd5b3d9150610b09565b6040513d86823e3d90fd5b60048563aba4733960e01b8152fd5b506001600160a01b0388168552600560205260ff604086205416156104b1565b60048463aba4733960e01b8152fd5b50818452600360205260ff6040852054161561047b565b60048363aba4733960e01b8152fd5b6004837fc73b9d7c000000000000000000000000000000000000000000000000000000008152fd5b60448363e2517d3f60e01b8152336004527ffc425f2263d0df187444b70e47283d622c70181c5baebb1306a01edba1ce184c602452fd5b602486634e487b7160e01b81526041600452fd5b602485634e487b7160e01b81526041600452fd5b5034610186576020600319360112610186576004358015158091036108b657610c576115d8565b60ff60ff196001541691161760015580f35b503461018657604060031936011261018657610caf600435610c896114f6565b90610caa610ca582600052600060205260016040600020015490565b61164a565b61172b565b5080f35b503461018657604060031936011261018657610183610cd0611522565b6001600160a01b03610ce061154c565b91610ce96115d8565b1683526003602052604083209060ff60ff1983541691151516179055565b50346101865760206003193601126101865760ff60406020926001600160a01b03610d30611522565b168152600584522054166040519015158152f35b5034610186578060031936011261018657602090604051908152f35b503461018657604060031936011261018657610d7a611522565b6001600160a01b03610d8a6114f6565b91610d936115d8565b1690604051906370a0823160e01b8252306004830152602082602481865afa918215610b3a578492610e37575b506040517fa9059cbb0000000000000000000000000000000000000000000000000000000081526001600160a01b0390911660048201526024810191909152906020908290818581604481015b03925af180156108c257610e1f575080f35b610caf9060203d60201161093d576109308183611461565b91506020823d602011610e65575b81610e5260209383611461565b81010312610b2e57905190610e0d610dc0565b3d9150610e45565b50346101865760406003193601126101865760ff6040602092610e8e6114f6565b60043582528185526001600160a01b038383209116825284522054166040519015158152f35b503461018657806003193601126101865760206001600160a01b0360015460081c16604051908152f35b50346101865760806003193601126101865760043567ffffffffffffffff81116108b657610f1090369060040161149a565b9060206001600160a01b03610f236114f6565b93610f7082610f3061150c565b1691604051968794859384937f11a3542300000000000000000000000000000000000000000000000000000000855260606004860152606485019061157f565b91166024830152604435604483015203915afa908115610fe2578091610fa5575b6020826001600160a01b0360405191168152f35b90506020823d602011610fda575b81610fc060209383611461565b810103126101865750610fd460209161156b565b38610f91565b3d9150610fb3565b604051903d90823e3d90fd5b50346101865760206003193601126101865760ff60406020926001600160a01b03611017611522565b168152600284522054166040519015158152f35b50346101865760206003193601126101865780808080611049611522565b6110516115d8565b47908290821561106f575b6001600160a01b031690f115610fe25780f35b6108fc915061105c565b503461018657604060031936011261018657610183611096611522565b6001600160a01b036110a661154c565b916110af6115d8565b1683526002602052604083209060ff60ff1983541691151516179055565b5034610186576040600319360112610186576110e76114f6565b336001600160a01b0382160361110357610caf9060043561172b565b6004827f6697b232000000000000000000000000000000000000000000000000000000008152fd5b503461018657604060031936011261018657610183611148611522565b6001600160a01b0361115861154c565b916111616115d8565b1683526005602052604083209060ff60ff1983541691151516179055565b503461018657604060031936011261018657610caf60043561119f6114f6565b906111bb610ca582600052600060205260016040600020015490565b611691565b50346101865760206003193601126101865760206111ee600435600052600060205260016040600020015490565b604051908152f35b50346101865760206003193601126101865760ff60406020926001600160a01b0361121f611522565b168152600384522054166040519015158152f35b50346101865760206003193601126101865760ff60406020926001600160a01b0361125c611522565b168152600484522054166040519015158152f35b5034610186578060031936011261018657602060ff600154166040519015158152f35b5034610186576020600319360112610186576004357fffffffff0000000000000000000000000000000000000000000000000000000081168091036108b657807f7965db0b000000000000000000000000000000000000000000000000000000006020921490811561130b575b506040519015158152f35b7f01ffc9a70000000000000000000000000000000000000000000000000000000091501482611300565b50346101865760806003193601126101865760043567ffffffffffffffff81116108b65761136790369060040161149a565b61136f6114f6565b90604435906001600160a01b038216809203610b2e576040916113db6001600160a01b039261139c61150c565b95848651978896879586957ff030aa3700000000000000000000000000000000000000000000000000000000875260606004880152606487019061157f565b9316602485015216604483015203915afa918215610fe25780918193611414575b604080518481526001600160a01b0386166020820152f35b915091506040813d604011611459575b8161143160409383611461565b810103126108b657604091506001600160a01b0361145360208351930161156b565b926113fc565b3d9150611424565b90601f601f19910116810190811067ffffffffffffffff82111761148457604052565b634e487b7160e01b600052604160045260246000fd5b81601f820112156114f15780359067ffffffffffffffff821161148457604051926114cf6020601f19601f8601160185611461565b828452602083830101116114f157816000926020809301838601378301015290565b600080fd5b602435906001600160a01b03821682036114f157565b606435906001600160a01b03821682036114f157565b600435906001600160a01b03821682036114f157565b35906001600160a01b03821682036114f157565b6024359081151582036114f157565b359062ffffff821682036114f157565b51906001600160a01b03821682036114f157565b919082519283825260005b8481106115ab575050601f19601f8460006020809697860101520116010190565b8060208092840101518282860101520161158a565b908160209103126114f1575180151581036114f15790565b3360009081527fe84508f2c7fa9c351146748b3025cb78b45df37d868e48c6a75102fecdeee645602052604090205460ff161561161157565b63e2517d3f60e01b600052336004527f241ecf16d79d0f8dbfb92cbc07fe17840425976cf0667f022fe9877caa831b0860245260446000fd5b80600052600060205260406000206001600160a01b03331660005260205260ff60406000205416156116795750565b63e2517d3f60e01b6000523360045260245260446000fd5b80600052600060205260406000206001600160a01b03831660005260205260ff60406000205416156000146117245780600052600060205260406000206001600160a01b0383166000526020526040600020600160ff198254161790556001600160a01b03339216907f2f8788117e7eff1d82e926ec794901d17c78024a50270940304540a733656f0d600080a4600190565b5050600090565b80600052600060205260406000206001600160a01b03831660005260205260ff604060002054166000146117245780600052600060205260406000206001600160a01b038316600052602052604060002060ff1981541690556001600160a01b03339216907ff6391f5c32d9c69d2a47ea670b442974b53935d1edc7fd64eb21e047a839171b600080a460019056fea26469706673582212208da6f906ebebf0267f5cf689f5446c1580b4e0decdddea01651683923d3da78264736f6c634300081a00332f8788117e7eff1d82e926ec794901d17c78024a50270940304540a733656f0de84508f2c7fa9c351146748b3025cb78b45df37d868e48c6a75102fecdeee645740c5e3e456bed56f053f960110118ba9b95a1f5359a82283516fb2e81b6e37ead3228b676f7d3cd4284a5443f17f1962b36e491b30a40b2405849e597ba5fb5",
  "linkReferences": {},
  "deployedLinkReferences": {}
}