{
  "_format": "hh-sol-artifact-1",
  "contractName": "StremeStakingRewardsFunder",
  "sourceName": "contracts/StremeStakingRewardsFunder.sol",
  "abi": [
    {
      "inputs": [
        {
          "internalType": "contract IERC20",
          "name": "_stremeCoin",
          "type": "address"
        },
        {
          "internalType": "contract IERC20",
          "name": "_stakedStremeCoin",
          "type": "address"
        },
        {
          "internalType": "address",
          "name": "_stakingPoolAddress",
          "type": "address"
        },
        {
          "internalType": "contract IGDAv1Forwarder",
          "name": "_gdaForwarder",
          "type": "address"
        }
      ],
      "stateMutability": "nonpayable",
      "type": "constructor"
    },
    {
      "inputs": [],
      "name": "AccessControlBadConfirmation",
      "type": "error"
    },
    {
      "inputs": [
        {
          "internalType": "address",
          "name": "account",
          "type": "address"
        },
        {
          "internalType": "bytes32",
          "name": "neededRole",
          "type": "bytes32"
        }
      ],
      "name": "AccessControlUnauthorizedAccount",
      "type": "error"
    },
    {
      "inputs": [],
      "name": "EnforcedPause",
      "type": "error"
    },
    {
      "inputs": [],
      "name": "ExpectedPause",
      "type": "error"
    },
    {
      "anonymous": false,
      "inputs": [
        {
          "indexed": true,
          "internalType": "address",
          "name": "user",
          "type": "address"
        },
        {
          "indexed": false,
          "internalType": "uint256",
          "name": "amount",
          "type": "uint256"
        }
      ],
      "name": "Deposit",
      "type": "event"
    },
    {
      "anonymous": false,
      "inputs": [
        {
          "indexed": false,
          "internalType": "address",
          "name": "account",
          "type": "address"
        }
      ],
      "name": "Paused",
      "type": "event"
    },
    {
      "anonymous": false,
      "inputs": [
        {
          "indexed": true,
          "internalType": "bytes32",
          "name": "role",
          "type": "bytes32"
        },
        {
          "indexed": true,
          "internalType": "bytes32",
          "name": "previousAdminRole",
          "type": "bytes32"
        },
        {
          "indexed": true,
          "internalType": "bytes32",
          "name": "newAdminRole",
          "type": "bytes32"
        }
      ],
      "name": "RoleAdminChanged",
      "type": "event"
    },
    {
      "anonymous": false,
      "inputs": [
        {
          "indexed": true,
          "internalType": "bytes32",
          "name": "role",
          "type": "bytes32"
        },
        {
          "indexed": true,
          "internalType": "address",
          "name": "account",
          "type": "address"
        },
        {
          "indexed": true,
          "internalType": "address",
          "name": "sender",
          "type": "address"
        }
      ],
      "name": "RoleGranted",
      "type": "event"
    },
    {
      "anonymous": false,
      "inputs": [
        {
          "indexed": true,
          "internalType": "bytes32",
          "name": "role",
          "type": "bytes32"
        },
        {
          "indexed": true,
          "internalType": "address",
          "name": "account",
          "type": "address"
        },
        {
          "indexed": true,
          "internalType": "address",
          "name": "sender",
          "type": "address"
        }
      ],
      "name": "RoleRevoked",
      "type": "event"
    },
    {
      "anonymous": false,
      "inputs": [
        {
          "indexed": false,
          "internalType": "address",
          "name": "account",
          "type": "address"
        }
      ],
      "name": "Unpaused",
      "type": "event"
    },
    {
      "anonymous": false,
      "inputs": [
        {
          "indexed": true,
          "internalType": "address",
          "name": "user",
          "type": "address"
        },
        {
          "indexed": false,
          "internalType": "uint256",
          "name": "amount",
          "type": "uint256"
        }
      ],
      "name": "Withdraw",
      "type": "event"
    },
    {
      "anonymous": false,
      "inputs": [
        {
          "indexed": true,
          "internalType": "address",
          "name": "recipient",
          "type": "address"
        },
        {
          "indexed": false,
          "internalType": "uint256",
          "name": "amount",
          "type": "uint256"
        }
      ],
      "name": "WithdrawStremeCoin",
      "type": "event"
    },
    {
      "inputs": [],
      "name": "DEFAULT_ADMIN_ROLE",
      "outputs": [
        {
          "internalType": "bytes32",
          "name": "",
          "type": "bytes32"
        }
      ],
      "stateMutability": "view",
      "type": "function"
    },
    {
      "inputs": [],
      "name": "MANAGER_ROLE",
      "outputs": [
        {
          "internalType": "bytes32",
          "name": "",
          "type": "bytes32"
        }
      ],
      "stateMutability": "view",
      "type": "function"
    },
    {
      "inputs": [
        {
          "internalType": "address",
          "name": "user",
          "type": "address"
        }
      ],
      "name": "balanceOf",
      "outputs": [
        {
          "internalType": "uint256",
          "name": "",
          "type": "uint256"
        }
      ],
      "stateMutability": "view",
      "type": "function"
    },
    {
      "inputs": [
        {
          "internalType": "uint256",
          "name": "amount",
          "type": "uint256"
        }
      ],
      "name": "deposit",
      "outputs": [],
      "stateMutability": "nonpayable",
      "type": "function"
    },
    {
      "inputs": [
        {
          "internalType": "address",
          "name": "user",
          "type": "address"
        },
        {
          "internalType": "uint256",
          "name": "amount",
          "type": "uint256"
        }
      ],
      "name": "depositForUser",
      "outputs": [],
      "stateMutability": "nonpayable",
      "type": "function"
    },
    {
      "inputs": [
        {
          "internalType": "address",
          "name": "",
          "type": "address"
        }
      ],
      "name": "deposits",
      "outputs": [
        {
          "internalType": "uint256",
          "name": "",
          "type": "uint256"
        }
      ],
      "stateMutability": "view",
      "type": "function"
    },
    {
      "inputs": [],
      "name": "gdaForwarder",
      "outputs": [
        {
          "internalType": "contract IGDAv1Forwarder",
          "name": "",
          "type": "address"
        }
      ],
      "stateMutability": "view",
      "type": "function"
    },
    {
      "inputs": [
        {
          "internalType": "bytes32",
          "name": "role",
          "type": "bytes32"
        }
      ],
      "name": "getRoleAdmin",
      "outputs": [
        {
          "internalType": "bytes32",
          "name": "",
          "type": "bytes32"
        }
      ],
      "stateMutability": "view",
      "type": "function"
    },
    {
      "inputs": [
        {
          "internalType": "bytes32",
          "name": "role",
          "type": "bytes32"
        },
        {
          "internalType": "address",
          "name": "account",
          "type": "address"
        }
      ],
      "name": "grantRole",
      "outputs": [],
      "stateMutability": "nonpayable",
      "type": "function"
    },
    {
      "inputs": [
        {
          "internalType": "bytes32",
          "name": "role",
          "type": "bytes32"
        },
        {
          "internalType": "address",
          "name": "account",
          "type": "address"
        }
      ],
      "name": "hasRole",
      "outputs": [
        {
          "internalType": "bool",
          "name": "",
          "type": "bool"
        }
      ],
      "stateMutability": "view",
      "type": "function"
    },
    {
      "inputs": [],
      "name": "pause",
      "outputs": [],
      "stateMutability": "nonpayable",
      "type": "function"
    },
    {
      "inputs": [],
      "name": "paused",
      "outputs": [
        {
          "internalType": "bool",
          "name": "",
          "type": "bool"
        }
      ],
      "stateMutability": "view",
      "type": "function"
    },
    {
      "inputs": [
        {
          "internalType": "bytes32",
          "name": "role",
          "type": "bytes32"
        },
        {
          "internalType": "address",
          "name": "callerConfirmation",
          "type": "address"
        }
      ],
      "name": "renounceRole",
      "outputs": [],
      "stateMutability": "nonpayable",
      "type": "function"
    },
    {
      "inputs": [
        {
          "internalType": "bytes32",
          "name": "role",
          "type": "bytes32"
        },
        {
          "internalType": "address",
          "name": "account",
          "type": "address"
        }
      ],
      "name": "revokeRole",
      "outputs": [],
      "stateMutability": "nonpayable",
      "type": "function"
    },
    {
      "inputs": [],
      "name": "stakedStremeCoin",
      "outputs": [
        {
          "internalType": "contract IERC20",
          "name": "",
          "type": "address"
        }
      ],
      "stateMutability": "view",
      "type": "function"
    },
    {
      "inputs": [],
      "name": "stakingPoolAddress",
      "outputs": [
        {
          "internalType": "address",
          "name": "",
          "type": "address"
        }
      ],
      "stateMutability": "view",
      "type": "function"
    },
    {
      "inputs": [],
      "name": "stremeCoin",
      "outputs": [
        {
          "internalType": "contract IERC20",
          "name": "",
          "type": "address"
        }
      ],
      "stateMutability": "view",
      "type": "function"
    },
    {
      "inputs": [],
      "name": "stremeCoinBalance",
      "outputs": [
        {
          "internalType": "uint256",
          "name": "",
          "type": "uint256"
        }
      ],
      "stateMutability": "view",
      "type": "function"
    },
    {
      "inputs": [
        {
          "internalType": "bytes4",
          "name": "interfaceId",
          "type": "bytes4"
        }
      ],
      "name": "supportsInterface",
      "outputs": [
        {
          "internalType": "bool",
          "name": "",
          "type": "bool"
        }
      ],
      "stateMutability": "view",
      "type": "function"
    },
    {
      "inputs": [],
      "name": "totalBalance",
      "outputs": [
        {
          "internalType": "uint256",
          "name": "",
          "type": "uint256"
        }
      ],
      "stateMutability": "view",
      "type": "function"
    },
    {
      "inputs": [],
      "name": "unpause",
      "outputs": [],
      "stateMutability": "nonpayable",
      "type": "function"
    },
    {
      "inputs": [
        {
          "internalType": "uint256",
          "name": "amount",
          "type": "uint256"
        }
      ],
      "name": "withdraw",
      "outputs": [],
      "stateMutability": "nonpayable",
      "type": "function"
    },
    {
      "inputs": [],
      "name": "withdrawAll",
      "outputs": [],
      "stateMutability": "nonpayable",
      "type": "function"
    },
    {
      "inputs": [
        {
          "internalType": "address",
          "name": "user",
          "type": "address"
        }
      ],
      "name": "withdrawAllForUser",
      "outputs": [],
      "stateMutability": "nonpayable",
      "type": "function"
    },
    {
      "inputs": [
        {
          "internalType": "address",
          "name": "recipient",
          "type": "address"
        }
      ],
      "name": "withdrawStremeCoin",
      "outputs": [],
      "stateMutability": "nonpayable",
      "type": "function"
    }
  ],
  "bytecode": "0x60808060405234610173576080816112f8803803809161001f828561018c565b83398101031261017357610032816101c5565b61003e602083016101c5565b604083015190926001600160a01b038216820361017357606001516001600160a01b03811693908490036101735760018054600280546001600160a01b03199081166001600160a01b039788161790915560038054821694909616939093179094556001600160a81b031990931660089290921b610100600160a81b031691909117909155600480549091169190911790556100d9336101d9565b506100e333610255565b506000602060018060a01b0360045416606460018060a01b0360015460081c16604051948593849263f0b7b91560e01b84526004840152604060248401528160448401525af1801561018057610143575b604051610faa90816102ee8239f35b6020813d602011610178575b8161015c6020938361018c565b810103126101735751801515036101735738610134565b600080fd5b3d915061014f565b6040513d6000823e3d90fd5b601f909101601f19168101906001600160401b038211908210176101af57604052565b634e487b7160e01b600052604160045260246000fd5b51906001600160a01b038216820361017357565b6001600160a01b03811660009081526000805160206112d8833981519152602052604090205460ff1661024f576001600160a01b031660008181526000805160206112d883398151915260205260408120805460ff191660011790553391906000805160206112988339815191528180a4600190565b50600090565b6001600160a01b03811660009081526000805160206112b8833981519152602052604090205460ff1661024f576001600160a01b031660008181526000805160206112b883398151915260205260408120805460ff191660011790553391907f241ecf16d79d0f8dbfb92cbc07fe17840425976cf0667f022fe9877caa831b08906000805160206112988339815191529080a460019056fe608080604052600436101561001357600080fd5b60003560e01c90816301ffc9a7146109c85750806321970c8314610976578063248a9ca31461094157806325b15a0c146109175780632e1a7d4d146108fa5780632f2ff15d146108ba57806336568abe1461085b578063366e7c16146106e45780633f4ba83a1461066257806354a238281461063b5780635af8bf25146106145780635c975abb146105f1578063634fe343146105ca57806370a082311461017b5780638456cb5914610571578063853828b61461054857806391d14854146104fa578063a217fddf146104de578063ad7a672f14610458578063b6b55f251461035d578063cbd076f814610235578063d547741f146101f0578063ec87621c146101b5578063fc7e286d1461017b5763fd84c33b1461013257600080fd5b346101765760206003193601126101765761017461014e610a7c565b610156610d2a565b6001600160a01b038116600052600560205260406000205490610bec565b005b600080fd5b34610176576020600319360112610176576001600160a01b0361019c610a7c565b1660005260056020526020604060002054604051908152f35b346101765760006003193601126101765760206040517f241ecf16d79d0f8dbfb92cbc07fe17840425976cf0667f022fe9877caa831b088152f35b346101765760406003193601126101765761017460043561020f610a66565b9061023061022b82600052600060205260016040600020015490565b610db5565b610eaf565b346101765760406003193601126101765761024e610a7c565b6024359061025a610f3e565b610265821515610b65565b6003546040517f23b872dd0000000000000000000000000000000000000000000000000000000081523360048201523060248201526044810184905290602090829060649082906000906001600160a01b03165af18015610351577fe1fffcc4923d04b559f4d29a8bfc6cda04eb5b0d3c460751c2402c5c5cc9109c926102ff6001600160a01b0392602094600091610324575b50610b1a565b169283600052600582526040600020610319828254610bb0565b9055604051908152a2005b6103449150853d871161034a575b61033c8183610a92565b810190610b02565b876102f9565b503d610332565b6040513d6000823e3d90fd5b3461017657602060031936011261017657600435610379610f3e565b610384811515610b65565b6003546040517f23b872dd0000000000000000000000000000000000000000000000000000000081523360048201523060248201526044810183905290602090829060649082906000906001600160a01b03165af18015610351576103f0916000916104395750610b1a565b3360005260056020526040600020610409828254610bb0565b90556040519081527fe1fffcc4923d04b559f4d29a8bfc6cda04eb5b0d3c460751c2402c5c5cc9109c60203392a2005b610452915060203d60201161034a5761033c8183610a92565b836102f9565b3461017657600060031936011261017657602460206001600160a01b0360035416604051928380926370a0823160e01b82523060048301525afa8015610351576000906104ab575b602090604051908152f35b506020813d6020116104d6575b816104c560209383610a92565b8101031261017657602090516104a0565b3d91506104b8565b3461017657600060031936011261017657602060405160008152f35b3461017657604060031936011261017657610513610a66565b60043560005260006020526001600160a01b0360406000209116600052602052602060ff604060002054166040519015158152f35b346101765760006003193601126101765733600052600560205261017460406000205433610bec565b346101765760006003193601126101765761058a610d2a565b610592610f3e565b600160ff19815416176001557f62e78cea01bee320cd4e420270b5ea74000d11b0c9f74754ebdbfc544b05a2586020604051338152a1005b346101765760006003193601126101765760206001600160a01b0360025416604051908152f35b3461017657600060031936011261017657602060ff600154166040519015158152f35b346101765760006003193601126101765760206001600160a01b0360045416604051908152f35b346101765760006003193601126101765760206001600160a01b0360035416604051908152f35b346101765760006003193601126101765761067b610d2a565b60015460ff8116156106ba5760ff19166001557f5db9ee0a495bf2e6ff9c91a7834c1ba4fdd244a5e8aa4e537bd38aeae4b073aa6020604051338152a1005b7f8dfc202b0000000000000000000000000000000000000000000000000000000060005260046000fd5b34610176576020600319360112610176576106fd610a7c565b610705610d2a565b6001600160a01b036002541690604051916370a0823160e01b8352306004840152602083602481845afa92831561035157600093610824575b5082156107e0576040517fa9059cbb0000000000000000000000000000000000000000000000000000000081526001600160a01b03831660048201526024810184905290602090829060449082906000905af18015610351577fc75a89b3c8d403eaa2c8c0db9a040118f611676768aaee309b5e94347d8053fe926107d56001600160a01b03926020946000916103245750610b1a565b6040519485521692a2005b606460405162461bcd60e51b815260206004820152601960248201527f4e6f20737472656d65436f696e20746f207769746864726177000000000000006044820152fd5b90926020823d602011610853575b8161083f60209383610a92565b81010312610850575051918361073e565b80fd5b3d9150610832565b3461017657604060031936011261017657610874610a66565b336001600160a01b038216036108905761017490600435610eaf565b7f6697b2320000000000000000000000000000000000000000000000000000000060005260046000fd5b34610176576040600319360112610176576101746004356108d9610a66565b906108f561022b82600052600060205260016040600020015490565b610e15565b346101765760206003193601126101765761017460043533610bec565b346101765760006003193601126101765760206001600160a01b0360015460081c16604051908152f35b3461017657602060031936011261017657602061096e600435600052600060205260016040600020015490565b604051908152f35b3461017657600060031936011261017657602460206001600160a01b0360025416604051928380926370a0823160e01b82523060048301525afa8015610351576000906104ab57602090604051908152f35b3461017657602060031936011261017657600435907fffffffff00000000000000000000000000000000000000000000000000000000821680920361017657817f7965db0b0000000000000000000000000000000000000000000000000000000060209314908115610a3c575b5015158152f35b7f01ffc9a70000000000000000000000000000000000000000000000000000000091501483610a35565b602435906001600160a01b038216820361017657565b600435906001600160a01b038216820361017657565b90601f7fffffffffffffffffffffffffffffffffffffffffffffffffffffffffffffffe0910116810190811067ffffffffffffffff821117610ad357604052565b7f4e487b7100000000000000000000000000000000000000000000000000000000600052604160045260246000fd5b90816020910312610176575180151581036101765790565b15610b2157565b606460405162461bcd60e51b815260206004820152600f60248201527f5472616e73666572206661696c656400000000000000000000000000000000006044820152fd5b15610b6c57565b606460405162461bcd60e51b815260206004820152602060248201527f416d6f756e74206d7573742062652067726561746572207468616e207a65726f6044820152fd5b91908201809211610bbd57565b7f4e487b7100000000000000000000000000000000000000000000000000000000600052601160045260246000fd5b610bf7821515610b65565b6001600160a01b038116918260005260056020528060406000205410610ce6578260005260056020526040600020805490828203918211610bbd57556003546040517fa9059cbb0000000000000000000000000000000000000000000000000000000081526001600160a01b039384166004820152602481018390529260209184916044918391600091165af190811561035157610cc06020927f884edad9ce6fa2440d8a54cc123490eb96d2768479d49ff9c7366125a942436494600091610cc95750610b1a565b604051908152a2565b610ce09150843d861161034a5761033c8183610a92565b386102f9565b606460405162461bcd60e51b815260206004820152601460248201527f496e73756666696369656e742062616c616e63650000000000000000000000006044820152fd5b3360009081527fe84508f2c7fa9c351146748b3025cb78b45df37d868e48c6a75102fecdeee645602052604090205460ff1615610d6357565b7fe2517d3f00000000000000000000000000000000000000000000000000000000600052336004527f241ecf16d79d0f8dbfb92cbc07fe17840425976cf0667f022fe9877caa831b0860245260446000fd5b80600052600060205260406000206001600160a01b03331660005260205260ff6040600020541615610de45750565b7fe2517d3f000000000000000000000000000000000000000000000000000000006000523360045260245260446000fd5b80600052600060205260406000206001600160a01b03831660005260205260ff6040600020541615600014610ea85780600052600060205260406000206001600160a01b0383166000526020526040600020600160ff198254161790556001600160a01b03339216907f2f8788117e7eff1d82e926ec794901d17c78024a50270940304540a733656f0d600080a4600190565b5050600090565b80600052600060205260406000206001600160a01b03831660005260205260ff60406000205416600014610ea85780600052600060205260406000206001600160a01b038316600052602052604060002060ff1981541690556001600160a01b03339216907ff6391f5c32d9c69d2a47ea670b442974b53935d1edc7fd64eb21e047a839171b600080a4600190565b60ff60015416610f4a57565b7fd93c06650000000000000000000000000000000000000000000000000000000060005260046000fdfea2646970667358221220b441e9fb738490d560d587ab1af45a2615e9d04864f3fcd49921cc296a2ab90d64736f6c634300081a00332f8788117e7eff1d82e926ec794901d17c78024a50270940304540a733656f0de84508f2c7fa9c351146748b3025cb78b45df37d868e48c6a75102fecdeee645ad3228b676f7d3cd4284a5443f17f1962b36e491b30a40b2405849e597ba5fb5",
  "linkReferences": {},
  "deployedLinkReferences": {}
}