{
  "_format": "hh-sol-artifact-1",
  "contractName": "StremeSuperToken",
  "sourceName": "contracts/token/superfluid/SuperTokenFactoryV2.sol",
  "abi": [
    {
      "stateMutability": "payable",
      "type": "fallback"
    },
    {
      "inputs": [
        {
          "internalType": "contract ISuperTokenFactory",
          "name": "factory",
          "type": "address"
        },
        {
          "internalType": "string",
          "name": "name",
          "type": "string"
        },
        {
          "internalType": "string",
          "name": "symbol",
          "type": "string"
        },
        {
          "internalType": "address",
          "name": "receiver",
          "type": "address"
        },
        {
          "internalType": "uint256",
          "name": "initialSupply",
          "type": "uint256"
        }
      ],
      "name": "initialize",
      "outputs": [],
      "stateMutability": "nonpayable",
      "type": "function"
    },
    {
      "inputs": [
        {
          "internalType": "address",
          "name": "initialAddress",
          "type": "address"
        }
      ],
      "name": "initializeProxy",
      "outputs": [],
      "stateMutability": "nonpayable",
      "type": "function"
    }
  ],
  "bytecode": "0x6080806040523460155761052d908161001b8239f35b600080fdfe6080604052600436106104b55760003560e01c80634a0687ef1461002c576375b30be6036104b557610248565b34610177576020600319360112610177576004356100498161017c565b73ffffffffffffffffffffffffffffffffffffffff81161561011f5773ffffffffffffffffffffffffffffffffffffffff7f360894a13ba1a3210667c828492db98dca3e2076cc3735a920a3ca505d382bbc54166100c7577f360894a13ba1a3210667c828492db98dca3e2076cc3735a920a3ca505d382bbc55005b005b7f08c379a0000000000000000000000000000000000000000000000000000000006080526020608452601e60a4527f5555505350726f78793a20616c726561647920696e697469616c697a6564000060c45260646080fd5b7f08c379a0000000000000000000000000000000000000000000000000000000006080526020608452601760a4527f5555505350726f78793a207a65726f206164647265737300000000000000000060c45260646080fd5b600080fd5b73ffffffffffffffffffffffffffffffffffffffff81160361017757565b7f4e487b7100000000000000000000000000000000000000000000000000000000600052604160045260246000fd5b90601f601f19910116810190811067ffffffffffffffff8211176101ec57604052565b61019a565b81601f820112156101775780359067ffffffffffffffff82116101ec57604051926102266020601f19601f86011601856101c9565b8284526020838301011161017757816000926020809301838601378301015290565b346101775760a0600319360112610177576004356102658161017c565b60243567ffffffffffffffff8111610177576102859036906004016101f1565b60443567ffffffffffffffff8111610177576102a59036906004016101f1565b9073ffffffffffffffffffffffffffffffffffffffff606435936102c88561017c565b16803b15610177576040517fd412d344000000000000000000000000000000000000000000000000000000008152306004820152906000908290602490829084905af180156103f857610412575b50303b15610177576103599160009160405193849283927f42fe09800000000000000000000000000000000000000000000000000000000084526004840161047f565b038183305af180156103f8576103fd575b50303b15610177576040517fc68d428300000000000000000000000000000000000000000000000000000000815273ffffffffffffffffffffffffffffffffffffffff919091166004820152608480356024830152606060448301526000606483018190529082908183305af180156103f8576103e357005b806103f260006100c5936101c9565b80610427565b610432565b806103f2600061040c936101c9565b3861036a565b806103f26000610421936101c9565b38610316565b600091031261017757565b6040513d6000823e3d90fd5b919082519283825260005b84811061046a575050601f19601f8460006020809697860101520116010190565b80602080928401015182828601015201610449565b90916104a46104b293600084526012602085015260806040850152608084019061043e565b91606081840391015261043e565b90565b6000807f360894a13ba1a3210667c828492db98dca3e2076cc3735a920a3ca505d382bbc54368280378136915af43d6000803e156104f2573d6000f35b3d6000fdfea2646970667358221220338126b7fa258f15fe34b3d3125973a2e5a896765902457afdf5ad1a0d21d49e64736f6c634300081a0033",
  "linkReferences": {},
  "deployedLinkReferences": {}
}