{
  "_format": "hh-sol-artifact-1",
  "contractName": "SuperTokenFactoryV2",
  "sourceName": "contracts/token/superfluid/SuperTokenFactoryV2.sol",
  "abi": [
    {
      "inputs": [
        {
          "internalType": "address",
          "name": "_protocolFactory",
          "type": "address"
        }
      ],
      "stateMutability": "nonpayable",
      "type": "constructor"
    },
    {
      "inputs": [],
      "name": "AccessControlBadConfirmation",
      "type": "error"
    },
    {
      "inputs": [
        {
          "internalType": "address",
          "name": "account",
          "type": "address"
        },
        {
          "internalType": "bytes32",
          "name": "neededRole",
          "type": "bytes32"
        }
      ],
      "name": "AccessControlUnauthorizedAccount",
      "type": "error"
    },
    {
      "anonymous": false,
      "inputs": [
        {
          "indexed": true,
          "internalType": "bytes32",
          "name": "role",
          "type": "bytes32"
        },
        {
          "indexed": true,
          "internalType": "bytes32",
          "name": "previousAdminRole",
          "type": "bytes32"
        },
        {
          "indexed": true,
          "internalType": "bytes32",
          "name": "newAdminRole",
          "type": "bytes32"
        }
      ],
      "name": "RoleAdminChanged",
      "type": "event"
    },
    {
      "anonymous": false,
      "inputs": [
        {
          "indexed": true,
          "internalType": "bytes32",
          "name": "role",
          "type": "bytes32"
        },
        {
          "indexed": true,
          "internalType": "address",
          "name": "account",
          "type": "address"
        },
        {
          "indexed": true,
          "internalType": "address",
          "name": "sender",
          "type": "address"
        }
      ],
      "name": "RoleGranted",
      "type": "event"
    },
    {
      "anonymous": false,
      "inputs": [
        {
          "indexed": true,
          "internalType": "bytes32",
          "name": "role",
          "type": "bytes32"
        },
        {
          "indexed": true,
          "internalType": "address",
          "name": "account",
          "type": "address"
        },
        {
          "indexed": true,
          "internalType": "address",
          "name": "sender",
          "type": "address"
        }
      ],
      "name": "RoleRevoked",
      "type": "event"
    },
    {
      "anonymous": false,
      "inputs": [
        {
          "indexed": false,
          "internalType": "address",
          "name": "superToken",
          "type": "address"
        }
      ],
      "name": "SuperTokenCreated",
      "type": "event"
    },
    {
      "inputs": [],
      "name": "DEFAULT_ADMIN_ROLE",
      "outputs": [
        {
          "internalType": "bytes32",
          "name": "",
          "type": "bytes32"
        }
      ],
      "stateMutability": "view",
      "type": "function"
    },
    {
      "inputs": [],
      "name": "DEPLOYER_ROLE",
      "outputs": [
        {
          "internalType": "bytes32",
          "name": "",
          "type": "bytes32"
        }
      ],
      "stateMutability": "view",
      "type": "function"
    },
    {
      "inputs": [
        {
          "internalType": "string",
          "name": "_name",
          "type": "string"
        },
        {
          "internalType": "string",
          "name": "_symbol",
          "type": "string"
        },
        {
          "internalType": "uint256",
          "name": "_supply",
          "type": "uint256"
        },
        {
          "internalType": "address",
          "name": "_recipient",
          "type": "address"
        },
        {
          "internalType": "address",
          "name": "_requestor",
          "type": "address"
        },
        {
          "internalType": "bytes32",
          "name": "_salt",
          "type": "bytes32"
        }
      ],
      "name": "deployToken",
      "outputs": [
        {
          "internalType": "address",
          "name": "",
          "type": "address"
        }
      ],
      "stateMutability": "nonpayable",
      "type": "function"
    },
    {
      "inputs": [
        {
          "internalType": "string",
          "name": "_symbol",
          "type": "string"
        },
        {
          "internalType": "address",
          "name": "_requestor",
          "type": "address"
        },
        {
          "internalType": "address",
          "name": "pairedToken",
          "type": "address"
        }
      ],
      "name": "generateSalt",
      "outputs": [
        {
          "internalType": "bytes32",
          "name": "salt",
          "type": "bytes32"
        },
        {
          "internalType": "address",
          "name": "token",
          "type": "address"
        }
      ],
      "stateMutability": "view",
      "type": "function"
    },
    {
      "inputs": [
        {
          "internalType": "bytes32",
          "name": "role",
          "type": "bytes32"
        }
      ],
      "name": "getRoleAdmin",
      "outputs": [
        {
          "internalType": "bytes32",
          "name": "",
          "type": "bytes32"
        }
      ],
      "stateMutability": "view",
      "type": "function"
    },
    {
      "inputs": [
        {
          "internalType": "bytes32",
          "name": "role",
          "type": "bytes32"
        },
        {
          "internalType": "address",
          "name": "account",
          "type": "address"
        }
      ],
      "name": "grantRole",
      "outputs": [],
      "stateMutability": "nonpayable",
      "type": "function"
    },
    {
      "inputs": [
        {
          "internalType": "bytes32",
          "name": "role",
          "type": "bytes32"
        },
        {
          "internalType": "address",
          "name": "account",
          "type": "address"
        }
      ],
      "name": "hasRole",
      "outputs": [
        {
          "internalType": "bool",
          "name": "",
          "type": "bool"
        }
      ],
      "stateMutability": "view",
      "type": "function"
    },
    {
      "inputs": [
        {
          "internalType": "string",
          "name": "_symbol",
          "type": "string"
        },
        {
          "internalType": "address",
          "name": "_requestor",
          "type": "address"
        },
        {
          "internalType": "bytes32",
          "name": "_salt",
          "type": "bytes32"
        }
      ],
      "name": "predictToken",
      "outputs": [
        {
          "internalType": "address",
          "name": "",
          "type": "address"
        }
      ],
      "stateMutability": "view",
      "type": "function"
    },
    {
      "inputs": [],
      "name": "protocolFactory",
      "outputs": [
        {
          "internalType": "address",
          "name": "",
          "type": "address"
        }
      ],
      "stateMutability": "view",
      "type": "function"
    },
    {
      "inputs": [
        {
          "internalType": "bytes32",
          "name": "role",
          "type": "bytes32"
        },
        {
          "internalType": "address",
          "name": "callerConfirmation",
          "type": "address"
        }
      ],
      "name": "renounceRole",
      "outputs": [],
      "stateMutability": "nonpayable",
      "type": "function"
    },
    {
      "inputs": [
        {
          "internalType": "bytes32",
          "name": "role",
          "type": "bytes32"
        },
        {
          "internalType": "address",
          "name": "account",
          "type": "address"
        }
      ],
      "name": "revokeRole",
      "outputs": [],
      "stateMutability": "nonpayable",
      "type": "function"
    },
    {
      "inputs": [
        {
          "internalType": "bytes4",
          "name": "interfaceId",
          "type": "bytes4"
        }
      ],
      "name": "supportsInterface",
      "outputs": [
        {
          "internalType": "bool",
          "name": "",
          "type": "bool"
        }
      ],
      "stateMutability": "view",
      "type": "function"
    },
    {
      "inputs": [],
      "name": "weth",
      "outputs": [
        {
          "internalType": "address",
          "name": "",
          "type": "address"
        }
      ],
      "stateMutability": "view",
      "type": "function"
    }
  ],
  "bytecode": "0x6080346100aa57601f61120638819003918201601f19168301916001600160401b038311848410176100af578084926020946040528339810103126100aa57516001600160a01b038116908190036100aa57600280546001600160a01b03199081167342000000000000000000000000000000000000061790915560018054909116919091179055610090336100c5565b5061009a33610141565b50604051610fcc90816101da8239f35b600080fd5b634e487b7160e01b600052604160045260246000fd5b6001600160a01b03811660009081526000805160206111e6833981519152602052604090205460ff1661013b576001600160a01b031660008181526000805160206111e683398151915260205260408120805460ff191660011790553391906000805160206111a68339815191528180a4600190565b50600090565b6001600160a01b03811660009081526000805160206111c6833981519152602052604090205460ff1661013b576001600160a01b031660008181526000805160206111c683398151915260205260408120805460ff191660011790553391907ffc425f2263d0df187444b70e47283d622c70181c5baebb1306a01edba1ce184c906000805160206111a68339815191529080a460019056fe608080604052600436101561001357600080fd5b600090813560e01c90816301ffc9a7146106725750806311a3542314610619578063248a9ca3146105e35780632f2ff15d146105a257806336568abe146105445780633fc8cef31461051d57806391d14854146104d6578063a217fddf146104ba578063ab368a2a14610232578063d547741f146101e8578063ecd00261146101ad578063f030aa37146100d95763f489048a146100b057600080fd5b346100d657806003193601126100d65760206001600160a01b0360015416604051908152f35b80fd5b50346100d65760606003193601126100d65760043567ffffffffffffffff81116101a95761010b90369060040161074b565b906101146107a7565b916044356001600160a01b0381168091036101a557825b80610137828786610829565b836001600160a01b0382161061018c5750507fffffffffffffffffffffffffffffffffffffffffffffffffffffffffffffffff81146101785760010161012b565b602484634e487b7160e01b81526011600452fd5b906001600160a01b036040928351928352166020820152f35b8280fd5b5080fd5b50346100d657806003193601126100d65760206040517ffc425f2263d0df187444b70e47283d622c70181c5baebb1306a01edba1ce184c8152f35b50346100d65760406003193601126100d65761022e6004356102086107a7565b9061022961022482600052600060205260016040600020015490565b6108c5565b6109bf565b5080f35b50346100d65760c06003193601126100d65760043567ffffffffffffffff81116101a95761026490369060040161074b565b60243567ffffffffffffffff81116101a55761028490369060040161074b565b90606435916001600160a01b0383168093036104b6576084356001600160a01b03811681036104b2577ffc425f2263d0df187444b70e47283d622c70181c5baebb1306a01edba1ce184c855284602052604085206001600160a01b033316865260205260ff604086205416156104625760405161031c8161030e60208201948660a43591876107fe565b03601f198101835282610712565b5190206040516105488082019082821067ffffffffffffffff83111761044e57908291610a4f8339039086f58015610443576001600160a01b0316927fb52c6d9d122e8c07769b96d7bb14e66db58ee03fdebaaa2f92547e9c7ef0e65f6020604051868152a16001600160a01b036001541691843b1561043f57918593916103f56103e3979460405198899586957f75b30be6000000000000000000000000000000000000000000000000000000008752600487015260a0602487015260a48601906107bd565b906003198583030160448601526107bd565b9060648301526044356084830152038183865af192831561043257602093610422575b5050604051908152f35b8161042c91610712565b38610418565b50604051903d90823e3d90fd5b8580fd5b6040513d86823e3d90fd5b602488634e487b7160e01b81526041600452fd5b6044857fe2517d3f000000000000000000000000000000000000000000000000000000008152336004527ffc425f2263d0df187444b70e47283d622c70181c5baebb1306a01edba1ce184c602452fd5b8480fd5b8380fd5b50346100d657806003193601126100d657602090604051908152f35b50346100d65760406003193601126100d65760ff60406020926104f76107a7565b60043582528185526001600160a01b038383209116825284522054166040519015158152f35b50346100d657806003193601126100d65760206001600160a01b0360025416604051908152f35b50346100d65760406003193601126100d65761055e6107a7565b336001600160a01b0382160361057a5761022e906004356109bf565b6004827f6697b232000000000000000000000000000000000000000000000000000000008152fd5b50346100d65760406003193601126100d65761022e6004356105c26107a7565b906105de61022482600052600060205260016040600020015490565b610925565b50346100d65760206003193601126100d6576020610611600435600052600060205260016040600020015490565b604051908152f35b50346100d65760606003193601126100d6576004359067ffffffffffffffff82116100d6576020610661610650366004860161074b565b6106586107a7565b60443591610829565b6001600160a01b0360405191168152f35b9050346101a95760206003193601126101a9576004357fffffffff0000000000000000000000000000000000000000000000000000000081168091036101a557602092507f7965db0b0000000000000000000000000000000000000000000000000000000081149081156106e8575b5015158152f35b7f01ffc9a700000000000000000000000000000000000000000000000000000000915014386106e1565b90601f601f19910116810190811067ffffffffffffffff82111761073557604052565b634e487b7160e01b600052604160045260246000fd5b81601f820112156107a25780359067ffffffffffffffff821161073557604051926107806020601f19601f8601160185610712565b828452602083830101116107a257816000926020809301838601378301015290565b600080fd5b602435906001600160a01b03821682036107a257565b919082519283825260005b8481106107e9575050601f19601f8460006020809697860101520116010190565b806020809284010151828286010152016107c8565b939291610824906001600160a01b036040931686526060602087015260608601906107bd565b930152565b9161084a6001600160a01b039361030e6040519384926020840196876107fe565b5190206105486040516108606020830182610712565b8181526020810191610a4f83395190206040519060208201927fff0000000000000000000000000000000000000000000000000000000000000084523060601b602184015260358301526055820152605581526108be607582610712565b5190201690565b80600052600060205260406000206001600160a01b03331660005260205260ff60406000205416156108f45750565b7fe2517d3f000000000000000000000000000000000000000000000000000000006000523360045260245260446000fd5b80600052600060205260406000206001600160a01b03831660005260205260ff60406000205416156000146109b85780600052600060205260406000206001600160a01b0383166000526020526040600020600160ff198254161790556001600160a01b03339216907f2f8788117e7eff1d82e926ec794901d17c78024a50270940304540a733656f0d600080a4600190565b5050600090565b80600052600060205260406000206001600160a01b03831660005260205260ff604060002054166000146109b85780600052600060205260406000206001600160a01b038316600052602052604060002060ff1981541690556001600160a01b03339216907ff6391f5c32d9c69d2a47ea670b442974b53935d1edc7fd64eb21e047a839171b600080a460019056fe6080806040523460155761052d908161001b8239f35b600080fdfe6080604052600436106104b55760003560e01c80634a0687ef1461002c576375b30be6036104b557610248565b34610177576020600319360112610177576004356100498161017c565b73ffffffffffffffffffffffffffffffffffffffff81161561011f5773ffffffffffffffffffffffffffffffffffffffff7f360894a13ba1a3210667c828492db98dca3e2076cc3735a920a3ca505d382bbc54166100c7577f360894a13ba1a3210667c828492db98dca3e2076cc3735a920a3ca505d382bbc55005b005b7f08c379a0000000000000000000000000000000000000000000000000000000006080526020608452601e60a4527f5555505350726f78793a20616c726561647920696e697469616c697a6564000060c45260646080fd5b7f08c379a0000000000000000000000000000000000000000000000000000000006080526020608452601760a4527f5555505350726f78793a207a65726f206164647265737300000000000000000060c45260646080fd5b600080fd5b73ffffffffffffffffffffffffffffffffffffffff81160361017757565b7f4e487b7100000000000000000000000000000000000000000000000000000000600052604160045260246000fd5b90601f601f19910116810190811067ffffffffffffffff8211176101ec57604052565b61019a565b81601f820112156101775780359067ffffffffffffffff82116101ec57604051926102266020601f19601f86011601856101c9565b8284526020838301011161017757816000926020809301838601378301015290565b346101775760a0600319360112610177576004356102658161017c565b60243567ffffffffffffffff8111610177576102859036906004016101f1565b60443567ffffffffffffffff8111610177576102a59036906004016101f1565b9073ffffffffffffffffffffffffffffffffffffffff606435936102c88561017c565b16803b15610177576040517fd412d344000000000000000000000000000000000000000000000000000000008152306004820152906000908290602490829084905af180156103f857610412575b50303b15610177576103599160009160405193849283927f42fe09800000000000000000000000000000000000000000000000000000000084526004840161047f565b038183305af180156103f8576103fd575b50303b15610177576040517fc68d428300000000000000000000000000000000000000000000000000000000815273ffffffffffffffffffffffffffffffffffffffff919091166004820152608480356024830152606060448301526000606483018190529082908183305af180156103f8576103e357005b806103f260006100c5936101c9565b80610427565b610432565b806103f2600061040c936101c9565b3861036a565b806103f26000610421936101c9565b38610316565b600091031261017757565b6040513d6000823e3d90fd5b919082519283825260005b84811061046a575050601f19601f8460006020809697860101520116010190565b80602080928401015182828601015201610449565b90916104a46104b293600084526012602085015260806040850152608084019061043e565b91606081840391015261043e565b90565b6000807f360894a13ba1a3210667c828492db98dca3e2076cc3735a920a3ca505d382bbc54368280378136915af43d6000803e156104f2573d6000f35b3d6000fdfea2646970667358221220338126b7fa258f15fe34b3d3125973a2e5a896765902457afdf5ad1a0d21d49e64736f6c634300081a0033a2646970667358221220a904a95901f538c64756a2902bcf9b63cf9f02257c6253ffc9d07653a5c9daaf64736f6c634300081a00332f8788117e7eff1d82e926ec794901d17c78024a50270940304540a733656f0d740c5e3e456bed56f053f960110118ba9b95a1f5359a82283516fb2e81b6e37ead3228b676f7d3cd4284a5443f17f1962b36e491b30a40b2405849e597ba5fb5",
  "linkReferences": {},
  "deployedLinkReferences": {}
}