{
  "_format": "hh-sol-artifact-1",
  "contractName": "StremeDeployV2",
  "sourceName": "contracts/extras/StremeDeployV2.sol",
  "abi": [
    {
      "inputs": [
        {
          "internalType": "contract IStreme",
          "name": "_streme",
          "type": "address"
        },
        {
          "internalType": "contract IStremeAllocationHook",
          "name": "_stremeAllocationHook",
          "type": "address"
        }
      ],
      "stateMutability": "nonpayable",
      "type": "constructor"
    },
    {
      "inputs": [
        {
          "internalType": "address",
          "name": "tokenFactory",
          "type": "address"
        },
        {
          "internalType": "address",
          "name": "postDeployHook",
          "type": "address"
        },
        {
          "internalType": "address",
          "name": "liquidityFactory",
          "type": "address"
        },
        {
          "internalType": "address",
          "name": "postLPHook",
          "type": "address"
        },
        {
          "components": [
            {
              "internalType": "string",
              "name": "_name",
              "type": "string"
            },
            {
              "internalType": "string",
              "name": "_symbol",
              "type": "string"
            },
            {
              "internalType": "uint256",
              "name": "_supply",
              "type": "uint256"
            },
            {
              "internalType": "uint24",
              "name": "_fee",
              "type": "uint24"
            },
            {
              "internalType": "bytes32",
              "name": "_salt",
              "type": "bytes32"
            },
            {
              "internalType": "address",
              "name": "_deployer",
              "type": "address"
            },
            {
              "internalType": "uint256",
              "name": "_fid",
              "type": "uint256"
            },
            {
              "internalType": "string",
              "name": "_image",
              "type": "string"
            },
            {
              "internalType": "string",
              "name": "_castHash",
              "type": "string"
            },
            {
              "components": [
                {
                  "internalType": "int24",
                  "name": "tick",
                  "type": "int24"
                },
                {
                  "internalType": "address",
                  "name": "pairedToken",
                  "type": "address"
                },
                {
                  "internalType": "uint24",
                  "name": "devBuyFee",
                  "type": "uint24"
                }
              ],
              "internalType": "struct IStreme.PoolConfig",
              "name": "_poolConfig",
              "type": "tuple"
            }
          ],
          "internalType": "struct IStreme.PreSaleTokenConfig",
          "name": "preSaleTokenConfig",
          "type": "tuple"
        }
      ],
      "name": "deploy",
      "outputs": [
        {
          "internalType": "address",
          "name": "token",
          "type": "address"
        },
        {
          "internalType": "uint256",
          "name": "liquidityId",
          "type": "uint256"
        }
      ],
      "stateMutability": "payable",
      "type": "function"
    },
    {
      "inputs": [
        {
          "internalType": "address",
          "name": "tokenFactory",
          "type": "address"
        },
        {
          "internalType": "address",
          "name": "postDeployHook",
          "type": "address"
        },
        {
          "internalType": "address",
          "name": "liquidityFactory",
          "type": "address"
        },
        {
          "internalType": "address",
          "name": "postLPHook",
          "type": "address"
        },
        {
          "components": [
            {
              "internalType": "string",
              "name": "_name",
              "type": "string"
            },
            {
              "internalType": "string",
              "name": "_symbol",
              "type": "string"
            },
            {
              "internalType": "uint256",
              "name": "_supply",
              "type": "uint256"
            },
            {
              "internalType": "uint24",
              "name": "_fee",
              "type": "uint24"
            },
            {
              "internalType": "bytes32",
              "name": "_salt",
              "type": "bytes32"
            },
            {
              "internalType": "address",
              "name": "_deployer",
              "type": "address"
            },
            {
              "internalType": "uint256",
              "name": "_fid",
              "type": "uint256"
            },
            {
              "internalType": "string",
              "name": "_image",
              "type": "string"
            },
            {
              "internalType": "string",
              "name": "_castHash",
              "type": "string"
            },
            {
              "components": [
                {
                  "internalType": "int24",
                  "name": "tick",
                  "type": "int24"
                },
                {
                  "internalType": "address",
                  "name": "pairedToken",
                  "type": "address"
                },
                {
                  "internalType": "uint24",
                  "name": "devBuyFee",
                  "type": "uint24"
                }
              ],
              "internalType": "struct IStreme.PoolConfig",
              "name": "_poolConfig",
              "type": "tuple"
            }
          ],
          "internalType": "struct IStreme.PreSaleTokenConfig",
          "name": "preSaleTokenConfig",
          "type": "tuple"
        },
        {
          "components": [
            {
              "internalType": "enum IStremeAllocationHook.AllocationType",
              "name": "allocationType",
              "type": "uint8"
            },
            {
              "internalType": "address",
              "name": "admin",
              "type": "address"
            },
            {
              "internalType": "uint256",
              "name": "percentage",
              "type": "uint256"
            },
            {
              "internalType": "bytes",
              "name": "data",
              "type": "bytes"
            }
          ],
          "internalType": "struct IStremeAllocationHook.AllocationConfig[]",
          "name": "allocationConfigs",
          "type": "tuple[]"
        }
      ],
      "name": "deployWithAllocations",
      "outputs": [
        {
          "internalType": "address",
          "name": "token",
          "type": "address"
        },
        {
          "internalType": "uint256",
          "name": "liquidityId",
          "type": "uint256"
        }
      ],
      "stateMutability": "payable",
      "type": "function"
    },
    {
      "inputs": [],
      "name": "streme",
      "outputs": [
        {
          "internalType": "contract IStreme",
          "name": "",
          "type": "address"
        }
      ],
      "stateMutability": "view",
      "type": "function"
    },
    {
      "inputs": [],
      "name": "stremeAllocationHook",
      "outputs": [
        {
          "internalType": "contract IStremeAllocationHook",
          "name": "",
          "type": "address"
        }
      ],
      "stateMutability": "view",
      "type": "function"
    }
  ],
  "bytecode": "0x608034609357601f610aef38819003918201601f19168301916001600160401b03831184841017609857808492604094855283398101031260935780516001600160a01b0381169190829003609357602001516001600160a01b038116919082900360935760018060a01b0319600054161760005560018060a01b03196001541617600155604051610a4090816100af8239f35b600080fd5b634e487b7160e01b600052604160045260246000fdfe608080604052600436101561001357600080fd5b600090813560e01c908163021a1abf146105c35750806312d35d261461059c578063bcbb7493146105035763ca34ada11461004d57600080fd5b60c0600319360112610500576100616105ea565b610069610605565b9161007261061b565b61007a610631565b9360843567ffffffffffffffff81116104fc5761009b903690600401610709565b9060a43567ffffffffffffffff81116104f857366023820112156104f85780600401359067ffffffffffffffff82116104e4578160051b90604051926100e4602084018561065b565b83526020830160248193830101913683116104e05760248101915b8383106103ec57505050506001600160a01b03906040888389541661017260208901518660a08b0151168760206101208d01510151168651988996879586957f017ea1410000000000000000000000000000000000000000000000000000000087526080600488015260848701906108c2565b936024860152166044840152606483015203915afa9182156103e157879261039e575b506001600160a01b036001541691823b1561039a5792909187926040519485937f813a97ab0000000000000000000000000000000000000000000000000000000085526001600160a01b03604486019216600486015260406024860152518091526064840160648260051b8601019291865b8181106102fc57505050508383809203925af180156102f1576102de575b50839461026e6001600160a01b036040965416938651988996879586957fe8c59f3700000000000000000000000000000000000000000000000000000000875260048701610903565b039134905af19182156102d157819261029f575b50604080516001600160a01b039290921682526020820192909252f35b90506102c3915060403d6040116102ca575b6102bb818361065b565b8101906108a5565b9038610282565b503d6102b1565b50604051903d90823e3d90fd5b936102eb8160409661065b565b93610225565b6040513d87823e3d90fd5b9295847fffffffffffffffffffffffffffffffffffffffffffffffffffffffffffffff9c929593969850030184528451805160038110156103865761037383608060606020958695600198526001600160a01b038682015116868501526040810151604085015201519181606082015201906108c2565b960194019101908694928b969492610207565b60248d634e487b7160e01b81526021600452fd5b8780fd5b9091506040813d6040116103d9575b816103ba6040938361065b565b810103126103d55760206103ce9101610891565b9038610195565b8680fd5b3d91506103ad565b6040513d89823e3d90fd5b823567ffffffffffffffff81116104dc57820160807fffffffffffffffffffffffffffffffffffffffffffffffffffffffffffffffdc82360301126104dc57604051906080820182811067ffffffffffffffff8211176104c857604052602481013560038110156104c457825261046560448201610647565b60208301526064810135604083015260848101359067ffffffffffffffff82116104c45790602491010136601f820112156104c05791602092916104b0849336908581359101610694565b60608201528152019201916100ff565b8b80fd5b8c80fd5b60248d634e487b7160e01b81526041600452fd5b8a80fd5b8880fd5b602486634e487b7160e01b81526041600452fd5b8480fd5b8380fd5b80fd5b5060a0600319360112610500576105186105ea565b610520610605565b9161052961061b565b610531610631565b926084359467ffffffffffffffff86116104fc5761055760409495963690600401610709565b9161026e6001600160a01b03875416938651988996879586957fe8c59f3700000000000000000000000000000000000000000000000000000000875260048701610903565b503461050057806003193601126105005760206001600160a01b0360015416604051908152f35b9050346105e657816003193601126105e6576001600160a01b0360209254168152f35b5080fd5b600435906001600160a01b038216820361060057565b600080fd5b602435906001600160a01b038216820361060057565b604435906001600160a01b038216820361060057565b606435906001600160a01b038216820361060057565b35906001600160a01b038216820361060057565b90601f601f19910116810190811067ffffffffffffffff82111761067e57604052565b634e487b7160e01b600052604160045260246000fd5b92919267ffffffffffffffff821161067e57604051916106be601f8201601f19166020018461065b565b829481845281830111610600578281602093846000960137010152565b9080601f83011215610600578160206106f693359101610694565b90565b359062ffffff8216820361060057565b9190918083039061018082126106005760405191610140830183811067ffffffffffffffff82111761067e576040528294823567ffffffffffffffff811161060057816107579185016106db565b8452602083013567ffffffffffffffff811161060057816107799185016106db565b602085015260408301356040850152610794606084016106f9565b6060850152608083013560808501526107af60a08401610647565b60a085015260c083013560c085015260e083013567ffffffffffffffff811161060057816107de9185016106db565b60e08501526101008301359167ffffffffffffffff8311610600576108287ffffffffffffffffffffffffffffffffffffffffffffffffffffffffffffffee09260609486016106db565b610100860152011261060057604051916060830183811067ffffffffffffffff82111761067e57604052610120820135918260020b8303610600576101606108889161012094865261087d6101408201610647565b6020870152016106f9565b60408401520152565b51906001600160a01b038216820361060057565b91908260409103126106005760206108bc83610891565b92015190565b919082519283825260005b8481106108ee575050601f19601f8460006020809697860101520116010190565b806020809284010151828286010152016108cd565b9391926001600160a01b03809481809416875216602086015216604084015216606082015260a0608082015261020062ffffff60406101206109df6109c761097261095c895161018060a08b01526102208a01906108c2565b60208a0151609f198a83030160c08b01526108c2565b8489015160e08901528560608a0151166101008901526080890151848901526001600160a01b0360a08a01511661014089015260c089015161016089015260e0890151609f19898303016101808a01526108c2565b610100880151609f19888303016101a08901526108c2565b950151805160020b6101c08601526001600160a01b036020820151166101e08601520151169101529056fea2646970667358221220346d3323455b7d77ec03e203e84c3c2fde7e658579f34aed0cc45600d0be9cad64736f6c634300081a0033",
  "linkReferences": {},
  "deployedLinkReferences": {}
}