{
  "_format": "hh-sol-artifact-1",
  "contractName": "ClankerToken",
  "sourceName": "contracts/token/clanker/ClankerToken.sol",
  "abi": [
    {
      "inputs": [],
      "stateMutability": "nonpayable",
      "type": "constructor"
    },
    {
      "inputs": [
        {
          "internalType": "address",
          "name": "spender",
          "type": "address"
        },
        {
          "internalType": "uint256",
          "name": "allowance",
          "type": "uint256"
        },
        {
          "internalType": "uint256",
          "name": "needed",
          "type": "uint256"
        }
      ],
      "name": "ERC20InsufficientAllowance",
      "type": "error"
    },
    {
      "inputs": [
        {
          "internalType": "address",
          "name": "sender",
          "type": "address"
        },
        {
          "internalType": "uint256",
          "name": "balance",
          "type": "uint256"
        },
        {
          "internalType": "uint256",
          "name": "needed",
          "type": "uint256"
        }
      ],
      "name": "ERC20InsufficientBalance",
      "type": "error"
    },
    {
      "inputs": [
        {
          "internalType": "address",
          "name": "approver",
          "type": "address"
        }
      ],
      "name": "ERC20InvalidApprover",
      "type": "error"
    },
    {
      "inputs": [
        {
          "internalType": "address",
          "name": "receiver",
          "type": "address"
        }
      ],
      "name": "ERC20InvalidReceiver",
      "type": "error"
    },
    {
      "inputs": [
        {
          "internalType": "address",
          "name": "sender",
          "type": "address"
        }
      ],
      "name": "ERC20InvalidSender",
      "type": "error"
    },
    {
      "inputs": [
        {
          "internalType": "address",
          "name": "spender",
          "type": "address"
        }
      ],
      "name": "ERC20InvalidSpender",
      "type": "error"
    },
    {
      "inputs": [],
      "name": "InvalidInitialization",
      "type": "error"
    },
    {
      "inputs": [],
      "name": "NotInitializing",
      "type": "error"
    },
    {
      "anonymous": false,
      "inputs": [
        {
          "indexed": true,
          "internalType": "address",
          "name": "owner",
          "type": "address"
        },
        {
          "indexed": true,
          "internalType": "address",
          "name": "spender",
          "type": "address"
        },
        {
          "indexed": false,
          "internalType": "uint256",
          "name": "value",
          "type": "uint256"
        }
      ],
      "name": "Approval",
      "type": "event"
    },
    {
      "anonymous": false,
      "inputs": [
        {
          "indexed": false,
          "internalType": "uint64",
          "name": "version",
          "type": "uint64"
        }
      ],
      "name": "Initialized",
      "type": "event"
    },
    {
      "anonymous": false,
      "inputs": [
        {
          "indexed": true,
          "internalType": "address",
          "name": "from",
          "type": "address"
        },
        {
          "indexed": true,
          "internalType": "address",
          "name": "to",
          "type": "address"
        },
        {
          "indexed": false,
          "internalType": "uint256",
          "name": "value",
          "type": "uint256"
        }
      ],
      "name": "Transfer",
      "type": "event"
    },
    {
      "inputs": [
        {
          "internalType": "address",
          "name": "owner",
          "type": "address"
        },
        {
          "internalType": "address",
          "name": "spender",
          "type": "address"
        }
      ],
      "name": "allowance",
      "outputs": [
        {
          "internalType": "uint256",
          "name": "",
          "type": "uint256"
        }
      ],
      "stateMutability": "view",
      "type": "function"
    },
    {
      "inputs": [
        {
          "internalType": "address",
          "name": "spender",
          "type": "address"
        },
        {
          "internalType": "uint256",
          "name": "value",
          "type": "uint256"
        }
      ],
      "name": "approve",
      "outputs": [
        {
          "internalType": "bool",
          "name": "",
          "type": "bool"
        }
      ],
      "stateMutability": "nonpayable",
      "type": "function"
    },
    {
      "inputs": [
        {
          "internalType": "address",
          "name": "account",
          "type": "address"
        }
      ],
      "name": "balanceOf",
      "outputs": [
        {
          "internalType": "uint256",
          "name": "",
          "type": "uint256"
        }
      ],
      "stateMutability": "view",
      "type": "function"
    },
    {
      "inputs": [],
      "name": "castHash",
      "outputs": [
        {
          "internalType": "string",
          "name": "",
          "type": "string"
        }
      ],
      "stateMutability": "view",
      "type": "function"
    },
    {
      "inputs": [],
      "name": "decimals",
      "outputs": [
        {
          "internalType": "uint8",
          "name": "",
          "type": "uint8"
        }
      ],
      "stateMutability": "view",
      "type": "function"
    },
    {
      "inputs": [],
      "name": "deployer",
      "outputs": [
        {
          "internalType": "address",
          "name": "",
          "type": "address"
        }
      ],
      "stateMutability": "view",
      "type": "function"
    },
    {
      "inputs": [],
      "name": "fid",
      "outputs": [
        {
          "internalType": "uint256",
          "name": "",
          "type": "uint256"
        }
      ],
      "stateMutability": "view",
      "type": "function"
    },
    {
      "inputs": [],
      "name": "image",
      "outputs": [
        {
          "internalType": "string",
          "name": "",
          "type": "string"
        }
      ],
      "stateMutability": "view",
      "type": "function"
    },
    {
      "inputs": [
        {
          "components": [
            {
              "internalType": "string",
              "name": "name",
              "type": "string"
            },
            {
              "internalType": "string",
              "name": "symbol",
              "type": "string"
            },
            {
              "internalType": "uint256",
              "name": "supply",
              "type": "uint256"
            },
            {
              "internalType": "address",
              "name": "deployer",
              "type": "address"
            },
            {
              "internalType": "uint256",
              "name": "fid",
              "type": "uint256"
            },
            {
              "internalType": "string",
              "name": "image",
              "type": "string"
            },
            {
              "internalType": "string",
              "name": "castHash",
              "type": "string"
            },
            {
              "internalType": "bytes",
              "name": "tokenData",
              "type": "bytes"
            }
          ],
          "internalType": "struct IClankerToken.TokenConfig",
          "name": "config",
          "type": "tuple"
        },
        {
          "internalType": "address",
          "name": "lockerFactory",
          "type": "address"
        }
      ],
      "name": "initialize",
      "outputs": [],
      "stateMutability": "nonpayable",
      "type": "function"
    },
    {
      "inputs": [],
      "name": "locker",
      "outputs": [
        {
          "internalType": "address",
          "name": "",
          "type": "address"
        }
      ],
      "stateMutability": "view",
      "type": "function"
    },
    {
      "inputs": [],
      "name": "name",
      "outputs": [
        {
          "internalType": "string",
          "name": "",
          "type": "string"
        }
      ],
      "stateMutability": "view",
      "type": "function"
    },
    {
      "inputs": [],
      "name": "symbol",
      "outputs": [
        {
          "internalType": "string",
          "name": "",
          "type": "string"
        }
      ],
      "stateMutability": "view",
      "type": "function"
    },
    {
      "inputs": [],
      "name": "totalSupply",
      "outputs": [
        {
          "internalType": "uint256",
          "name": "",
          "type": "uint256"
        }
      ],
      "stateMutability": "view",
      "type": "function"
    },
    {
      "inputs": [
        {
          "internalType": "address",
          "name": "to",
          "type": "address"
        },
        {
          "internalType": "uint256",
          "name": "value",
          "type": "uint256"
        }
      ],
      "name": "transfer",
      "outputs": [
        {
          "internalType": "bool",
          "name": "",
          "type": "bool"
        }
      ],
      "stateMutability": "nonpayable",
      "type": "function"
    },
    {
      "inputs": [
        {
          "internalType": "address",
          "name": "from",
          "type": "address"
        },
        {
          "internalType": "address",
          "name": "to",
          "type": "address"
        },
        {
          "internalType": "uint256",
          "name": "value",
          "type": "uint256"
        }
      ],
      "name": "transferFrom",
      "outputs": [
        {
          "internalType": "bool",
          "name": "",
          "type": "bool"
        }
      ],
      "stateMutability": "nonpayable",
      "type": "function"
    }
  ],
  "bytecode": "0x60a080604052346100dc577ff0c57e16840df040f15088dc2f81fe391c3923bec73e23a9662efc9c229c6a005460ff8160401c166100cb576002600160401b03196001600160401b03821601610065575b60405161164890816100e28239608051815050f35b6001600160401b0319166001600160401b039081177ff0c57e16840df040f15088dc2f81fe391c3923bec73e23a9662efc9c229c6a005581527fc7f505b2f371ae2175ee4913f4499e1f2633a7b5936321eed1cdaeb6115181d290602090a13880610050565b63f92ee8a960e01b60005260046000fd5b600080fdfe6080604052600436101561001257600080fd5b60003560e01c806306fdde0314611227578063095ea7b31461118157806318160ddd1461114457806323b872dd14610fa9578063313ce56714610f8d5780633257b4f314610f6f57806370a0823114610f1657806395d89b4114610e30578063a4dac28114610d88578063a9059cbb14610d57578063d5f3948814610d30578063d7b96d4e14610c67578063dd62ed3e14610bea578063f02d765d146101c15763f3ccaac0146100c157600080fd5b346101bc5760006003193601126101bc5760405160006004546100e381611383565b808452906001811690811561017a575060011461011b575b6101178361010b818503826113bd565b6040519182918261130d565b0390f35b600460009081527f8a35acfbc15ff81a39ae7d344fd709f28e8600b4aa8c65c6b64bfe7fe36bd19b939250905b8082106101605750909150810160200161010b6100fb565b919260018160209254838588010152019101909291610148565b7fffffffffffffffffffffffffffffffffffffffffffffffffffffffffffffff001660208086019190915291151560051b8401909101915061010b90506100fb565b600080fd5b346101bc5760406003193601126101bc5760043567ffffffffffffffff81116101bc578060040161010060031983360301126101bc576101ff61136d565b917ff0c57e16840df040f15088dc2f81fe391c3923bec73e23a9662efc9c229c6a00549160ff8360401c16159267ffffffffffffffff811680159081610be2575b6001149081610bd8575b159081610bcf575b50610ba5578360017fffffffffffffffffffffffffffffffffffffffffffffffff00000000000000008316177ff0c57e16840df040f15088dc2f81fe391c3923bec73e23a9662efc9c229c6a0055610b50575b506102d86102b382806113e0565b6102d06102c660248795949501866113e0565b9490923691611431565b923691611431565b906102e16115b9565b6102e96115b9565b80519067ffffffffffffffff82116107d7576103257f52c63247e1f47db19d5ce0460030c497f067ca4cebf71ba98eeadabe20bace0354611383565b601f8111610acc575b50602090601f8311600114610a255761035f929160009183610a1a575b50506000198260011b9260031b1c19161790565b7f52c63247e1f47db19d5ce0460030c497f067ca4cebf71ba98eeadabe20bace03555b80519067ffffffffffffffff82116107d7576103be7f52c63247e1f47db19d5ce0460030c497f067ca4cebf71ba98eeadabe20bace0454611383565b601f8111610996575b50602090601f83116001146108ef576103f79291600091836108e45750506000198260011b9260031b1c19161790565b7f52c63247e1f47db19d5ce0460030c497f067ca4cebf71ba98eeadabe20bace04555b60648201356001600160a01b0381168091036101bc577fffffffffffffffffffffffff00000000000000000000000000000000000000006002541617600255608482013560035561046e60a48301826113e0565b9067ffffffffffffffff82116107d757610489600454611383565b601f811161087f575b50600090601f83116001146107f85791806104c7926104d595946000926107ed5750506000198260011b9260031b1c19161790565b6004555b60c48301906113e0565b9067ffffffffffffffff82116107d7576104f0600554611383565b601f811161078e575b50600090601f831160011461070857918061052d92604495946000926106fd5750506000198260011b9260031b1c19161790565b6005555b01359133156106ce577f52c63247e1f47db19d5ce0460030c497f067ca4cebf71ba98eeadabe20bace0254908382018092116106b8576001600160a01b03917f52c63247e1f47db19d5ce0460030c497f067ca4cebf71ba98eeadabe20bace02556000933385527f52c63247e1f47db19d5ce0460030c497f067ca4cebf71ba98eeadabe20bace0060205260408520818154019055604051908152847fddf252ad1be2c89b69c2b068fc378daa952ba7f163c4a11628f55a4df523b3ef60203393a3167fffffffffffffffffffffffff000000000000000000000000000000000000000060065416176006556106245780f35b7fffffffffffffffffffffffffffffffffffffffffffffff00ffffffffffffffff7ff0c57e16840df040f15088dc2f81fe391c3923bec73e23a9662efc9c229c6a0054167ff0c57e16840df040f15088dc2f81fe391c3923bec73e23a9662efc9c229c6a00557fc7f505b2f371ae2175ee4913f4499e1f2633a7b5936321eed1cdaeb6115181d2602060405160018152a180f35b634e487b7160e01b600052601160045260246000fd5b7fec442f0500000000000000000000000000000000000000000000000000000000600052600060045260246000fd5b01359050878061034b565b600582527f036b6384b5eca791c62761152d0c79bb0604c104a5fb6f4eb0703f3154bb3db091601f198416815b818110610776575091600193918560449796941061075c575b505050811b01600555610531565b60001960f88560031b161c1991013516905586808061074e565b91936020600181928787013581550195019201610735565b60056000526020600020601f840160051c810191602085106107cd575b601f0160051c01905b8181106107c157506104f9565b600081556001016107b4565b90915081906107ab565b634e487b7160e01b600052604160045260246000fd5b01359050888061034b565b600482527f8a35acfbc15ff81a39ae7d344fd709f28e8600b4aa8c65c6b64bfe7fe36bd19b91601f198416815b81811061086757509160019391856104d59796941061084d575b505050811b016004556104cb565b60001960f88560031b161c1991013516905587808061083f565b91936020600181928787013581550195019201610825565b60046000527f8a35acfbc15ff81a39ae7d344fd709f28e8600b4aa8c65c6b64bfe7fe36bd19b601f840160051c810191602085106108da575b601f0160051c01905b8181106108ce5750610492565b600081556001016108c1565b90915081906108b8565b01519050878061034b565b90601f198316917f52c63247e1f47db19d5ce0460030c497f067ca4cebf71ba98eeadabe20bace04600052816000209260005b81811061097e5750908460019594939210610965575b505050811b017f52c63247e1f47db19d5ce0460030c497f067ca4cebf71ba98eeadabe20bace045561041a565b015160001960f88460031b161c19169055868080610938565b92936020600181928786015181550195019301610922565b7f52c63247e1f47db19d5ce0460030c497f067ca4cebf71ba98eeadabe20bace046000527f46a2803e59a4de4e7a4c574b1243f25977ac4c77d5a1a4a609b5394cebb4a2aa601f840160051c81019160208510610a10575b601f0160051c01905b818110610a0457506103c7565b600081556001016109f7565b90915081906109ee565b01519050888061034b565b90601f198316917f52c63247e1f47db19d5ce0460030c497f067ca4cebf71ba98eeadabe20bace03600052816000209260005b818110610ab45750908460019594939210610a9b575b505050811b017f52c63247e1f47db19d5ce0460030c497f067ca4cebf71ba98eeadabe20bace0355610382565b015160001960f88460031b161c19169055878080610a6e565b92936020600181928786015181550195019301610a58565b7f52c63247e1f47db19d5ce0460030c497f067ca4cebf71ba98eeadabe20bace036000527f2ae08a8e29253f69ac5d979a101956ab8f8d9d7ded63fa7a83b16fc47648eab0601f840160051c81019160208510610b46575b601f0160051c01905b818110610b3a575061032e565b60008155600101610b2d565b9091508190610b24565b7fffffffffffffffffffffffffffffffffffffffffffffff0000000000000000001668010000000000000001177ff0c57e16840df040f15088dc2f81fe391c3923bec73e23a9662efc9c229c6a0055846102a5565b7ff92ee8a90000000000000000000000000000000000000000000000000000000060005260046000fd5b90501586610252565b303b15915061024a565b859150610240565b346101bc5760406003193601126101bc57610c03611357565b6001600160a01b03610c4f610c1661136d565b926001600160a01b03166000527f52c63247e1f47db19d5ce0460030c497f067ca4cebf71ba98eeadabe20bace01602052604060002090565b91166000526020526020604060002054604051908152f35b346101bc5760006003193601126101bc57602460206001600160a01b0360065416604051928380927f1a45f3260000000000000000000000000000000000000000000000000000000082523060048301525afa908115610d2457600091610cdd575b6020826001600160a01b0360405191168152f35b6020813d602011610d1c575b81610cf6602093836113bd565b81010312610d1857516001600160a01b0381168103610d185790506020610cc9565b5080fd5b3d9150610ce9565b6040513d6000823e3d90fd5b346101bc5760006003193601126101bc5760206001600160a01b0360025416604051908152f35b346101bc5760406003193601126101bc57610d7d610d73611357565b6024359033611478565b602060405160018152f35b346101bc5760006003193601126101bc576040516000600554610daa81611383565b808452906001811690811561017a5750600114610dd1576101178361010b818503826113bd565b600560009081527f036b6384b5eca791c62761152d0c79bb0604c104a5fb6f4eb0703f3154bb3db0939250905b808210610e165750909150810160200161010b6100fb565b919260018160209254838588010152019101909291610dfe565b346101bc5760006003193601126101bc5760405160007f52c63247e1f47db19d5ce0460030c497f067ca4cebf71ba98eeadabe20bace0454610e7181611383565b808452906001811690811561017a5750600114610e98576101178361010b818503826113bd565b7f52c63247e1f47db19d5ce0460030c497f067ca4cebf71ba98eeadabe20bace0460009081527f46a2803e59a4de4e7a4c574b1243f25977ac4c77d5a1a4a609b5394cebb4a2aa939250905b808210610efc5750909150810160200161010b6100fb565b919260018160209254838588010152019101909291610ee4565b346101bc5760206003193601126101bc576001600160a01b03610f37611357565b166000527f52c63247e1f47db19d5ce0460030c497f067ca4cebf71ba98eeadabe20bace006020526020604060002054604051908152f35b346101bc5760006003193601126101bc576020600354604051908152f35b346101bc5760006003193601126101bc57602060405160128152f35b346101bc5760606003193601126101bc57610fc2611357565b610fca61136d565b6044359061100a836001600160a01b03166000527f52c63247e1f47db19d5ce0460030c497f067ca4cebf71ba98eeadabe20bace01602052604060002090565b6001600160a01b033316600052602052604060002054926000198410611035575b610d7d9350611478565b82841061110e576001600160a01b038116156110df5733156110b057610d7d93611091826001600160a01b03166000527f52c63247e1f47db19d5ce0460030c497f067ca4cebf71ba98eeadabe20bace01602052604060002090565b6001600160a01b0333166000526020528360406000209103905561102b565b7f94280d6200000000000000000000000000000000000000000000000000000000600052600060045260246000fd5b7fe602df0500000000000000000000000000000000000000000000000000000000600052600060045260246000fd5b82847ffb8f41b2000000000000000000000000000000000000000000000000000000006000523360045260245260445260646000fd5b346101bc5760006003193601126101bc5760207f52c63247e1f47db19d5ce0460030c497f067ca4cebf71ba98eeadabe20bace0254604051908152f35b346101bc5760406003193601126101bc5761119a611357565b6024359033156110df576001600160a01b03169081156110b0573360009081527f52c63247e1f47db19d5ce0460030c497f067ca4cebf71ba98eeadabe20bace016020526040902082600052602052806040600020556040519081527f8c5be1e5ebec7d5bd14f71427d1e84f3dd0314c0f7b2291e5b200ac8c7c3b92560203392a3602060405160018152f35b346101bc5760006003193601126101bc5760405160007f52c63247e1f47db19d5ce0460030c497f067ca4cebf71ba98eeadabe20bace035461126881611383565b808452906001811690811561017a575060011461128f576101178361010b818503826113bd565b7f52c63247e1f47db19d5ce0460030c497f067ca4cebf71ba98eeadabe20bace0360009081527f2ae08a8e29253f69ac5d979a101956ab8f8d9d7ded63fa7a83b16fc47648eab0939250905b8082106112f35750909150810160200161010b6100fb565b9192600181602092548385880101520191019092916112db565b9190916020815282519283602083015260005b848110611341575050601f19601f8460006040809697860101520116010190565b8060208092840101516040828601015201611320565b600435906001600160a01b03821682036101bc57565b602435906001600160a01b03821682036101bc57565b90600182811c921680156113b3575b602083101461139d57565b634e487b7160e01b600052602260045260246000fd5b91607f1691611392565b90601f601f19910116810190811067ffffffffffffffff8211176107d757604052565b9035907fffffffffffffffffffffffffffffffffffffffffffffffffffffffffffffffe1813603018212156101bc570180359067ffffffffffffffff82116101bc576020019181360383136101bc57565b92919267ffffffffffffffff82116107d7576040519161145b6020601f19601f84011601846113bd565b8294818452818301116101bc578281602093846000960137010152565b6001600160a01b031690811561158a576001600160a01b03169182156106ce5760008281527f52c63247e1f47db19d5ce0460030c497f067ca4cebf71ba98eeadabe20bace0060205260408120548281106115575791604082827fddf252ad1be2c89b69c2b068fc378daa952ba7f163c4a11628f55a4df523b3ef9587602096527f52c63247e1f47db19d5ce0460030c497f067ca4cebf71ba98eeadabe20bace00865203828220558681527f52c63247e1f47db19d5ce0460030c497f067ca4cebf71ba98eeadabe20bace00845220818154019055604051908152a3565b6064937fe450d38c0000000000000000000000000000000000000000000000000000000083949352600452602452604452fd5b7f96c6fd1e00000000000000000000000000000000000000000000000000000000600052600060045260246000fd5b60ff7ff0c57e16840df040f15088dc2f81fe391c3923bec73e23a9662efc9c229c6a005460401c16156115e857565b7fd7e6bcf80000000000000000000000000000000000000000000000000000000060005260046000fdfea264697066735822122002383f7444acb87397a5799c5d5fdc584d2160402d96681705ae74745604833164736f6c634300081a0033",
  "linkReferences": {},
  "deployedLinkReferences": {}
}