{
  "_format": "hh-sol-artifact-1",
  "contractName": "StremePreBuyETH",
  "sourceName": "contracts/postlp/prebuy/StremePreBuyETH.sol",
  "abi": [
    {
      "inputs": [],
      "stateMutability": "nonpayable",
      "type": "constructor"
    },
    {
      "inputs": [],
      "name": "AccessControlBadConfirmation",
      "type": "error"
    },
    {
      "inputs": [
        {
          "internalType": "address",
          "name": "account",
          "type": "address"
        },
        {
          "internalType": "bytes32",
          "name": "neededRole",
          "type": "bytes32"
        }
      ],
      "name": "AccessControlUnauthorizedAccount",
      "type": "error"
    },
    {
      "inputs": [],
      "name": "EnforcedPause",
      "type": "error"
    },
    {
      "inputs": [],
      "name": "ExpectedPause",
      "type": "error"
    },
    {
      "inputs": [],
      "name": "InvalidInitialization",
      "type": "error"
    },
    {
      "inputs": [],
      "name": "NotInitializing",
      "type": "error"
    },
    {
      "anonymous": false,
      "inputs": [
        {
          "indexed": true,
          "internalType": "address",
          "name": "user",
          "type": "address"
        },
        {
          "indexed": false,
          "internalType": "uint256",
          "name": "amount",
          "type": "uint256"
        }
      ],
      "name": "Deposit",
      "type": "event"
    },
    {
      "anonymous": false,
      "inputs": [
        {
          "indexed": false,
          "internalType": "uint64",
          "name": "version",
          "type": "uint64"
        }
      ],
      "name": "Initialized",
      "type": "event"
    },
    {
      "anonymous": false,
      "inputs": [
        {
          "indexed": false,
          "internalType": "address",
          "name": "account",
          "type": "address"
        }
      ],
      "name": "Paused",
      "type": "event"
    },
    {
      "anonymous": false,
      "inputs": [
        {
          "indexed": false,
          "internalType": "uint256",
          "name": "totalETH",
          "type": "uint256"
        },
        {
          "indexed": false,
          "internalType": "uint256",
          "name": "totalTokens",
          "type": "uint256"
        }
      ],
      "name": "PreBuyFinalized",
      "type": "event"
    },
    {
      "anonymous": false,
      "inputs": [
        {
          "indexed": true,
          "internalType": "bytes32",
          "name": "role",
          "type": "bytes32"
        },
        {
          "indexed": true,
          "internalType": "bytes32",
          "name": "previousAdminRole",
          "type": "bytes32"
        },
        {
          "indexed": true,
          "internalType": "bytes32",
          "name": "newAdminRole",
          "type": "bytes32"
        }
      ],
      "name": "RoleAdminChanged",
      "type": "event"
    },
    {
      "anonymous": false,
      "inputs": [
        {
          "indexed": true,
          "internalType": "bytes32",
          "name": "role",
          "type": "bytes32"
        },
        {
          "indexed": true,
          "internalType": "address",
          "name": "account",
          "type": "address"
        },
        {
          "indexed": true,
          "internalType": "address",
          "name": "sender",
          "type": "address"
        }
      ],
      "name": "RoleGranted",
      "type": "event"
    },
    {
      "anonymous": false,
      "inputs": [
        {
          "indexed": true,
          "internalType": "bytes32",
          "name": "role",
          "type": "bytes32"
        },
        {
          "indexed": true,
          "internalType": "address",
          "name": "account",
          "type": "address"
        },
        {
          "indexed": true,
          "internalType": "address",
          "name": "sender",
          "type": "address"
        }
      ],
      "name": "RoleRevoked",
      "type": "event"
    },
    {
      "anonymous": false,
      "inputs": [
        {
          "indexed": false,
          "internalType": "address",
          "name": "account",
          "type": "address"
        }
      ],
      "name": "Unpaused",
      "type": "event"
    },
    {
      "anonymous": false,
      "inputs": [
        {
          "indexed": true,
          "internalType": "address",
          "name": "user",
          "type": "address"
        },
        {
          "indexed": false,
          "internalType": "uint256",
          "name": "amount",
          "type": "uint256"
        }
      ],
      "name": "Withdraw",
      "type": "event"
    },
    {
      "inputs": [],
      "name": "DEFAULT_ADMIN_ROLE",
      "outputs": [
        {
          "internalType": "bytes32",
          "name": "",
          "type": "bytes32"
        }
      ],
      "stateMutability": "view",
      "type": "function"
    },
    {
      "inputs": [],
      "name": "DEPLOYER_ROLE",
      "outputs": [
        {
          "internalType": "bytes32",
          "name": "",
          "type": "bytes32"
        }
      ],
      "stateMutability": "view",
      "type": "function"
    },
    {
      "inputs": [],
      "name": "MANAGER_ROLE",
      "outputs": [
        {
          "internalType": "bytes32",
          "name": "",
          "type": "bytes32"
        }
      ],
      "stateMutability": "view",
      "type": "function"
    },
    {
      "inputs": [],
      "name": "active",
      "outputs": [
        {
          "internalType": "bool",
          "name": "",
          "type": "bool"
        }
      ],
      "stateMutability": "view",
      "type": "function"
    },
    {
      "inputs": [],
      "name": "admin",
      "outputs": [
        {
          "internalType": "address",
          "name": "",
          "type": "address"
        }
      ],
      "stateMutability": "view",
      "type": "function"
    },
    {
      "inputs": [
        {
          "internalType": "address",
          "name": "user",
          "type": "address"
        }
      ],
      "name": "balanceOf",
      "outputs": [
        {
          "internalType": "uint256",
          "name": "",
          "type": "uint256"
        }
      ],
      "stateMutability": "view",
      "type": "function"
    },
    {
      "inputs": [],
      "name": "deposit",
      "outputs": [],
      "stateMutability": "payable",
      "type": "function"
    },
    {
      "inputs": [
        {
          "internalType": "uint256",
          "name": "",
          "type": "uint256"
        }
      ],
      "name": "depositors",
      "outputs": [
        {
          "internalType": "address",
          "name": "",
          "type": "address"
        }
      ],
      "stateMutability": "view",
      "type": "function"
    },
    {
      "inputs": [
        {
          "internalType": "address",
          "name": "",
          "type": "address"
        }
      ],
      "name": "deposits",
      "outputs": [
        {
          "internalType": "uint256",
          "name": "",
          "type": "uint256"
        }
      ],
      "stateMutability": "view",
      "type": "function"
    },
    {
      "inputs": [],
      "name": "gdaForwarder",
      "outputs": [
        {
          "internalType": "contract IGDAv1Forwarder",
          "name": "",
          "type": "address"
        }
      ],
      "stateMutability": "view",
      "type": "function"
    },
    {
      "inputs": [
        {
          "internalType": "bytes32",
          "name": "role",
          "type": "bytes32"
        }
      ],
      "name": "getRoleAdmin",
      "outputs": [
        {
          "internalType": "bytes32",
          "name": "",
          "type": "bytes32"
        }
      ],
      "stateMutability": "view",
      "type": "function"
    },
    {
      "inputs": [
        {
          "internalType": "bytes32",
          "name": "role",
          "type": "bytes32"
        },
        {
          "internalType": "address",
          "name": "account",
          "type": "address"
        }
      ],
      "name": "grantRole",
      "outputs": [],
      "stateMutability": "nonpayable",
      "type": "function"
    },
    {
      "inputs": [
        {
          "internalType": "bytes32",
          "name": "role",
          "type": "bytes32"
        },
        {
          "internalType": "address",
          "name": "account",
          "type": "address"
        }
      ],
      "name": "hasRole",
      "outputs": [
        {
          "internalType": "bool",
          "name": "",
          "type": "bool"
        }
      ],
      "stateMutability": "view",
      "type": "function"
    },
    {
      "inputs": [
        {
          "internalType": "contract IERC20",
          "name": "stremeCoin",
          "type": "address"
        },
        {
          "internalType": "address",
          "name": "pairedToken",
          "type": "address"
        },
        {
          "internalType": "address",
          "name": "deployer",
          "type": "address"
        }
      ],
      "name": "hook",
      "outputs": [],
      "stateMutability": "payable",
      "type": "function"
    },
    {
      "inputs": [
        {
          "internalType": "address",
          "name": "_token",
          "type": "address"
        },
        {
          "components": [
            {
              "internalType": "uint256",
              "name": "minDeposit",
              "type": "uint256"
            },
            {
              "internalType": "uint256",
              "name": "maxDeposit",
              "type": "uint256"
            },
            {
              "internalType": "uint256",
              "name": "totalCap",
              "type": "uint256"
            },
            {
              "internalType": "uint256",
              "name": "lockupDuration",
              "type": "uint256"
            },
            {
              "internalType": "uint256",
              "name": "vestingDuration",
              "type": "uint256"
            }
          ],
          "internalType": "struct StremePreBuyETH.PreBuySettings",
          "name": "_preBuySettings",
          "type": "tuple"
        },
        {
          "internalType": "address",
          "name": "_admin",
          "type": "address"
        }
      ],
      "name": "initialize",
      "outputs": [],
      "stateMutability": "nonpayable",
      "type": "function"
    },
    {
      "inputs": [],
      "name": "membersWithUnits",
      "outputs": [
        {
          "internalType": "address[]",
          "name": "",
          "type": "address[]"
        },
        {
          "internalType": "uint128[]",
          "name": "units",
          "type": "uint128[]"
        }
      ],
      "stateMutability": "view",
      "type": "function"
    },
    {
      "inputs": [],
      "name": "pause",
      "outputs": [],
      "stateMutability": "nonpayable",
      "type": "function"
    },
    {
      "inputs": [],
      "name": "paused",
      "outputs": [
        {
          "internalType": "bool",
          "name": "",
          "type": "bool"
        }
      ],
      "stateMutability": "view",
      "type": "function"
    },
    {
      "inputs": [],
      "name": "preBuySettings",
      "outputs": [
        {
          "internalType": "uint256",
          "name": "minDeposit",
          "type": "uint256"
        },
        {
          "internalType": "uint256",
          "name": "maxDeposit",
          "type": "uint256"
        },
        {
          "internalType": "uint256",
          "name": "totalCap",
          "type": "uint256"
        },
        {
          "internalType": "uint256",
          "name": "lockupDuration",
          "type": "uint256"
        },
        {
          "internalType": "uint256",
          "name": "vestingDuration",
          "type": "uint256"
        }
      ],
      "stateMutability": "view",
      "type": "function"
    },
    {
      "inputs": [
        {
          "internalType": "bytes32",
          "name": "role",
          "type": "bytes32"
        },
        {
          "internalType": "address",
          "name": "callerConfirmation",
          "type": "address"
        }
      ],
      "name": "renounceRole",
      "outputs": [],
      "stateMutability": "nonpayable",
      "type": "function"
    },
    {
      "inputs": [
        {
          "internalType": "bytes32",
          "name": "role",
          "type": "bytes32"
        },
        {
          "internalType": "address",
          "name": "account",
          "type": "address"
        }
      ],
      "name": "revokeRole",
      "outputs": [],
      "stateMutability": "nonpayable",
      "type": "function"
    },
    {
      "inputs": [],
      "name": "streme",
      "outputs": [
        {
          "internalType": "address",
          "name": "",
          "type": "address"
        }
      ],
      "stateMutability": "view",
      "type": "function"
    },
    {
      "inputs": [],
      "name": "stremeVault",
      "outputs": [
        {
          "internalType": "contract IStremeVault",
          "name": "",
          "type": "address"
        }
      ],
      "stateMutability": "view",
      "type": "function"
    },
    {
      "inputs": [
        {
          "internalType": "bytes4",
          "name": "interfaceId",
          "type": "bytes4"
        }
      ],
      "name": "supportsInterface",
      "outputs": [
        {
          "internalType": "bool",
          "name": "",
          "type": "bool"
        }
      ],
      "stateMutability": "view",
      "type": "function"
    },
    {
      "inputs": [],
      "name": "token",
      "outputs": [
        {
          "internalType": "address",
          "name": "",
          "type": "address"
        }
      ],
      "stateMutability": "view",
      "type": "function"
    },
    {
      "inputs": [],
      "name": "totalBalance",
      "outputs": [
        {
          "internalType": "uint256",
          "name": "",
          "type": "uint256"
        }
      ],
      "stateMutability": "view",
      "type": "function"
    },
    {
      "inputs": [],
      "name": "unpause",
      "outputs": [],
      "stateMutability": "nonpayable",
      "type": "function"
    },
    {
      "inputs": [
        {
          "internalType": "uint256",
          "name": "amount",
          "type": "uint256"
        }
      ],
      "name": "withdraw",
      "outputs": [],
      "stateMutability": "nonpayable",
      "type": "function"
    },
    {
      "inputs": [],
      "name": "zap",
      "outputs": [
        {
          "internalType": "contract IStremeZap",
          "name": "",
          "type": "address"
        }
      ],
      "stateMutability": "view",
      "type": "function"
    }
  ],
  "bytecode": "0x6080806040523460d2577ff0c57e16840df040f15088dc2f81fe391c3923bec73e23a9662efc9c229c6a005460ff8160401c1660c1576002600160401b03196001600160401b03821601605c575b604051611cc290816100d88239f35b6001600160401b0319166001600160401b039081177ff0c57e16840df040f15088dc2f81fe391c3923bec73e23a9662efc9c229c6a005581527fc7f505b2f371ae2175ee4913f4499e1f2633a7b5936321eed1cdaeb6115181d290602090a13880604d565b63f92ee8a960e01b60005260046000fd5b600080fdfe608080604052600436101561001357600080fd5b600090813560e01c90816301ffc9a71461143b57508063021a1abf1461140c57806302fb0c5e146113e65780631642469f146113a6578063248a9ca314611351578063262d6152146113225780632e1a7d4d146111f15780632f2ff15d1461119157806336568abe146111335780633e288e4614610c475780633f4ba83a14610b88578063543d1dad146107be5780635af8bf251461078f5780635c975abb1461074d57806370a08231146107265780638456cb591461068d57806391d1485414610621578063a217fddf14610605578063ad7a672f146105e9578063ce229707146104f9578063d0e30db014610338578063d1152a1c14610309578063d547741f146102a0578063e4b2fb791461025d578063ec87621c14610222578063ecd00261146101e7578063f851a440146101c0578063fc0c546a1461019a5763fc7e286d1461016057600080fd5b346101975760206003193601126101975760406020916001600160a01b0361018661150c565b168152600783522054604051908152f35b80fd5b50346101975780600319360112610197576001600160a01b036020915416604051908152f35b503461019757806003193601126101975760206001600160a01b0360065416604051908152f35b503461019757806003193601126101975760206040517ffc425f2263d0df187444b70e47283d622c70181c5baebb1306a01edba1ce184c8152f35b503461019757806003193601126101975760206040517f241ecf16d79d0f8dbfb92cbc07fe17840425976cf0667f022fe9877caa831b088152f35b503461019757602060031936011261019757600435906008548210156101975760206001600160a01b03610290846115a1565b90549060031b1c16604051908152f35b5034610197576040600319360112610197576103056004356102c06114db565b906103006102fb826000527f02dd7bc7dec4dceedda775e58dd541e08a116c6c53815c0bd028192f7b62680060205260016040600020015490565b611731565b611b11565b5080f35b5034610197578060031936011261019757602060405173da902c1f73160dade69ab3c3355110442359eb708152f35b50806003193601126101975761034c611bde565b60015434106104b557600254341161047157338152600760205260408120541561041b575b338152600760205260408120805490348201809211610407575547600354106103c3576040513481527fe1fffcc4923d04b559f4d29a8bfc6cda04eb5b0d3c460751c2402c5c5cc9109c60203392a280f35b606460405162461bcd60e51b815260206004820152601260248201527f546f74616c2063617020657863656564656400000000000000000000000000006044820152fd5b602483634e487b7160e01b81526011600452fd5b6008546801000000000000000081101561045d5780600161043f92016008556115a1565b81549060031b906001600160a01b0333831b921b1916179055610371565b602482634e487b7160e01b81526041600452fd5b606460405162461bcd60e51b815260206004820152601d60248201527f416d6f756e74206d757374206265206c7465206d61784465706f7369740000006044820152fd5b606460405162461bcd60e51b815260206004820152601d60248201527f416d6f756e74206d75737420626520677465206d696e4465706f7369740000006044820152fd5b50346101975780600319360112610197576008549061051782611635565b91815b8181106105945750506040519161053b836105348161167a565b0384611522565b60405191604083016040845284518091526020606085019501915b8181106105755784806105718887838203602085015261155b565b0390f35b82516001600160a01b0316865260209586019590920191600101610556565b806001600160a01b036105a86001936115a1565b90549060031b1c16845260076020526fffffffffffffffffffffffffffffffff670de0b6b3a7640000604086205404166105e28287611666565b520161051a565b5034610197578060031936011261019757602047604051908152f35b5034610197578060031936011261019757602090604051908152f35b5034610197576040600319360112610197576001600160a01b0360406106456114db565b9260043581527f02dd7bc7dec4dceedda775e58dd541e08a116c6c53815c0bd028192f7b626800602052209116600052602052602060ff604060002054166040519015158152f35b50346101975780600319360112610197576106a66116bf565b6106ae611bde565b600160ff197fcd5ed15c6e187e77e9aee88184c21f4f2182ab5827cb3b7e07fbedcd63f033005416177fcd5ed15c6e187e77e9aee88184c21f4f2182ab5827cb3b7e07fbedcd63f03300557f62e78cea01bee320cd4e420270b5ea74000d11b0c9f74754ebdbfc544b05a2586020604051338152a180f35b50346101975760206003193601126101975760406020916001600160a01b0361018661150c565b5034610197578060031936011261019757602060ff7fcd5ed15c6e187e77e9aee88184c21f4f2182ab5827cb3b7e07fbedcd63f0330054166040519015158152f35b50346101975780600319360112610197576020604051736da13bde224a05a288748d857b9e7ddeffd1de088152f35b50346101975760e0600319360112610197576107d861150c565b9060a07fffffffffffffffffffffffffffffffffffffffffffffffffffffffffffffffdc3601126101975760405160a0810181811067ffffffffffffffff821117610b74576040526024358152602081016044358152604082016064358152606083016084358152608084019160a435835260c435936001600160a01b038516809503610b70577ff0c57e16840df040f15088dc2f81fe391c3923bec73e23a9662efc9c229c6a00549560ff8760401c16159667ffffffffffffffff811680159081610b68575b6001149081610b5e575b159081610b55575b50610b2d57879899816109df9960017fffffffffffffffffffffffffffffffffffffffffffffffff00000000000000006001600160a01b039516177ff0c57e16840df040f15088dc2f81fe391c3923bec73e23a9662efc9c229c6a0055610ad8575b5061091c611c33565b610924611c33565b61092c611c33565b60ff197fcd5ed15c6e187e77e9aee88184c21f4f2182ab5827cb3b7e07fbedcd63f0330054167fcd5ed15c6e187e77e9aee88184c21f4f2182ab5827cb3b7e07fbedcd63f0330055167fffffffffffffffffffffffff00000000000000000000000000000000000000008a54161789555160015551600255516003555160045551600555807fffffffffffffffffffffffff00000000000000000000000000000000000000006006541617600655611797565b506109f46001600160a01b0360065416611849565b506109fd611917565b50740100000000000000000000000000000000000000007fffffffffffffffffffffff00ffffffffffffffffffffffffffffffffffffffff6006541617600655610a445780f35b7fffffffffffffffffffffffffffffffffffffffffffffff00ffffffffffffffff7ff0c57e16840df040f15088dc2f81fe391c3923bec73e23a9662efc9c229c6a0054167ff0c57e16840df040f15088dc2f81fe391c3923bec73e23a9662efc9c229c6a00557fc7f505b2f371ae2175ee4913f4499e1f2633a7b5936321eed1cdaeb6115181d2602060405160018152a180f35b7fffffffffffffffffffffffffffffffffffffffffffffff0000000000000000001668010000000000000001177ff0c57e16840df040f15088dc2f81fe391c3923bec73e23a9662efc9c229c6a005538610913565b6004897ff92ee8a9000000000000000000000000000000000000000000000000000000008152fd5b905015386108b1565b303b1591506108a9565b89915061089f565b8680fd5b602483634e487b7160e01b81526041600452fd5b5034610197578060031936011261019757610ba16116bf565b7fcd5ed15c6e187e77e9aee88184c21f4f2182ab5827cb3b7e07fbedcd63f033005460ff811615610c1f5760ff19167fcd5ed15c6e187e77e9aee88184c21f4f2182ab5827cb3b7e07fbedcd63f03300557f5db9ee0a495bf2e6ff9c91a7834c1ba4fdd244a5e8aa4e537bd38aeae4b073aa6020604051338152a180f35b6004827f8dfc202b000000000000000000000000000000000000000000000000000000008152fd5b506060600319360112610197576004356001600160a01b03811680910361106757610c706114db565b50610c796114f6565b507ffc425f2263d0df187444b70e47283d622c70181c5baebb1306a01edba1ce184c82527f02dd7bc7dec4dceedda775e58dd541e08a116c6c53815c0bd028192f7b626800602052604082206001600160a01b033316835260205260ff604083205416156110fc57600654610cf360ff8260a01c166115d2565b6001600160a01b0383541682036110b8577fffffffffffffffffffffff00ffffffffffffffffffffffffffffffffffffffff1660065547604051927fb60347a3000000000000000000000000000000000000000000000000000000008452826004850152816024850152806044850152806064850152602084608481857316a97d6924ff246dd57eb78ae993f91c23422f255af19384156110ab578194611073575b50604051937f70a08231000000000000000000000000000000000000000000000000000000008552306004860152602085602481875afa948515610fdc57829561103b575b508410610ff75760045460055473da902c1f73160dade69ab3c3355110442359eb703b15610fd857604051917fdd83514e00000000000000000000000000000000000000000000000000000000835285600484015230602484015286604484015260648301526084820152818160a4818373da902c1f73160dade69ab3c3355110442359eb705af18015610fdc57610fe7575b5090610e7a600854611635565b93825b600854811015610eea57806001600160a01b03610e9b6001936115a1565b90549060031b1c1680865260076020526fffffffffffffffffffffffffffffffff670de0b6b3a764000060408820540416610ed6838a611666565b528552600760205284604081205501610e7d565b5082858573da902c1f73160dade69ab3c3355110442359eb703b15610fd857610f6a91839160405193849283927fb0e3fe74000000000000000000000000000000000000000000000000000000008452600484015230602484015260806044840152610f586084840161167a565b9060031984830301606485015261155b565b03818373da902c1f73160dade69ab3c3355110442359eb705af18015610fdc57610fc3575b507fa309b3f065b3593ee9ba1f429e382069e2170dacdf1d99fa25fc8358fb12a8a46040848482519182526020820152a180f35b81610fcd91611522565b610fd8578284610f8f565b8280fd5b6040513d84823e3d90fd5b81610ff191611522565b38610e6d565b606460405162461bcd60e51b815260206004820152601c60248201527f496e73756666696369656e7420746f6b656e73207265636569766564000000006044820152fd5b9094506020813d60201161106b575b8161105760209383611522565b8101031261106757519338610dda565b5080fd5b3d915061104a565b9093506020813d6020116110a3575b8161108f60209383611522565b8101031261109f57519238610d95565b8380fd5b3d9150611082565b50604051903d90823e3d90fd5b606460405162461bcd60e51b815260206004820152600b60248201527f77726f6e6720746f6b656e0000000000000000000000000000000000000000006044820152fd5b60448263e2517d3f60e01b8152336004527ffc425f2263d0df187444b70e47283d622c70181c5baebb1306a01edba1ce184c602452fd5b50346101975760406003193601126101975761114d6114db565b336001600160a01b038216036111695761030590600435611b11565b6004827f6697b232000000000000000000000000000000000000000000000000000000008152fd5b5034610197576040600319360112610197576103056004356111b16114db565b906111ec6102fb826000527f02dd7bc7dec4dceedda775e58dd541e08a116c6c53815c0bd028192f7b62680060205260016040600020015490565b611a39565b50346101975760206003193601126101975760043561121760ff60065460a01c166115d2565b80156112de5733825260076020528060408320541061129a57338252600760205260408220805490828203918211611286575581808080843382f1156110ab576040519081527f884edad9ce6fa2440d8a54cc123490eb96d2768479d49ff9c7366125a942436460203392a280f35b602484634e487b7160e01b81526011600452fd5b606460405162461bcd60e51b815260206004820152601460248201527f496e73756666696369656e742062616c616e63650000000000000000000000006044820152fd5b606460405162461bcd60e51b815260206004820152602060248201527f416d6f756e74206d7573742062652067726561746572207468616e207a65726f6044820152fd5b503461019757806003193601126101975760206040517316a97d6924ff246dd57eb78ae993f91c23422f258152f35b503461019757602060031936011261019757602061139e6004356000527f02dd7bc7dec4dceedda775e58dd541e08a116c6c53815c0bd028192f7b62680060205260016040600020015490565b604051908152f35b503461019757806003193601126101975760a060015460025460035460045490600554926040519485526020850152604084015260608301526080820152f35b5034610197578060031936011261019757602060ff60065460a01c166040519015158152f35b50346101975780600319360112610197576020604051735797a398fe34260f81be65908da364cc18fbc3608152f35b905034611067576020600319360112611067576004357fffffffff000000000000000000000000000000000000000000000000000000008116809103610fd857602092507f7965db0b0000000000000000000000000000000000000000000000000000000081149081156114b1575b5015158152f35b7f01ffc9a700000000000000000000000000000000000000000000000000000000915014386114aa565b602435906001600160a01b03821682036114f157565b600080fd5b604435906001600160a01b03821682036114f157565b600435906001600160a01b03821682036114f157565b90601f601f19910116810190811067ffffffffffffffff82111761154557604052565b634e487b7160e01b600052604160045260246000fd5b906020808351928381520192019060005b8181106115795750505090565b82516fffffffffffffffffffffffffffffffff1684526020938401939092019160010161156c565b6008548110156115bc57600860005260206000200190600090565b634e487b7160e01b600052603260045260246000fd5b156115d957565b606460405162461bcd60e51b815260206004820152601560248201527f5072652d627579206973206e6f742061637469766500000000000000000000006044820152fd5b67ffffffffffffffff81116115455760051b60200190565b9061163f8261161d565b61164c6040519182611522565b828152601f1961165c829461161d565b0190602036910137565b80518210156115bc5760209160051b010190565b6020600854918281520190600860005260206000209060005b8181106116a05750505090565b82546001600160a01b0316845260209093019260019283019201611693565b3360009081527f06484cc59dc38e4f67c31122333a17ca81b3ca18cdf02bfc298072fa52b0316a602052604090205460ff16156116f857565b63e2517d3f60e01b600052336004527f241ecf16d79d0f8dbfb92cbc07fe17840425976cf0667f022fe9877caa831b0860245260446000fd5b806000527f02dd7bc7dec4dceedda775e58dd541e08a116c6c53815c0bd028192f7b62680060205260406000206001600160a01b03331660005260205260ff604060002054161561177f5750565b63e2517d3f60e01b6000523360045260245260446000fd5b6001600160a01b03811660009081527fb7db2dd08fcb62d0c9e08c51941cae53c267786a0b75803fb7960902fc8ef97d602052604090205460ff16611843576001600160a01b031660008181527fb7db2dd08fcb62d0c9e08c51941cae53c267786a0b75803fb7960902fc8ef97d60205260408120805460ff191660011790553391907f2f8788117e7eff1d82e926ec794901d17c78024a50270940304540a733656f0d8180a4600190565b50600090565b6001600160a01b03811660009081527f06484cc59dc38e4f67c31122333a17ca81b3ca18cdf02bfc298072fa52b0316a602052604090205460ff16611843576001600160a01b031660008181527f06484cc59dc38e4f67c31122333a17ca81b3ca18cdf02bfc298072fa52b0316a60205260408120805460ff191660011790553391907f241ecf16d79d0f8dbfb92cbc07fe17840425976cf0667f022fe9877caa831b08907f2f8788117e7eff1d82e926ec794901d17c78024a50270940304540a733656f0d9080a4600190565b735797a398fe34260f81be65908da364cc18fbc3606000527f8f7e9a8734279607aeaac474f24949ddc99eae25c0da72edcf5ad21022be2c9e6020527f63e82417b1fc8b7e394cc603710271e4772d773e2d24abc6d071ba5f093946865460ff16611a3457735797a398fe34260f81be65908da364cc18fbc36060008181527f8f7e9a8734279607aeaac474f24949ddc99eae25c0da72edcf5ad21022be2c9e6020527f63e82417b1fc8b7e394cc603710271e4772d773e2d24abc6d071ba5f09394686805460ff191660011790553391907ffc425f2263d0df187444b70e47283d622c70181c5baebb1306a01edba1ce184c907f2f8788117e7eff1d82e926ec794901d17c78024a50270940304540a733656f0d9080a4600190565b600090565b806000527f02dd7bc7dec4dceedda775e58dd541e08a116c6c53815c0bd028192f7b62680060205260406000206001600160a01b03831660005260205260ff6040600020541615600014611b0a57806000527f02dd7bc7dec4dceedda775e58dd541e08a116c6c53815c0bd028192f7b62680060205260406000206001600160a01b0383166000526020526040600020600160ff198254161790556001600160a01b03339216907f2f8788117e7eff1d82e926ec794901d17c78024a50270940304540a733656f0d600080a4600190565b5050600090565b806000527f02dd7bc7dec4dceedda775e58dd541e08a116c6c53815c0bd028192f7b62680060205260406000206001600160a01b03831660005260205260ff60406000205416600014611b0a57806000527f02dd7bc7dec4dceedda775e58dd541e08a116c6c53815c0bd028192f7b62680060205260406000206001600160a01b038316600052602052604060002060ff1981541690556001600160a01b03339216907ff6391f5c32d9c69d2a47ea670b442974b53935d1edc7fd64eb21e047a839171b600080a4600190565b60ff7fcd5ed15c6e187e77e9aee88184c21f4f2182ab5827cb3b7e07fbedcd63f033005416611c0957565b7fd93c06650000000000000000000000000000000000000000000000000000000060005260046000fd5b60ff7ff0c57e16840df040f15088dc2f81fe391c3923bec73e23a9662efc9c229c6a005460401c1615611c6257565b7fd7e6bcf80000000000000000000000000000000000000000000000000000000060005260046000fdfea2646970667358221220ad1350dba39c4f1908ed6e74de22a8482ccc51abde7689a7e8fe392210f78ed564736f6c634300081a0033",
  "linkReferences": {},
  "deployedLinkReferences": {}
}