{
  "_format": "hh-sol-artifact-1",
  "contractName": "StremePreBuyETH",
  "sourceName": "contracts/postlp/prebuy/StremePreBuyETH.sol",
  "abi": [
    {
      "inputs": [],
      "stateMutability": "nonpayable",
      "type": "constructor"
    },
    {
      "inputs": [],
      "name": "AccessControlBadConfirmation",
      "type": "error"
    },
    {
      "inputs": [
        {
          "internalType": "address",
          "name": "account",
          "type": "address"
        },
        {
          "internalType": "bytes32",
          "name": "neededRole",
          "type": "bytes32"
        }
      ],
      "name": "AccessControlUnauthorizedAccount",
      "type": "error"
    },
    {
      "inputs": [],
      "name": "EnforcedPause",
      "type": "error"
    },
    {
      "inputs": [],
      "name": "ExpectedPause",
      "type": "error"
    },
    {
      "inputs": [],
      "name": "InvalidInitialization",
      "type": "error"
    },
    {
      "inputs": [],
      "name": "NotInitializing",
      "type": "error"
    },
    {
      "anonymous": false,
      "inputs": [
        {
          "indexed": true,
          "internalType": "address",
          "name": "user",
          "type": "address"
        },
        {
          "indexed": false,
          "internalType": "uint256",
          "name": "amount",
          "type": "uint256"
        }
      ],
      "name": "Deposit",
      "type": "event"
    },
    {
      "anonymous": false,
      "inputs": [
        {
          "indexed": false,
          "internalType": "uint64",
          "name": "version",
          "type": "uint64"
        }
      ],
      "name": "Initialized",
      "type": "event"
    },
    {
      "anonymous": false,
      "inputs": [
        {
          "indexed": false,
          "internalType": "address",
          "name": "account",
          "type": "address"
        }
      ],
      "name": "Paused",
      "type": "event"
    },
    {
      "anonymous": false,
      "inputs": [
        {
          "indexed": false,
          "internalType": "uint256",
          "name": "totalETH",
          "type": "uint256"
        },
        {
          "indexed": false,
          "internalType": "uint256",
          "name": "totalTokens",
          "type": "uint256"
        }
      ],
      "name": "PreBuyFinalized",
      "type": "event"
    },
    {
      "anonymous": false,
      "inputs": [
        {
          "indexed": true,
          "internalType": "bytes32",
          "name": "role",
          "type": "bytes32"
        },
        {
          "indexed": true,
          "internalType": "bytes32",
          "name": "previousAdminRole",
          "type": "bytes32"
        },
        {
          "indexed": true,
          "internalType": "bytes32",
          "name": "newAdminRole",
          "type": "bytes32"
        }
      ],
      "name": "RoleAdminChanged",
      "type": "event"
    },
    {
      "anonymous": false,
      "inputs": [
        {
          "indexed": true,
          "internalType": "bytes32",
          "name": "role",
          "type": "bytes32"
        },
        {
          "indexed": true,
          "internalType": "address",
          "name": "account",
          "type": "address"
        },
        {
          "indexed": true,
          "internalType": "address",
          "name": "sender",
          "type": "address"
        }
      ],
      "name": "RoleGranted",
      "type": "event"
    },
    {
      "anonymous": false,
      "inputs": [
        {
          "indexed": true,
          "internalType": "bytes32",
          "name": "role",
          "type": "bytes32"
        },
        {
          "indexed": true,
          "internalType": "address",
          "name": "account",
          "type": "address"
        },
        {
          "indexed": true,
          "internalType": "address",
          "name": "sender",
          "type": "address"
        }
      ],
      "name": "RoleRevoked",
      "type": "event"
    },
    {
      "anonymous": false,
      "inputs": [
        {
          "indexed": false,
          "internalType": "address",
          "name": "account",
          "type": "address"
        }
      ],
      "name": "Unpaused",
      "type": "event"
    },
    {
      "anonymous": false,
      "inputs": [
        {
          "indexed": true,
          "internalType": "address",
          "name": "user",
          "type": "address"
        },
        {
          "indexed": false,
          "internalType": "uint256",
          "name": "amount",
          "type": "uint256"
        }
      ],
      "name": "Withdraw",
      "type": "event"
    },
    {
      "inputs": [],
      "name": "DEFAULT_ADMIN_ROLE",
      "outputs": [
        {
          "internalType": "bytes32",
          "name": "",
          "type": "bytes32"
        }
      ],
      "stateMutability": "view",
      "type": "function"
    },
    {
      "inputs": [],
      "name": "DEPLOYER_ROLE",
      "outputs": [
        {
          "internalType": "bytes32",
          "name": "",
          "type": "bytes32"
        }
      ],
      "stateMutability": "view",
      "type": "function"
    },
    {
      "inputs": [],
      "name": "MANAGER_ROLE",
      "outputs": [
        {
          "internalType": "bytes32",
          "name": "",
          "type": "bytes32"
        }
      ],
      "stateMutability": "view",
      "type": "function"
    },
    {
      "inputs": [],
      "name": "active",
      "outputs": [
        {
          "internalType": "bool",
          "name": "",
          "type": "bool"
        }
      ],
      "stateMutability": "view",
      "type": "function"
    },
    {
      "inputs": [],
      "name": "admin",
      "outputs": [
        {
          "internalType": "address",
          "name": "",
          "type": "address"
        }
      ],
      "stateMutability": "view",
      "type": "function"
    },
    {
      "inputs": [
        {
          "internalType": "address",
          "name": "user",
          "type": "address"
        }
      ],
      "name": "balanceOf",
      "outputs": [
        {
          "internalType": "uint256",
          "name": "",
          "type": "uint256"
        }
      ],
      "stateMutability": "view",
      "type": "function"
    },
    {
      "inputs": [],
      "name": "deposit",
      "outputs": [],
      "stateMutability": "payable",
      "type": "function"
    },
    {
      "inputs": [
        {
          "internalType": "uint256",
          "name": "",
          "type": "uint256"
        }
      ],
      "name": "depositors",
      "outputs": [
        {
          "internalType": "address",
          "name": "",
          "type": "address"
        }
      ],
      "stateMutability": "view",
      "type": "function"
    },
    {
      "inputs": [
        {
          "internalType": "address",
          "name": "",
          "type": "address"
        }
      ],
      "name": "deposits",
      "outputs": [
        {
          "internalType": "uint256",
          "name": "",
          "type": "uint256"
        }
      ],
      "stateMutability": "view",
      "type": "function"
    },
    {
      "inputs": [
        {
          "internalType": "uint256",
          "name": "offset",
          "type": "uint256"
        },
        {
          "internalType": "uint256",
          "name": "limit",
          "type": "uint256"
        }
      ],
      "name": "distributeShares",
      "outputs": [],
      "stateMutability": "nonpayable",
      "type": "function"
    },
    {
      "inputs": [],
      "name": "gdaForwarder",
      "outputs": [
        {
          "internalType": "contract IGDAv1Forwarder",
          "name": "",
          "type": "address"
        }
      ],
      "stateMutability": "view",
      "type": "function"
    },
    {
      "inputs": [
        {
          "internalType": "uint256",
          "name": "_offset",
          "type": "uint256"
        },
        {
          "internalType": "uint256",
          "name": "_limit",
          "type": "uint256"
        }
      ],
      "name": "getPaginatedItems",
      "outputs": [
        {
          "internalType": "address[]",
          "name": "",
          "type": "address[]"
        }
      ],
      "stateMutability": "view",
      "type": "function"
    },
    {
      "inputs": [
        {
          "internalType": "bytes32",
          "name": "role",
          "type": "bytes32"
        }
      ],
      "name": "getRoleAdmin",
      "outputs": [
        {
          "internalType": "bytes32",
          "name": "",
          "type": "bytes32"
        }
      ],
      "stateMutability": "view",
      "type": "function"
    },
    {
      "inputs": [
        {
          "internalType": "bytes32",
          "name": "role",
          "type": "bytes32"
        },
        {
          "internalType": "address",
          "name": "account",
          "type": "address"
        }
      ],
      "name": "grantRole",
      "outputs": [],
      "stateMutability": "nonpayable",
      "type": "function"
    },
    {
      "inputs": [
        {
          "internalType": "bytes32",
          "name": "role",
          "type": "bytes32"
        },
        {
          "internalType": "address",
          "name": "account",
          "type": "address"
        }
      ],
      "name": "hasRole",
      "outputs": [
        {
          "internalType": "bool",
          "name": "",
          "type": "bool"
        }
      ],
      "stateMutability": "view",
      "type": "function"
    },
    {
      "inputs": [
        {
          "internalType": "contract IERC20",
          "name": "stremeCoin",
          "type": "address"
        },
        {
          "internalType": "address",
          "name": "pairedToken",
          "type": "address"
        },
        {
          "internalType": "address",
          "name": "deployer",
          "type": "address"
        }
      ],
      "name": "hook",
      "outputs": [],
      "stateMutability": "payable",
      "type": "function"
    },
    {
      "inputs": [
        {
          "internalType": "address",
          "name": "_token",
          "type": "address"
        },
        {
          "components": [
            {
              "internalType": "uint256",
              "name": "minDeposit",
              "type": "uint256"
            },
            {
              "internalType": "uint256",
              "name": "maxDeposit",
              "type": "uint256"
            },
            {
              "internalType": "uint256",
              "name": "totalCap",
              "type": "uint256"
            },
            {
              "internalType": "uint256",
              "name": "lockupDuration",
              "type": "uint256"
            },
            {
              "internalType": "uint256",
              "name": "vestingDuration",
              "type": "uint256"
            }
          ],
          "internalType": "struct StremePreBuyETH.PreBuySettings",
          "name": "_preBuySettings",
          "type": "tuple"
        },
        {
          "internalType": "address",
          "name": "_admin",
          "type": "address"
        }
      ],
      "name": "initialize",
      "outputs": [],
      "stateMutability": "nonpayable",
      "type": "function"
    },
    {
      "inputs": [],
      "name": "membersWithUnits",
      "outputs": [
        {
          "internalType": "address[]",
          "name": "",
          "type": "address[]"
        },
        {
          "internalType": "uint128[]",
          "name": "units",
          "type": "uint128[]"
        }
      ],
      "stateMutability": "view",
      "type": "function"
    },
    {
      "inputs": [],
      "name": "pause",
      "outputs": [],
      "stateMutability": "nonpayable",
      "type": "function"
    },
    {
      "inputs": [],
      "name": "paused",
      "outputs": [
        {
          "internalType": "bool",
          "name": "",
          "type": "bool"
        }
      ],
      "stateMutability": "view",
      "type": "function"
    },
    {
      "inputs": [],
      "name": "preBuySettings",
      "outputs": [
        {
          "internalType": "uint256",
          "name": "minDeposit",
          "type": "uint256"
        },
        {
          "internalType": "uint256",
          "name": "maxDeposit",
          "type": "uint256"
        },
        {
          "internalType": "uint256",
          "name": "totalCap",
          "type": "uint256"
        },
        {
          "internalType": "uint256",
          "name": "lockupDuration",
          "type": "uint256"
        },
        {
          "internalType": "uint256",
          "name": "vestingDuration",
          "type": "uint256"
        }
      ],
      "stateMutability": "view",
      "type": "function"
    },
    {
      "inputs": [
        {
          "internalType": "bytes32",
          "name": "role",
          "type": "bytes32"
        },
        {
          "internalType": "address",
          "name": "callerConfirmation",
          "type": "address"
        }
      ],
      "name": "renounceRole",
      "outputs": [],
      "stateMutability": "nonpayable",
      "type": "function"
    },
    {
      "inputs": [
        {
          "internalType": "bytes32",
          "name": "role",
          "type": "bytes32"
        },
        {
          "internalType": "address",
          "name": "account",
          "type": "address"
        }
      ],
      "name": "revokeRole",
      "outputs": [],
      "stateMutability": "nonpayable",
      "type": "function"
    },
    {
      "inputs": [],
      "name": "streme",
      "outputs": [
        {
          "internalType": "address",
          "name": "",
          "type": "address"
        }
      ],
      "stateMutability": "view",
      "type": "function"
    },
    {
      "inputs": [],
      "name": "stremeVault",
      "outputs": [
        {
          "internalType": "contract IStremeVault",
          "name": "",
          "type": "address"
        }
      ],
      "stateMutability": "view",
      "type": "function"
    },
    {
      "inputs": [
        {
          "internalType": "bytes4",
          "name": "interfaceId",
          "type": "bytes4"
        }
      ],
      "name": "supportsInterface",
      "outputs": [
        {
          "internalType": "bool",
          "name": "",
          "type": "bool"
        }
      ],
      "stateMutability": "view",
      "type": "function"
    },
    {
      "inputs": [],
      "name": "token",
      "outputs": [
        {
          "internalType": "address",
          "name": "",
          "type": "address"
        }
      ],
      "stateMutability": "view",
      "type": "function"
    },
    {
      "inputs": [],
      "name": "totalBalance",
      "outputs": [
        {
          "internalType": "uint256",
          "name": "",
          "type": "uint256"
        }
      ],
      "stateMutability": "view",
      "type": "function"
    },
    {
      "inputs": [],
      "name": "totalMembers",
      "outputs": [
        {
          "internalType": "uint256",
          "name": "",
          "type": "uint256"
        }
      ],
      "stateMutability": "view",
      "type": "function"
    },
    {
      "inputs": [],
      "name": "unpause",
      "outputs": [],
      "stateMutability": "nonpayable",
      "type": "function"
    },
    {
      "inputs": [
        {
          "internalType": "uint256",
          "name": "amount",
          "type": "uint256"
        }
      ],
      "name": "withdraw",
      "outputs": [],
      "stateMutability": "nonpayable",
      "type": "function"
    },
    {
      "inputs": [],
      "name": "zap",
      "outputs": [
        {
          "internalType": "contract IStremeZap",
          "name": "",
          "type": "address"
        }
      ],
      "stateMutability": "view",
      "type": "function"
    }
  ],
  "bytecode": "0x6080806040523460d2577ff0c57e16840df040f15088dc2f81fe391c3923bec73e23a9662efc9c229c6a005460ff8160401c1660c1576002600160401b03196001600160401b03821601605c575b60405161234d90816100d88239f35b6001600160401b0319166001600160401b039081177ff0c57e16840df040f15088dc2f81fe391c3923bec73e23a9662efc9c229c6a005581527fc7f505b2f371ae2175ee4913f4499e1f2633a7b5936321eed1cdaeb6115181d290602090a13880604d565b63f92ee8a960e01b60005260046000fd5b600080fdfe608080604052600436101561001357600080fd5b600090813560e01c90816301ffc9a71461199057508063021a1abf1461196157806302fb0c5e1461193b5780631642469f146118fb578063248a9ca3146118a657806325f4914814611877578063262d6152146118485780632e1a7d4d146115885780632f2ff15d1461152857806336568abe146114ca5780633e288e4614610e955780633f4ba83a14610dd65780634331d20114610bd1578063543d1dad146108075780635af8bf25146107d85780635c975abb1461079657806370a082311461076f57806376e92559146107515780638456cb59146106b857806391d148541461064c578063a217fddf14610630578063ad7a672f14610614578063ce2297071461050d578063d0e30db014610359578063d1152a1c1461032a578063d547741f146102c1578063e4b2fb791461027e578063ec87621c14610243578063ecd0026114610208578063f851a440146101e1578063fc0c546a146101bb5763fc7e286d1461018157600080fd5b346101b85760206003193601126101b85760406020916001600160a01b036101a7611ab4565b168152600783522054604051908152f35b80fd5b50346101b857806003193601126101b8576001600160a01b036020915416604051908152f35b50346101b857806003193601126101b85760206001600160a01b0360065416604051908152f35b50346101b857806003193601126101b85760206040517ffc425f2263d0df187444b70e47283d622c70181c5baebb1306a01edba1ce184c8152f35b50346101b857806003193601126101b85760206040517f241ecf16d79d0f8dbfb92cbc07fe17840425976cf0667f022fe9877caa831b088152f35b50346101b85760206003193601126101b857600435906008548210156101b85760206001600160a01b036102b184611b49565b90549060031b1c16604051908152f35b50346101b85760406003193601126101b8576103266004356102e1611a88565b9061032161031c826000527f02dd7bc7dec4dceedda775e58dd541e08a116c6c53815c0bd028192f7b62680060205260016040600020015490565b611dbc565b61219c565b5080f35b50346101b857806003193601126101b857602060405173da902c1f73160dade69ab3c3355110442359eb708152f35b50806003193601126101b85761036d612269565b60015434106104c9576002543411610485573381526007602052604081205415610427575b3381526007602052604081206103a9348254611b7a565b905547600354106103e3576040513481527fe1fffcc4923d04b559f4d29a8bfc6cda04eb5b0d3c460751c2402c5c5cc9109c60203392a280f35b606460405162461bcd60e51b815260206004820152601260248201527f546f74616c2063617020657863656564656400000000000000000000000000006044820152fd5b600854680100000000000000008110156104715761044e81600161046c9301600855611b49565b33906001600160a01b038084549260031b9316831b921b1916179055565b610392565b602482634e487b7160e01b81526041600452fd5b606460405162461bcd60e51b815260206004820152601d60248201527f416d6f756e74206d757374206265206c7465206d61784465706f7369740000006044820152fd5b606460405162461bcd60e51b815260206004820152601d60248201527f416d6f756e74206d75737420626520677465206d696e4465706f7369740000006044820152fd5b50346101b857806003193601126101b85760085461052a81611d19565b91805b8281106105c9575090604051916020838381520191600882527ff3f7a9fe364faab93b216da50a3214154f22a0a2b415b23a84c8169e8b636ee3915b8181106105aa57610598856105a68861058483890384611aca565b604051938493604085526040850190611a4b565b908382036020850152611b03565b0390f35b82546001600160a01b0316845260209093019260019283019201610569565b806001600160a01b036105dd600193611b49565b90549060031b1c16835260076020526fffffffffffffffffffffffffffffffff60408420541661060d8287611bc2565b520161052d565b50346101b857806003193601126101b857602047604051908152f35b50346101b857806003193601126101b857602090604051908152f35b50346101b85760406003193601126101b8576001600160a01b036040610670611a88565b9260043581527f02dd7bc7dec4dceedda775e58dd541e08a116c6c53815c0bd028192f7b626800602052209116600052602052602060ff604060002054166040519015158152f35b50346101b857806003193601126101b8576106d1611d4a565b6106d9612269565b600160ff197fcd5ed15c6e187e77e9aee88184c21f4f2182ab5827cb3b7e07fbedcd63f033005416177fcd5ed15c6e187e77e9aee88184c21f4f2182ab5827cb3b7e07fbedcd63f03300557f62e78cea01bee320cd4e420270b5ea74000d11b0c9f74754ebdbfc544b05a2586020604051338152a180f35b50346101b857806003193601126101b8576020600854604051908152f35b50346101b85760206003193601126101b85760406020916001600160a01b036101a7611ab4565b50346101b857806003193601126101b857602060ff7fcd5ed15c6e187e77e9aee88184c21f4f2182ab5827cb3b7e07fbedcd63f0330054166040519015158152f35b50346101b857806003193601126101b8576020604051736da13bde224a05a288748d857b9e7ddeffd1de088152f35b50346101b85760e06003193601126101b857610821611ab4565b9060a07fffffffffffffffffffffffffffffffffffffffffffffffffffffffffffffffdc3601126101b85760405160a0810181811067ffffffffffffffff821117610bbd576040526024358152602081016044358152604082016064358152606083016084358152608084019160a435835260c435936001600160a01b038516809503610bb9577ff0c57e16840df040f15088dc2f81fe391c3923bec73e23a9662efc9c229c6a00549560ff8760401c16159667ffffffffffffffff811680159081610bb1575b6001149081610ba7575b159081610b9e575b50610b765787989981610a289960017fffffffffffffffffffffffffffffffffffffffffffffffff00000000000000006001600160a01b039516177ff0c57e16840df040f15088dc2f81fe391c3923bec73e23a9662efc9c229c6a0055610b21575b506109656122be565b61096d6122be565b6109756122be565b60ff197fcd5ed15c6e187e77e9aee88184c21f4f2182ab5827cb3b7e07fbedcd63f0330054167fcd5ed15c6e187e77e9aee88184c21f4f2182ab5827cb3b7e07fbedcd63f0330055167fffffffffffffffffffffffff00000000000000000000000000000000000000008a54161789555160015551600255516003555160045551600555807fffffffffffffffffffffffff00000000000000000000000000000000000000006006541617600655611e22565b50610a3d6001600160a01b0360065416611ed4565b50610a46611fa2565b50740100000000000000000000000000000000000000007fffffffffffffffffffffff00ffffffffffffffffffffffffffffffffffffffff6006541617600655610a8d5780f35b7fffffffffffffffffffffffffffffffffffffffffffffff00ffffffffffffffff7ff0c57e16840df040f15088dc2f81fe391c3923bec73e23a9662efc9c229c6a0054167ff0c57e16840df040f15088dc2f81fe391c3923bec73e23a9662efc9c229c6a00557fc7f505b2f371ae2175ee4913f4499e1f2633a7b5936321eed1cdaeb6115181d2602060405160018152a180f35b7fffffffffffffffffffffffffffffffffffffffffffffff0000000000000000001668010000000000000001177ff0c57e16840df040f15088dc2f81fe391c3923bec73e23a9662efc9c229c6a00553861095c565b6004897ff92ee8a9000000000000000000000000000000000000000000000000000000008152fd5b905015386108fa565b303b1591506108f2565b8991506108e8565b8680fd5b602483634e487b7160e01b81526041600452fd5b50346101b857610bf1610be336611a30565b90610bec611d4a565b611bd6565b90610bfc8251611d19565b90805b8351811015610c5c57806001600160a01b03610c1d60019387611bc2565b511680845260076020526fffffffffffffffffffffffffffffffff604085205416610c488387611bc2565b528352600760205282604081205501610bff565b509182916001600160a01b038354169173da902c1f73160dade69ab3c3355110442359eb703b15610dd157610cd792610ce9859360405195869485947fb0e3fe740000000000000000000000000000000000000000000000000000000086526004860152306024860152608060448601526084850190611a4b565b90600319848303016064850152611b03565b03818373da902c1f73160dade69ab3c3355110442359eb705af18015610dae57610dbc575b506001600160a01b0381541673da902c1f73160dade69ab3c3355110442359eb703b15610db957604051907fb1cc4944000000000000000000000000000000000000000000000000000000008252600482015230602482015230604482015281606482015281816084818373da902c1f73160dade69ab3c3355110442359eb705af18015610dae57610d9d5750f35b81610da791611aca565b6101b85780f35b6040513d84823e3d90fd5b50fd5b81610dc691611aca565b6101b8578038610d0e565b505050fd5b50346101b857806003193601126101b857610def611d4a565b7fcd5ed15c6e187e77e9aee88184c21f4f2182ab5827cb3b7e07fbedcd63f033005460ff811615610e6d5760ff19167fcd5ed15c6e187e77e9aee88184c21f4f2182ab5827cb3b7e07fbedcd63f03300557f5db9ee0a495bf2e6ff9c91a7834c1ba4fdd244a5e8aa4e537bd38aeae4b073aa6020604051338152a180f35b6004827f8dfc202b000000000000000000000000000000000000000000000000000000008152fd5b5060606003193601126101b8576004356001600160a01b03811680910361132057610ebe611a88565b50610ec7611a9e565b507ffc425f2263d0df187444b70e47283d622c70181c5baebb1306a01edba1ce184c82527f02dd7bc7dec4dceedda775e58dd541e08a116c6c53815c0bd028192f7b626800602052604082206001600160a01b033316835260205260ff6040832054161561149357600654610f4160ff8260a01c16611cce565b6001600160a01b03835416820361144f577fffffffffffffffffffffff00ffffffffffffffffffffffffffffffffffffffff166006554790604051907fb60347a3000000000000000000000000000000000000000000000000000000008252806004830152826024830152836044830152836064830152602082608481867347217096d8fe0ffecccf2701e9c450658a93b59a5af191821561135157849261141b575b50604051917f70a08231000000000000000000000000000000000000000000000000000000008352306004840152602083602481855afa9283156113985785936113e7575b5082106113a3576040517f095ea7b300000000000000000000000000000000000000000000000000000000815273da902c1f73160dade69ab3c3355110442359eb70600482015282602482015260208160448188865af1801561139857611360575b506004546005549073da902c1f73160dade69ab3c3355110442359eb703b1561135c57604051927fdd83514e000000000000000000000000000000000000000000000000000000008452600484015230602484015283604484015260648301526084820152838160a4818373da902c1f73160dade69ab3c3355110442359eb705af180156113515761133d575b50600854606481111561115a575b507fa309b3f065b3593ee9ba1f429e382069e2170dacdf1d99fa25fc8358fb12a8a49160409182519182526020820152a180f35b6111679084929394611bd6565b926111728451611d19565b90825b85518110156111d257806001600160a01b0361119360019389611bc2565b511680865260076020526fffffffffffffffffffffffffffffffff6040872054166111be8387611bc2565b528552600760205284604081205501611175565b5092919384916001600160a01b038354169173da902c1f73160dade69ab3c3355110442359eb703b1561133957610cd79261124f859360405195869485947fb0e3fe740000000000000000000000000000000000000000000000000000000086526004860152306024860152608060448601526084850190611a4b565b03818373da902c1f73160dade69ab3c3355110442359eb705af18015610dae57611324575b506001600160a01b0381541673da902c1f73160dade69ab3c3355110442359eb703b1561132057604051907fb1cc4944000000000000000000000000000000000000000000000000000000008252600482015230602482015230604482015281606482015281816084818373da902c1f73160dade69ab3c3355110442359eb705af18015610dae57611307575b50611126565b8161131191611aca565b61131c578238611301565b8280fd5b5080fd5b8161132e91611aca565b61131c578238611274565b8380fd5b8361134a91949294611aca565b9138611118565b6040513d86823e3d90fd5b8580fd5b6020813d602011611390575b8161137960209383611aca565b8101031261138c5751801515811461108b575b8480fd5b3d915061136c565b6040513d87823e3d90fd5b606460405162461bcd60e51b815260206004820152601c60248201527f496e73756666696369656e7420746f6b656e73207265636569766564000000006044820152fd5b9092506020813d602011611413575b8161140360209383611aca565b8101031261138c57519138611029565b3d91506113f6565b9091506020813d602011611447575b8161143760209383611aca565b8101031261133957519038610fe4565b3d915061142a565b606460405162461bcd60e51b815260206004820152600b60248201527f77726f6e6720746f6b656e0000000000000000000000000000000000000000006044820152fd5b60448263e2517d3f60e01b8152336004527ffc425f2263d0df187444b70e47283d622c70181c5baebb1306a01edba1ce184c602452fd5b50346101b85760406003193601126101b8576114e4611a88565b336001600160a01b03821603611500576103269060043561219c565b6004827f6697b232000000000000000000000000000000000000000000000000000000008152fd5b50346101b85760406003193601126101b857610326600435611548611a88565b9061158361031c826000527f02dd7bc7dec4dceedda775e58dd541e08a116c6c53815c0bd028192f7b62680060205260016040600020015490565b6120c4565b50346101b85760206003193601126101b8576004356115ae60ff60065460a01c16611cce565b8015611804573382526007602052806040832054106117c0573382526007602052604082206115de828254611b9d565b9055338252600760205260408220541580156117a8575b1561173e573382526007602052604082205415611656575b81808080843382f115611649576040519081527f884edad9ce6fa2440d8a54cc123490eb96d2768479d49ff9c7366125a942436460203392a280f35b50604051903d90823e3d90fd5b815b60085480821015611737576001600160a01b0361167483611b49565b905460039190911b1c16331461168d5750600101611658565b600019810190811161172357906116bf6001600160a01b036116b16116de94611b49565b90549060031b1c1691611b49565b9091906001600160a01b038084549260031b9316831b921b1916179055565b600854801561170f57600019016116f481611b49565b6001600160a01b0382549160031b1b1916905560085561160d565b602483634e487b7160e01b81526031600452fd5b602484634e487b7160e01b81526011600452fd5b505061160d565b608460405162461bcd60e51b815260206004820152602660248201527f42616c616e6365206d75737420626520677465206d696e4465706f736974206f60448201527f72207a65726f00000000000000000000000000000000000000000000000000006064820152fd5b503382526007602052604082205460015411156115f5565b606460405162461bcd60e51b815260206004820152601460248201527f496e73756666696369656e742062616c616e63650000000000000000000000006044820152fd5b606460405162461bcd60e51b815260206004820152602060248201527f416d6f756e74206d7573742062652067726561746572207468616e207a65726f6044820152fd5b50346101b857806003193601126101b85760206040517347217096d8fe0ffecccf2701e9c450658a93b59a8152f35b50346101b8576105a661189261188c36611a30565b90611bd6565b604051918291602083526020830190611a4b565b50346101b85760206003193601126101b85760206118f36004356000527f02dd7bc7dec4dceedda775e58dd541e08a116c6c53815c0bd028192f7b62680060205260016040600020015490565b604051908152f35b50346101b857806003193601126101b85760a060015460025460035460045490600554926040519485526020850152604084015260608301526080820152f35b50346101b857806003193601126101b857602060ff60065460a01c166040519015158152f35b50346101b857806003193601126101b8576020604051735797a398fe34260f81be65908da364cc18fbc3608152f35b905034611320576020600319360112611320576004357fffffffff00000000000000000000000000000000000000000000000000000000811680910361131c57602092507f7965db0b000000000000000000000000000000000000000000000000000000008114908115611a06575b5015158152f35b7f01ffc9a700000000000000000000000000000000000000000000000000000000915014386119ff565b6003196040910112611a46576004359060243590565b600080fd5b906020808351928381520192019060005b818110611a695750505090565b82516001600160a01b0316845260209384019390920191600101611a5c565b602435906001600160a01b0382168203611a4657565b604435906001600160a01b0382168203611a4657565b600435906001600160a01b0382168203611a4657565b90601f601f19910116810190811067ffffffffffffffff821117611aed57604052565b634e487b7160e01b600052604160045260246000fd5b906020808351928381520192019060005b818110611b215750505090565b82516fffffffffffffffffffffffffffffffff16845260209384019390920191600101611b14565b600854811015611b6457600860005260206000200190600090565b634e487b7160e01b600052603260045260246000fd5b91908201809211611b8757565b634e487b7160e01b600052601160045260246000fd5b91908203918211611b8757565b67ffffffffffffffff8111611aed5760051b60200190565b8051821015611b645760209160051b010190565b90600854908183108015611cc6575b15611c8257611bf49083611b7a565b90808211611c7a575b50611c088282611b9d565b91601f19611c2e611c1885611baa565b94611c266040519687611aca565b808652611baa565b01366020850137805b828110611c445750505090565b806001600160a01b03611c58600193611b49565b90549060031b1c16611c73611c6d8584611b9d565b87611bc2565b5201611c37565b905038611bfd565b606460405162461bcd60e51b815260206004820152601460248201527f4f6666736574206f7574206f6620626f756e64730000000000000000000000006044820152fd5b508115611be5565b15611cd557565b606460405162461bcd60e51b815260206004820152601560248201527f5072652d627579206973206e6f742061637469766500000000000000000000006044820152fd5b90611d2382611baa565b611d306040519182611aca565b828152601f19611d408294611baa565b0190602036910137565b3360009081527f06484cc59dc38e4f67c31122333a17ca81b3ca18cdf02bfc298072fa52b0316a602052604090205460ff1615611d8357565b63e2517d3f60e01b600052336004527f241ecf16d79d0f8dbfb92cbc07fe17840425976cf0667f022fe9877caa831b0860245260446000fd5b806000527f02dd7bc7dec4dceedda775e58dd541e08a116c6c53815c0bd028192f7b62680060205260406000206001600160a01b03331660005260205260ff6040600020541615611e0a5750565b63e2517d3f60e01b6000523360045260245260446000fd5b6001600160a01b03811660009081527fb7db2dd08fcb62d0c9e08c51941cae53c267786a0b75803fb7960902fc8ef97d602052604090205460ff16611ece576001600160a01b031660008181527fb7db2dd08fcb62d0c9e08c51941cae53c267786a0b75803fb7960902fc8ef97d60205260408120805460ff191660011790553391907f2f8788117e7eff1d82e926ec794901d17c78024a50270940304540a733656f0d8180a4600190565b50600090565b6001600160a01b03811660009081527f06484cc59dc38e4f67c31122333a17ca81b3ca18cdf02bfc298072fa52b0316a602052604090205460ff16611ece576001600160a01b031660008181527f06484cc59dc38e4f67c31122333a17ca81b3ca18cdf02bfc298072fa52b0316a60205260408120805460ff191660011790553391907f241ecf16d79d0f8dbfb92cbc07fe17840425976cf0667f022fe9877caa831b08907f2f8788117e7eff1d82e926ec794901d17c78024a50270940304540a733656f0d9080a4600190565b735797a398fe34260f81be65908da364cc18fbc3606000527f8f7e9a8734279607aeaac474f24949ddc99eae25c0da72edcf5ad21022be2c9e6020527f63e82417b1fc8b7e394cc603710271e4772d773e2d24abc6d071ba5f093946865460ff166120bf57735797a398fe34260f81be65908da364cc18fbc36060008181527f8f7e9a8734279607aeaac474f24949ddc99eae25c0da72edcf5ad21022be2c9e6020527f63e82417b1fc8b7e394cc603710271e4772d773e2d24abc6d071ba5f09394686805460ff191660011790553391907ffc425f2263d0df187444b70e47283d622c70181c5baebb1306a01edba1ce184c907f2f8788117e7eff1d82e926ec794901d17c78024a50270940304540a733656f0d9080a4600190565b600090565b806000527f02dd7bc7dec4dceedda775e58dd541e08a116c6c53815c0bd028192f7b62680060205260406000206001600160a01b03831660005260205260ff604060002054161560001461219557806000527f02dd7bc7dec4dceedda775e58dd541e08a116c6c53815c0bd028192f7b62680060205260406000206001600160a01b0383166000526020526040600020600160ff198254161790556001600160a01b03339216907f2f8788117e7eff1d82e926ec794901d17c78024a50270940304540a733656f0d600080a4600190565b5050600090565b806000527f02dd7bc7dec4dceedda775e58dd541e08a116c6c53815c0bd028192f7b62680060205260406000206001600160a01b03831660005260205260ff6040600020541660001461219557806000527f02dd7bc7dec4dceedda775e58dd541e08a116c6c53815c0bd028192f7b62680060205260406000206001600160a01b038316600052602052604060002060ff1981541690556001600160a01b03339216907ff6391f5c32d9c69d2a47ea670b442974b53935d1edc7fd64eb21e047a839171b600080a4600190565b60ff7fcd5ed15c6e187e77e9aee88184c21f4f2182ab5827cb3b7e07fbedcd63f03300541661229457565b7fd93c06650000000000000000000000000000000000000000000000000000000060005260046000fd5b60ff7ff0c57e16840df040f15088dc2f81fe391c3923bec73e23a9662efc9c229c6a005460401c16156122ed57565b7fd7e6bcf80000000000000000000000000000000000000000000000000000000060005260046000fdfea2646970667358221220ab2155f24da572cc97c6daf72e7749adff93b678a7780aa26c2d1760d7d4042064736f6c634300081a0033",
  "linkReferences": {},
  "deployedLinkReferences": {}
}