{
  "_format": "hh-sol-artifact-1",
  "contractName": "StremePreBuyETH",
  "sourceName": "contracts/postlp/prebuy/StremePreBuyETH.sol",
  "abi": [
    {
      "inputs": [],
      "stateMutability": "nonpayable",
      "type": "constructor"
    },
    {
      "inputs": [],
      "name": "AccessControlBadConfirmation",
      "type": "error"
    },
    {
      "inputs": [
        {
          "internalType": "address",
          "name": "account",
          "type": "address"
        },
        {
          "internalType": "bytes32",
          "name": "neededRole",
          "type": "bytes32"
        }
      ],
      "name": "AccessControlUnauthorizedAccount",
      "type": "error"
    },
    {
      "inputs": [],
      "name": "EnforcedPause",
      "type": "error"
    },
    {
      "inputs": [],
      "name": "ExpectedPause",
      "type": "error"
    },
    {
      "inputs": [],
      "name": "InvalidInitialization",
      "type": "error"
    },
    {
      "inputs": [],
      "name": "NotInitializing",
      "type": "error"
    },
    {
      "anonymous": false,
      "inputs": [
        {
          "indexed": true,
          "internalType": "address",
          "name": "user",
          "type": "address"
        },
        {
          "indexed": false,
          "internalType": "uint256",
          "name": "amount",
          "type": "uint256"
        }
      ],
      "name": "Deposit",
      "type": "event"
    },
    {
      "anonymous": false,
      "inputs": [
        {
          "indexed": false,
          "internalType": "uint64",
          "name": "version",
          "type": "uint64"
        }
      ],
      "name": "Initialized",
      "type": "event"
    },
    {
      "anonymous": false,
      "inputs": [
        {
          "indexed": false,
          "internalType": "address",
          "name": "account",
          "type": "address"
        }
      ],
      "name": "Paused",
      "type": "event"
    },
    {
      "anonymous": false,
      "inputs": [
        {
          "indexed": false,
          "internalType": "uint256",
          "name": "totalETH",
          "type": "uint256"
        },
        {
          "indexed": false,
          "internalType": "uint256",
          "name": "totalTokens",
          "type": "uint256"
        }
      ],
      "name": "PreBuyFinalized",
      "type": "event"
    },
    {
      "anonymous": false,
      "inputs": [
        {
          "indexed": true,
          "internalType": "bytes32",
          "name": "role",
          "type": "bytes32"
        },
        {
          "indexed": true,
          "internalType": "bytes32",
          "name": "previousAdminRole",
          "type": "bytes32"
        },
        {
          "indexed": true,
          "internalType": "bytes32",
          "name": "newAdminRole",
          "type": "bytes32"
        }
      ],
      "name": "RoleAdminChanged",
      "type": "event"
    },
    {
      "anonymous": false,
      "inputs": [
        {
          "indexed": true,
          "internalType": "bytes32",
          "name": "role",
          "type": "bytes32"
        },
        {
          "indexed": true,
          "internalType": "address",
          "name": "account",
          "type": "address"
        },
        {
          "indexed": true,
          "internalType": "address",
          "name": "sender",
          "type": "address"
        }
      ],
      "name": "RoleGranted",
      "type": "event"
    },
    {
      "anonymous": false,
      "inputs": [
        {
          "indexed": true,
          "internalType": "bytes32",
          "name": "role",
          "type": "bytes32"
        },
        {
          "indexed": true,
          "internalType": "address",
          "name": "account",
          "type": "address"
        },
        {
          "indexed": true,
          "internalType": "address",
          "name": "sender",
          "type": "address"
        }
      ],
      "name": "RoleRevoked",
      "type": "event"
    },
    {
      "anonymous": false,
      "inputs": [
        {
          "indexed": false,
          "internalType": "address",
          "name": "account",
          "type": "address"
        }
      ],
      "name": "Unpaused",
      "type": "event"
    },
    {
      "anonymous": false,
      "inputs": [
        {
          "indexed": true,
          "internalType": "address",
          "name": "user",
          "type": "address"
        },
        {
          "indexed": false,
          "internalType": "uint256",
          "name": "amount",
          "type": "uint256"
        }
      ],
      "name": "Withdraw",
      "type": "event"
    },
    {
      "inputs": [],
      "name": "DEFAULT_ADMIN_ROLE",
      "outputs": [
        {
          "internalType": "bytes32",
          "name": "",
          "type": "bytes32"
        }
      ],
      "stateMutability": "view",
      "type": "function"
    },
    {
      "inputs": [],
      "name": "DEPLOYER_ROLE",
      "outputs": [
        {
          "internalType": "bytes32",
          "name": "",
          "type": "bytes32"
        }
      ],
      "stateMutability": "view",
      "type": "function"
    },
    {
      "inputs": [],
      "name": "MANAGER_ROLE",
      "outputs": [
        {
          "internalType": "bytes32",
          "name": "",
          "type": "bytes32"
        }
      ],
      "stateMutability": "view",
      "type": "function"
    },
    {
      "inputs": [],
      "name": "active",
      "outputs": [
        {
          "internalType": "bool",
          "name": "",
          "type": "bool"
        }
      ],
      "stateMutability": "view",
      "type": "function"
    },
    {
      "inputs": [],
      "name": "admin",
      "outputs": [
        {
          "internalType": "address",
          "name": "",
          "type": "address"
        }
      ],
      "stateMutability": "view",
      "type": "function"
    },
    {
      "inputs": [
        {
          "internalType": "address",
          "name": "user",
          "type": "address"
        }
      ],
      "name": "balanceOf",
      "outputs": [
        {
          "internalType": "uint256",
          "name": "",
          "type": "uint256"
        }
      ],
      "stateMutability": "view",
      "type": "function"
    },
    {
      "inputs": [],
      "name": "deposit",
      "outputs": [],
      "stateMutability": "payable",
      "type": "function"
    },
    {
      "inputs": [
        {
          "internalType": "uint256",
          "name": "",
          "type": "uint256"
        }
      ],
      "name": "depositors",
      "outputs": [
        {
          "internalType": "address",
          "name": "",
          "type": "address"
        }
      ],
      "stateMutability": "view",
      "type": "function"
    },
    {
      "inputs": [
        {
          "internalType": "address",
          "name": "",
          "type": "address"
        }
      ],
      "name": "deposits",
      "outputs": [
        {
          "internalType": "uint256",
          "name": "",
          "type": "uint256"
        }
      ],
      "stateMutability": "view",
      "type": "function"
    },
    {
      "inputs": [
        {
          "internalType": "uint256",
          "name": "offset",
          "type": "uint256"
        },
        {
          "internalType": "uint256",
          "name": "limit",
          "type": "uint256"
        }
      ],
      "name": "distributeShares",
      "outputs": [],
      "stateMutability": "nonpayable",
      "type": "function"
    },
    {
      "inputs": [],
      "name": "gdaForwarder",
      "outputs": [
        {
          "internalType": "contract IGDAv1Forwarder",
          "name": "",
          "type": "address"
        }
      ],
      "stateMutability": "view",
      "type": "function"
    },
    {
      "inputs": [
        {
          "internalType": "uint256",
          "name": "_offset",
          "type": "uint256"
        },
        {
          "internalType": "uint256",
          "name": "_limit",
          "type": "uint256"
        }
      ],
      "name": "getPaginatedItems",
      "outputs": [
        {
          "internalType": "address[]",
          "name": "",
          "type": "address[]"
        }
      ],
      "stateMutability": "view",
      "type": "function"
    },
    {
      "inputs": [
        {
          "internalType": "bytes32",
          "name": "role",
          "type": "bytes32"
        }
      ],
      "name": "getRoleAdmin",
      "outputs": [
        {
          "internalType": "bytes32",
          "name": "",
          "type": "bytes32"
        }
      ],
      "stateMutability": "view",
      "type": "function"
    },
    {
      "inputs": [
        {
          "internalType": "bytes32",
          "name": "role",
          "type": "bytes32"
        },
        {
          "internalType": "address",
          "name": "account",
          "type": "address"
        }
      ],
      "name": "grantRole",
      "outputs": [],
      "stateMutability": "nonpayable",
      "type": "function"
    },
    {
      "inputs": [
        {
          "internalType": "bytes32",
          "name": "role",
          "type": "bytes32"
        },
        {
          "internalType": "address",
          "name": "account",
          "type": "address"
        }
      ],
      "name": "hasRole",
      "outputs": [
        {
          "internalType": "bool",
          "name": "",
          "type": "bool"
        }
      ],
      "stateMutability": "view",
      "type": "function"
    },
    {
      "inputs": [
        {
          "internalType": "contract IERC20",
          "name": "stremeCoin",
          "type": "address"
        },
        {
          "internalType": "address",
          "name": "pairedToken",
          "type": "address"
        },
        {
          "internalType": "address",
          "name": "deployer",
          "type": "address"
        }
      ],
      "name": "hook",
      "outputs": [],
      "stateMutability": "payable",
      "type": "function"
    },
    {
      "inputs": [
        {
          "internalType": "address",
          "name": "_token",
          "type": "address"
        },
        {
          "components": [
            {
              "internalType": "uint256",
              "name": "minDeposit",
              "type": "uint256"
            },
            {
              "internalType": "uint256",
              "name": "maxDeposit",
              "type": "uint256"
            },
            {
              "internalType": "uint256",
              "name": "totalCap",
              "type": "uint256"
            },
            {
              "internalType": "uint256",
              "name": "lockupDuration",
              "type": "uint256"
            },
            {
              "internalType": "uint256",
              "name": "vestingDuration",
              "type": "uint256"
            }
          ],
          "internalType": "struct StremePreBuyETH.PreBuySettings",
          "name": "_preBuySettings",
          "type": "tuple"
        },
        {
          "internalType": "address",
          "name": "_admin",
          "type": "address"
        }
      ],
      "name": "initialize",
      "outputs": [],
      "stateMutability": "nonpayable",
      "type": "function"
    },
    {
      "inputs": [],
      "name": "membersWithUnits",
      "outputs": [
        {
          "internalType": "address[]",
          "name": "",
          "type": "address[]"
        },
        {
          "internalType": "uint128[]",
          "name": "units",
          "type": "uint128[]"
        }
      ],
      "stateMutability": "view",
      "type": "function"
    },
    {
      "inputs": [],
      "name": "pause",
      "outputs": [],
      "stateMutability": "nonpayable",
      "type": "function"
    },
    {
      "inputs": [],
      "name": "paused",
      "outputs": [
        {
          "internalType": "bool",
          "name": "",
          "type": "bool"
        }
      ],
      "stateMutability": "view",
      "type": "function"
    },
    {
      "inputs": [],
      "name": "preBuySettings",
      "outputs": [
        {
          "internalType": "uint256",
          "name": "minDeposit",
          "type": "uint256"
        },
        {
          "internalType": "uint256",
          "name": "maxDeposit",
          "type": "uint256"
        },
        {
          "internalType": "uint256",
          "name": "totalCap",
          "type": "uint256"
        },
        {
          "internalType": "uint256",
          "name": "lockupDuration",
          "type": "uint256"
        },
        {
          "internalType": "uint256",
          "name": "vestingDuration",
          "type": "uint256"
        }
      ],
      "stateMutability": "view",
      "type": "function"
    },
    {
      "inputs": [
        {
          "internalType": "bytes32",
          "name": "role",
          "type": "bytes32"
        },
        {
          "internalType": "address",
          "name": "callerConfirmation",
          "type": "address"
        }
      ],
      "name": "renounceRole",
      "outputs": [],
      "stateMutability": "nonpayable",
      "type": "function"
    },
    {
      "inputs": [
        {
          "internalType": "bytes32",
          "name": "role",
          "type": "bytes32"
        },
        {
          "internalType": "address",
          "name": "account",
          "type": "address"
        }
      ],
      "name": "revokeRole",
      "outputs": [],
      "stateMutability": "nonpayable",
      "type": "function"
    },
    {
      "inputs": [
        {
          "internalType": "uint256",
          "name": "threshold",
          "type": "uint256"
        }
      ],
      "name": "setShareDistributionThreshold",
      "outputs": [],
      "stateMutability": "nonpayable",
      "type": "function"
    },
    {
      "inputs": [],
      "name": "shareDistributionThreshold",
      "outputs": [
        {
          "internalType": "uint256",
          "name": "",
          "type": "uint256"
        }
      ],
      "stateMutability": "view",
      "type": "function"
    },
    {
      "inputs": [],
      "name": "streme",
      "outputs": [
        {
          "internalType": "address",
          "name": "",
          "type": "address"
        }
      ],
      "stateMutability": "view",
      "type": "function"
    },
    {
      "inputs": [],
      "name": "stremeVault",
      "outputs": [
        {
          "internalType": "contract IStremeVault",
          "name": "",
          "type": "address"
        }
      ],
      "stateMutability": "view",
      "type": "function"
    },
    {
      "inputs": [
        {
          "internalType": "bytes4",
          "name": "interfaceId",
          "type": "bytes4"
        }
      ],
      "name": "supportsInterface",
      "outputs": [
        {
          "internalType": "bool",
          "name": "",
          "type": "bool"
        }
      ],
      "stateMutability": "view",
      "type": "function"
    },
    {
      "inputs": [],
      "name": "token",
      "outputs": [
        {
          "internalType": "address",
          "name": "",
          "type": "address"
        }
      ],
      "stateMutability": "view",
      "type": "function"
    },
    {
      "inputs": [],
      "name": "totalBalance",
      "outputs": [
        {
          "internalType": "uint256",
          "name": "",
          "type": "uint256"
        }
      ],
      "stateMutability": "view",
      "type": "function"
    },
    {
      "inputs": [],
      "name": "totalMembers",
      "outputs": [
        {
          "internalType": "uint256",
          "name": "",
          "type": "uint256"
        }
      ],
      "stateMutability": "view",
      "type": "function"
    },
    {
      "inputs": [],
      "name": "unpause",
      "outputs": [],
      "stateMutability": "nonpayable",
      "type": "function"
    },
    {
      "inputs": [
        {
          "internalType": "uint256",
          "name": "amount",
          "type": "uint256"
        }
      ],
      "name": "withdraw",
      "outputs": [],
      "stateMutability": "nonpayable",
      "type": "function"
    },
    {
      "inputs": [],
      "name": "zap",
      "outputs": [
        {
          "internalType": "contract IStremeZap",
          "name": "",
          "type": "address"
        }
      ],
      "stateMutability": "view",
      "type": "function"
    }
  ],
  "bytecode": "0x6080806040523460d2577ff0c57e16840df040f15088dc2f81fe391c3923bec73e23a9662efc9c229c6a005460ff8160401c1660c1576002600160401b03196001600160401b03821601605c575b6040516123aa90816100d88239f35b6001600160401b0319166001600160401b039081177ff0c57e16840df040f15088dc2f81fe391c3923bec73e23a9662efc9c229c6a005581527fc7f505b2f371ae2175ee4913f4499e1f2633a7b5936321eed1cdaeb6115181d290602090a13880604d565b63f92ee8a960e01b60005260046000fd5b600080fdfe608080604052600436101561001357600080fd5b600090813560e01c90816301ffc9a7146119ed57508063021a1abf146119be57806302fb0c5e146119985780631642469f14611958578063248a9ca31461190357806325f49148146118d4578063262d6152146118a55780632e1a7d4d146115e55780632f2ff15d1461158557806336568abe146115275780633e288e4614610ef15780633f4ba83a14610e325780634331d20114610c2d578063543d1dad1461085e5780635af8bf251461082f5780635c975abb146107ed57806370a08231146107c6578063719855d0146107a357806373b6144f1461078557806376e92559146107675780638456cb59146106ce57806391d1485414610662578063a217fddf14610646578063ad7a672f1461062a578063ce22970714610523578063d0e30db01461036f578063d1152a1c14610340578063d547741f146102d7578063e4b2fb7914610294578063ec87621c14610259578063ecd002611461021e578063f851a440146101f7578063fc0c546a146101d15763fc7e286d1461019757600080fd5b346101ce5760206003193601126101ce5760406020916001600160a01b036101bd611b11565b168152600783522054604051908152f35b80fd5b50346101ce57806003193601126101ce576001600160a01b036020915416604051908152f35b50346101ce57806003193601126101ce5760206001600160a01b0360065416604051908152f35b50346101ce57806003193601126101ce5760206040517ffc425f2263d0df187444b70e47283d622c70181c5baebb1306a01edba1ce184c8152f35b50346101ce57806003193601126101ce5760206040517f241ecf16d79d0f8dbfb92cbc07fe17840425976cf0667f022fe9877caa831b088152f35b50346101ce5760206003193601126101ce57600435906008548210156101ce5760206001600160a01b036102c784611ba6565b90549060031b1c16604051908152f35b50346101ce5760406003193601126101ce5761033c6004356102f7611ae5565b90610337610332826000527f02dd7bc7dec4dceedda775e58dd541e08a116c6c53815c0bd028192f7b62680060205260016040600020015490565b611e19565b6121f9565b5080f35b50346101ce57806003193601126101ce57602060405173da902c1f73160dade69ab3c3355110442359eb708152f35b50806003193601126101ce576103836122c6565b60015434106104df57600254341161049b57338152600760205260408120541561043d575b3381526007602052604081206103bf348254611bd7565b905547600354106103f9576040513481527fe1fffcc4923d04b559f4d29a8bfc6cda04eb5b0d3c460751c2402c5c5cc9109c60203392a280f35b606460405162461bcd60e51b815260206004820152601260248201527f546f74616c2063617020657863656564656400000000000000000000000000006044820152fd5b60085468010000000000000000811015610487576104648160016104829301600855611ba6565b33906001600160a01b038084549260031b9316831b921b1916179055565b6103a8565b602482634e487b7160e01b81526041600452fd5b606460405162461bcd60e51b815260206004820152601d60248201527f416d6f756e74206d757374206265206c7465206d61784465706f7369740000006044820152fd5b606460405162461bcd60e51b815260206004820152601d60248201527f416d6f756e74206d75737420626520677465206d696e4465706f7369740000006044820152fd5b50346101ce57806003193601126101ce5760085461054081611d76565b91805b8281106105df575090604051916020838381520191600882527ff3f7a9fe364faab93b216da50a3214154f22a0a2b415b23a84c8169e8b636ee3915b8181106105c0576105ae856105bc8861059a83890384611b27565b604051938493604085526040850190611aa8565b908382036020850152611b60565b0390f35b82546001600160a01b031684526020909301926001928301920161057f565b806001600160a01b036105f3600193611ba6565b90549060031b1c16835260076020526fffffffffffffffffffffffffffffffff6040842054166106238287611c1f565b5201610543565b50346101ce57806003193601126101ce57602047604051908152f35b50346101ce57806003193601126101ce57602090604051908152f35b50346101ce5760406003193601126101ce576001600160a01b036040610686611ae5565b9260043581527f02dd7bc7dec4dceedda775e58dd541e08a116c6c53815c0bd028192f7b626800602052209116600052602052602060ff604060002054166040519015158152f35b50346101ce57806003193601126101ce576106e7611da7565b6106ef6122c6565b600160ff197fcd5ed15c6e187e77e9aee88184c21f4f2182ab5827cb3b7e07fbedcd63f033005416177fcd5ed15c6e187e77e9aee88184c21f4f2182ab5827cb3b7e07fbedcd63f03300557f62e78cea01bee320cd4e420270b5ea74000d11b0c9f74754ebdbfc544b05a2586020604051338152a180f35b50346101ce57806003193601126101ce576020600854604051908152f35b50346101ce57806003193601126101ce576020600954604051908152f35b50346101ce5760206003193601126101ce576107bd611da7565b60043560095580f35b50346101ce5760206003193601126101ce5760406020916001600160a01b036101bd611b11565b50346101ce57806003193601126101ce57602060ff7fcd5ed15c6e187e77e9aee88184c21f4f2182ab5827cb3b7e07fbedcd63f0330054166040519015158152f35b50346101ce57806003193601126101ce576020604051736da13bde224a05a288748d857b9e7ddeffd1de088152f35b50346101ce5760e06003193601126101ce57610878611b11565b9060a07fffffffffffffffffffffffffffffffffffffffffffffffffffffffffffffffdc3601126101ce5760405160a0810181811067ffffffffffffffff821117610c19576040526024358152602081016044358152604082016064358152606083016084358152608084019160a435835260c435936001600160a01b038516809503610c15577ff0c57e16840df040f15088dc2f81fe391c3923bec73e23a9662efc9c229c6a00549560ff8760401c16159667ffffffffffffffff811680159081610c0d575b6001149081610c03575b159081610bfa575b50610bd25787989981610a7f9960017fffffffffffffffffffffffffffffffffffffffffffffffff00000000000000006001600160a01b039516177ff0c57e16840df040f15088dc2f81fe391c3923bec73e23a9662efc9c229c6a0055610b7d575b506109bc61231b565b6109c461231b565b6109cc61231b565b60ff197fcd5ed15c6e187e77e9aee88184c21f4f2182ab5827cb3b7e07fbedcd63f0330054167fcd5ed15c6e187e77e9aee88184c21f4f2182ab5827cb3b7e07fbedcd63f0330055167fffffffffffffffffffffffff00000000000000000000000000000000000000008a54161789555160015551600255516003555160045551600555807fffffffffffffffffffffffff00000000000000000000000000000000000000006006541617600655611e7f565b50610a946001600160a01b0360065416611f31565b50610a9d611fff565b50740100000000000000000000000000000000000000007fffffffffffffffffffffff00ffffffffffffffffffffffffffffffffffffffff60065416176006556032600955610ae95780f35b7fffffffffffffffffffffffffffffffffffffffffffffff00ffffffffffffffff7ff0c57e16840df040f15088dc2f81fe391c3923bec73e23a9662efc9c229c6a0054167ff0c57e16840df040f15088dc2f81fe391c3923bec73e23a9662efc9c229c6a00557fc7f505b2f371ae2175ee4913f4499e1f2633a7b5936321eed1cdaeb6115181d2602060405160018152a180f35b7fffffffffffffffffffffffffffffffffffffffffffffff0000000000000000001668010000000000000001177ff0c57e16840df040f15088dc2f81fe391c3923bec73e23a9662efc9c229c6a0055386109b3565b6004897ff92ee8a9000000000000000000000000000000000000000000000000000000008152fd5b90501538610951565b303b159150610949565b89915061093f565b8680fd5b602483634e487b7160e01b81526041600452fd5b50346101ce57610c4d610c3f36611a8d565b90610c48611da7565b611c33565b90610c588251611d76565b90805b8351811015610cb857806001600160a01b03610c7960019387611c1f565b511680845260076020526fffffffffffffffffffffffffffffffff604085205416610ca48387611c1f565b528352600760205282604081205501610c5b565b509182916001600160a01b038354169173da902c1f73160dade69ab3c3355110442359eb703b15610e2d57610d3392610d45859360405195869485947fb0e3fe740000000000000000000000000000000000000000000000000000000086526004860152306024860152608060448601526084850190611aa8565b90600319848303016064850152611b60565b03818373da902c1f73160dade69ab3c3355110442359eb705af18015610e0a57610e18575b506001600160a01b0381541673da902c1f73160dade69ab3c3355110442359eb703b15610e1557604051907fb1cc4944000000000000000000000000000000000000000000000000000000008252600482015230602482015230604482015281606482015281816084818373da902c1f73160dade69ab3c3355110442359eb705af18015610e0a57610df95750f35b81610e0391611b27565b6101ce5780f35b6040513d84823e3d90fd5b50fd5b81610e2291611b27565b6101ce578038610d6a565b505050fd5b50346101ce57806003193601126101ce57610e4b611da7565b7fcd5ed15c6e187e77e9aee88184c21f4f2182ab5827cb3b7e07fbedcd63f033005460ff811615610ec95760ff19167fcd5ed15c6e187e77e9aee88184c21f4f2182ab5827cb3b7e07fbedcd63f03300557f5db9ee0a495bf2e6ff9c91a7834c1ba4fdd244a5e8aa4e537bd38aeae4b073aa6020604051338152a180f35b6004827f8dfc202b000000000000000000000000000000000000000000000000000000008152fd5b5060606003193601126101ce576004356001600160a01b03811680910361137d57610f1a611ae5565b50610f23611afb565b507ffc425f2263d0df187444b70e47283d622c70181c5baebb1306a01edba1ce184c82527f02dd7bc7dec4dceedda775e58dd541e08a116c6c53815c0bd028192f7b626800602052604082206001600160a01b033316835260205260ff604083205416156114f057600654610f9d60ff8260a01c16611d2b565b6001600160a01b0383541682036114ac577fffffffffffffffffffffff00ffffffffffffffffffffffffffffffffffffffff166006554790604051907fb60347a3000000000000000000000000000000000000000000000000000000008252806004830152826024830152836044830152836064830152602082608481867347217096d8fe0ffecccf2701e9c450658a93b59a5af19182156113ae578492611478575b50604051917f70a08231000000000000000000000000000000000000000000000000000000008352306004840152602083602481855afa9283156113f5578593611444575b508210611400576040517f095ea7b300000000000000000000000000000000000000000000000000000000815273da902c1f73160dade69ab3c3355110442359eb70600482015282602482015260208160448188865af180156113f5576113bd575b506004546005549073da902c1f73160dade69ab3c3355110442359eb703b156113b957604051927fdd83514e000000000000000000000000000000000000000000000000000000008452600484015230602484015283604484015260648301526084820152838160a4818373da902c1f73160dade69ab3c3355110442359eb705af180156113ae5761139a575b506008546009548111156111b7575b507fa309b3f065b3593ee9ba1f429e382069e2170dacdf1d99fa25fc8358fb12a8a49160409182519182526020820152a180f35b6111c49084929394611c33565b926111cf8451611d76565b90825b855181101561122f57806001600160a01b036111f060019389611c1f565b511680865260076020526fffffffffffffffffffffffffffffffff60408720541661121b8387611c1f565b5285526007602052846040812055016111d2565b5092919384916001600160a01b038354169173da902c1f73160dade69ab3c3355110442359eb703b1561139657610d33926112ac859360405195869485947fb0e3fe740000000000000000000000000000000000000000000000000000000086526004860152306024860152608060448601526084850190611aa8565b03818373da902c1f73160dade69ab3c3355110442359eb705af18015610e0a57611381575b506001600160a01b0381541673da902c1f73160dade69ab3c3355110442359eb703b1561137d57604051907fb1cc4944000000000000000000000000000000000000000000000000000000008252600482015230602482015230604482015281606482015281816084818373da902c1f73160dade69ab3c3355110442359eb705af18015610e0a57611364575b50611183565b8161136e91611b27565b61137957823861135e565b8280fd5b5080fd5b8161138b91611b27565b6113795782386112d1565b8380fd5b836113a791949294611b27565b9138611174565b6040513d86823e3d90fd5b8580fd5b6020813d6020116113ed575b816113d660209383611b27565b810103126113e9575180151581146110e7575b8480fd5b3d91506113c9565b6040513d87823e3d90fd5b606460405162461bcd60e51b815260206004820152601c60248201527f496e73756666696369656e7420746f6b656e73207265636569766564000000006044820152fd5b9092506020813d602011611470575b8161146060209383611b27565b810103126113e957519138611085565b3d9150611453565b9091506020813d6020116114a4575b8161149460209383611b27565b8101031261139657519038611040565b3d9150611487565b606460405162461bcd60e51b815260206004820152600b60248201527f77726f6e6720746f6b656e0000000000000000000000000000000000000000006044820152fd5b60448263e2517d3f60e01b8152336004527ffc425f2263d0df187444b70e47283d622c70181c5baebb1306a01edba1ce184c602452fd5b50346101ce5760406003193601126101ce57611541611ae5565b336001600160a01b0382160361155d5761033c906004356121f9565b6004827f6697b232000000000000000000000000000000000000000000000000000000008152fd5b50346101ce5760406003193601126101ce5761033c6004356115a5611ae5565b906115e0610332826000527f02dd7bc7dec4dceedda775e58dd541e08a116c6c53815c0bd028192f7b62680060205260016040600020015490565b612121565b50346101ce5760206003193601126101ce5760043561160b60ff60065460a01c16611d2b565b80156118615733825260076020528060408320541061181d5733825260076020526040822061163b828254611bfa565b905533825260076020526040822054158015611805575b1561179b5733825260076020526040822054156116b3575b81808080843382f1156116a6576040519081527f884edad9ce6fa2440d8a54cc123490eb96d2768479d49ff9c7366125a942436460203392a280f35b50604051903d90823e3d90fd5b815b60085480821015611794576001600160a01b036116d183611ba6565b905460039190911b1c1633146116ea57506001016116b5565b6000198101908111611780579061171c6001600160a01b0361170e61173b94611ba6565b90549060031b1c1691611ba6565b9091906001600160a01b038084549260031b9316831b921b1916179055565b600854801561176c576000190161175181611ba6565b6001600160a01b0382549160031b1b1916905560085561166a565b602483634e487b7160e01b81526031600452fd5b602484634e487b7160e01b81526011600452fd5b505061166a565b608460405162461bcd60e51b815260206004820152602660248201527f42616c616e6365206d75737420626520677465206d696e4465706f736974206f60448201527f72207a65726f00000000000000000000000000000000000000000000000000006064820152fd5b50338252600760205260408220546001541115611652565b606460405162461bcd60e51b815260206004820152601460248201527f496e73756666696369656e742062616c616e63650000000000000000000000006044820152fd5b606460405162461bcd60e51b815260206004820152602060248201527f416d6f756e74206d7573742062652067726561746572207468616e207a65726f6044820152fd5b50346101ce57806003193601126101ce5760206040517347217096d8fe0ffecccf2701e9c450658a93b59a8152f35b50346101ce576105bc6118ef6118e936611a8d565b90611c33565b604051918291602083526020830190611aa8565b50346101ce5760206003193601126101ce5760206119506004356000527f02dd7bc7dec4dceedda775e58dd541e08a116c6c53815c0bd028192f7b62680060205260016040600020015490565b604051908152f35b50346101ce57806003193601126101ce5760a060015460025460035460045490600554926040519485526020850152604084015260608301526080820152f35b50346101ce57806003193601126101ce57602060ff60065460a01c166040519015158152f35b50346101ce57806003193601126101ce576020604051735797a398fe34260f81be65908da364cc18fbc3608152f35b90503461137d57602060031936011261137d576004357fffffffff00000000000000000000000000000000000000000000000000000000811680910361137957602092507f7965db0b000000000000000000000000000000000000000000000000000000008114908115611a63575b5015158152f35b7f01ffc9a70000000000000000000000000000000000000000000000000000000091501438611a5c565b6003196040910112611aa3576004359060243590565b600080fd5b906020808351928381520192019060005b818110611ac65750505090565b82516001600160a01b0316845260209384019390920191600101611ab9565b602435906001600160a01b0382168203611aa357565b604435906001600160a01b0382168203611aa357565b600435906001600160a01b0382168203611aa357565b90601f601f19910116810190811067ffffffffffffffff821117611b4a57604052565b634e487b7160e01b600052604160045260246000fd5b906020808351928381520192019060005b818110611b7e5750505090565b82516fffffffffffffffffffffffffffffffff16845260209384019390920191600101611b71565b600854811015611bc157600860005260206000200190600090565b634e487b7160e01b600052603260045260246000fd5b91908201809211611be457565b634e487b7160e01b600052601160045260246000fd5b91908203918211611be457565b67ffffffffffffffff8111611b4a5760051b60200190565b8051821015611bc15760209160051b010190565b90600854908183108015611d23575b15611cdf57611c519083611bd7565b90808211611cd7575b50611c658282611bfa565b91601f19611c8b611c7585611c07565b94611c836040519687611b27565b808652611c07565b01366020850137805b828110611ca15750505090565b806001600160a01b03611cb5600193611ba6565b90549060031b1c16611cd0611cca8584611bfa565b87611c1f565b5201611c94565b905038611c5a565b606460405162461bcd60e51b815260206004820152601460248201527f4f6666736574206f7574206f6620626f756e64730000000000000000000000006044820152fd5b508115611c42565b15611d3257565b606460405162461bcd60e51b815260206004820152601560248201527f5072652d627579206973206e6f742061637469766500000000000000000000006044820152fd5b90611d8082611c07565b611d8d6040519182611b27565b828152601f19611d9d8294611c07565b0190602036910137565b3360009081527f06484cc59dc38e4f67c31122333a17ca81b3ca18cdf02bfc298072fa52b0316a602052604090205460ff1615611de057565b63e2517d3f60e01b600052336004527f241ecf16d79d0f8dbfb92cbc07fe17840425976cf0667f022fe9877caa831b0860245260446000fd5b806000527f02dd7bc7dec4dceedda775e58dd541e08a116c6c53815c0bd028192f7b62680060205260406000206001600160a01b03331660005260205260ff6040600020541615611e675750565b63e2517d3f60e01b6000523360045260245260446000fd5b6001600160a01b03811660009081527fb7db2dd08fcb62d0c9e08c51941cae53c267786a0b75803fb7960902fc8ef97d602052604090205460ff16611f2b576001600160a01b031660008181527fb7db2dd08fcb62d0c9e08c51941cae53c267786a0b75803fb7960902fc8ef97d60205260408120805460ff191660011790553391907f2f8788117e7eff1d82e926ec794901d17c78024a50270940304540a733656f0d8180a4600190565b50600090565b6001600160a01b03811660009081527f06484cc59dc38e4f67c31122333a17ca81b3ca18cdf02bfc298072fa52b0316a602052604090205460ff16611f2b576001600160a01b031660008181527f06484cc59dc38e4f67c31122333a17ca81b3ca18cdf02bfc298072fa52b0316a60205260408120805460ff191660011790553391907f241ecf16d79d0f8dbfb92cbc07fe17840425976cf0667f022fe9877caa831b08907f2f8788117e7eff1d82e926ec794901d17c78024a50270940304540a733656f0d9080a4600190565b735797a398fe34260f81be65908da364cc18fbc3606000527f8f7e9a8734279607aeaac474f24949ddc99eae25c0da72edcf5ad21022be2c9e6020527f63e82417b1fc8b7e394cc603710271e4772d773e2d24abc6d071ba5f093946865460ff1661211c57735797a398fe34260f81be65908da364cc18fbc36060008181527f8f7e9a8734279607aeaac474f24949ddc99eae25c0da72edcf5ad21022be2c9e6020527f63e82417b1fc8b7e394cc603710271e4772d773e2d24abc6d071ba5f09394686805460ff191660011790553391907ffc425f2263d0df187444b70e47283d622c70181c5baebb1306a01edba1ce184c907f2f8788117e7eff1d82e926ec794901d17c78024a50270940304540a733656f0d9080a4600190565b600090565b806000527f02dd7bc7dec4dceedda775e58dd541e08a116c6c53815c0bd028192f7b62680060205260406000206001600160a01b03831660005260205260ff60406000205416156000146121f257806000527f02dd7bc7dec4dceedda775e58dd541e08a116c6c53815c0bd028192f7b62680060205260406000206001600160a01b0383166000526020526040600020600160ff198254161790556001600160a01b03339216907f2f8788117e7eff1d82e926ec794901d17c78024a50270940304540a733656f0d600080a4600190565b5050600090565b806000527f02dd7bc7dec4dceedda775e58dd541e08a116c6c53815c0bd028192f7b62680060205260406000206001600160a01b03831660005260205260ff604060002054166000146121f257806000527f02dd7bc7dec4dceedda775e58dd541e08a116c6c53815c0bd028192f7b62680060205260406000206001600160a01b038316600052602052604060002060ff1981541690556001600160a01b03339216907ff6391f5c32d9c69d2a47ea670b442974b53935d1edc7fd64eb21e047a839171b600080a4600190565b60ff7fcd5ed15c6e187e77e9aee88184c21f4f2182ab5827cb3b7e07fbedcd63f0330054166122f157565b7fd93c06650000000000000000000000000000000000000000000000000000000060005260046000fd5b60ff7ff0c57e16840df040f15088dc2f81fe391c3923bec73e23a9662efc9c229c6a005460401c161561234a57565b7fd7e6bcf80000000000000000000000000000000000000000000000000000000060005260046000fdfea264697066735822122007d9c42d7e01a92cb52c3fc1396f164777ea86efc6c465f21da976523a15bcf564736f6c634300081a0033",
  "linkReferences": {},
  "deployedLinkReferences": {}
}