{
  "_format": "hh-sol-artifact-1",
  "contractName": "StremePreBuyETH",
  "sourceName": "contracts/postlp/prebuy/StremePreBuyETH.sol",
  "abi": [
    {
      "inputs": [],
      "stateMutability": "nonpayable",
      "type": "constructor"
    },
    {
      "inputs": [],
      "name": "AccessControlBadConfirmation",
      "type": "error"
    },
    {
      "inputs": [
        {
          "internalType": "address",
          "name": "account",
          "type": "address"
        },
        {
          "internalType": "bytes32",
          "name": "neededRole",
          "type": "bytes32"
        }
      ],
      "name": "AccessControlUnauthorizedAccount",
      "type": "error"
    },
    {
      "inputs": [],
      "name": "EnforcedPause",
      "type": "error"
    },
    {
      "inputs": [],
      "name": "ExpectedPause",
      "type": "error"
    },
    {
      "inputs": [],
      "name": "InvalidInitialization",
      "type": "error"
    },
    {
      "inputs": [],
      "name": "NotInitializing",
      "type": "error"
    },
    {
      "anonymous": false,
      "inputs": [
        {
          "indexed": true,
          "internalType": "address",
          "name": "user",
          "type": "address"
        },
        {
          "indexed": false,
          "internalType": "uint256",
          "name": "amount",
          "type": "uint256"
        }
      ],
      "name": "Deposit",
      "type": "event"
    },
    {
      "anonymous": false,
      "inputs": [
        {
          "indexed": false,
          "internalType": "uint64",
          "name": "version",
          "type": "uint64"
        }
      ],
      "name": "Initialized",
      "type": "event"
    },
    {
      "anonymous": false,
      "inputs": [
        {
          "indexed": false,
          "internalType": "address",
          "name": "account",
          "type": "address"
        }
      ],
      "name": "Paused",
      "type": "event"
    },
    {
      "anonymous": false,
      "inputs": [
        {
          "indexed": false,
          "internalType": "uint256",
          "name": "totalETH",
          "type": "uint256"
        },
        {
          "indexed": false,
          "internalType": "uint256",
          "name": "totalTokens",
          "type": "uint256"
        }
      ],
      "name": "PreBuyFinalized",
      "type": "event"
    },
    {
      "anonymous": false,
      "inputs": [
        {
          "indexed": true,
          "internalType": "bytes32",
          "name": "role",
          "type": "bytes32"
        },
        {
          "indexed": true,
          "internalType": "bytes32",
          "name": "previousAdminRole",
          "type": "bytes32"
        },
        {
          "indexed": true,
          "internalType": "bytes32",
          "name": "newAdminRole",
          "type": "bytes32"
        }
      ],
      "name": "RoleAdminChanged",
      "type": "event"
    },
    {
      "anonymous": false,
      "inputs": [
        {
          "indexed": true,
          "internalType": "bytes32",
          "name": "role",
          "type": "bytes32"
        },
        {
          "indexed": true,
          "internalType": "address",
          "name": "account",
          "type": "address"
        },
        {
          "indexed": true,
          "internalType": "address",
          "name": "sender",
          "type": "address"
        }
      ],
      "name": "RoleGranted",
      "type": "event"
    },
    {
      "anonymous": false,
      "inputs": [
        {
          "indexed": true,
          "internalType": "bytes32",
          "name": "role",
          "type": "bytes32"
        },
        {
          "indexed": true,
          "internalType": "address",
          "name": "account",
          "type": "address"
        },
        {
          "indexed": true,
          "internalType": "address",
          "name": "sender",
          "type": "address"
        }
      ],
      "name": "RoleRevoked",
      "type": "event"
    },
    {
      "anonymous": false,
      "inputs": [
        {
          "indexed": false,
          "internalType": "address",
          "name": "account",
          "type": "address"
        }
      ],
      "name": "Unpaused",
      "type": "event"
    },
    {
      "anonymous": false,
      "inputs": [
        {
          "indexed": true,
          "internalType": "address",
          "name": "user",
          "type": "address"
        },
        {
          "indexed": false,
          "internalType": "uint256",
          "name": "amount",
          "type": "uint256"
        }
      ],
      "name": "Withdraw",
      "type": "event"
    },
    {
      "inputs": [],
      "name": "DEFAULT_ADMIN_ROLE",
      "outputs": [
        {
          "internalType": "bytes32",
          "name": "",
          "type": "bytes32"
        }
      ],
      "stateMutability": "view",
      "type": "function"
    },
    {
      "inputs": [],
      "name": "DEPLOYER_ROLE",
      "outputs": [
        {
          "internalType": "bytes32",
          "name": "",
          "type": "bytes32"
        }
      ],
      "stateMutability": "view",
      "type": "function"
    },
    {
      "inputs": [],
      "name": "MANAGER_ROLE",
      "outputs": [
        {
          "internalType": "bytes32",
          "name": "",
          "type": "bytes32"
        }
      ],
      "stateMutability": "view",
      "type": "function"
    },
    {
      "inputs": [],
      "name": "active",
      "outputs": [
        {
          "internalType": "bool",
          "name": "",
          "type": "bool"
        }
      ],
      "stateMutability": "view",
      "type": "function"
    },
    {
      "inputs": [],
      "name": "admin",
      "outputs": [
        {
          "internalType": "address",
          "name": "",
          "type": "address"
        }
      ],
      "stateMutability": "view",
      "type": "function"
    },
    {
      "inputs": [
        {
          "internalType": "address",
          "name": "user",
          "type": "address"
        }
      ],
      "name": "balanceOf",
      "outputs": [
        {
          "internalType": "uint256",
          "name": "",
          "type": "uint256"
        }
      ],
      "stateMutability": "view",
      "type": "function"
    },
    {
      "inputs": [],
      "name": "deposit",
      "outputs": [],
      "stateMutability": "payable",
      "type": "function"
    },
    {
      "inputs": [
        {
          "internalType": "uint256",
          "name": "",
          "type": "uint256"
        }
      ],
      "name": "depositors",
      "outputs": [
        {
          "internalType": "address",
          "name": "",
          "type": "address"
        }
      ],
      "stateMutability": "view",
      "type": "function"
    },
    {
      "inputs": [
        {
          "internalType": "address",
          "name": "",
          "type": "address"
        }
      ],
      "name": "deposits",
      "outputs": [
        {
          "internalType": "uint256",
          "name": "",
          "type": "uint256"
        }
      ],
      "stateMutability": "view",
      "type": "function"
    },
    {
      "inputs": [],
      "name": "gdaForwarder",
      "outputs": [
        {
          "internalType": "contract IGDAv1Forwarder",
          "name": "",
          "type": "address"
        }
      ],
      "stateMutability": "view",
      "type": "function"
    },
    {
      "inputs": [
        {
          "internalType": "bytes32",
          "name": "role",
          "type": "bytes32"
        }
      ],
      "name": "getRoleAdmin",
      "outputs": [
        {
          "internalType": "bytes32",
          "name": "",
          "type": "bytes32"
        }
      ],
      "stateMutability": "view",
      "type": "function"
    },
    {
      "inputs": [
        {
          "internalType": "bytes32",
          "name": "role",
          "type": "bytes32"
        },
        {
          "internalType": "address",
          "name": "account",
          "type": "address"
        }
      ],
      "name": "grantRole",
      "outputs": [],
      "stateMutability": "nonpayable",
      "type": "function"
    },
    {
      "inputs": [
        {
          "internalType": "bytes32",
          "name": "role",
          "type": "bytes32"
        },
        {
          "internalType": "address",
          "name": "account",
          "type": "address"
        }
      ],
      "name": "hasRole",
      "outputs": [
        {
          "internalType": "bool",
          "name": "",
          "type": "bool"
        }
      ],
      "stateMutability": "view",
      "type": "function"
    },
    {
      "inputs": [
        {
          "internalType": "contract IERC20",
          "name": "stremeCoin",
          "type": "address"
        },
        {
          "internalType": "address",
          "name": "pairedToken",
          "type": "address"
        },
        {
          "internalType": "address",
          "name": "deployer",
          "type": "address"
        }
      ],
      "name": "hook",
      "outputs": [],
      "stateMutability": "payable",
      "type": "function"
    },
    {
      "inputs": [
        {
          "internalType": "address",
          "name": "_token",
          "type": "address"
        },
        {
          "components": [
            {
              "internalType": "uint256",
              "name": "minDeposit",
              "type": "uint256"
            },
            {
              "internalType": "uint256",
              "name": "maxDeposit",
              "type": "uint256"
            },
            {
              "internalType": "uint256",
              "name": "totalCap",
              "type": "uint256"
            },
            {
              "internalType": "uint256",
              "name": "lockupDuration",
              "type": "uint256"
            },
            {
              "internalType": "uint256",
              "name": "vestingDuration",
              "type": "uint256"
            }
          ],
          "internalType": "struct StremePreBuyETH.PreBuySettings",
          "name": "_preBuySettings",
          "type": "tuple"
        },
        {
          "internalType": "address",
          "name": "_admin",
          "type": "address"
        }
      ],
      "name": "initialize",
      "outputs": [],
      "stateMutability": "nonpayable",
      "type": "function"
    },
    {
      "inputs": [],
      "name": "membersWithUnits",
      "outputs": [
        {
          "internalType": "address[]",
          "name": "",
          "type": "address[]"
        },
        {
          "internalType": "uint128[]",
          "name": "units",
          "type": "uint128[]"
        }
      ],
      "stateMutability": "view",
      "type": "function"
    },
    {
      "inputs": [],
      "name": "pause",
      "outputs": [],
      "stateMutability": "nonpayable",
      "type": "function"
    },
    {
      "inputs": [],
      "name": "paused",
      "outputs": [
        {
          "internalType": "bool",
          "name": "",
          "type": "bool"
        }
      ],
      "stateMutability": "view",
      "type": "function"
    },
    {
      "inputs": [],
      "name": "preBuySettings",
      "outputs": [
        {
          "internalType": "uint256",
          "name": "minDeposit",
          "type": "uint256"
        },
        {
          "internalType": "uint256",
          "name": "maxDeposit",
          "type": "uint256"
        },
        {
          "internalType": "uint256",
          "name": "totalCap",
          "type": "uint256"
        },
        {
          "internalType": "uint256",
          "name": "lockupDuration",
          "type": "uint256"
        },
        {
          "internalType": "uint256",
          "name": "vestingDuration",
          "type": "uint256"
        }
      ],
      "stateMutability": "view",
      "type": "function"
    },
    {
      "inputs": [
        {
          "internalType": "bytes32",
          "name": "role",
          "type": "bytes32"
        },
        {
          "internalType": "address",
          "name": "callerConfirmation",
          "type": "address"
        }
      ],
      "name": "renounceRole",
      "outputs": [],
      "stateMutability": "nonpayable",
      "type": "function"
    },
    {
      "inputs": [
        {
          "internalType": "bytes32",
          "name": "role",
          "type": "bytes32"
        },
        {
          "internalType": "address",
          "name": "account",
          "type": "address"
        }
      ],
      "name": "revokeRole",
      "outputs": [],
      "stateMutability": "nonpayable",
      "type": "function"
    },
    {
      "inputs": [],
      "name": "streme",
      "outputs": [
        {
          "internalType": "address",
          "name": "",
          "type": "address"
        }
      ],
      "stateMutability": "view",
      "type": "function"
    },
    {
      "inputs": [],
      "name": "stremeVault",
      "outputs": [
        {
          "internalType": "contract IStremeVault",
          "name": "",
          "type": "address"
        }
      ],
      "stateMutability": "view",
      "type": "function"
    },
    {
      "inputs": [
        {
          "internalType": "bytes4",
          "name": "interfaceId",
          "type": "bytes4"
        }
      ],
      "name": "supportsInterface",
      "outputs": [
        {
          "internalType": "bool",
          "name": "",
          "type": "bool"
        }
      ],
      "stateMutability": "view",
      "type": "function"
    },
    {
      "inputs": [],
      "name": "token",
      "outputs": [
        {
          "internalType": "address",
          "name": "",
          "type": "address"
        }
      ],
      "stateMutability": "view",
      "type": "function"
    },
    {
      "inputs": [],
      "name": "totalBalance",
      "outputs": [
        {
          "internalType": "uint256",
          "name": "",
          "type": "uint256"
        }
      ],
      "stateMutability": "view",
      "type": "function"
    },
    {
      "inputs": [],
      "name": "unpause",
      "outputs": [],
      "stateMutability": "nonpayable",
      "type": "function"
    },
    {
      "inputs": [
        {
          "internalType": "uint256",
          "name": "amount",
          "type": "uint256"
        }
      ],
      "name": "withdraw",
      "outputs": [],
      "stateMutability": "nonpayable",
      "type": "function"
    },
    {
      "inputs": [],
      "name": "zap",
      "outputs": [
        {
          "internalType": "contract IStremeZap",
          "name": "",
          "type": "address"
        }
      ],
      "stateMutability": "view",
      "type": "function"
    }
  ],
  "bytecode": "0x6080806040523460d2577ff0c57e16840df040f15088dc2f81fe391c3923bec73e23a9662efc9c229c6a005460ff8160401c1660c1576002600160401b03196001600160401b03821601605c575b604051611f9290816100d88239f35b6001600160401b0319166001600160401b039081177ff0c57e16840df040f15088dc2f81fe391c3923bec73e23a9662efc9c229c6a005581527fc7f505b2f371ae2175ee4913f4499e1f2633a7b5936321eed1cdaeb6115181d290602090a13880604d565b63f92ee8a960e01b60005260046000fd5b600080fdfe608080604052600436101561001357600080fd5b600090813560e01c90816301ffc9a71461170b57508063021a1abf146116dc57806302fb0c5e146116b65780631642469f14611676578063248a9ca314611621578063262d6152146115f25780632e1a7d4d146113315780632f2ff15d146112d157806336568abe146112735780633e288e4614610c455780633f4ba83a14610b86578063543d1dad146107bc5780635af8bf251461078d5780635c975abb1461074b57806370a08231146107245780638456cb591461068b57806391d148541461061f578063a217fddf14610603578063ad7a672f146105e7578063ce22970714610501578063d0e30db014610338578063d1152a1c14610309578063d547741f146102a0578063e4b2fb791461025d578063ec87621c14610222578063ecd00261146101e7578063f851a440146101c0578063fc0c546a1461019a5763fc7e286d1461016057600080fd5b346101975760206003193601126101975760406020916001600160a01b036101866117dc565b168152600783522054604051908152f35b80fd5b50346101975780600319360112610197576001600160a01b036020915416604051908152f35b503461019757806003193601126101975760206001600160a01b0360065416604051908152f35b503461019757806003193601126101975760206040517ffc425f2263d0df187444b70e47283d622c70181c5baebb1306a01edba1ce184c8152f35b503461019757806003193601126101975760206040517f241ecf16d79d0f8dbfb92cbc07fe17840425976cf0667f022fe9877caa831b088152f35b503461019757602060031936011261019757600435906008548210156101975760206001600160a01b0361029084611871565b90549060031b1c16604051908152f35b5034610197576040600319360112610197576103056004356102c06117ab565b906103006102fb826000527f02dd7bc7dec4dceedda775e58dd541e08a116c6c53815c0bd028192f7b62680060205260016040600020015490565b611a01565b611de1565b5080f35b5034610197578060031936011261019757602060405173da902c1f73160dade69ab3c3355110442359eb708152f35b50806003193601126101975761034c611eae565b60015434106104bd57600254341161047957338152600760205260408120541561041b575b338152600760205260408120805490348201809211610407575547600354106103c3576040513481527fe1fffcc4923d04b559f4d29a8bfc6cda04eb5b0d3c460751c2402c5c5cc9109c60203392a280f35b606460405162461bcd60e51b815260206004820152601260248201527f546f74616c2063617020657863656564656400000000000000000000000000006044820152fd5b602483634e487b7160e01b81526011600452fd5b60085468010000000000000000811015610465576104428160016104609301600855611871565b33906001600160a01b038084549260031b9316831b921b1916179055565b610371565b602482634e487b7160e01b81526041600452fd5b606460405162461bcd60e51b815260206004820152601d60248201527f416d6f756e74206d757374206265206c7465206d61784465706f7369740000006044820152fd5b606460405162461bcd60e51b815260206004820152601d60248201527f416d6f756e74206d75737420626520677465206d696e4465706f7369740000006044820152fd5b50346101975780600319360112610197576008549061051f82611905565b91815b81811061059c575050604051916105438361053c8161194a565b03846117f2565b60405191604083016040845284518091526020606085019501915b81811061057d5784806105798887838203602085015261182b565b0390f35b82516001600160a01b031686526020958601959092019160010161055e565b806001600160a01b036105b0600193611871565b90549060031b1c16845260076020526fffffffffffffffffffffffffffffffff6040852054166105e08287611936565b5201610522565b5034610197578060031936011261019757602047604051908152f35b5034610197578060031936011261019757602090604051908152f35b5034610197576040600319360112610197576001600160a01b0360406106436117ab565b9260043581527f02dd7bc7dec4dceedda775e58dd541e08a116c6c53815c0bd028192f7b626800602052209116600052602052602060ff604060002054166040519015158152f35b50346101975780600319360112610197576106a461198f565b6106ac611eae565b600160ff197fcd5ed15c6e187e77e9aee88184c21f4f2182ab5827cb3b7e07fbedcd63f033005416177fcd5ed15c6e187e77e9aee88184c21f4f2182ab5827cb3b7e07fbedcd63f03300557f62e78cea01bee320cd4e420270b5ea74000d11b0c9f74754ebdbfc544b05a2586020604051338152a180f35b50346101975760206003193601126101975760406020916001600160a01b036101866117dc565b5034610197578060031936011261019757602060ff7fcd5ed15c6e187e77e9aee88184c21f4f2182ab5827cb3b7e07fbedcd63f0330054166040519015158152f35b50346101975780600319360112610197576020604051736da13bde224a05a288748d857b9e7ddeffd1de088152f35b50346101975760e0600319360112610197576107d66117dc565b9060a07fffffffffffffffffffffffffffffffffffffffffffffffffffffffffffffffdc3601126101975760405160a0810181811067ffffffffffffffff821117610b72576040526024358152602081016044358152604082016064358152606083016084358152608084019160a435835260c435936001600160a01b038516809503610b6e577ff0c57e16840df040f15088dc2f81fe391c3923bec73e23a9662efc9c229c6a00549560ff8760401c16159667ffffffffffffffff811680159081610b66575b6001149081610b5c575b159081610b53575b50610b2b57879899816109dd9960017fffffffffffffffffffffffffffffffffffffffffffffffff00000000000000006001600160a01b039516177ff0c57e16840df040f15088dc2f81fe391c3923bec73e23a9662efc9c229c6a0055610ad6575b5061091a611f03565b610922611f03565b61092a611f03565b60ff197fcd5ed15c6e187e77e9aee88184c21f4f2182ab5827cb3b7e07fbedcd63f0330054167fcd5ed15c6e187e77e9aee88184c21f4f2182ab5827cb3b7e07fbedcd63f0330055167fffffffffffffffffffffffff00000000000000000000000000000000000000008a54161789555160015551600255516003555160045551600555807fffffffffffffffffffffffff00000000000000000000000000000000000000006006541617600655611a67565b506109f26001600160a01b0360065416611b19565b506109fb611be7565b50740100000000000000000000000000000000000000007fffffffffffffffffffffff00ffffffffffffffffffffffffffffffffffffffff6006541617600655610a425780f35b7fffffffffffffffffffffffffffffffffffffffffffffff00ffffffffffffffff7ff0c57e16840df040f15088dc2f81fe391c3923bec73e23a9662efc9c229c6a0054167ff0c57e16840df040f15088dc2f81fe391c3923bec73e23a9662efc9c229c6a00557fc7f505b2f371ae2175ee4913f4499e1f2633a7b5936321eed1cdaeb6115181d2602060405160018152a180f35b7fffffffffffffffffffffffffffffffffffffffffffffff0000000000000000001668010000000000000001177ff0c57e16840df040f15088dc2f81fe391c3923bec73e23a9662efc9c229c6a005538610911565b6004897ff92ee8a9000000000000000000000000000000000000000000000000000000008152fd5b905015386108af565b303b1591506108a7565b89915061089d565b8680fd5b602483634e487b7160e01b81526041600452fd5b5034610197578060031936011261019757610b9f61198f565b7fcd5ed15c6e187e77e9aee88184c21f4f2182ab5827cb3b7e07fbedcd63f033005460ff811615610c1d5760ff19167fcd5ed15c6e187e77e9aee88184c21f4f2182ab5827cb3b7e07fbedcd63f03300557f5db9ee0a495bf2e6ff9c91a7834c1ba4fdd244a5e8aa4e537bd38aeae4b073aa6020604051338152a180f35b6004827f8dfc202b000000000000000000000000000000000000000000000000000000008152fd5b506060600319360112610197576004356001600160a01b0381168091036110be57610c6e6117ab565b50610c776117c6565b507ffc425f2263d0df187444b70e47283d622c70181c5baebb1306a01edba1ce184c82527f02dd7bc7dec4dceedda775e58dd541e08a116c6c53815c0bd028192f7b626800602052604082206001600160a01b033316835260205260ff6040832054161561123c57600654610cf160ff8260a01c166118a2565b6001600160a01b0383541682036111f8577fffffffffffffffffffffff00ffffffffffffffffffffffffffffffffffffffff1660065547604051907fb60347a3000000000000000000000000000000000000000000000000000000008252826004830152806024830152836044830152836064830152602082608481847316a97d6924ff246dd57eb78ae993f91c23422f255af19182156111ed5784926111b5575b50604051917f70a08231000000000000000000000000000000000000000000000000000000008352306004840152602083602481875afa9283156110f6578593611181575b50821061113d576040517f095ea7b300000000000000000000000000000000000000000000000000000000815273da902c1f73160dade69ab3c3355110442359eb70600482015282602482015260208160448188885af180156110f657611105575b5060045460055473da902c1f73160dade69ab3c3355110442359eb703b1561110157604051917fdd83514e00000000000000000000000000000000000000000000000000000000835285600484015230602484015284604484015260648301526084820152848160a4818373da902c1f73160dade69ab3c3355110442359eb705af180156110f6576110e2575b50610ed3600854611905565b91845b85600854821015610f3b5750806001600160a01b03610ef6600193611871565b90549060031b1c1680885260076020526fffffffffffffffffffffffffffffffff604089205416610f278388611936565b528752600760205286604081205501610ed6565b838382888873da902c1f73160dade69ab3c3355110442359eb703b156110af5782610fbb91604051809381927fb0e3fe7400000000000000000000000000000000000000000000000000000000835286600484015230602484015260806044840152610fa96084840161194a565b9060031984830301606485015261182b565b03818373da902c1f73160dade69ab3c3355110442359eb705af19081156110d75783916110c2575b505073da902c1f73160dade69ab3c3355110442359eb703b156110be57604051907fb1cc4944000000000000000000000000000000000000000000000000000000008252600482015230602482015230604482015281606482015281816084818373da902c1f73160dade69ab3c3355110442359eb705af180156110b35761109a575b507fa309b3f065b3593ee9ba1f429e382069e2170dacdf1d99fa25fc8358fb12a8a46040848482519182526020820152a180f35b816110a4916117f2565b6110af578284611066565b8280fd5b6040513d84823e3d90fd5b5080fd5b816110cc916117f2565b6110be578186610fe3565b6040513d85823e3d90fd5b846110ef919592956117f2565b9238610ec7565b6040513d87823e3d90fd5b8580fd5b6020813d602011611135575b8161111e602093836117f2565b8101031261113157518015158114610e3a575b8480fd5b3d9150611111565b606460405162461bcd60e51b815260206004820152601c60248201527f496e73756666696369656e7420746f6b656e73207265636569766564000000006044820152fd5b9092506020813d6020116111ad575b8161119d602093836117f2565b8101031261113157519138610dd8565b3d9150611190565b9091506020813d6020116111e5575b816111d1602093836117f2565b810103126111e157519038610d93565b8380fd5b3d91506111c4565b6040513d86823e3d90fd5b606460405162461bcd60e51b815260206004820152600b60248201527f77726f6e6720746f6b656e0000000000000000000000000000000000000000006044820152fd5b60448263e2517d3f60e01b8152336004527ffc425f2263d0df187444b70e47283d622c70181c5baebb1306a01edba1ce184c602452fd5b50346101975760406003193601126101975761128d6117ab565b336001600160a01b038216036112a95761030590600435611de1565b6004827f6697b232000000000000000000000000000000000000000000000000000000008152fd5b5034610197576040600319360112610197576103056004356112f16117ab565b9061132c6102fb826000527f02dd7bc7dec4dceedda775e58dd541e08a116c6c53815c0bd028192f7b62680060205260016040600020015490565b611d09565b50346101975760206003193601126101975760043561135760ff60065460a01c166118a2565b80156115ae5733825260076020528060408320541061156a573382526007602052604082208054908282039182116114cd575533825260076020526040822054158015611552575b156114e8573382526007602052604082205415611400575b81808080843382f1156113f3576040519081527f884edad9ce6fa2440d8a54cc123490eb96d2768479d49ff9c7366125a942436460203392a280f35b50604051903d90823e3d90fd5b815b600854808210156114e1576001600160a01b0361141e83611871565b905460039190911b1c1633146114375750600101611402565b60001981019081116114cd57906114696001600160a01b0361145b61148894611871565b90549060031b1c1691611871565b9091906001600160a01b038084549260031b9316831b921b1916179055565b60085480156114b9576000190161149e81611871565b6001600160a01b0382549160031b1b191690556008556113b7565b602483634e487b7160e01b81526031600452fd5b602484634e487b7160e01b81526011600452fd5b50506113b7565b608460405162461bcd60e51b815260206004820152602660248201527f42616c616e6365206d75737420626520677465206d696e4465706f736974206f60448201527f72207a65726f00000000000000000000000000000000000000000000000000006064820152fd5b5033825260076020526040822054600154111561139f565b606460405162461bcd60e51b815260206004820152601460248201527f496e73756666696369656e742062616c616e63650000000000000000000000006044820152fd5b606460405162461bcd60e51b815260206004820152602060248201527f416d6f756e74206d7573742062652067726561746572207468616e207a65726f6044820152fd5b503461019757806003193601126101975760206040517316a97d6924ff246dd57eb78ae993f91c23422f258152f35b503461019757602060031936011261019757602061166e6004356000527f02dd7bc7dec4dceedda775e58dd541e08a116c6c53815c0bd028192f7b62680060205260016040600020015490565b604051908152f35b503461019757806003193601126101975760a060015460025460035460045490600554926040519485526020850152604084015260608301526080820152f35b5034610197578060031936011261019757602060ff60065460a01c166040519015158152f35b50346101975780600319360112610197576020604051735797a398fe34260f81be65908da364cc18fbc3608152f35b9050346110be5760206003193601126110be576004357fffffffff0000000000000000000000000000000000000000000000000000000081168091036110af57602092507f7965db0b000000000000000000000000000000000000000000000000000000008114908115611781575b5015158152f35b7f01ffc9a7000000000000000000000000000000000000000000000000000000009150143861177a565b602435906001600160a01b03821682036117c157565b600080fd5b604435906001600160a01b03821682036117c157565b600435906001600160a01b03821682036117c157565b90601f601f19910116810190811067ffffffffffffffff82111761181557604052565b634e487b7160e01b600052604160045260246000fd5b906020808351928381520192019060005b8181106118495750505090565b82516fffffffffffffffffffffffffffffffff1684526020938401939092019160010161183c565b60085481101561188c57600860005260206000200190600090565b634e487b7160e01b600052603260045260246000fd5b156118a957565b606460405162461bcd60e51b815260206004820152601560248201527f5072652d627579206973206e6f742061637469766500000000000000000000006044820152fd5b67ffffffffffffffff81116118155760051b60200190565b9061190f826118ed565b61191c60405191826117f2565b828152601f1961192c82946118ed565b0190602036910137565b805182101561188c5760209160051b010190565b6020600854918281520190600860005260206000209060005b8181106119705750505090565b82546001600160a01b0316845260209093019260019283019201611963565b3360009081527f06484cc59dc38e4f67c31122333a17ca81b3ca18cdf02bfc298072fa52b0316a602052604090205460ff16156119c857565b63e2517d3f60e01b600052336004527f241ecf16d79d0f8dbfb92cbc07fe17840425976cf0667f022fe9877caa831b0860245260446000fd5b806000527f02dd7bc7dec4dceedda775e58dd541e08a116c6c53815c0bd028192f7b62680060205260406000206001600160a01b03331660005260205260ff6040600020541615611a4f5750565b63e2517d3f60e01b6000523360045260245260446000fd5b6001600160a01b03811660009081527fb7db2dd08fcb62d0c9e08c51941cae53c267786a0b75803fb7960902fc8ef97d602052604090205460ff16611b13576001600160a01b031660008181527fb7db2dd08fcb62d0c9e08c51941cae53c267786a0b75803fb7960902fc8ef97d60205260408120805460ff191660011790553391907f2f8788117e7eff1d82e926ec794901d17c78024a50270940304540a733656f0d8180a4600190565b50600090565b6001600160a01b03811660009081527f06484cc59dc38e4f67c31122333a17ca81b3ca18cdf02bfc298072fa52b0316a602052604090205460ff16611b13576001600160a01b031660008181527f06484cc59dc38e4f67c31122333a17ca81b3ca18cdf02bfc298072fa52b0316a60205260408120805460ff191660011790553391907f241ecf16d79d0f8dbfb92cbc07fe17840425976cf0667f022fe9877caa831b08907f2f8788117e7eff1d82e926ec794901d17c78024a50270940304540a733656f0d9080a4600190565b735797a398fe34260f81be65908da364cc18fbc3606000527f8f7e9a8734279607aeaac474f24949ddc99eae25c0da72edcf5ad21022be2c9e6020527f63e82417b1fc8b7e394cc603710271e4772d773e2d24abc6d071ba5f093946865460ff16611d0457735797a398fe34260f81be65908da364cc18fbc36060008181527f8f7e9a8734279607aeaac474f24949ddc99eae25c0da72edcf5ad21022be2c9e6020527f63e82417b1fc8b7e394cc603710271e4772d773e2d24abc6d071ba5f09394686805460ff191660011790553391907ffc425f2263d0df187444b70e47283d622c70181c5baebb1306a01edba1ce184c907f2f8788117e7eff1d82e926ec794901d17c78024a50270940304540a733656f0d9080a4600190565b600090565b806000527f02dd7bc7dec4dceedda775e58dd541e08a116c6c53815c0bd028192f7b62680060205260406000206001600160a01b03831660005260205260ff6040600020541615600014611dda57806000527f02dd7bc7dec4dceedda775e58dd541e08a116c6c53815c0bd028192f7b62680060205260406000206001600160a01b0383166000526020526040600020600160ff198254161790556001600160a01b03339216907f2f8788117e7eff1d82e926ec794901d17c78024a50270940304540a733656f0d600080a4600190565b5050600090565b806000527f02dd7bc7dec4dceedda775e58dd541e08a116c6c53815c0bd028192f7b62680060205260406000206001600160a01b03831660005260205260ff60406000205416600014611dda57806000527f02dd7bc7dec4dceedda775e58dd541e08a116c6c53815c0bd028192f7b62680060205260406000206001600160a01b038316600052602052604060002060ff1981541690556001600160a01b03339216907ff6391f5c32d9c69d2a47ea670b442974b53935d1edc7fd64eb21e047a839171b600080a4600190565b60ff7fcd5ed15c6e187e77e9aee88184c21f4f2182ab5827cb3b7e07fbedcd63f033005416611ed957565b7fd93c06650000000000000000000000000000000000000000000000000000000060005260046000fd5b60ff7ff0c57e16840df040f15088dc2f81fe391c3923bec73e23a9662efc9c229c6a005460401c1615611f3257565b7fd7e6bcf80000000000000000000000000000000000000000000000000000000060005260046000fdfea264697066735822122047d2e1bf3394adc6cd608dc2d615bd04e09be73b922db369e2c0a7d27a6c308564736f6c634300081a0033",
  "linkReferences": {},
  "deployedLinkReferences": {}
}