{
  "_format": "hh-sol-artifact-1",
  "contractName": "StremeStakedTokenRegistry",
  "sourceName": "contracts/extras/StremeStakedTokenRegistry.sol",
  "abi": [
    {
      "inputs": [],
      "stateMutability": "nonpayable",
      "type": "constructor"
    },
    {
      "inputs": [],
      "name": "AccessControlBadConfirmation",
      "type": "error"
    },
    {
      "inputs": [
        {
          "internalType": "address",
          "name": "account",
          "type": "address"
        },
        {
          "internalType": "bytes32",
          "name": "neededRole",
          "type": "bytes32"
        }
      ],
      "name": "AccessControlUnauthorizedAccount",
      "type": "error"
    },
    {
      "anonymous": false,
      "inputs": [
        {
          "indexed": true,
          "internalType": "bytes32",
          "name": "role",
          "type": "bytes32"
        },
        {
          "indexed": true,
          "internalType": "bytes32",
          "name": "previousAdminRole",
          "type": "bytes32"
        },
        {
          "indexed": true,
          "internalType": "bytes32",
          "name": "newAdminRole",
          "type": "bytes32"
        }
      ],
      "name": "RoleAdminChanged",
      "type": "event"
    },
    {
      "anonymous": false,
      "inputs": [
        {
          "indexed": true,
          "internalType": "bytes32",
          "name": "role",
          "type": "bytes32"
        },
        {
          "indexed": true,
          "internalType": "address",
          "name": "account",
          "type": "address"
        },
        {
          "indexed": true,
          "internalType": "address",
          "name": "sender",
          "type": "address"
        }
      ],
      "name": "RoleGranted",
      "type": "event"
    },
    {
      "anonymous": false,
      "inputs": [
        {
          "indexed": true,
          "internalType": "bytes32",
          "name": "role",
          "type": "bytes32"
        },
        {
          "indexed": true,
          "internalType": "address",
          "name": "account",
          "type": "address"
        },
        {
          "indexed": true,
          "internalType": "address",
          "name": "sender",
          "type": "address"
        }
      ],
      "name": "RoleRevoked",
      "type": "event"
    },
    {
      "inputs": [],
      "name": "DEFAULT_ADMIN_ROLE",
      "outputs": [
        {
          "internalType": "bytes32",
          "name": "",
          "type": "bytes32"
        }
      ],
      "stateMutability": "view",
      "type": "function"
    },
    {
      "inputs": [],
      "name": "MANAGER_ROLE",
      "outputs": [
        {
          "internalType": "bytes32",
          "name": "",
          "type": "bytes32"
        }
      ],
      "stateMutability": "view",
      "type": "function"
    },
    {
      "inputs": [
        {
          "internalType": "address",
          "name": "token",
          "type": "address"
        },
        {
          "internalType": "address",
          "name": "stakingContract",
          "type": "address"
        }
      ],
      "name": "addStakingContract",
      "outputs": [],
      "stateMutability": "nonpayable",
      "type": "function"
    },
    {
      "inputs": [
        {
          "internalType": "bytes32",
          "name": "role",
          "type": "bytes32"
        }
      ],
      "name": "getRoleAdmin",
      "outputs": [
        {
          "internalType": "bytes32",
          "name": "",
          "type": "bytes32"
        }
      ],
      "stateMutability": "view",
      "type": "function"
    },
    {
      "inputs": [
        {
          "internalType": "bytes32",
          "name": "role",
          "type": "bytes32"
        },
        {
          "internalType": "address",
          "name": "account",
          "type": "address"
        }
      ],
      "name": "grantRole",
      "outputs": [],
      "stateMutability": "nonpayable",
      "type": "function"
    },
    {
      "inputs": [
        {
          "internalType": "bytes32",
          "name": "role",
          "type": "bytes32"
        },
        {
          "internalType": "address",
          "name": "account",
          "type": "address"
        }
      ],
      "name": "hasRole",
      "outputs": [
        {
          "internalType": "bool",
          "name": "",
          "type": "bool"
        }
      ],
      "stateMutability": "view",
      "type": "function"
    },
    {
      "inputs": [
        {
          "internalType": "address",
          "name": "token",
          "type": "address"
        }
      ],
      "name": "predictStakedTokenAddress",
      "outputs": [
        {
          "internalType": "address",
          "name": "stakedTokenAddress",
          "type": "address"
        }
      ],
      "stateMutability": "view",
      "type": "function"
    },
    {
      "inputs": [
        {
          "internalType": "bytes32",
          "name": "role",
          "type": "bytes32"
        },
        {
          "internalType": "address",
          "name": "callerConfirmation",
          "type": "address"
        }
      ],
      "name": "renounceRole",
      "outputs": [],
      "stateMutability": "nonpayable",
      "type": "function"
    },
    {
      "inputs": [
        {
          "internalType": "bytes32",
          "name": "role",
          "type": "bytes32"
        },
        {
          "internalType": "address",
          "name": "account",
          "type": "address"
        }
      ],
      "name": "revokeRole",
      "outputs": [],
      "stateMutability": "nonpayable",
      "type": "function"
    },
    {
      "inputs": [
        {
          "internalType": "address",
          "name": "",
          "type": "address"
        }
      ],
      "name": "stakingContracts",
      "outputs": [
        {
          "internalType": "address",
          "name": "",
          "type": "address"
        }
      ],
      "stateMutability": "view",
      "type": "function"
    },
    {
      "inputs": [
        {
          "internalType": "bytes4",
          "name": "interfaceId",
          "type": "bytes4"
        }
      ],
      "name": "supportsInterface",
      "outputs": [
        {
          "internalType": "bool",
          "name": "",
          "type": "bool"
        }
      ],
      "stateMutability": "view",
      "type": "function"
    }
  ],
  "bytecode": "0x60806040523461027a576100123361027f565b5061001c336102fb565b5060016020527fc724c267a38f2359044ad686caf757b88039bcf229c7676254eab12f949deec980546001600160a01b03199081167393419f1c0f73b278c73085c17407794a6580deff179091557fefadfa32856db060068f16006da44245f2e3a79141e88dfc3fe3bb4181f5f9738054821673291c99235270ea41499f243b1a8a43ad5c62e28c1790557f61aae0e66cdeb1c3230f6cc58a7288ab18a795061543314b8902cfffeb694c9280548216735a4aa653b98ff91923d1c20797e698cc0ed661081790557fc16bd603a485f0b85954313c66ed547d814a01221bd826c6cab88684459421c78054821673a1e0df593aa51f933b777aa0027ee9dae29ed2ac1790557f124e8983578f3b77213346baec9452bcec6f49848f14833acc6a151720afc17f80548216734d2b5181e22210da785a505d3d01dee0fa3ccb921790557f48afb42a61dd2c02f8b998e9f7df53221cd684b86bc9dbce9d72dbdf430cbcd48054821673e4770d660689175de6b79fdf28725b8c46d29e451790557f587621a176eb16f44afc8dbe8d0a1a4a8f6ba030c48ffeef82997eaec68c91958054821673a16aa27bf0dd11eaae9fd0b33697822a5a59ac871790557f863f1625592b8c6c1e1f8dc6aa736cf2ab092719c2b7ba9af8a8c1c5c12e3a83805482167377bba52a63ec2c9f45add4a2d52e090d1258bc091790557311767e3f04673014b631e0ca2a768a10e9efc8666000527f18149d3da00ad6a01b7778f0abbb136ad6b3ae1d6a812526909ea7f65944a6b480549091167342db39a6be8c0db5eec17ddbcab5200b4edc4bf517905560405161062290816103948239f35b600080fd5b6001600160a01b03811660009081526000805160206109f6833981519152602052604090205460ff166102f5576001600160a01b031660008181526000805160206109f683398151915260205260408120805460ff191660011790553391906000805160206109b68339815191528180a4600190565b50600090565b6001600160a01b03811660009081526000805160206109d6833981519152602052604090205460ff166102f5576001600160a01b031660008181526000805160206109d683398151915260205260408120805460ff191660011790553391907f241ecf16d79d0f8dbfb92cbc07fe17840425976cf0667f022fe9877caa831b08906000805160206109b68339815191529080a460019056fe608080604052600436101561001357600080fd5b60003560e01c90816301ffc9a714610399575080630881dd441461013b578063248a9ca3146103645780632f2ff15d1461032457806336568abe146102c557806344e4d1d8146101cc57806391d148541461017e5780639bc181d21461013b578063a217fddf1461011f578063d547741f146100d85763ec87621c1461009857600080fd5b346100d35760006003193601126100d35760206040517f241ecf16d79d0f8dbfb92cbc07fe17840425976cf0667f022fe9877caa831b088152f35b600080fd5b346100d35760406003193601126100d35761011d6004356100f761044d565b9061011861011382600052600060205260016040600020015490565b610463565b61055d565b005b346100d35760006003193601126100d357602060405160008152f35b346100d35760206003193601126100d3576001600160a01b0361015c610437565b16600052600160205260206001600160a01b0360406000205416604051908152f35b346100d35760406003193601126100d35761019761044d565b60043560005260006020526001600160a01b0360406000209116600052602052602060ff604060002054166040519015158152f35b346100d35760406003193601126100d3576101e5610437565b6101ed61044d565b3360009081527fe84508f2c7fa9c351146748b3025cb78b45df37d868e48c6a75102fecdeee645602052604090205490919060ff1615610273576001600160a01b031660005260016020526001600160a01b03604060002091167fffffffffffffffffffffffff0000000000000000000000000000000000000000825416179055600080f35b7fe2517d3f00000000000000000000000000000000000000000000000000000000600052336004527f241ecf16d79d0f8dbfb92cbc07fe17840425976cf0667f022fe9877caa831b0860245260446000fd5b346100d35760406003193601126100d3576102de61044d565b336001600160a01b038216036102fa5761011d9060043561055d565b7f6697b2320000000000000000000000000000000000000000000000000000000060005260046000fd5b346100d35760406003193601126100d35761011d60043561034361044d565b9061035f61011382600052600060205260016040600020015490565b6104c3565b346100d35760206003193601126100d3576020610391600435600052600060205260016040600020015490565b604051908152f35b346100d35760206003193601126100d357600435907fffffffff0000000000000000000000000000000000000000000000000000000082168092036100d357817f7965db0b000000000000000000000000000000000000000000000000000000006020931490811561040d575b5015158152f35b7f01ffc9a70000000000000000000000000000000000000000000000000000000091501483610406565b600435906001600160a01b03821682036100d357565b602435906001600160a01b03821682036100d357565b80600052600060205260406000206001600160a01b03331660005260205260ff60406000205416156104925750565b7fe2517d3f000000000000000000000000000000000000000000000000000000006000523360045260245260446000fd5b80600052600060205260406000206001600160a01b03831660005260205260ff60406000205416156000146105565780600052600060205260406000206001600160a01b0383166000526020526040600020600160ff198254161790556001600160a01b03339216907f2f8788117e7eff1d82e926ec794901d17c78024a50270940304540a733656f0d600080a4600190565b5050600090565b80600052600060205260406000206001600160a01b03831660005260205260ff604060002054166000146105565780600052600060205260406000206001600160a01b038316600052602052604060002060ff1981541690556001600160a01b03339216907ff6391f5c32d9c69d2a47ea670b442974b53935d1edc7fd64eb21e047a839171b600080a460019056fea2646970667358221220f225aefd233891bfcf33064a1fb47b8cf3ebb13d8a4ba66267e348b64e5312ae64736f6c634300081a00332f8788117e7eff1d82e926ec794901d17c78024a50270940304540a733656f0de84508f2c7fa9c351146748b3025cb78b45df37d868e48c6a75102fecdeee645ad3228b676f7d3cd4284a5443f17f1962b36e491b30a40b2405849e597ba5fb5",
  "linkReferences": {},
  "deployedLinkReferences": {}
}